:020000040800F2
:10000000E8040020C1010008EB170008D917000818
:10001000E9170008D50200083D2000080000000094
:10002000000000000000000000000000A11A00080D
:100030001303000800000000ED170008A31A0008D1
:10004000DB010008DB010008DB010008DB01000820
:10005000DB010008DB010008DB010008DB01000810
:10006000DB010008DB010008DB010008DB01000800
:10007000DB010008DB010008DB010008DB010008F0
:10008000DB010008DB010008DB010008DB010008E0
:10009000DB010008DB010008DB010008DB010008D0
:1000A000DB010008DB010008DB010008DB010008C0
:1000B000DB010008DB010008DB010008DB010008B0
:1000C000DB010008DB010008DB010008DB010008A0
:1000D000DB010008DB010008DB010008DB01000890
:1000E000DB010008DB010008DB010008DB01000880
:1000F000DB010008DB010008DB010008DB01000870
:10010000DB010008DB010008DB010008DB0100085F
:10011000DB010008DB010008DB010008DB0100084F
:10012000DB010008DB010008DB010008DB0100083F
:10013000DB010008DB010008DB010008DB0100082F
:10014000DB010008DB010008DB010008DB0100081F
:10015000DB010008D9020008DD170008DB010008F8
:10016000DB010008DB010008DB010008DB010008FF
:10017000DB010008DB010008DB010008DB010008EF
:10018000DB010008DB010008DB010008DB010008DF
:10019000DB010008DB010008DB010008DB010008CF
:1001A000DB010008DB010008DB010008DFF80CD0F0
:1001B00000F07EF8004800477D200008E804002099
:1001C0000648804706480047FEE7FEE7FEE7FEE7F1
:1001D000FEE7FEE7FEE7FEE7FEE7FEE7091B000895
:1001E000AD0100082DE9F05F0546002092469B46D0
:1001F00088460646814640241BE02846414647463D
:10020000224600F044F853465A46C01A914110D392
:1002100011461846224600F02BF82D1A67EB01080C
:100220004F4622460120002100F022F817EB00097A
:100230004E41201EA4F10104DFDC484631462A4627
:10024000434600F000B830BCBDE8C09FD2B201E028
:1002500000F8012B491EFBD270470022F6E710B5CB
:1002600013460A4604461946FFF7F0FF204610BD24
:10027000202A04DB203A00FA02F100207047914066
:10028000C2F1200320FA03F3194390407047202A5B
:1002900004DB203A21FA02F00021704721FA02F330
:1002A000D040C2F120029140084319467047000037
:1002B000064C074D06E0E06840F0010394E80700B3
:1002C00098471034AC42F6D3FFF774FF4C21000876
:1002D0006C210008FEE70000014800F043B8000070
:1002E0009C00002030B590F8444004F01C05012427
:1002F000AC40056C6C60046863608368102B036815
:1003000003D099600068C26030BD9A600068C16027
:1003100030BD7047704710B590F8251000240229B1
:1003200003D00421C16301241AE001680A6822F0A5
:100330000E020A6001680A6822F001020A6090F861
:100340004410036C01F01C02012101FA02F25A6010
:1003500080F82510002180F82410816B01B18847B6
:10036000204610BDF0B4016C0C6801680D6890F86F
:10037000442002F01C06042202FA06F3234211D0A4
:100380006B070FD50B689B0603D40B6823F004039F
:100390000B6090F8441001F01C018A40016C4A6027
:1003A000016B1DE0022303FA06F727424FF0000C11
:1003B0004FF0010218D0AF0716D50C68A40605D47B
:1003C0000C6824F00A040C6080F8252090F8441092
:1003D00001F01C018B40016C4B6080F824C0C16AA5
:1003E00000291AD0F0BC08470823B340234214D098
:1003F0002B0712D50B6823F00E030B6090F8441006
:10040000036C01F01C0102FA01F15960C26380F82B
:10041000252080F824C0416BE2E7F0BC7047000063
:1004200070B568B12B4C036814212B4AA34209D242
:100430002A4C1C44B4FBF1F18900C0E910210BE007
:10044000012070BD234C64421C44B4FBF1F18900CF
:100450004164204908390164022180F825101C6894
:1004600047F6F0718C43D0E902152943D0E90456D0
:100470003543294385692943C5692943056A2943C9
:10048000214319608168B1F5804F19D0036C0F21A9
:10049000934202D152F8A83F02E00E4AA0321368FC
:1004A00090F8444004F01C04A1408B43136090F882
:1004B0004430416803F01C039940136819431160EC
:1004C0000021C163012280F8252080F8241008460D
:1004D00070BD00000804024000000240F8FFFDBFAC
:1004E00070B5044690F82400002501280CD00120A6
:1004F00084F8240094F825600020012E06D084F8AA
:1005000024000225284670BD022070BD022684F812
:100510002560E0632068066826F001060660204634
:10052000FFF7E0FE206B00282068016802D041F050
:100530000E0106E021F0040101602068016841F02D
:100540000A0101602068016841F001010160D9E7FA
:1005500070B5044600F0EEF80546601C02D0044871
:100560004068044400F0E6F8401BA042FAD370BD96
:10057000000000202DE9F84FDFF888B100234FF08C
:10058000010C4FF0030A4FF00F090BF1040EB1E01C
:100590000CFA03F632406FD04C68022C01D0122CBA
:1005A00011D1DC0800EB84073C6A5D07ED0E09FA07
:1005B00005F824EA0804D1F8108008FA05F848EA9A
:1005C0000408C7F8208007685D0091F804800AFAE3
:1005D00005F408F00308A74308FA05F848EA0708F5
:1005E000C0F800804F68012F05D0022F03D0112FD3
:1005F00001D0122F10D1D0F80880CF6828EA040863
:10060000AF4047EA080787604768B7430E79C6F3EB
:1006100000169E403E434660C668A6438C68AC40C8
:100620003443C4604C68E40063D5374C256E45F014
:1006300001052566246E23F0030504F001040094EF
:10064000324C2F19BD689C07260F09FA06F4A54302
:10065000B0F1904F04D02E4CA04203D1012421E0F0
:1006600000241FE02B4CA04201D102241AE02A4CA6
:10067000A04202D1032415E03BE0284CA04201D166
:1006800004240FE0264CA04201D105240AE0254CA9
:10069000A04201D1062405E0234CA04201D1072449
:1006A00000E00824B4402C43BC60DBF800405D4609
:1006B0004E689443F60300D514432C60DEF80040E6
:1006C00075464E689443B60300D514432C600D4D17
:1006D00008352C684E689443F60200D514432C600C
:1006E000084D0C352C684E689443B60200D514436F
:1006F0002C605B1C0A6832FA03F47FF449AF00F007
:1007000015B8000000040140001002400000014044
:100710000004004800080048000C00480010004891
:100720000014004800180048001C004818BCBDE830
:10073000E08F000001488068704700000000002042
:1007400002488168426811448160704700000020BF
:1007500010B50024032000F071F8002000F008F824
:1007600008B1012401E000F025F8204610BD00008A
:1007700070B50E4E05460024706898B14FF47A713A
:10078000B1FBF0F00A490968B1FBF0F000F02CFE73
:1007900040B9102D06D200222946501E00F02EF836
:1007A000356000E00124204670BD000000000020FC
:1007B0000C000020094808B5016E41F001010166F6
:1007C000016E01F001010091816D41F08051816560
:1007D000806D00F08050009008BD000000100240C5
:1007E000002809DB00F01F02012191404009800030
:1007F00000F1E020C0F8001170470000F0B40E4B8B
:100800001B680C46C3F30223C3F10705042D00D96E
:100810000425191D072901D2002300E0DB1E012653
:1008200006FA05F1491E214099409E40761E164069
:100830003143F0BC01F003BC0CED00E0064900F0D0
:10084000070208684FF6FF03184040EA0220034AF7
:1008500010430860704700000CED00E00000FA054E
:100860001649B0F5007F0868C0F3412009D002287E
:1008700005D0086820F4C06040F480600860002063
:1008800070470128FBD0086820F4C06040F4007075
:1008900008600B483222006850430A4AB0FBF2F06D
:1008A000401C00E0401E4A69520501D50028F9D1DC
:1008B00048694005E3D50320704700000070004000
:1008C0000C00002040420F000248416841F40071D2
:1008D00041607047007000400248006800F4C0604A
:1008E00070470000007000402DE9F84F04460027D3
:1008F0000088EC4D3E46010504F1200B1DD5A06E8D
:1009000078B1B0F5800F11D0B0F5000F04D0B0F57C
:10091000400F22D001270FE0E86840F48030E86003
:100920001BE00021201D00F063FF03E0002158467A
:1009300000F0F4FF070010D03E462088C00426D502
:10094000E06EC0B1B0F1807F1AD0B0F1007F0DD061
:10095000B0F1407F19D0012718E0D5F88800A16ECA
:1009600020F440000843C5F88800E6E7E86840F452
:100970008030E86009E00021201D00F039FF03E02D
:100980000021584600F0CAFF0746F7B13E462068EE
:1009900080033AD5A86D4FF00008C00009D4A86DB7
:1009A00040F08050A865A86D4FF0010800F080501D
:1009B0000090DFF8F4A2DAF8001041F48071CAF870
:1009C0000010FFF7B7FE814610E0D5F88800E16E11
:1009D00020F040700843C5F88800D8E7FFF7AAFE6A
:1009E000A0EB0900022801D9032705E0DAF800008E
:1009F000C005F3D5002F7CD04FEA0706B8F1000FF1
:100A000003D0A86D20F08050A8652078C00707D0DB
:100A1000D5F88800A16B20F003000843C5F88800D2
:100A20002078800707D5D5F88800E16B20F00C000E
:100A30000843C5F888002078400707D5D5F8880016
:100A4000216C20F030000843C5F8880020780007AA
:100A500007D5D5F88800616C20F0C0000843C5F8C0
:100A600088002078C00607D5D5F88800A16C20F44E
:100A700040700843C5F888002078800607D5D5F86F
:100A80008800E16C20F440600843C5F888002088A5
:100A9000800507D5D5F88800216E20F44020084352
:100AA000C5F888002088400507D5D5F88800616E14
:100AB00020F440100843C5F888002078400607D588
:100AC000D5F88800216D20F440500843C5F888000F
:100AD0002078000607D5D5F88800616D20F44040E5
:100AE0000843C5F888002088C00509D5D5F88800D6
:100AF00000E027E0A16D20F440300843C5F88800ED
:100B00002068C00207D5D5F89C00E16D20F00300F5
:100B10000843C5F89C0020884FF0006780044FF020
:100B2000806850D5D5F88800216F20F040600843D8
:100B3000C5F88800206FB8423DD1E86840F48010C5
:100B4000E86040E0D5F8900010F4407015D0D4F87B
:100B50008810814211D0D5F89000D5F8901020F47B
:100B6000407041F48031C5F89010D5F8901021F410
:100B70008031C5F89010C5F89000C00711D0FFF77C
:100B8000D9FD074641F2883907E000BFFFF7D2FDE3
:100B9000C11B494501D9032630E7D5F890008007ED
:100BA000F4D5D5F89000D4F8881020F440700843AC
:100BB000C5F8900022E7404505D10121201D00F035
:100BC00017FE00B106462068000317D5D5F8880047
:100BD000616F20F040600843C5F88800606FB8423C
:100BE00004D1E86840F48010E86007E0404505D192
:100BF0000121201D00F0FCFD00B1064620684003E5
:100C000017D5D5F88800A16F20F040600843C5F8DB
:100C10008800A06FB84204D1E86840F48010E86012
:100C200007E0404505D10121201D00F0E1FD00B1A4
:100C30000646208840041AD5D5F88800E16F20F0D8
:100C400040500843C5F88800E06FB0F1805F03D0E2
:100C5000B0F1005F05D00AE00221201D00F0C8FDC0
:100C600003E00221584600F059FE00B106462088F4
:100C7000000408D5D5F88800D4F8801020F0804012
:100C80000843C5F888002068C00307D555F8880FC9
:100C9000D4F8841020F0004008432860304600F06B
:100CA00005B80000001002400070004018BCBDE80C
:100CB000E08F00002DE9F0470F46050058D0404E68
:100CC000306800F00700B84209D2306820F0070011
:100CD00038433060306800F00700B84248D12878C7
:100CE000384CC0072CD06868032811D0022812D0D5
:100CF000216898B1490500293ADAA16821F0030179
:100D00000143A160FFF716FD804641F2883910E0EB
:100D100021688901EFE721688903ECE78907EAE7A1
:100D2000FFF708FDA0EB0801494502D90320BDE803
:100D3000F087A068696800F00C00B0EB810FEFD17C
:100D40002878800705D5A068A96820F0F00008433E
:100D5000A060306800F00700B8420BD9306820F07E
:100D6000070038433060306800F00700B84201D017
:100D70000120DCE72878400705D5A068E96820F461
:100D8000E0600843A0602878000706D5A0682969BC
:100D900020F4605040EAC100A06000F03FF8A16874
:100DA000094AC1F30311515C01F01F01C840074912
:100DB000086007480068BDE8F047FFF7D9BC0000AD
:100DC0000020024000100240042100080C00002016
:100DD000000000200548064900688968054AC1F3FB
:100DE0000221515C01F01F01C84070470C00002037
:100DF000001002404421000805480649006889683F
:100E0000054AC1F3C221515C01F01F01C84070477F
:100E10000C000020001002404421000870B5254954
:100E2000002318468A68CC6812F00C0204F003060E
:100E3000214C4FEA640509D00C2A05D0042A32D08F
:100E4000082A00D1284670BD012E10D10B681B075F
:100E500004D4D1F89430C3F3032302E00B68C3F346
:100E60000313164E56F82330DAB10C2AEBD1C868BA
:100E700000F00300022818D0032818D01846CA68CA
:100E8000CB68C2F30212C3F306234343521CB3FBE5
:100E9000F2F2C868C0F34160401C4000B2FBF0F0C1
:100EA00070BD184670BD204670BD2046E7E7284655
:100EB000E5E70000001002400024F40014210008BF
:100EC0002DE9F84304006ED0F84DA86800F00C0638
:100ED000E86800F003072078C00663D576B10C2ED1
:100EE00001D1012F0AD0A0690028286878D040F0ED
:100EF00001002860FFF71EFC80465BE02868800741
:100F000002D5A0690028DED0216A2868000703D531
:100F1000286800F0F00004E0D5F89400F02202EA1E
:100F20001010814216D9084600F07CFD00283AD105
:100F3000286840F0080028602868216A20F0F00046
:100F4000084328606868E16920F47F4040EA012096
:100F5000686015E0286840F0080028602868216A69
:100F600020F0F000084328606868E16920F47F40C1
:100F700040EA01206860206A00F054FD0028D6D1C4
:100F8000FFF74CFFA968CA4AC1F30311515C01F095
:100F90001F01C840C7490860C7480068FFF7E8FB61
:100FA00000287DD12DE0C9E0FFF7C4FBA0EB0800CD
:100FB000022876D828688007F6D5286840F008000F
:100FC00028602868216A20F0F000084328606868DB
:100FD000E16920F47F4040EA0120686011E0FFE70A
:100FE00020F001002860FFF7A5FB804606E000BF67
:100FF000FFF7A0FBA0EB08000228DAD828688007DA
:10100000F6D42078C00740D0082E18D00C2E01D17D
:10101000032F14D06068B0F5803F17D0B0F5A02F33
:10102000286817D020F480302860286820F48020B9
:1010300028606068E0B1FFF77DFB804614E0286817
:10104000800322D56068002878D01EE0286840F42C
:101050008030EDE740F480202860F7E7FFF76AFB77
:10106000A0EB08006428A4D828688003F6D50CE01B
:10107000FFF760FB804605E0FFF75CFBA0EB080094
:10108000642896D828688003F6D4207880073BD55A
:10109000042E11D00C2E01D1022F0DD0E06801E0FA
:1010A00064E1B8E0002828681ED040F48070286011
:1010B000FFF740FB07460CE0286840050CD5E068C8
:1010C0000028C1D008E000BFFFF734FBC01B022896
:1010D00093D828684005F7D56868217C20F0FE4049
:1010E00040EA016068600FE020F480702860FFF73C
:1010F00021FB074605E000BFFFF71CFBC01B0228D1
:10110000B1D828684005F7D42078000729D5606950
:101110000028D5F8940012D040F00100C5F89400E2
:10112000FFF708FB074604E0FFF704FBC01B02289B
:1011300071D8D5F894008007F6D512E04CE120F084
:101140000100C5F89400FFF7F5FA074605E000BF77
:10115000FFF7F0FAC01B02285DD8D5F8940080078D
:10116000F6D42078400766D5A86D0027C00008D4C3
:10117000A86D40F08050A865A86D012700F0805050
:1011800000904E480168C90512D40168814641F4B7
:1011900080710160FFF7CEFA804605E0FFF7CAFADA
:1011A000A0EB0800022836D8D9F80000C005F5D514
:1011B000A068012816D00528D5F8900017D020F097
:1011C0000100C5F89000D5F8900020F0040000BFA1
:1011D000C5F89000A06841F28839C0B1FFF7AAFABB
:1011E00080460FE0D5F8900040F00100F0E740F0B5
:1011F0000400C5F89000F5E7FFF79CFAA0EB0801A2
:10120000494508D8D5F890008007F5D50EE0FFF7DE
:1012100091FA804606E07CE0FFF78CFAA0EB08012B
:10122000494576D8D5F890008007F5D41FB1A86D50
:1012300020F08050A8652078800628D5606A0028B4
:10124000D5F8980012D040F00100C5F89800FFF7DB
:1012500071FA074605E000BFFFF76CFAC01B0228D1
:1012600057D8D5F898008007F6D510E020F0010097
:10127000C5F89800FFF75EFA074604E0FFF75AFA50
:10128000C01B022871D8D5F898008007F6D4A06A50
:10129000F0B30C2E71D00228286820F080702860EE
:1012A0000ED0286810F0205F4DD050E000100240B2
:1012B000042100080C000020000000200070004005
:1012C000FFF738FA064604E0FFF734FA801B0228DD
:1012D0004BD828688001F7D4F4E90B016FF00F02B6
:1012E00002EB01110843218A5204490802EB4151E3
:1012F000A26841EA02210843217D4FF07E4249085D
:1013000002EB41610843217B40EAC160E96801E0EA
:1013100064E02AE0324A11400843E860286840F05F
:1013200080702860E86840F08070E860FFF702FA9B
:10133000044604E0FFF7FEF9001B022815D82868D0
:101340008001F7D54AE0E86820F00300E860E8682B
:1013500024490840E860FFF7EDF9044608E000BFC3
:10136000FFF7E8F9001B022802D90320BDE8F88343
:1013700028688001F4D431E0FFE70128F6D0E8685E
:10138000E26A00F00301914226D1216B00F0700265
:101390000901103991421FD1626B00F4FE41B1EB9B
:1013A000022F19D194F8382000F07841B1EBC26FC8
:1013B00012D1A18F00F4C00249084905A1F500111E
:1013C000914209D194F8401000F0C06049084906E4
:1013D000A1F10071814201D00120C7E70020C5E7DB
:1013E0008C809D01FFFFEEFE10B5401EB0F1807FA6
:1013F00001D3012010BD4FF0E02460610F21601780
:1014000000F01DFE0020A06107202061002010BD1B
:10141000704770472DE9F04102680446D0691168B1
:10142000936810F00F0F4FF000055BD003F001063A
:1014300001F49077374369D0C70707D0CF0505D5AA
:1014400001271762E26F42F00102E267820708D5C6
:10145000DA0706D0276802223A62E26F42F00402FD
:10146000E267420708D5DA0706D0236804221A6229
:10147000E26F42F00202E26702070AD501F02002A1
:10148000324306D0236808221A62E26F42F0080253
:10149000E267E26F002A32D0800605D5880603D5C0
:1014A000216E09B120468847E06F216889684906A6
:1014B00001D4000725D5204600F029FC206881686A
:1014C000490619D5816821F040018160E06E98B12C
:1014D00020498163E06EFEF71EFF00280FD0E06E0A
:1014E000816B06E0860611D58E060FD5216E1EE0B3
:1014F0002046BDE8F04108472046FFF78AFFBDE8D7
:10150000F0812046FFF785FFE567F8E7C60209D5B9
:101510005B0207D54FF4801010622046BDE8F04111
:10152000FFF776BF030605D50B0603D5616E0029CC
:10153000DED1E4E74006E2D54806E0D51168204652
:1015400021F04001116020216167656600F043F9D8
:10155000D5E700006D1C000810B5040002D0606FD4
:1015600010B107E0012010BD002084F87000204673
:1015700000F026F8242060672068016821F001014E
:101580000160204600F0DAFB0128ECD0606A10B15F
:10159000204600F0DBFA2068416821F49041416068
:1015A0002068816821F02A0181602068016841F08B
:1015B000010101602046BDE8104000F02BBB000097
:1015C00070B586B0064614216846FEF746FE2349EC
:1015D000306888423FD12249C86D40F00100C8659B
:1015E000C86D00F001000590C86C40F04000C86470
:1015F000C86C00F040000590FFF766F94FF4C0702A
:10160000009002200025CDE9010503200390082069
:10161000049069461348FEF7ADFF144C1248206051
:101620000420C4E901058020C4E90350202065613D
:10163000C4E9065020462562FEF7F2FE08B1FEF727
:1016400069FEF466002211464620A662FFF7D6F82E
:101650004620FFF7C5F806B070BD000000800040CE
:101660000010024000180048800402409C00002046
:1016700070B50446806F20283FD149B342B394F837
:101680007000012839D0012084F870006165A4F849
:1016900058200025E5672220A067E06ED0B11849E8
:1016A000C162E16E174813460863E16E164848634D
:1016B000E06E8563666D216832462431E06EFEF788
:1016C0000FFF38B11020E06784F870502020606769
:1016D000012070BD84F870502068016841F4807169
:1016E00001602068816841F00101816020688168A3
:1016F00041F040018160002070BD022070BD0000FB
:10170000C91C0008051D0008811C000803490A23A4
:101710000122A1F1800000F004B800009000002038
:1017200070472DE9F8430446406F1F4616460D46A4
:1017300020284ED1CDB1C6B194F87000012848D010
:10174000012084F870004FF00008C4F87C8021204C
:101750006067FEF7EFFFA4F850608146A4F852607E
:10176000A068B0F5805F03D004E00120BDE8F883F5
:10177000206910B12E46002510E000260EE08021E1
:10178000204600F02BFCB8B9C6B116F8010B216851
:101790000885B4F85200401EA4F85200B4F8520074
:1017A0004B464FF0000200970028E8D14FF040016F
:1017B000204600F013FC30B10320D7E735F8020BC8
:1017C000C0F30800E3E72020606784F87080002001
:1017D000CCE70220CAE77047FEE700000148FFF7A8
:1017E00019BE000010000020FEE77047704700009F
:1017F0002DE9F041444C05468846E0680026810703
:1018000028680DD0E16801F00301814216D1A8B12A
:10181000E0686968C0F30210401C88420ED120E0E5
:10182000012804D0022805D0032807D108E0216848
:10183000890701E021684905002907DB01265FE0EF
:101840002168890302D421684903F5E7E1686A68E1
:101850006FF00F0321F0730103EB021211430143F8
:10186000E160206820F080602060FEF763FF07469B
:1018700005E000BFFEF75EFFC01B022837D82068D6
:101880000001F7D4B8F1000F18D0B8F1010F1DD046
:10189000287D4FF07E41400801EB4060A96840EA96
:1018A00001202169194A114008432061206840F055
:1018B00080602060FEF73EFF07461AE0A868297B9B
:1018C000000240EAC1602169114AECE7288A114907
:1018D000400801EB4050A96840EA012021690E4A06
:1018E000E1E700BFFEF726FFC01B022801D903264F
:1018F00006E020680001F5D52069A9690843206148
:101900003046BDE8F081000000100240FF80FFF982
:10191000FF80FF070000E0FFFF809FFF2DE9F041FF
:101920003D4C06468846E0680025810730680DD0AA
:10193000E16801F00301814216D1A8B1E068716845
:10194000C0F30210401C88420ED120E0012804D0D0
:10195000022805D0032807D108E02168890701E0A3
:1019600021684905002907DB012551E02168890329
:1019700002D421684903F5E7E16872686FF00F034C
:1019800021F0730103EB021211430143E16020686F
:1019900020F080502060FEF7CDFE074605E000BF36
:1019A000FEF7C8FEC01B022829D820688000F7D4A3
:1019B000B8F1000F15D0307C4FF07E41400801EBAC
:1019C0004060B16840EA01206169144A114008434F
:1019D0006061206840F080502060FEF7ABFE074653
:1019E0000FE0B068317B000240EAC16061690C4AD7
:1019F000ECE700BFFEF79EFEC01B022801D90325BD
:101A000006E020688000F5D560697169084360616F
:101A10002846BDE8F081000000100240FF80FFF979
:101A2000FF80FF07F8B51C4D06460024A86DC000D6
:101A300002D5FEF751FF0DE0A86D40F08050A8657B
:101A4000A86D00F080500090FEF746FFA96D21F0D0
:101A50008051A965B0F5007F04D0802E07D94FF0E2
:101A600003040AE0802E08D9A02E01D804E001D199
:101A7000022402E0702E00D101240848016821F000
:101A8000070121430160006800F00700A04201D077
:101A90000120F8BD0020F8BD0010024000200240E7
:101AA0007047FEF74DBE10B5BAB0442123A8FEF72B
:101AB000D4FB142134A8FEF7D0FB8C216846FEF736
:101AC000CCFB1020239001200024CDE929046020C4
:101AD0002B902D9423A8FFF7F3F90F20CDE93404C0
:101AE00036943794002134A83894FFF7E3F8202087
:101AF000009013946846FEF7F7FE4FF40070FEF76F
:101B0000AFFE3AB010BD00000D48016841F470010D
:101B100001600C48016841F0010101600021816011
:101B20000268094B1A4002608214C260026822F403
:101B30008022026081610249C003803908607047D9
:101B400088ED00E000100240FFFFF6EA90F8241054
:101B5000C90706D001684A68836A22F400321A4332
:101B60004A6090F82410890706D501684A68C36A5C
:101B700022F480321A434A6090F82410490706D5AF
:101B800001684A68036B22F480221A434A6090F885
:101B90002410090706D501684A68436B22F4004205
:101BA0001A434A6090F82410C90606D501688A686D
:101BB000836B22F480521A438A6090F824108906BD
:101BC00006D501688A68C36B22F400521A438A6002
:101BD00090F82410490611D501684A68036C22F474
:101BE00080121A434A60016CB1F5801F06D101686A
:101BF0004A68436C22F4C0021A434A6090F82410E9
:101C0000090606D501684A68806C22F40022024366
:101C10004A607047F8B500260446C667FEF78AFD9D
:101C20000546206800686FF07E47000708D52B4600
:101C300000224FF400112046009700F0CFF960B960
:101C40002068006840070AD52B4600224FF4800127
:101C50002046009700F0C2F908B10320F8BD20200B
:101C60006067A06784F870600020F8BD10B5806AD6
:101C70000021A0F85A10A0F85210FFF7CAFB10BDBF
:101C800070B5846A606FA56F216889684FF000069F
:101C9000090606D5212804D1A4F85260204600F098
:101CA00045F820688068400606D5222D04D1A4F8A6
:101CB0005A60204600F02BF8E06F40F01000E0671B
:101CC0002046FFF7A6FB70BD10B50146806A096883
:101CD0000968890613D40021A0F85A1001680A681F
:101CE00022F480720A6001688A6822F001028A6028
:101CF00001688A6822F040028A6020218167FFF72C
:101D000005FD10BD10B5806AFFF70AFD10BD016822
:101D10000A6822F490720A6001688A6822F001025F
:101D20008A602021816700210166704701680A6886
:101D300022F0C0020A602021416770472DE9F0417E
:101D40000546016880682B69EC6918436B690027B8
:101D500023431843954A0B68954C234003430B607B
:101D600028684168EB6821F44051194341602968B3
:101D7000A869914201D02B6A18438B6823F4306321
:101D800003438B608B4B29688B4899420DD1D0F867
:101D9000880010F0030006D0012868D0022864D023
:101DA000032851D165E001244FE0844B99420BD1C7
:101DB000D0F8880010F00C0055D0042857D008281F
:101DC00053D00C2840D154E07D4B99420BD1D0F830
:101DD000880010F0300046D0102848D0202844D089
:101DE000302831D145E0774B99420BD1D0F88800AB
:101DF00010F0C00037D0402839D0802835D0C02816
:101E000022D136E0704B99420ED1D0F8880010F400
:101E1000407028D0B0F5807F29D0B0F5007F24D065
:101E2000B0F5407F10D124E091420DD1D0F8880068
:101E300010F4406017D0B0F5806F18D0B0F5006F87
:101E400013D0B0F5406F14D01024604B00264FF42F
:101E50000040914245D174B1022C0FD0042C0FD018
:101E6000082C18D10FE00024EFE70224EDE704244A
:101E7000EBE70824E9E7FEF7ADFF03E0184602E0D0
:101E8000FEF7CCFFA8B36A6802EB4201814202D898
:101E9000B0EB023F01D9012775E0DFF834815CB176
:101EA000022C0CD0042C13D0082CF4D1500821059E
:101EB000401846F1000105E0FEF78CFF0AE05008EB
:101EC0004449F5E70023FEF78DF9A0F5407156E08F
:101ED000FEF7A4FF6A68010E03025008181871414A
:101EE000F0E7E9694FF6EF7881422FD1092CD2D281
:101EF00000E048E0DFE804F00609200523050505B9
:101F00002600C8E7FEF766FF01E0FEF775FF410017
:101F1000D5F8040001EB5001B1FBF0F080B2A0F164
:101F200010014145B7D84FF6F0710140C0F34200AF
:101F300001432868C16026E027496868EAE7FEF7A0
:101F40006DFFE4E74FF480316868E3E7092CA2D223
:101F5000DFE804F006091E052205050525009AE7BD
:101F6000FEF738FF01E0FEF747FF0146686801EB26
:101F7000500100BFB1FBF0F080B2A0F1100141456B
:101F800089D82968C8602E6638466E66BDE8F0813B
:101F9000686803EB5001EDE7FEF740FFE5E769688D
:101FA00000EB5100B0FBF1F0E6E7000000800040DC
:101FB000F369FFEF00380140001002400044004088
:101FC00000480040004C0040005000400024F40055
:101FD000FFFC0F00000024F40048E8012DE9F04167
:101FE000984617460E460446069D08E0681C06D033
:101FF000FEF7A0FBA0EB0800A8420BD855B1206863
:10200000C06936EA000017D00020B842EED00020A8
:10201000BDE8F0812068016821F4D071016020687A
:10202000816821F00101816020206067A0670020A5
:1020300084F870000320EBE70120E6E7FEE70907DC
:10204000090E002804DB00F1E02080F8001470473E
:1020500000F00F0000F1E02080F8141D704702E04E
:1020600008C8121F08C1002AFAD170477047002023
:1020700001E001C1121F002AFBD1704708B5FEF72D
:1020800067FBFFF710FD1C4CE06C40F04000E06483
:10209000E06C00F040000090FEF716FCA06C40F0F1
:1020A0000200A064A06C002200F002000090114623
:1020B0004520FEF7A3FB4520FEF792FB10480F4991
:1020C0000C2201604FF4E131416000218160C16068
:1020D000C0E90412816101624162FFF73DFA0849DB
:1020E000012280310648FFF7C3FA4FF47A74204684
:1020F000FEF72EFAFBE700000010024000800040CF
:102100001000002000000000000000000102030495
:1021100006070809A0860100400D0300801A06008A
:1021200000350C0040420F0080841E0000093D0075
:1021300000127A000024F40000366E010048E80125
:10214000006CDC0200000000010203046C210008A6
:1021500000000020100000005E2000087C21000824
:1021600010000020D80400006E20000810000000BD
:0C217000010000000000000000093D001C
:04000005080001AD41
:00000001FF
