:020000040800F2
:10000000501400209D360008093500080B35000803
:100010000D3500080F3500081135000800000000FC
:100020000000000000000000000000008533000810
:1000300013350008000000002D33000815350008B6
:10004000C1360008C5360008C9360008CD3600089C
:10005000D13600082D350008D5360008D9360008FD
:10006000DD360008E1360008E5360008E93600080C
:10007000ED360008F1360008F5360008F9360008BC
:10008000FD36000801370008053700080937000869
:100090000D37000811370008153700081937000818
:1000A0001D370008213700082537000829370008C8
:1000B0002D3700082F350008313700083537000884
:1000C000393700083D370008413700084537000838
:1000D000493700084D3700085137000855370008E8
:1000E000593700085D370008613700086537000898
:1000F000693700086D370008713700087537000848
:10010000793700087D3700088137000885370008F7
:10011000893700088D3700089137000895370008A7
:10012000993700089D370008A1370008A537000857
:10013000A9370008AD370008B1370008B537000807
:10014000B9370008BD370008C1370008C5370008B7
:10015000C9370008CD37000835350008D137000809
:10016000D5370008D9370008DD370008E137000827
:10017000E5370008E9370008ED370008F1370008D7
:10018000F5370008F9370008FD3700080138000886
:1001900005380008093800080D3800081138000833
:1001A00015380008193800081D38000838B5040053
:1001B00009D004F17005696809B900F01EF800F073
:1001C00021F8012801D1012032BD606A08B100F098
:1001D0002AF800F00AF821F02A01FFE7816000F018
:1001E0001BF8BDE8324000F010BB2068416821F4E4
:1001F0009041416020688168704700202870204647
:1002000000F02FBC24216960206802685208520067
:100210000260204600F034B92068016841F0010115
:10022000016020467047204600F08CBA30B500F1DE
:1002300070035C68202C27D109B1140001D1012082
:1002400030BD1C78012C1FD001251D7000F1500419
:10025000C1642280628000216161D96021215960DE
:100260008268B2F5805F04BF0169002907BFDFF82B
:1002700088246261DFF88414616100221A700068CA
:10028000016841F0800150E0022030BD30B500F13E
:1002900058031C6A202C46D109B1140001D1012059
:1002A00030BD1C7E012C3ED001251D7641651A8093
:1002B0005A8000219960FF228168B1F5805F04D1E6
:1002C000016991B940F2FF120FE019B9016961B1FA
:1002D0007F2107E0B1F1805F06D1016909B97F2272
:1002E00003E03F21998001E000229A8000215962B9
:1002F00022221A6201688A6842F001028A608168DB
:10030000B1F5805F04BF0169002907BFDFF8F02362
:100310009A60DFF8F013996000221A76006801688D
:1003200041F4907101E0022030BD0160002030BD39
:1003300070B504462568E9692A68AB6811F00F00BA
:100340000AD188066DD596066BD5216E002967D037
:100350002046BDE870400847D80702D412F4907FC9
:100360005FD0C80707D5D60505D501202862E56FFF
:1003700045F00105E567880708D5DD0706D526683D
:1003800002203062E06F40F00400E067480708D5C3
:10039000DD0706D5266804203062E06F40F00200D9
:1003A000E06708070AD5950601D4D80706D5256861
:1003B00008232B62E06F40F00800E067E06F002840
:1003C00056D0880605D5910603D5216E09B1204681
:1003D0008847E06F21688A68510601D400071AD562
:1003E000204600F072FA206881684A060ED500F0B7
:1003F00040F858B10FF205518163E06E00F07EFBCA
:10040000B0B3E06E816BBDE8704008472046BDE8A0
:10041000704000F098BB204600F095FB0020E0679C
:1004200070BDC80209D55B0207D54FF48010286261
:100430002046BDE8704000F087BB080607D51306CC
:1004400005D5616EA1B12046BDE870400847480659
:100450000ED551060CD5286820F0400028602021D8
:100460006167002060662046BDE8704000F06DBB0B
:1004700070BD816821F040018160E06E704700002E
:100480002DE9F0410446A04822681368A1680340A2
:1004900020690B4361690343E0690B430343136025
:1004A00000265168E06821F4405101435160002565
:1004B000A36996498A421CBF206A034397689448FF
:1004C00027F430673B439360924F934BBA4221D15C
:1004D0001B6803F00303032B29D8DFE803F0025F56
:1004E00050710127E169B1F5004F4FF6F07840F007
:1004F000D38067B1012F00F0A980022F00F0A980FE
:10050000042F00F0AB80082F00F0B180B7E000F0BE
:100510004DFEA5E0814FBA4223D11B6813F00C03B6
:100520005FD0042B3AD0082B29D00C2B48D01027B1
:100530008A42D7D1390006D0022F09D0042F52D0D9
:10054000082F53D0D0E000F031FE002800F0CD801D
:10055000626802EB4201884202D31303834248D20D
:10056000C2E06F4FBA420CD11B6813F0300338D091
:10057000102B13D0202B02D0302B21D0D7E702270D
:10058000D6E7684FBA420BD11B6813F0C00328D0DE
:10059000402B03D0802BF2D0C02BEEE70427C7E717
:1005A000614FBA420ED11B6813F4407319D0B3F5F2
:1005B000807FF3D0B3F5007FE1D0B3F5407FB6D1B3
:1005C0000827B5E78A42B2D11B6813F4406308D00C
:1005D000B3F5806FE2D0B3F5006FD0D0B3F5406FC4
:1005E000CBE70027A4E700F098FDAEE74FF400400A
:1005F000AEE737B1022F0AD0042F0ED0082F16D045
:100600001BE000F0D3FD00F097F879410AE047497C
:1006100011EB520045EB050104E000F07EFD00F017
:100620008BF86941002300F02FFE064606E05308D0
:1006300003F50003B3FBF2F600E00125A6F54070D8
:100640003B49884250D22268D6604EE000F0B6FDA9
:1006500006E06068374901EB50010CE000F05DFDF9
:1006600061684A0802EB4002B2FBF1F605E06068FF
:10067000410801F58031B1FBF0F6B6B200E001258A
:10068000A6F1100040452FD208EA0601C6F3420049
:1006900001432068C16028E047B1012F09D0022F33
:1006A0000CD0042F08D0082F0ED015E000F07EFDEE
:1006B00004E000F083FD01E000F02FFD616800EB35
:1006C0005100B0FBF1F605E06068410801F500411A
:1006D000B1FBF0F6B6B200E00125A6F110004045EE
:1006E00002D22168CE6000E001250020206660660D
:1006F0002846BDE8F0810000350900080D09000812
:100700008509000861090008F369FFEF00800040D7
:100710000024F400003801408810024000440040EA
:1007200000480040004C004000500040000024F40D
:1007300000FD0F000048E8016268010E560816EB44
:100740000020704790F82410CA0706D50268536845
:10075000816A23F400330B43536090F824108A0716
:1007600006D502685368C16A23F480330B43536093
:1007700090F824104A0706D502685368016B23F4E9
:1007800080230B43536090F824100A0706D50268B3
:100790005368416B23F400430B43536090F82410DB
:1007A000CA0606D502689368816B23F480530B4315
:1007B000936090F824108A0606D502689368C16B8E
:1007C00023F400530B43936090F824104A0610D58D
:1007D00002685368016C23F480130B435360036C6D
:1007E000B3F5801F05D15368416C23F4C0030B435C
:1007F000536090F824100A0606D501684A68806C98
:1008000022F4002202434A607047F8B5044604F11E
:1008100070050020E8606FF07E4700F0B9FD0646E5
:10082000206801680A0708D50097334600224FF474
:100830000011204600F016F860B9206801684A07E8
:100840000AD50097334600224FF48001204600F07D
:1008500009F808B10320F2BD20206860A8600020DC
:100860002870F2BD2DE9F041069C05460E469046E3
:100870001F462868C1693140B1420CBF01200020E9
:10088000404519D114F1010FF3D000F081FDC01BD8
:10089000844201D3002CECD12868016821F4D07186
:1008A000016000F00CF805F17000202141608160CA
:1008B00000210170032000E00020BDE8F0812868DD
:1008C0008168490849008160704701680A6822F41C
:1008D00090720A6001688A68520852008A6020217A
:1008E0008167002202667047136823F0800313605B
:1008F0000068016841F0400101607047806A00F1C2
:10090000520100220A810A8000F01DB9416F21299D
:100910000FD10268B0F8521001B9E5E7C16C0B784D
:100920001385C16C4A1CC264B0F852104A1EA0F86C
:1009300052207047416F212911D10268B0F852103E
:1009400001B9D1E7C16C0B88C3F308031385C16CEF
:100950008A1CC264B0F852104A1EA0F85220704798
:1009600070B500F027F808D100F02AF82B70416D1F
:100970004B1C00F019F821B929E0088B40F0080061
:10098000088370BD70B500F015F808D100F018F8B4
:100990002B80416D8B1C00F007F821B917E0088B04
:1009A00040F00800088370BD436525886E1E2680D0
:1009B0002188704700F1600201689369222B70471B
:1009C0008B8C456D00F15A0461880B4070470168BB
:1009D0000B6823F490730B6001688B685B085B0005
:1009E0008B602021916100231360BDE8704000F00E
:1009F000B3BD30B4002513E050F8042BD30744BF37
:100A0000A9F101039A18091F042942F8045BFAD2DC
:100A100013468C0744BF15809B1CC90748BF1D7037
:100A200050F8041B0029E7D130BC70472E4882B033
:100A3000816841F001018160816801F0010100914C
:100A40000099026842F0805202600022006800F0C3
:100A5000805000900F2100986FF0010002B000F06C
:100A6000E7BD38B586B0044601A8142100F028FE81
:100A700024681E4DAC4223D11D48016941F001019B
:100A80000161016901F0010100910099026842F0E1
:100A900040020260006800F040000090009800F002
:100AA00048FE4FF4C071019102220021039102928D
:100AB000082103220591049201A90E4800F050FE7E
:100AC00007B030BD81B000680B49884209D10648A3
:100AD000026842F002020260006800F0020000902A
:100AE000009801B07047000058100240008000409C
:100AF0004C100240001800480004004038B500F1D6
:100B0000240100244A78022A03D0042088610124A9
:100B100017E00268136823F00E031360026815687B
:100B20006D086D001560012291F82030CD6903F049
:100B30001C039A406A6001224A700C70496901B135
:100B40008847204632BD7047704770472DE9FC4703
:100B500005001AD0DFF8F076DFF8FC46B86800F040
:100B60000C09F86800F003082878C1065BD5B9F1D4
:100B7000000F05D0B9F10C0F08BFB8F1010F2ED14D
:100B80003868810703D5A869002800F05B813968BF
:100B900008074EBF396861680909286A01F0F00149
:100BA000814206D200F016FB002808D100F019FAA5
:100BB00007E000F016FA286A00F00CFB002840F06D
:100BC000418100F0AAFABA6800F09DFADFF88006C9
:100BD000006800F0B7FE010000F03881FFE1A8696D
:100BE000C0B1396841F00101396000F0D1FB06461F
:100BF0003868810700F1288100F0CAFB801B0328B8
:100C0000F6D30320EBE100F0C3FB801B0328C0F008
:100C10005881F6E7386840084000386000F0B8FBBB
:100C200006463868810740F1118100F0B1FB801B56
:100C30000328F6D3E5E76868B0F5803F04D138684B
:100C400040F48030386011E0B0F5A02F386806D14C
:100C500040F480203860396841F4803105E020F4A8
:100C600080303860396821F480213960686860B16B
:100C700000F08EFB06463868810300F1FA8000F030
:100C800087FB801B6528F6D3BBE700F081FB064697
:100C90003868810340F1ED8000F07AFB801B652805
:100CA000F6D3AEE7E86880B1396841F48071396005
:100CB00000F06EFB06463868410500F1ED8000F05B
:100CC00067FB801B0328F6D39BE7386820F480700D
:100CD000386000F05DFB06463868410540F1E3806E
:100CE00000F056FB801B0328F6D38AE7400840003B
:100CF000606000F04DFB06466068810740F1E580CA
:100D000000F046FB801B0328F6D37AE7052820680D
:100D100006D140F004002060216841F0010105E0A7
:100D2000400840002060216821F004012160A8688B
:100D300041F2893868B100F02BFB824620688107B8
:100D400000F1F78000F024FBA0EB0A004045F5D34A
:100D500057E700F01DFB82462068810740F1E980DB
:100D600000F016FBA0EB0A004045F5D349E700F080
:100D70000FFB801B0328C0F0EF8042E740084000D3
:100D8000A06000F005FB0646A068810740F1E880FE
:100D900000F0FEFA801B0328F6D332E700F0F8FAE1
:100DA000801B0328C0F0EC802BE700F0F1FA801BD9
:100DB0000328C0F00F8124E7396811F0205F03D1C8
:100DC000F86880088000F860F968DFF89004014056
:100DD000F96000F0DDFA06463868810140F1FE80D6
:100DE00000F0D6FA801B0328F6D30AE7012829D0A1
:100DF000F868EA6A00F00301914201BF00F0700157
:100E00002A6B521EB1EB021F1CD16A6B00F4FE412B
:100E1000B1EB022F02BF00F07841AA6BB1EBC26FB9
:100E200010D1EA6B520800F4C001521EB1EB425FD0
:100E300008D1296C490800F0C060491EB0EB416F31
:100E400000F0CC800120CAE000F0CBF82878C10780
:100E50000FD5B9F1080F06D0B9F10C0F08BFB8F1E2
:100E6000030F7FF4E8AE3868810302D56868002874
:100E7000E8D02978880716D5B9F1040F06D0B9F162
:100E80000C0F08BFB8F1020F7FF40CAF38684105B2
:100E900002D5E8680028D5D07868296920F0FE409E
:100EA00040EA01607860287801070ED5686900285B
:100EB00060683FF41BAF40F00100606000F068FA2A
:100EC0000646606881077FF59EAE2878410735D5D4
:100ED000B86D0026C10009D4B86D40F08050B865E7
:100EE0000126B86D00F0805000900098DFF8708304
:100EF000D8F80000C10513D4D8F8000040F4807081
:100F0000C8F8000000F044FA8246D8F80000C10595
:100F100006D400F03DFAA0EB0A000328F5D370E6F2
:100F2000A86801287FF4F2AE206840F0010020603C
:100F3000FDE61EB1B86D20F08050B86528788106B6
:100F40000ED5686A0028A0683FF418AF40F0010091
:100F5000A06000F01DFA0646A06881077FF507AF84
:100F6000A86AD8B3B9F10C0F3FF440AF0228386833
:100F700020F0807038607FF41FAF00F009FA064659
:100F8000386881013FF50AAFFA68DFF8D812E86ADD
:100F90000A40296B0243491E686B42EA0112E96B61
:100FA000490842EA0022286C491E400842EA4152A0
:100FB000401E42EA4062A86B42EAC062FA603968A9
:100FC00041F080713960F86840F08070F86000F09E
:100FD000DFF90646386881017FF5E7AE0020BDE8FD
:100FE000F687386840F0080038603968286A21F0D0
:100FF000F001014339607968E86921F47F4141EAF1
:101000000021796070472DE9F0410400884678D0CE
:10101000DFF85462306800F00700404509D23168BB
:10102000C90848EAC1013160306800F00700404556
:1010300067D12078DFF81052C1074AD560680328CD
:1010400002D129688A0108E0022802D129688A03AE
:1010500003E00028296802D18A0702D451E04A053A
:101060004FD5A968890840EA8100A86000F090F98E
:101070000746A868616800F00C00B0EB810F28D02B
:1010800000F086F9C01B41F289318842F1D3032078
:101090001DE02078410705D5AA68E06822F4E062E7
:1010A0000243AA602178080706D5A968206921F4BF
:1010B000605141EAC001A96000F02FF8AA6800F071
:1010C00022F8BDE8F0416248006800F03BBCBDE892
:1010D000F0812078810705D5AA68A06822F0F00287
:1010E0000243AA60316801F007018845D1D2306817
:1010F000C00848EAC0003060316801F0070141458E
:10110000C7D00120E3E75949C2F30312895C4F4A73
:1011100001F01F01C8401060704770B54A4A554B36
:101120009068D6680025002110F00C0006F0030638
:10113000514C03D00C2812D1012E1AD115682E075C
:1011400004D4444D2E68C6F3032502E01568C5F3A8
:1011500003154A4E56F8255048B9294624E004287C
:1011600008BF214620D008281ED119461CE00C28B3
:101170001AD1D06800F00300022803D0032808BF6A
:101180001D4600E02546D168D068D268C0F306202D
:101190004543C1F30210C2F34161401C491CB5FB39
:1011A000F0F04900B0FBF1F1084670BD2748304A25
:1011B000006813683249C3F3022206E023482C4A30
:1011C000006813682E49C3F3C222895C01F01F0135
:1011D000C84070477CB52B4E054630680024C100DE
:1011E00002D500F071FA0EE0306840F080503060B7
:1011F000316801F080510091009800F065FA316883
:1012000021F080513160B0F5007F04D1802D0CD9E0
:10121000A12D09D304E0802D88BF032405D801D176
:10122000022402E0702D00D101240F480168C90892
:1012300044EAC1010160006800F00700A04201D04B
:10124000012076BD002076BD00100240180000206D
:10125000100000209410024090100240FFFFEEFEAC
:10126000007000408C809D0100200240F83400088E
:101270000810024000127A000024F40054350008DF
:10128000B836000858100240D3BBD9B1B2F5803F40
:101290005BD2022A1ED98C46B1FBF2F102FB11C3CC
:1012A0001B0443EA1043B3FBF2FC02FB1C3380B285
:1012B00040EA0343B3FBF2F002FB103240EA0C4079
:1012C00000237047022A05D98446B0FBF2F002FBE6
:1012D00010C270474AB105D100F0010249085FEA27
:1012E0003000704700220023704700F04DBB0B0018
:1012F0000200002100207047F7D30022002370472E
:10130000904271EB030CF2D370B5B1FA81F4B3FAE9
:1013100083F52C1BA340C4F1200532FA05F63343B4
:10132000A2405FF00046E64002E05B085FEA32025E
:10133000841A71EB030524BF204629467641F4D375
:1013400002000B003000002170BD70B5B1FA81F4CD
:10135000B2FA82F5C4F120046419B4F12006DAD39C
:10136000B2405FF00044F440002502E052085FEA1A
:101370003303C61A71EB020E24BF30467146644136
:101380006D41F3D302000B002000290070BD000066
:1013900001480068704700BF0C00002080B501784C
:1013A0007A48532903D1BDE8024000F0FCBA732902
:1013B00004D100F00CFB76490020087001BD00004C
:1013C00070B590B000F0D8FC00F091F87148704C06
:1013D000016841F0800101600025026802F080028E
:1013E000009200260099026842F040020260006804
:1013F00000F040000090009800F09BF966486060A3
:101400004FF4E131A1600020E060206160610C21B7
:10141000E0616062A062A161201DFEF7C7FE03A823
:10142000102100F04DF96846002180E862005B4A17
:10143000564D106842F21071B0FBF1F1491EE9649B
:10144000574828602846E96C6960AE6042F20F7127
:10145000E96000F09BFA4FF48050039003A92846FE
:1014600000F08FFB009602966946284600F094FC37
:1014700000220521052000F0DBF8052000F0F5F83A
:10148000002205211D2000F0D3F81D2000F0EDF80A
:1014900000220521462000F0CBF8462000F0E5F8B8
:1014A000012204F18401201DFEF7F0FE43A0D0E9E3
:1014B0000023CDE90023684600F0DDFCA8641C226F
:1014C0000DF124003FA100F0DFFC002109A800F08D
:1014D0009CFC28641C2202A841A100F0D5FC00213C
:1014E00002A800F092FC686400F08AFCFEE718B5E0
:1014F000B9B02C4C28A82146442200F0C5FC68460F
:10150000142100F0DDF805A804F144018C2200F05C
:10151000BBFC01212E9110202890002260212F92E7
:101520003091329228A8FFF711FB0F200090002184
:1015300001910291039104916846FFF764FD202117
:1015400000220591189205A800F0AAFC4FF4007043
:1015500000F0C0F83AB010BD38B50D4C04F1840568
:1015600001222946201DFEF761FE01222946201D89
:10157000FEF78CFE2846BDE832400FE704490878A4
:10158000401C08700122081DFEF750BEFC0F002011
:10159000DC0E00204C1002400080004018000020AB
:1015A00000040040DC33000880B5012000F05CFC42
:1015B000FBE780B5012000F057FCFBE700000000CE
:1015C0000000000084360008A91500080000000093
:1015D000000000008000000000000000000000008B
:1015E00090360008B3150008FDFF00000000000061
:1015F000800000000000000000000000090102005F
:1016000002D4294881547047284B02F00F021A4433
:1016100002F8041C7047264B19684FF6FF020002BF
:10162000114000F4E0600843224908431860704705
:1016300038B51F4B1C68C4F30223C3F10704052C03
:1016400028BF04241D1D072D34BF0023DB1E0125E8
:1016500005FA04F4641E2140994005FA03F35B1E69
:101660001A401143BDE83440C8E7010007D4012205
:1016700000F01F01104B8A40400943F820207047BA
:1016800010B5401EB0F1807F01D3012010BD0B4C7E
:1016900060600F214FF0FF30FFF7B0FF0021A16025
:1016A00007202060002010BD00E400E018ED00E0FD
:1016B0000CED00E00000FA0500E100E010E000E0C1
:1016C000002200F095BE0000DFF88400006800F4FE
:1016D000C060704710B5DFF87810B0F5007F08687B
:1016E00000F4C06015D1B0F5007F1BD00868DFF8AA
:1016F0006420DFF8644020F4C06040F4007000F023
:101700001FF84A6953050FD5002818BF401EF8D1AD
:101710000AE0B0F5806F05D0086820F4C06040F49E
:1017200080600860002010BD48694105FAD503209B
:1017300010BDDFF82800016841F4007101607047B6
:101740000860322013684343B3FBF4F0401C704739
:10175000007000401800002040420F00047000405C
:101760002DE9F84700266D4A0F230446884632E0EB
:101770006B4DAC4214BF082507258D4045EA0E0588
:101780004CF82750C74367490D6800F0C2F8ED03D5
:1017900048BF40EA0C0CC1F800C04D6800F0B9F831
:1017A000AD0348BF40EA0C0CC1F804C08D6800F0DE
:1017B000B0F8ED0248BF40EA0C0CC1F808C0CD6893
:1017C00007EA050CD8F80470BD0248BF40EA0C0CCB
:1017D000C1F80CC0761CD8F8001031FA06F000F001
:1017E00096800127B74017EA0100F3D0D8F80450DB
:1017F000B100022D18BF122D12D1F50804EB850C93
:1018000001F01C05DCF820E0D8F810A003FA05F977
:101810002EEA090E0AFA05F545EA0E05CCF8205025
:101820004FEA460C4FF0030E256898F804900EFA24
:101830000CFE6FEA0E0E09F003090EEA050509FA1F
:101840000CF949EA05052560D8F80450012D18BFA8
:10185000022D03D0112D18BF122D13D1A568D8F871
:101860000C900EEA050509FA0CF949EA0505A56090
:10187000656825EA0707D8F80450C5F30015B54098
:101880002F436760E7680EEA0705D8F8087007FA83
:101890000CF73D43E560D8F80450EF009AD5156881
:1018A000DFF884C045F00105156001F00C011768F0
:1018B00007F00107009703FA01FE009FB7085CF8E4
:1018C000275025EA0E0EB4F1904F08BF00251DD019
:1018D000164DAC4208BF012518D0154DAC4208BFCB
:1018E000022513D0134DAC4208BF03250ED0124D74
:1018F000AC4208BF042509D0104DAC4208BF0525F5
:1019000004D00F4DAC427FF433AF062535E7BDE878
:10191000F18707EA050CD8F80450704760100240C0
:10192000001C004800040140080001400004004879
:1019300000080048000C004800100048001400484F
:101940000018004870B50E4E0446B0680025A0B1DE
:101950004FF47A710B4AB1FBF0F11068B0FBF1F073
:10196000FFF78EFE48B9102C07D2002221464FF017
:10197000FF30FFF75DFE746000E00125284670BD72
:101980000C000020180000207047000038B504004B
:1019900001D1012032BD00F03DF818B900F036F851
:1019A000FFF790F828E00168C86840F00100C860BF
:1019B0008A68DFF868000240062A18BFB2F5803F47
:1019C00003D0086840F001000860002070470068FC
:1019D000C16849084900C16041F21112016A11420F
:1019E00002BF016A40F24442114203D10168490832
:1019F000490001600020704702206870211D2068A6
:101A000000F01CF901206870002032BD002129700F
:101A10002046704704F13C056878704707000100D4
:101A200010B50446206801698A0715D5C1688A0780
:101A300012D56FF00201016101222277806910F056
:101A4000030F204602D000F0ECFC03E000F0EAFCBB
:101A500000F094F800202077206801694A0715D526
:101A6000C1684A0712D56FF0040101610222227792
:101A7000806910F4407F204602D000F0D2FC03E0E1
:101A800000F0D0FC00F07AF800202077206801698F
:101A90000A0715D5C1680A0712D56FF00801016160
:101AA00004222277C06910F0030F204602D000F014
:101AB000B8FC03E000F0B6FC00F060F800202077EE
:101AC00020680169CA0615D5C168CA0612D56FF02B
:101AD0001001016108222277C06910F4407F20467E
:101AE00002D000F09EFC03E000F09CFC00F046F801
:101AF0000020207720680169CA0708D5C168CA0795
:101B000005D56FF0010101612046FFF737FD206820
:101B100001690A0608D5C1680A0605D56FF080017B
:101B20000161204600F07FFC20680169CA0508D5E4
:101B3000C1680A0605D56FF480710161204600F086
:101B400073FC206801694A0608D5C1684A0605D5B4
:101B50006FF040010161204600F067FC20680169D8
:101B60008A060AD5C1688A0607D56FF0200101618F
:101B70002046BDE8104000F059BC10BD204600F0E2
:101B800056BC38B500F04EF801D1022032BD01201C
:101B9000207002226270DFF850012A6893680340C7
:101BA00093600868020018BF10282DD0202818BFA5
:101BB000302829D0402823D0502816D0602818D0AB
:101BC000702803D0B0F5005F07D021E000F025F8C1
:101BD0002868816841F0770105E000F01EF8286868
:101BE000816841F48041816012E000F012F85021D8
:101BF0000BE0CA684968286800F097F8602104E0A3
:101C000000F007F8402100E00146286800F09FF846
:101C10000EE0CA684968286878E0CB684A68896835
:101C200028689CE0054605F13C04207801287047AF
:101C30000120607000212170002032BD2DE9F043A9
:101C4000DFF8A870D0F800C0DFF8A430DFF8A440B7
:101C5000DFF8A450DFF8A460DFF8A4E0DFF8A48088
:101C6000DFF8A490B84218BFB0F1804F07D04845C4
:101C700018BF404503D0704518BFB0420ED14A6826
:101C8000B8422CF0700C18BFB0F1804F42EA0C0C37
:101C90000CD048451CBF4045704507D0B04218BF26
:101CA000A84203D0A04218BF984204D1CA682CF4BD
:101CB000407C42EA0C0C4A692CF0800C42EA0C028F
:101CC0000260B8428A68C26218BFB0420A68826283
:101CD00004D0A8421CBFA042984201D10969016307
:101CE00001224261BDE8F0838800FEFF002C014024
:101CF00000480140004401400040014000340140E0
:101D0000000C0040000800400004004010B5036AC9
:101D1000046A64086400046223F00A03846924F0FE
:101D2000F00444EA0214846123E010B5036A23F04E
:101D3000100303628369046A23F4704343EA0233A5
:101D400024F0A004836144EA0114046210BD826897
:101D500022F07002114341F007018160704710B515
:101D6000846824F47F442143114341EA03218160C4
:101D700010BD1943016210BD032010B5FFF74BFCE5
:101D80000F20FFF7DFFD0024002814BF0124FEF719
:101D90004DFE204610BD0000F0B500F13C031A785E
:101DA000012A01D10220F0BD01221A7002245C70C8
:101DB0000E4A04686568A66894421CBF0C4FBC427A
:101DC00003D14A6825F47005154325F070058A682B
:101DD00009680D43656026F080060068164386603A
:101DE0000121597000201870F0BD0000002C014046
:101DF0000034014001460020842918BFC81C7047E8
:101E000080B500F020FC002002BD38B5044684B047
:101E1000606900281CBFA06900280D4612D0B4F9E3
:101E20000800FFF7E7FFA16902912B466269019262
:101E3000009022692168606800F0FAFA0390039824
:101E400005B030BDB4F90800FFF7D4FF03A9019134
:101E500000902B4622692168606892B200F016FB60
:101E60000128ECD00020EBE780B500B9012000F09C
:101E7000CBFB002002BD416800291CBF012000F0FF
:101E80001EBF012000F010BF4AB1000011F8013B55
:101E9000521E00F8013B1CBF11F8013BF8E77047E8
:101EA0002DE9F84F064600243068DFF8507301052D
:101EB000A04621D5B06E70B1B0F5800F17D0B0F547
:101EC000000F03D0B0F5400F09D013E03A6842F498
:101ED00080323A6004E0002100F08DF9044654B9E4
:101EE000F96FB06E21F440010143F96704E000F09E
:101EF0007CF9F3E70124A0463068C10421D5F06ED7
:101F0000A8B1B0F1807F17D0B0F1007F03D0B0F15D
:101F1000407F04D013E0396841F4803139607CB9E6
:101F2000F96FF06E21F040710143F96709E000217B
:101F300000F061F90446F2E700F057F9FAE70124EE
:101F4000A0463068DFF8B85281032ED5F86CC10086
:101F50004FF000090AD4F86C40F08050F8644FF05C
:101F60000109F86C00F0805000900098DFF894A20E
:101F7000DAF8000040F48070CAF80000FFF708FAB1
:101F80008346DAF80000C10500F10281FFF700FA8C
:101F9000A0EB0B000328F4D30324A046B9F1000FF3
:101FA00003D0F86C20F08050F8643078C10705D574
:101FB000FA6FB06B920840EA8202FA6731788807BC
:101FC00005D5F96FF06B21F00C010143F967317809
:101FD000480705D5F96F306C21F030010143F967EE
:101FE0003178080705D5F96F706C21F0C001014305
:101FF000F9673178C80605D5F96FB06C21F44071E6
:102000000143F9673178880605D5F96FF06C21F442
:1020100040610143F9673168880505D5F96F306E75
:1020200021F440210143F9673168480505D5F96F6E
:10203000706E21F440110143F9673178480605D5E7
:10204000F96F306D21F440510143F967317808068A
:1020500005D5F96F706D21F440410143F96731688E
:10206000C80505D5F96FB06D21F440310143F9671A
:102070003168C80205D5E968F06D890840EA810138
:10208000E9603168880420D5F96F306F21F0406134
:102090000143F967306FB0F1006F0ED100F0A0F886
:1020A00013E0FFF775F9A0EB0B0041F2893188428C
:1020B000C0F08B804FF0030870E7B0F1806F04D15F
:1020C00000F098F8010018BF80463068010314D56D
:1020D000FA6F706F22F040620243FA67706FB0F1DE
:1020E000006F02D100F07CF807E0B0F1806F04D1FE
:1020F00000F080F8010018BF80463068410314D515
:10210000FA6FB06F22F040620243FA67B06FB0F12D
:10211000006F02D100F064F807E0B0F1806F04D1E5
:1021200000F068F8010018BF80463068410418D5F7
:10213000FA6FF06F22F040520243FA67F06FB0F18D
:10214000805F03D1022100F056F807E0B0F1005F94
:1021500007D1022106F1200000F0BAF8010018BFF3
:1021600080463068010406D5FA6FD6F8800022F068
:1021700080420243FA673168C80306D5F96FD6F882
:10218000840021F000410143F9674046BDE8F28F29
:10219000002C7FF402AF286810F4407006F184042C
:1021A0001CBF616888420BD02868296841F48031DF
:1021B000296020F440702A6822F480322A60286066
:1021C000C00706D5FFF7E4F88346286881077FF546
:1021D00068AF2A68606822F4407202432A60DDE634
:1021E000386840F4801038607047002106F1200004
:1021F00000F06EB80121301D00F006B80C1002404E
:1022000090100240007000402DE9F04100F0DBF832
:1022100009D0F16801F0030181422BD150B300F0E5
:10222000CBF80CD026E0012804D023D303281BD000
:1022300016D31FE0326891071CD500F0B3F8306860
:1022400020F0806000F0C8F880463068010133D586
:10225000FFF79EF8A0EB08000328F6D3032536E02D
:1022600031684A05E9D405E031688A03E5D431686C
:102270004A03E2D401252AE0012C326909D13B69E5
:10228000584802405B0842EA01215B1E41EA435183
:1022900002E07B6900F07DF83161306840F08060D9
:1022A00000F09AF80446306801010CD4FFF770F88A
:1022B000001B0328F7D3D1E7B968002CDCD13269C1
:1022C00000F05FF8E8E73169B8690143316155E032
:1022D0002DE9F04100F077F809D0F16801F0030131
:1022E00081422BD150B300F067F80CD026E00128D2
:1022F00004D023D303281BD016D31FE032689107E4
:102300001CD500F04FF8306820F0805000F064F8E1
:1023100080463068810026D5FFF73AF8A0EB080028
:102320000328F6D3032529E031684A05E9D405E0FE
:1023300031688A03E5D431684A03E2D401251DE0FF
:102340003B6900F026F87161306840F0805000F081
:1023500043F80446306881000CD4FFF719F8001BDD
:102360000328F7D3DEE7B9687269002CE8D100F0E2
:1023700008F8E8E771697869014371612846BDE8AA
:10238000F0811948FB68024042EA012141EAC36139
:102390007047164802405B0842EA01215B1E41EA91
:1023A00043617047F268796822F073021043491E56
:1023B00040EA0110F0607047F0687968C0F30210DD
:1023C000401C884270470746054E38680C46F16845
:1023D000002511F0030F70473060FEF7D9BF0000F1
:1023E00000100240FF809FFFFF80FF07FF80FFF982
:1023F00000B500BF130096469446103928BFA0E8E8
:102400000C50FAD85FEA417C28BF0CC048BF40F8A6
:10241000042BC90728BF20F8022B48BF00F8012B66
:1024200000BD7047704770477047704770477047EE
:10243000F0B585B050260B9D25B986F3118800F0C4
:102440002BFAFEE70C9C24B986F3118800F024FADD
:10245000FEE754270097009F542F04D086F311887D
:1024600000F01AFAFEE70A9E25630027022584F889
:1024700051500397029404AD0195009600F034F892
:10248000204600F06DF8049805B0F0BD2DE9F84342
:102490000646174684B088469946B80000F03EFDCF
:1024A00005001CD0542000F039FD040014D00D9913
:1024B0000C982563002284F851200392019100902A
:1024C00002944B463A464146304600F00DF820460D
:1024D00000F046F8012004E0284600F0A7FD4FF088
:1024E000FF3005B0BDE8F0832DE9F0470A9E814634
:1024F000306B00EB8202101FC0084FEAC00A0022B6
:102500008C5CB01880F83440885C10B1521C102AE2
:10251000F6D3089D002086F84300062D099C88BF4D
:10252000062506F14407F5623D6078609846301D47
:1025300000F0D9FD06F1180000F0D5FD3661C5F1B7
:102540000705B56176620020B86038734246494697
:10255000504600F005FE306004B12660BDE8F0870B
:102560002DE9F04100F067F8DFF86855DFF87C8569
:10257000E86C401CE8641426A86A28BBAC62E86CCE
:10258000012829D1002706FB07F0404400F09EFDFA
:102590007F1C072FF7D305F1740000F097FD05F1BC
:1025A0008807384600F092FD284600F08FFD05F1BF
:1025B000140000F08BFD05F1380000F087FD05F1F7
:1025C0007400E8622F6307E0A86D28B9E06AA96A81
:1025D000CA6A904228BFAC62A86E401CA86600F090
:1025E0006DFA4643211D08EB060000F07FFD00F068
:1025F00044FEA86D30B100F07DF903D200F06FFA0F
:1026000000F04AF9BDE8F08180B588B1DFF8C42454
:10261000116F21B100F041F800F03EF9FEE7116FB3
:10262000491C1167002100F063FA00F040F808B976
:1026300000F02DF901BD044600F006BE211D142056
:1026400042439818704780B586B0002105910491E7
:1026500003AA04A905A800F05FFE0598049902905A
:102660000022009201910023039A0FF2F8410FF229
:102670000D30FFF7DDFE70B100F00FF800F00CF93F
:10268000DFF8D0044FF0FF31C166012282650021DE
:10269000016500F087FD07B000BD502080F3118870
:1026A0007047DFF8B004016F491C0167704770B5CF
:1026B000DFF82064306F0024002520B900F043F8D3
:1026C00000F0EAF8FEE700F0BFFD306F401E306713
:1026D000306F002836D1F06CD8B933E0F068C468A8
:1026E00000F035F800F09BF9E06A716DDFF86034B6
:1026F000012282401143716514225043211D184468
:1027000000F0F4FCE06AB16ACA6A904224BF012179
:10271000316630680028E1D10CB100F067F9F46D42
:102720003CB100F018F808B101203066641EF8D101
:10273000F565306E30B1DFF820144FF08050012580
:1027400000F0A9F8C1E1502181F31188704704F12C
:10275000180000F0F1BC2DE9F843DFF87873386F0A
:10276000002600284ED13C6D641C3C6510D1F86AEF
:10277000006820B1FFF7E7FF00F08EF8FEE7F86A87
:10278000396BF9623863786E401C786600F02EF978
:10279000F86EDFF8BC9384424FF0140825D31AE09A
:1027A000281D00F0C9FCA86A18B105F1180000F056
:1027B000C3FCE86A796D012282401143796508FB08
:1027C00000F0291D484400F091FCE86AB96ACA6A21
:1027D000904228BF0126F86A006880B1F86AC16893
:1027E000CD6868688442DBD2F866B86AC06A08FBC4
:1027F00000F059F80010022907D3012605E04FF038
:10280000FF30F1E7F86D401CF865386E00B1012625
:1028100062E1DFF8C022106F10B10121116670472C
:1028200010661421506DB0FA80F3C3F11F034B43BF
:10283000DFF81C13C85838B9502181F31188BFF351
:102840004F8FBFF36F8FFEE7C81800F10803416890
:1028500049684160994204BF496841604068C16865
:102860009162704710B50C4620B9FFF716FF00F0D3
:1028700013F8FEE7DFF85C22936A03F1180100F019
:1028800042FC2046BDE81040FFE7012130E1DFF8BF
:10289000C8124FF080500860BFF34F8FBFF36F8FA7
:1028A000704738B5C068C46824B9FFF7F6FEFFF773
:1028B000F3FFFEE7FFF74BFFDFF81852286F60B910
:1028C00000F0ADF8E26A686DDFF8843201219140D2
:1028D00008436865FFF7B2FE02E004F118012846DC
:1028E00000F004FC00F006F802D20120286632BD98
:1028F000002032BDA86AC16AE06A81427047DFF8F1
:1029000054124A6E0260096D41607047F8B5044682
:102910000D46502024B980F31188FFF7BDFFFEE774
:1029200025B980F31188FFF7B7FFFEE700F08CFCB4
:10293000DFF82002016D62682E688B1A16F1010F14
:102940000ED0476ED4F800C0674501D091420BD23B
:10295000B34207D2F31A2B60416E2160006D6060B4
:10296000002402E000202860012400F086FC2046BC
:10297000F2BDDFF8E01101200866704770B5DFF89E
:102980006C41DFF8D05111E000F05EFC286AC668A7
:10299000301D00F0D1FBE86C401EE864686B401EFF
:1029A000686300F06AFC304600F009F8686B0028A4
:1029B000EAD121680229F9D3FFF769FFF6E710B5DC
:1029C000044694F8510040B9206B00F02FFB2046DC
:1029D000BDE8104000F02ABB10BD0128F7D0022846
:1029E000FAD0FFF75AFEFFF757FFFEE73949C86AEA
:1029F000006810B94FF0FF3203E0C86AC268D068BF
:102A00004268CA667047DFF84C11886D08B901202A
:102A10007047086F08B90220704700207047201DDA
:102A200000F08ABB2DE9F04104460021002C32D091
:102A3000284DA86A5022844204D082F31188FFF7FF
:102A40002BFFFEE7A06C20B982F31188FFF724FF6B
:102A5000FEE7E26A636C401E9A42A0641BD0D0B9C4
:102A6000FFF7DDFF01261427DFF8E480002801BF0F
:102A7000E16A07FB01F258F80200002800F016F89E
:102A8000606CE062C0F10700A061E06A696D864099
:102A900000F004F801210846BDE8F0810E434743E9
:102AA0006E65211D08EB070000F020BB05D1686DA5
:102AB00006FA01F120EA0101696570470122E06A26
:102AC000696D824011436965704700F0D6FB284666
:102AD00070BD0000400E00203046BDE8F2831E4A63
:102AE0004FF080511160704700000000700F00200F
:102AF000F8B5184D2F6D0C46A96A0646081D00F062
:102B00001BFB30B9A86A696DC06A012282409143FB
:102B1000696516F1010F05D124B1A86A011D05F1FF
:102B200038001BE0A86AF6194660BE42A86A05D2C2
:102B3000011D286BBDE8F44000F0E5BA011DE86A0C
:102B400000F0E1FAE86E864238BFEE66F1BD0000A3
:102B5000700F0020400E002004ED00E0BDE8F440BE
:102B600000F0C4BA49444C450000000038B50400E8
:102B70000D4602D100F061F9FEE700F065FBE26B63
:102B8000206C21684243881860600021A16320689E
:102B9000E26BA060521E206C216842438818E060FE
:102BA0004FF0FF3104F144000170417075B92069A4
:102BB000A0B104F11000FFF774FE78B1DFF85813EC
:102BC0004FF08050086000F033F907E004F1100086
:102BD00000F07CFA04F1240000F078FA00F04DFBDC
:102BE000012032BD7CB51C46502320B983F31188E7
:102BF00000F01EF9FEE724B983F3118800F018F9FC
:102C0000FEE72AB129B983F3118800F011F9FEE734
:102C100069B948250095009E482E0DD1069B0125D7
:102C200084F84650009400F02BF8204676BD83F3DC
:102C3000118800F0FDF8FEE783F3118800F0F8F842
:102C4000FEE7F8B506000D46174602D100F0F5F88C
:102C5000FEE7002D0EBF482005FB06F0483000F0CF
:102C60005DF904000AD0002084F8460000943B4639
:102C700004F148022946304600F002F82046F2BD31
:102C800082B0029B01B91A461A60D86319641846CB
:102C9000012102B06AE730B10021416000220260E8
:102CA0000023C36018E0704710B5024600210120E0
:102CB000FFF7C7FF0446FFF7EEFF204610BD1CB527
:102CC00000900B46002200210120FFF78BFF0446F5
:102CD000FFF7E1FF204616BD2DE9F64782B0044616
:102CE0001E46502714B900F0A1F8FEE75FEA010A7A
:102CF00001D1206C70B9022E02D1E06B01280CD1F9
:102D0000FFF781FE00285ED1039800285BD000F019
:102D10008DF8FEE700F08AF8FEE700F087F8FEE79E
:102D2000039907F11000FFF79DFD384600F0C1F848
:102D3000FFF7BDFC18B9C8F8009000F079F800F072
:102D400083FAB86BF96B884242D3022E40D00398C5
:102D5000002835D014B900F05CF8012400F08DFA99
:102D6000FFF79FFC00F070FA07F1440000F054F800
:102D700004BF0022027000F054F804BF0022427029
:102D800000F07BFA00F03CF888BB00F05DFAB86B0D
:102D9000F96B884214BF0025012500F06EFA002D62
:102DA000BED1384600F085F8FFF781FCC7E718B1BF
:102DB000C8F8009000F03CF800F05FFA01201CE039
:102DC00000F05BFA18E02746002400F01DF8B6E793
:102DD00032465146384600F038F8796A0029E6D084
:102DE00007F12400FFF75DFD0028E1D1E4E7384654
:102DF00000F05FF8FFF75BFC002004B0BDE8F0874F
:102E000003A96846FFF782BDDFF80C814FF08059B7
:102E100070476846FFF773BD90F9001011F1010F7C
:102E2000704790F9011011F1010F704787F3118875
:102E3000BFF34F8FBFF36F8F7047502080F311881F
:102E4000BFF34F8FBFF36F8F7047F8B50646154637
:102E5000B46B326C002742B9306830BB7068FFF742
:102E6000E1FD0021074671601FE065B9B068FFF71A
:102E70000BF8B068316C726808449042B06014D3AB
:102E80003068B06011E0F068FEF7FEFF306CF1686A
:102E900040420144F1603268914202D271680844B4
:102EA000F060022D01D104B1641E641CB463384685
:102EB000F2BDF8B5054600F0C7F905F1440494F9F0
:102EC000016070B2012815DB686A98B105F1240031
:102ED000FFF7E7FC08B1FFF74CFD761EF1E7286924
:102EE000A0B105F11000FFF7DCFC08B1FFF741FDD0
:102EF0007F1E08E04FF0FF36667000F0BEF900F06C
:102F0000A3F994F9007078B20128E8DA2670BDE8D8
:102F1000F14000F0B2B9000004ED00E02DE9F84303
:102F20000446FFF7BEFB684FB8684FF00009002564
:102F300000BB07F1180307F1180113F0070F40F663
:102F4000B8300A4604D0CA1DD208D200801A081828
:102F500080180838C008C0003A607D60B8604560DD
:102F60000560831A5360106050683861F8604FF054
:102F7000004078614FF050087869044233D194B32F
:102F8000083414F0070F1FBF04F1080004F0070411
:102F9000041B14F0070F02D000F041F8FEE714B351
:102FA000F868A0421FD33E6839467068A04223D219
:102FB000306800281CBF31460646F6D11CE0301DA3
:102FC00002517460084600F05BF87168F8683A696D
:102FD000401AF860904238BF3861786901437160E7
:102FE000356009F00705FFF762FB15B100F017F82F
:102FF000FEE74846BDE8F283B8688642F3D00A6827
:103000003068086002F108097268121B112ADCD3CB
:10301000311911F00700D2D000F001F8FEE788F373
:103020001188BFF34F8FBFF36F8F7047002800D117
:10303000704738B5A0F10804234D61686A695023D0
:10304000114202D100F015F8FEE7206810B100F03F
:1030500010F8FEE791436160FFF723FBE9686068C1
:103060004118E960204600F00BF8BDE83140FFF759
:103070001EBB83F31188BFF34F8FBFF36F8F704771
:1030800030B511490A4600E01A4613688342FBD363
:103090005368D418844203D14068C3185360104663
:1030A00043681468C518A54208D189688C4204D0C9
:1030B0006168CB184360246800E00C4604608242DB
:1030C00018BF106030BD00001C0000204FF0FF3220
:1030D00000F1080182604160C16000F108020261F4
:1030E00000210160704700210161704710B54268FE
:1030F0004A6093688B6094686160916008610168C0
:10310000491C016010BD30B50A6812F1010F08BFFB
:10311000036907D000F1080300E023465C682568D6
:10312000AA42FAD25A684A6091608B60596008617D
:103130000168491C016030BD4368016982689A607A
:10314000836842685A604A68824204BF83684B6061
:10315000002202610868401E08600868704700008D
:10316000490810B54900A0F120034FF0807499611F
:103170001A60DC616FF002020FF20D01596140F834
:10318000242D203810BD00004E494A68502012F10D
:10319000010F80F31188BFF34F8FBFF36F8F00D003
:1031A000FEE7FEE77CB5484A484B1068502198423C
:1031B00002D100F095F8FEE71068454B984202D125
:1031C00000F08EF8FEE7434B1C780194FF251D703C
:1031D00007251E783B4C8DF800609DF80000A56027
:1031E00000F05000207006E0401EA0609DF8000036
:1031F00040008DF80000A0689DF800502E06F3D422
:10320000C0F10705042D02D000F06AF8FEE70002C5
:1032100000F4E060A06001981870116A41F4700138
:103220001162106A40F07040106200F061F80020F6
:10323000606000F0C5F82848016841F04041016035
:1032400000F0AEF8002076BD502080F31188BFF367
:103250004F8FBFF36F8F1B494A68521C012A4A6087
:103260000AD11E490A68130606D080F31188BFF3FD
:103270004F8FBFF36F8FFEE770471249486838B928
:10328000502080F31188BFF34F8FBFF36F8FFEE79D
:10329000401E486008BF80F31188704780B55020F9
:1032A00080F31188BFF34F8FBFF36F8FFFF753FA8F
:1032B00018B10A494FF080500860002282F311884B
:1032C00001BD00000000002000ED00E071C20F41D0
:1032D00070C20F4100E400E034EF00E004ED00E0D4
:1032E00081F31188BFF34F8FBFF36F8F70470000DA
:1032F0000748084B0021016081604FF47A72196819
:10330000B1FBF2F2521E426007210160704700BF1C
:1033100010E000E018000020034B036003F15400AC
:103320000860802111607047EC0B0020EFF30980EA
:10333000BFF36F8F264B1A681EF0100F08BF20EDE9
:10334000108A20E9F04F106009B44FF0500080F36C
:103350001188BFF34F8FBFF36F8FFFF75AFA4FF00B
:10336000000080F3118809BC19680868B0E8F04FC4
:103370001EF0100F08BFB0EC108A80F30988BFF36D
:103380006F8F7047124B19680868B0E8F04F80F3F0
:103390000988BFF36F8F4FF0000080F311887047EA
:1033A0000C480068006880F308884FF0000080F344
:1033B000148862B661B6BFF34F8FBFF36F8F00DF23
:1033C000DFF81400016841F47001016070470000EB
:1033D000680E002008ED00E088ED00E0000000002D
:1033E00000000000000000000000000000000000DD
:1033F00000000000000000000000000000000000CD
:1034000000000000000000000000000000000000BC
:1034100000000000000000000000000000000000AC
:10342000000000000000000000000000000000009C
:10343000000000000000000000000000000000008C
:10344000000000000000000000000000000000007C
:10345000000000000000000000000000000000006C
:10346000000000000000000000000000000000005C
:10347000000000000000000000000000000000004C
:10348000000000000000000000000000000000003C
:10349000000000000000000000000000000000002C
:1034A0000000000000000000000000000E4801685D
:1034B00041F47001016000220C49086840F00100ED
:1034C00008608A604FF480520B68094803400B6023
:1034D000CA6000200B68074A23F480230B608861D0
:1034E0004FF000611160704788ED00E0001002406D
:1034F000FFFFF6EA08ED00E0000000000000000019
:1035000001020304060708097047FEE7FEE7FEE72D
:10351000FEE7704780B500F015F8FFF774FA012850
:1035200003D0BDE80140FFF7B9BE01BD70470348B5
:10353000FEF776BA0248FCF7FBBE0000FC0F002045
:10354000E00E002002490A68886882180A60704705
:103550000C000020A0860100400D0300801A060028
:1035600000350C0040420F0080841E0000093D0021
:1035700000127A000024F40000366E010048E801D1
:10358000006CDC0230B450F8041B79B10268436867
:1035900002440830DC0744BFA9F10104E31852F8E3
:1035A000045B43F8045B091FF9D1ECE730BC7047BA
:1035B00010B5074979441831064C7C44163404E0B0
:1035C0000A68081D114488470146A142F8D110BD80
:1035D0002C0000004C0000004EF68851CEF2000195
:1035E000086840F470000860BFF34F8FBFF36F8F1F
:1035F0004FF00070E1EE100A70470000F7D3FFFFB4
:10360000301000001C0000200000000079FFFFFFC8
:103610001C0000005400000000000020000000001A
:1036200000F00DF8002801D0FFF7C2FFAFF30080D3
:103630000020AFF30080FDF7C3FE00F002F8012088
:10364000704700F001B800000746384600F002F865
:10365000FBE7000080B5AFF30080024A110018209C
:10366000ABBEFBE72600020000000000AAAAAAAA3F
:103670000000000000000000100000000100000039
:1036800000093D0064656661756C745461736B007C
:103690006D795461736B303200000000014880473F
:1036A00001480047AD340008AD360008AFF3008094
:1036B000FFF792FFFFF7B4FF0000000001020304D0
:1036C000FFF7FEBFFFF7FEBFFFF7FEBFFFF7FEBF2E
:1036D000FFF7FEBFFFF7FEBFFFF7FEBFFFF7FEBF1E
:1036E000FFF7FEBFFFF7FEBFFFF7FEBFFFF7FEBF0E
:1036F000FFF7FEBFFFF7FEBFFFF7FEBFFFF7FEBFFE
:10370000FFF7FEBFFFF7FEBFFFF7FEBFFFF7FEBFED
:10371000FFF7FEBFFFF7FEBFFFF7FEBFFFF7FEBFDD
:10372000FFF7FEBFFFF7FEBFFFF7FEBFFFF7FEBFCD
:10373000FFF7FEBFFFF7FEBFFFF7FEBFFFF7FEBFBD
:10374000FFF7FEBFFFF7FEBFFFF7FEBFFFF7FEBFAD
:10375000FFF7FEBFFFF7FEBFFFF7FEBFFFF7FEBF9D
:10376000FFF7FEBFFFF7FEBFFFF7FEBFFFF7FEBF8D
:10377000FFF7FEBFFFF7FEBFFFF7FEBFFFF7FEBF7D
:10378000FFF7FEBFFFF7FEBFFFF7FEBFFFF7FEBF6D
:10379000FFF7FEBFFFF7FEBFFFF7FEBFFFF7FEBF5D
:1037A000FFF7FEBFFFF7FEBFFFF7FEBFFFF7FEBF4D
:1037B000FFF7FEBFFFF7FEBFFFF7FEBFFFF7FEBF3D
:1037C000FFF7FEBFFFF7FEBFFFF7FEBFFFF7FEBF2D
:1037D000FFF7FEBFFFF7FEBFFFF7FEBFFFF7FEBF1D
:1037E000FFF7FEBFFFF7FEBFFFF7FEBFFFF7FEBF0D
:1037F000FFF7FEBFFFF7FEBFFFF7FEBFFFF7FEBFFD
:10380000FFF7FEBFFFF7FEBFFFF7FEBFFFF7FEBFEC
:10381000FFF7FEBFFFF7FEBFFFF7FEBFFFF7FEBFDC
:04000005080036AD0C
:00000001FF
