:020000040800F2
:10000000E804002065220008752100087721000817
:10001000792100087B2100087D21000800000000F4
:100020000000000000000000000000007F21000828
:1000300081210008000000008321000885210008BC
:10004000992200089D220008A1220008A52200088C
:10005000A9220008AD220008B1220008B52200083C
:10006000B9220008BD220008C1220008C5220008EC
:10007000C9220008CD220008D1220008D52200089C
:10008000D9220008DD220008E1220008E52200084C
:10009000E9220008ED220008F1220008F5220008FC
:1000A000F9220008FD2200080123000805230008AA
:1000B000092300080D230008112300081523000858
:1000C000192300081D230008212300082523000808
:1000D000292300082D2300083123000835230008B8
:1000E000392300083D230008412300084523000868
:1000F000492300084D230008512300085523000818
:10010000592300085D2300086123000865230008C7
:10011000692300086D230008712300087523000877
:10012000792300087D230008812300088523000827
:10013000892300088D2300089123000895230008D7
:10014000992300089D230008A1230008A523000887
:10015000A9230008892100088F210008AD23000889
:10016000B1230008B5230008B9230008BD23000807
:10017000C1230008C5230008C9230008CD230008B7
:10018000D1230008D5230008D9230008DD23000867
:10019000E1230008E5230008E9230008ED23000817
:1001A000F1230008F5230008F923000838B50400FE
:1001B00009D004F17005696809B900F01EF800F073
:1001C00021F8012801D1012032BD606A08B100F098
:1001D0002AF800F00AF821F02A01FFE7816000F018
:1001E0001BF8BDE8324000F02CBB2068416821F4C8
:1001F0009041416020688168704700202870204647
:1002000000F0F6BB242169602068026852085200A1
:100210000260204600F058B92068016841F00101F1
:10022000016020467047204600F0A8BA2DE9FC473F
:10023000054605F1700488466068202817469946EF
:1002400044D1B8F1000F14BF002F01203FD0207817
:1002500001283BD0012121700020E0602122626052
:1002600005F1500600F020FC378082467780A868B0
:10027000B0F5805F04BF286900281ABF40460027F8
:10028000474680460DE02868B8F1000F12BF18F805
:10029000011B37F8021BC1F3080101857088411E5C
:1002A000718053467088CDF80090002811D000224C
:1002B0008021284600F0F2FA0028E4D0032006E06E
:1002C0002020606000212170002000E00220BDE8B5
:1002D000F68700224021284600F0E0FA0028EFD0FF
:1002E000ECE738B5044604F158051346286A20287F
:1002F00040D151B3180028D0287E01283AD00122DD
:100300002A7661652B800020686222212962686953
:10031000E8B10FF20D61C1620FF23D6069690863D7
:1003200069690FF23D60486300206969886320684D
:10033000626D00F12401686900F01EFC38B11020E4
:100340006862002129762020E861012032BD00206A
:1003500028762068016841F4807101602068816816
:1003600041F0010181602068816841F040018160B5
:10037000002032BD022032BD70B504462568E9690F
:100380002A68AB6811F00F000AD188066DD5960671
:100390006BD5216E002967D02046BDE87040084724
:1003A000D80702D412F4907F5FD0C80707D5D605CE
:1003B00005D501202862E56F45F00105E56788074E
:1003C00008D5DD0706D5266802203062E06F40F0D0
:1003D0000400E067480708D5DD0706D52668042035
:1003E0003062E06F40F00200E06708070AD595062A
:1003F00001D4D80706D5256808232B62E06F40F0AA
:100400000800E067E06F002856D0880605D5910601
:1004100003D5216E09B120468847E06F21688A68BC
:10042000510601D400071AD5204600F06AFA206868
:1004300081684A060ED500F040F858B10FF27551A8
:100440008163E06E00F0CDFBB0B3E06E816BBDE880
:10045000704008472046BDE8704000F05EBC204672
:1004600000F05BFC0020E06770BDC80209D55B02AC
:1004700007D54FF4801028622046BDE8704000F098
:100480004DBC080607D5130605D5616EA1B12046FF
:10049000BDE87040084748060ED551060CD52868BF
:1004A00020F040002860202161670020606620461F
:1004B000BDE8704000F033BC70BD816821F04001A0
:1004C0008160E06E704700002DE9F04104469C48D1
:1004D00022681368A168034020690B4361690343E4
:1004E000E0690B430343136000265168E06821F480
:1004F0004051014351600025A36992498A421CBFC3
:10050000206A03439768904827F430673B43936021
:100510008E4F8F4BBA4221D11B6803F00303032B8C
:1005200029D8DFE803F0025F50710127E169B1F5D6
:10053000004F4FF6F07840F0D38067B1012F00F004
:10054000A980022F00F0A980042F00F0AB80082FB3
:1005500000F0B180B7E000F013FFA5E07D4FBA4294
:1005600023D11B6813F00C035FD0042B3AD0082B67
:1005700029D00C2B48D010278A42D7D1390006D079
:10058000022F09D0042F52D0082F53D0D0E000F012
:10059000F7FE002800F0CD80626802EB420188423D
:1005A00002D31303834248D2C2E06B4FBA420CD14C
:1005B0001B6813F0300338D0102B13D0202B02D03F
:1005C000302B21D0D7E70227D6E7644FBA420BD1B0
:1005D0001B6813F0C00328D0402B03D0802BF2D02F
:1005E000C02BEEE70427C7E75D4FBA420ED11B6868
:1005F00013F4407319D0B3F5807FF3D0B3F5007FC7
:10060000E1D0B3F5407FB6D10827B5E78A42B2D131
:100610001B6813F4406308D0B3F5806FE2D0B3F5E4
:10062000006FD0D0B3F5406FCBE70027A4E700F010
:100630005EFEAEE74FF40040AEE737B1022F0AD0BE
:10064000042F0ED0082F16D01BE000F099FE00F00A
:100650008FF879410AE0434911EB520045EB05015F
:1006600004E000F044FE00F083F86941002300F04C
:10067000F5FE064606E0530803F50003B3FBF2F669
:1006800000E00125A6F540703749884250D2226823
:10069000D6604EE000F07CFE06E06068334901EB76
:1006A00050010CE000F023FE61684A0802EB4002B2
:1006B000B2FBF1F605E06068410801F58031B1FB5D
:1006C000F0F6B6B200E00125A6F1100040452FD2A9
:1006D00008EA0601C6F3420001432068C16028E031
:1006E00047B1012F09D0022F0CD0042F08D0082FBA
:1006F0000ED015E000F044FE04E000F049FE01E0F9
:1007000000F0F5FD616800EB5100B0FBF1F605E08B
:100710006068410801F50041B1FBF0F6B6B200E0B7
:100720000125A6F11000404502D22168CE6000E00C
:1007300001250020206660662846BDE8F0810000A3
:10074000F369FFEF008000400024F400003801400E
:10075000881002400044004000480040004C004027
:1007600000500040000024F400FD0F000048E801A4
:100770006268010E560816EB0020704790F82410AE
:10078000CA0706D502685368816A23F400330B4315
:10079000536090F824108A0706D502685368C16A2E
:1007A00023F480330B43536090F824104A0706D596
:1007B00002685368016B23F480230B43536090F865
:1007C00024100A0706D502685368416B23F40043DE
:1007D0000B43536090F82410CA0606D5026893684C
:1007E000816B23F480530B43936090F824108A06A6
:1007F00006D502689368C16B23F400530B439360E2
:1008000090F824104A0610D502685368016C23F44E
:1008100080130B435360036CB3F5801F05D15368FD
:10082000416C23F4C0030B43536090F824100A0674
:1008300006D501684A68806C22F4002202434A60AF
:100840007047F8B5044604F170050020E8606FF0C9
:100850007E4700F029F90646206801680A0708D596
:100860000097334600224FF40011204600F016F89E
:1008700060B9206801684A070AD50097334600220C
:100880004FF48001204600F009F808B10320F2BDC2
:1008900020206860A86000202870F2BD2DE9F0419A
:1008A000069C05460E4690461F462868C1693140A1
:1008B000B1420CBF01200020404519D114F1010FB5
:1008C000F3D000F0F1F8C01B844201D3002CECD12E
:1008D0002868016821F4D071016000F00CF805F17E
:1008E000700020214160816000210170032000E040
:1008F0000020BDE8F08128688168490849008160CE
:10090000704701680A6822F490720A6001688A6878
:10091000520852008A6020218167002202667047D7
:10092000816A00680268930613D40020A1F85A0077
:100930000868026822F480720260086882685208BF
:10094000520082600868826822F0400282602020A3
:100950008867084600F092BE806A00F0A0BE0000E2
:10096000F8B5846A04F1740504F1520029686A68D4
:1009700023689E68370609D5212907D10021018007
:100980001E6826F0C0061E6020232B6021688B683D
:10099000590606D5222A04D1002101812046FFF7FD
:1009A000B0FFA86840F01000A8602046BDE8F24003
:1009B00000F0B3B9806A00F1520100220A810A8076
:1009C00000F0ABB9324881B0816841F0010181602B
:1009D000816801F0010100910099026842F08052A3
:1009E0000260006800F080500090009801B07047ED
:1009F00070B586B0044601A8142100F051FE2568A8
:100A0000244EB54242D12448244D016941F00101F0
:100A10000161016901F0010100910099026842F051
:100A200040020260006800F040000090009800F072
:100A300070FE4FF4C07101910222002103910292D5
:100A4000082103220591049201A9154800F078FEBF
:100A50001448286004216960202000228021E86178
:100A6000AA60EA6029616A61AA612A62284600F0E8
:100A700021F808B100F012FEE566AC620022002108
:100A8000462000F069FF462000F083FF06B070BDED
:100A900058100240008000404C100240A00000208E
:100AA000001800488004024001480068704700BFF9
:100AB00000000020F0B508B90120F0BD0568274E00
:100AC000274CB54200F1240308D226494A191427BD
:100AD000B2FBF7F292001A62DC6108E022494A197F
:100AE0001426B2FBF6F2920020491A62D961022262
:100AF0005A702E688168C2686FF30E160E43016942
:100B0000164342690E4381691643C2690E43016A66
:100B100016430E432E608268B2F5804F17D0DA6913
:100B20000F21A2420CBF124A124A146893F82050B7
:100B300005F01C05A94024EA01011160116893F831
:100B40002040406804F01C04A040014311600020D4
:100B50009861012159701870F0BD0000080402402E
:100B600000000240F8FFFDBFF8FBFDBF000402409B
:100B7000A8000240A8040240F8B5044604F1240687
:100B800000253078012801D10220F2BD012030700B
:100B90007778012F21D102207070B5612068076835
:100BA0007F087F000760204600F0A3F82168F06806
:100BB00020B10A6842F00E020A6008E0086820F0DE
:100BC000040008602068016841F00A0101602068A3
:100BD000016841F00101016001E0357002252846FD
:100BE000F2BD38B500F1240100244A78022A03D06E
:100BF00004208861012417E00268136823F00E03C3
:100C00001360026815686D086D001560012291F887
:100C10002030CD6903F01C039A406A6001224A70BB
:100C20000C70496901B18847204632BDF8B500F122
:100C300024010423CA6914680268156891F82060C9
:100C400006F01C0603FA06F73C4210D06F070ED5DB
:100C50001468A50603D4146824F00404146000F09A
:100C60003AF8C968002935D0BDE8F44008470223A6
:100C700003FA06F73C4213D0AF0711D51468A50656
:100C800005D4146824F00A04146001224A7000F0AC
:100C900022F800220A708968E1B1BDE8F4400847F3
:100CA000082303FA06F6344214D02B0712D5146831
:100CB00024F00E041460012200F015F89A406260DE
:100CC00001228A614A7000220A70096911B1BDE8E7
:100CD000F4400847F1BD91F82020CC6902F01C02D5
:100CE00093406360704791F82030CC6903F01C0397
:100CF000704770B590F84450066C012405F01C054F
:100D0000AC407460046863608068102802D1A260FF
:100D1000E16070BDA160E26070BD704770477047D0
:100D20002DE9FC4705001AD0DFF8F076DFF8FC4625
:100D3000B86800F00C09F86800F003082878C106CC
:100D40005BD5B9F1000F05D0B9F10C0F08BFB8F1B0
:100D5000010F2ED13868810703D5A869002800F05B
:100D60005B81396808074EBF396861680909286ADC
:100D700001F0F001814206D200F016FB002808D1F4
:100D800000F019FA07E000F016FA286A00F00CFBF0
:100D9000002840F0418100F0AAFABA6800F09DFAFC
:100DA000DFF88006006800F01FFE010000F03881C7
:100DB000FFE1A869C0B1396841F001013960FFF76E
:100DC00073FE06463868810700F12881FFF76CFE44
:100DD000801B0328F6D30320EBE1FFF765FE801BA1
:100DE0000328C0F05881F6E73868400840003860B2
:100DF000FFF75AFE06463868810740F11181FFF778
:100E000053FE801B0328F6D3E5E76868B0F5803F02
:100E100004D1386840F48030386011E0B0F5A02F7C
:100E2000386806D140F480203860396841F4803158
:100E300005E020F480303860396821F48021396081
:100E4000686860B1FFF730FE06463868810300F13C
:100E5000FA80FFF729FE801B6528F6D3BBE7FFF772
:100E600023FE06463868810340F1ED80FFF71CFE43
:100E7000801B6528F6D3AEE7E86880B1396841F495
:100E800080713960FFF710FE06463868410500F1B1
:100E9000ED80FFF709FE801B0328F6D39BE7386837
:100EA00020F480703860FFF7FFFD06463868410582
:100EB00040F1E380FFF7F8FD801B0328F6D38AE7B3
:100EC000400840006060FFF7EFFD0646606881075C
:100ED00040F1E580FFF7E8FD801B0328F6D37AE7B1
:100EE0000528206806D140F004002060216841F008
:100EF000010105E0400840002060216821F0040164
:100F00002160A86841F2893868B1FFF7CDFD8246BB
:100F10002068810700F1F780FFF7C6FDA0EB0A000B
:100F20004045F5D357E7FFF7BFFD824620688107AC
:100F300040F1E980FFF7B8FDA0EB0A004045F5D38A
:100F400049E7FFF7B1FD801B0328C0F0EF8042E7BF
:100F500040084000A060FFF7A7FD0646A068810793
:100F600040F1E880FFF7A0FD801B0328F6D332E7AD
:100F7000FFF79AFD801B0328C0F0EC802BE7FFF7FA
:100F800093FD801B0328C0F00F8124E7396811F01E
:100F9000205F03D1F86880088000F860F968DFF806
:100FA00090040140F960FFF77FFD06463868810133
:100FB00040F1FE80FFF778FD801B0328F6D30AE797
:100FC000012829D0F868EA6A00F00301914201BFC4
:100FD00000F070012A6B521EB1EB021F1CD16A6B2C
:100FE00000F4FE41B1EB022F02BF00F07841AA6B82
:100FF000B1EBC26F10D1EA6B520800F4C001521E6F
:10100000B1EB425F08D1296C490800F0C060491E6D
:10101000B0EB416F00F0CC800120CAE000F0CBF8CB
:101020002878C1070FD5B9F1080F06D0B9F10C0F18
:1010300008BFB8F1030F7FF4E8AE3868810302D52A
:1010400068680028E8D02978880716D5B9F1040F18
:1010500006D0B9F10C0F08BFB8F1020F7FF40CAF46
:101060003868410502D5E8680028D5D07868296934
:1010700020F0FE4040EA01607860287801070ED534
:101080006869002860683FF41BAF40F001006060B1
:10109000FFF70AFD0646606881077FF59EAE287857
:1010A000410735D5B86D0026C10009D4B86D40F0B0
:1010B0008050B8650126B86D00F08050009000980F
:1010C000DFF87083D8F80000C10513D4D8F8000009
:1010D00040F48070C8F80000FFF7E6FC8246D8F8BC
:1010E0000000C10506D4FFF7DFFCA0EB0A000328CF
:1010F000F5D370E6A86801287FF4F2AE206840F0CE
:1011000001002060FDE61EB1B86D20F08050B8658A
:10111000287881060ED5686A0028A0683FF418AFC9
:1011200040F00100A060FFF7BFFC0646A068810701
:101130007FF507AFA86AD8B3B9F10C0F3FF440AF01
:101140000228386820F0807038607FF41FAFFFF706
:10115000ABFC0646386881013FF50AAFFA68DFF854
:10116000D812E86A0A40296B0243491E686B42EABA
:101170000112E96B490842EA0022286C491E400826
:1011800042EA4152401E42EA4062A86B42EAC06213
:10119000FA60396841F080713960F86840F0807019
:1011A000F860FFF781FC0646386881017FF5E7AEFD
:1011B0000020BDE8F687386840F0080038603968DC
:1011C000286A21F0F001014339607968E86921F467
:1011D0007F4141EA0021796070472DE9F041040028
:1011E000884678D0DFF85462306800F00700404548
:1011F00009D23168C90848EAC1013160306800F09D
:101200000700404567D12078DFF81052C1074AD562
:101210006068032802D129688A0108E0022802D107
:1012200029688A0303E00028296802D18A0702D4CA
:1012300051E04A054FD5A968890840EA8100A860B5
:10124000FFF732FC0746A868616800F00C00B0EBBD
:10125000810F28D0FFF728FCC01B41F2893188425A
:10126000F1D303201DE02078410705D5AA68E06886
:1012700022F4E0620243AA602178080706D5A96833
:10128000206921F4605141EAC001A96000F02FF803
:10129000AA6800F022F8BDE8F0416248006800F05A
:1012A000A3BBBDE8F0812078810705D5AA68A068B6
:1012B00022F0F0020243AA60316801F0070188457C
:1012C000D1D23068C00848EAC0003060316801F00F
:1012D00007014145C7D00120E3E75949C2F3031292
:1012E000895C4F4A01F01F01C8401060704770B51B
:1012F0004A4A554B9068D6680025002110F00C0032
:1013000006F00306514C03D00C2812D1012E1AD13D
:1013100015682E0704D4444D2E68C6F3032502E059
:101320001568C5F303154A4E56F8255048B92946A5
:1013300024E0042808BF214620D008281ED11946E1
:101340001CE00C281AD1D06800F00300022803D05A
:10135000032808BF1D4600E02546D168D068D26842
:10136000C0F306204543C1F30210C2F34161401CA3
:10137000491CB5FBF0F04900B0FBF1F1084670BD27
:101380002748304A006813683249C3F3022206E056
:1013900023482C4A006813682E49C3F3C222895C93
:1013A00001F01F01C84070477CB52B4E05463068E0
:1013B0000024C10002D500F077F90EE0306840F05B
:1013C00080503060316801F080510091009800F049
:1013D0006BF9316821F080513160B0F5007F04D1A4
:1013E000802D0CD9A12D09D304E0802D88BF0324C2
:1013F00005D801D1022402E0702D00D101240F484C
:101400000168C90844EAC1010160006800F00700F2
:10141000A04201D0012076BD002076BD0010024020
:101420000C000020040000209410024090100240A4
:10143000FFFFEEFE007000408C809D010020024006
:10144000082100080810024000127A000024F4006D
:10145000182100089022000858100240D3BBD9B1CF
:10146000B2F5803F5BD2022A1ED98C46B1FBF2F165
:1014700002FB11C31B0443EA1043B3FBF2FC02FB63
:101480001C3380B240EA0343B3FBF2F002FB10329C
:1014900040EA0C4000237047022A05D98446B0FB7D
:1014A000F2F002FB10C270474AB105D100F0010210
:1014B00049085FEA3000704700220023704700F0BF
:1014C000B5BA0B000200002100207047F7D30022BC
:1014D00000237047904271EB030CF2D370B5B1FA60
:1014E00081F4B3FA83F52C1BA340C4F1200532FA32
:1014F00005F63343A2405FF00046E64002E05B0899
:101500005FEA3202841A71EB030524BF20462946A4
:101510007641F4D302000B003000002170BD70B59D
:10152000B1FA81F4B2FA82F5C4F120046419B4F17D
:101530002006DAD3B2405FF00044F440002502E018
:1015400052085FEA3303C61A71EB020E24BF30461D
:10155000714664416D41F3D302000B002000290065
:1015600070BD30B4002513E050F8042BD30744BFFE
:10157000A9F101039A18091F042942F8045BFAD261
:1015800013468C0744BF15809B1CC90748BF1D70BC
:1015900050F8041B0029E7D130BC70471CB500F09F
:1015A00047FA00F036F8394C606840F0400060605F
:1015B000606800F040000090009800F0AAF82168F0
:1015C00041F00201216000222068314C00F002004D
:1015D000009000210098452000F0BEF9452000F061
:1015E000D8F92C4820604FF4E1310C2000226061D2
:1015F0006160A260E2602261A261226262622046B2
:10160000FEF7D4FD012204F180012046FEF769FEB9
:10161000FEE718B5B9B0204C28A82146442200F0B6
:1016200017FA6846142100F03BF805A804F14401BC
:101630008C2200F00DFA01212E911020289000221A
:1016400060212F923091329228A8FFF769FB0F207A
:101650000090002101910291039104916846FFF7E7
:10166000BCFD202100220591189205A800F0FCF98C
:101670004FF4007000F01EF83AB010BD04480A2381
:10168000012200F18001FEF7D1BD000048100240A8
:101690001000002000800040EC1F000870477047D9
:1016A000002200F089BC0000DFF88400006800F42C
:1016B000C060704710B5DFF87810B0F5007F08689B
:1016C00000F4C06015D1B0F5007F1BD00868DFF8CA
:1016D0006420DFF8644020F4C06040F4007000F043
:1016E0001FF84A6953050FD5002818BF401EF8D1CE
:1016F0000AE0B0F5806F05D0086820F4C06040F4BF
:1017000080600860002010BD48694105FAD50320BB
:1017100010BDDFF82800016841F4007101607047D6
:101720000860322013684343B3FBF4F0401C704759
:10173000007000400C00002040420F000470004088
:101740002DE9F84700266D4A0F230446884632E00B
:101750006B4DAC4214BF082507258D4045EA0E05A8
:101760004CF82750C74367490D6800F0C2F8ED03F5
:1017700048BF40EA0C0CC1F800C04D6800F0B9F851
:10178000AD0348BF40EA0C0CC1F804C08D6800F0FE
:10179000B0F8ED0248BF40EA0C0CC1F808C0CD68B3
:1017A00007EA050CD8F80470BD0248BF40EA0C0CEB
:1017B000C1F80CC0761CD8F8001031FA06F000F021
:1017C00096800127B74017EA0100F3D0D8F80450FB
:1017D000B100022D18BF122D12D1F50804EB850CB3
:1017E00001F01C05DCF820E0D8F810A003FA05F998
:1017F0002EEA090E0AFA05F545EA0E05CCF8205046
:101800004FEA460C4FF0030E256898F804900EFA44
:101810000CFE6FEA0E0E09F003090EEA050509FA3F
:101820000CF949EA05052560D8F80450012D18BFC8
:10183000022D03D0112D18BF122D13D1A568D8F891
:101840000C900EEA050509FA0CF949EA0505A560B0
:10185000656825EA0707D8F80450C5F30015B540B8
:101860002F436760E7680EEA0705D8F8087007FAA3
:101870000CF73D43E560D8F80450EF009AD51568A1
:10188000DFF884C045F00105156001F00C01176810
:1018900007F00107009703FA01FE009FB7085CF804
:1018A000275025EA0E0EB4F1904F08BF00251DD039
:1018B000164DAC4208BF012518D0154DAC4208BFEB
:1018C000022513D0134DAC4208BF03250ED0124D94
:1018D000AC4208BF042509D0104DAC4208BF052515
:1018E00004D00F4DAC427FF433AF062535E7BDE899
:1018F000F18707EA050CD8F80450704760100240E1
:10190000001C004800040140080001400004004899
:1019100000080048000C004800100048001400486F
:10192000001800480901020002D429488154704778
:10193000284B02F00F021A4402F8041C7047264B91
:1019400019684FF6FF020002114000F4E0600843FE
:10195000224908431860704738B51F4B1C68C4F310
:101960000223C3F10704052C28BF04241D1D072DE5
:1019700034BF0023DB1E012505FA04F4641E214058
:10198000994005FA03F35B1E1A401143BDE8344049
:10199000C8E7010007D4012200F01F01104B8A4064
:1019A000400943F82020704710B5401EB0F1807FF9
:1019B00001D3012010BD0B4C60600F214FF0FF30B0
:1019C000FFF7B0FF0021A16007202060002010BDBC
:1019D00000E400E018ED00E00CED00E00000FA0586
:1019E00000E100E010E000E070B50E4E0446B06883
:1019F0000025A0B14FF47A710B4AB1FBF0F11068E9
:101A0000B0FBF1F0FFF7D0FF48B9102C07D200224D
:101A100021464FF0FF30FFF79FFF746000E0012583
:101A2000284670BD000000200C0000207047000018
:101A3000032010B5FFF783FF0020FFF7D5FF002438
:101A4000002814BF0124FEF7BDFF204610BD000092
:101A50004AB1000011F8013B521E00F8013B1CBFC7
:101A600011F8013BF8E770472DE9F84F06460024CE
:101A70003068DFF850730105A04621D5B06E70B113
:101A8000B0F5800F17D0B0F5000F03D0B0F5400FC0
:101A900009D013E03A6842F480323A6004E0002151
:101AA00000F08DF9044654B9F96FB06E21F440018D
:101AB0000143F96704E000F07CF9F3E70124A04654
:101AC0003068C10421D5F06EA8B1B0F1807F17D085
:101AD000B0F1007F03D0B0F1407F04D013E039684B
:101AE00041F4803139607CB9F96FF06E21F04071BA
:101AF0000143F96709E0002100F061F90446F2E7CB
:101B000000F057F9FAE70124A0463068DFF8B85230
:101B100081032ED5F86CC1004FF000090AD4F86C8F
:101B200040F08050F8644FF00109F86C00F08050EC
:101B300000900098DFF894A2DAF8000040F480707A
:101B4000CAF80000FEF7B0FF8346DAF80000C105CE
:101B500000F10281FEF7A8FFA0EB0B000328F4D3ED
:101B60000324A046B9F1000F03D0F86C20F0805098
:101B7000F8643078C10705D5FA6FB06B920840EA77
:101B80008202FA673178880705D5F96FF06B21F08A
:101B90000C010143F9673178480705D5F96F306CBE
:101BA00021F030010143F9673178080705D5F96F55
:101BB000706C21F0C0010143F9673178C80605D582
:101BC000F96FB06C21F440710143F96731788806F0
:101BD00005D5F96FF06C21F440610143F967316874
:101BE000880505D5F96F306E21F440210143F9676E
:101BF0003168480505D5F96F706E21F44011014335
:101C0000F9673178480605D5F96F306D21F44051F8
:101C10000143F9673178080605D5F96F706D21F435
:101C200040410143F9673168C80505D5F96FB06DCA
:101C300021F440310143F9673168C80205D5E968EC
:101C4000F06D890840EA8101E9603168880420D597
:101C5000F96F306F21F040610143F967306FB0F1E7
:101C6000006F0ED100F0A0F813E0FEF71DFFA0EB0F
:101C70000B0041F289318842C0F08B804FF003089D
:101C800070E7B0F1806F04D100F098F8010018BF40
:101C900080463068010314D5FA6F706F22F04062FD
:101CA0000243FA67706FB0F1006F02D100F07CF868
:101CB00007E0B0F1806F04D100F080F8010018BF98
:101CC00080463068410314D5FA6FB06F22F040624D
:101CD0000243FA67B06FB0F1006F02D100F064F810
:101CE00007E0B0F1806F04D100F068F8010018BF80
:101CF00080463068410418D5FA6FF06F22F04052E8
:101D00000243FA67F06FB0F1805F03D1022100F067
:101D100056F807E0B0F1005F07D1022106F120007C
:101D200000F0BAF8010018BF80463068010406D5FB
:101D3000FA6FD6F8800022F080420243FA673168D9
:101D4000C80306D5F96FD6F8840021F0004101439D
:101D5000F9674046BDE8F28F002C7FF402AF286897
:101D600010F4407006F184041CBF616888420BD0F7
:101D70002868296841F48031296020F440702A687D
:101D800022F480322A602860C00706D5FEF78CFE58
:101D90008346286881077FF568AF2A68606822F467
:101DA000407202432A60DDE6386840F480103860F3
:101DB0007047002106F1200000F06EB80121301DAF
:101DC00000F006B80C100240901002400070004075
:101DD0002DE9F04100F0DBF809D0F16801F00301D2
:101DE00081422BD150B300F0CBF80CD026E0012873
:101DF00004D023D303281BD016D31FE032689107E9
:101E00001CD500F0B3F8306820F0806000F0C8F80E
:101E100080463068010133D5FEF746FEA0EB08008E
:101E20000328F6D3032536E031684A05E9D405E0F6
:101E300031688A03E5D431684A03E2D401252AE0F7
:101E4000012C326909D13B69584802405B0842EADB
:101E500001215B1E41EA435102E07B6900F07DF8FD
:101E60003161306840F0806000F09AF804463068D4
:101E700001010CD4FEF718FE001B0328F7D3D1E7AD
:101E8000B968002CDCD1326900F05FF8E8E731690D
:101E9000B8690143316155E02DE9F04100F077F870
:101EA00009D0F16801F0030181422BD150B300F059
:101EB00067F80CD026E0012804D023D303281BD0D8
:101EC00016D31FE0326891071CD500F04FF8306838
:101ED00020F0805000F064F880463068810026D5FC
:101EE000FEF7E2FDA0EB08000328F6D3032529E066
:101EF00031684A05E9D405E031688A03E5D43168E0
:101F00004A03E2D401251DE03B6900F026F8716127
:101F1000306840F0805000F043F80446306881009B
:101F20000CD4FEF7C1FD001B0328F7D3DEE7B96828
:101F30007269002CE8D100F008F8E8E77169786967
:101F4000014371612846BDE8F0811948FB680240F1
:101F500042EA012141EAC3617047164802405B082A
:101F600042EA01215B1E41EA43617047F2687968E9
:101F700022F073021043491E40EA0110F0607047DE
:101F8000F0687968C0F30210401C88427047074629
:101F9000054E38680C46F168002511F0030F7047B4
:101FA0003060FEF781BD000000100240FF809FFFFF
:101FB000FF80FF07FF80FFF900B500BF13009646C2
:101FC0009446103928BFA0E80C50FAD85FEA417C4B
:101FD00028BF0CC048BF40F8042BC90728BF20F811
:101FE000022B48BF00F8012B00BD000000000000DC
:101FF00000000000000000000000000000000000E1
:1020000000000000000000000000000000000000D0
:1020100000000000000000000000000000000000C0
:1020200000000000000000000000000000000000B0
:1020300000000000000000000000000000000000A0
:102040000000000000000000000000000000000090
:102050000000000000000000000000000000000080
:102060000000000000000000000000000000000070
:102070000000000000000000000000000000000060
:102080000000000000000000000000000000000050
:102090000000000000000000000000000000000040
:1020A0000000000000000000000000000000000030
:1020B0000000000000000000000000000E48016861
:1020C00041F47001016000220C49086840F00100F1
:1020D00008608A604FF480520B68094803400B6027
:1020E000CA6000200B68074A23F480230B608861D4
:1020F0004FF000611160704788ED00E00010024071
:10210000FFFFF6EA08ED00E000000000000000001C
:102110000102030406070809A0860100400D030020
:10212000801A060000350C0040420F0080841E001B
:1021300000093D0000127A000024F40000366E0110
:102140000048E801006CDC0230B450F8041B79B19F
:102150000268436802440830DC0744BFA9F1010467
:10216000E31852F8045B43F8045B091FF9D1ECE76C
:1021700030BC70477047FEE7FEE7FEE7FEE77047BA
:102180007047704700F00AB80248FEF74FBD02489A
:10219000FEF7F2B8A00000201000002002490A68F3
:1021A000886882180A6070470000002010B507494F
:1021B00079441831064C7C44163404E00A68081D42
:1021C000114488470146A142F8D110BD2C000000FF
:1021D0004C0000004EF68851CEF20001086840F431
:1021E00070000860BFF34F8FBFF36F8F4FF0007028
:1021F000E1EE100A704700006BF3FFFFD80000000B
:10220000100000200000000041FFFFFF1000000050
:1022100064000000000000200000000000F00DF845
:10222000002801D0FFF7C2FFAFF300800020AFF31A
:102230000080FFF7B3F900F002F80120704700F0CA
:1022400001B800000746384600F002F8FBE700003E
:1022500080B5AFF30080024A11001820ABBEFBE747
:10226000260002000148804701480047BD200008C1
:10227000852200080000000010000000010000009E
:1022800000093D00AFF30080FFF7A4FFFFF7C6FF92
:102290000000000001020304FFF7FEBFFFF7FEBFCE
:1022A000FFF7FEBFFFF7FEBFFFF7FEBFFFF7FEBF62
:1022B000FFF7FEBFFFF7FEBFFFF7FEBFFFF7FEBF52
:1022C000FFF7FEBFFFF7FEBFFFF7FEBFFFF7FEBF42
:1022D000FFF7FEBFFFF7FEBFFFF7FEBFFFF7FEBF32
:1022E000FFF7FEBFFFF7FEBFFFF7FEBFFFF7FEBF22
:1022F000FFF7FEBFFFF7FEBFFFF7FEBFFFF7FEBF12
:10230000FFF7FEBFFFF7FEBFFFF7FEBFFFF7FEBF01
:10231000FFF7FEBFFFF7FEBFFFF7FEBFFFF7FEBFF1
:10232000FFF7FEBFFFF7FEBFFFF7FEBFFFF7FEBFE1
:10233000FFF7FEBFFFF7FEBFFFF7FEBFFFF7FEBFD1
:10234000FFF7FEBFFFF7FEBFFFF7FEBFFFF7FEBFC1
:10235000FFF7FEBFFFF7FEBFFFF7FEBFFFF7FEBFB1
:10236000FFF7FEBFFFF7FEBFFFF7FEBFFFF7FEBFA1
:10237000FFF7FEBFFFF7FEBFFFF7FEBFFFF7FEBF91
:10238000FFF7FEBFFFF7FEBFFFF7FEBFFFF7FEBF81
:10239000FFF7FEBFFFF7FEBFFFF7FEBFFFF7FEBF71
:1023A000FFF7FEBFFFF7FEBFFFF7FEBFFFF7FEBF61
:1023B000FFF7FEBFFFF7FEBFFFF7FEBFFFF7FEBF51
:1023C000FFF7FEBFFFF7FEBFFFF7FEBFFFF7FEBF41
:1023D000FFF7FEBFFFF7FEBFFFF7FEBFFFF7FEBF31
:1023E000FFF7FEBFFFF7FEBFFFF7FEBFFFF7FEBF21
:0C23F000FFF7FEBFFFF7FEBFFFF7FEBFC8
:040000050800228548
:00000001FF
