:020000040800F2
:1000000040070020093A00088139000883390008B8
:100010008539000887390008893900080000000088
:100020000000000000000000000000008B39000804
:100030008D390008000000008F3900089139000850
:100040002B3A00082F3A0008333A0008373A0008E4
:100050003B3A00083F3A0008433A0008473A000894
:100060004B3A00084F3A0008533A0008573A000844
:100070005B3A00085F3A0008633A0008673A0008F4
:100080006B3A00086F3A0008733A0008773A0008A4
:100090007B3A00087F3A0008833A0008873A000854
:1000A0008B3A00088F3A0008933A0008973A000804
:1000B0009B3A00089F3A0008A33A0008A73A0008B4
:1000C000AB3A0008AF3A0008B33A00089539000887
:1000D000B73A0008BB3A0008BF3A0008C33A000824
:1000E000C73A0008CB3A0008CF3A0008D33A0008D4
:1000F000D73A0008DB3A0008DF3A0008E33A000884
:10010000E73A0008EB3A0008EF3A0008F33A000833
:10011000F73A0008FB3A0008FF3A0008033B0008E2
:10012000073B00080B3B00080F3B0008133B00088F
:10013000173B00081B3B00081F3B0008233B00083F
:10014000273B00082B3B00082F3B0008333B0008EF
:10015000373B00083B3B00083F3B0008433B00089F
:10016000473B00084B3B00084F3B0008533B00084F
:10017000573B00085B3B00085F3B000800000000A5
:10018000633B0008673B00082DE9F04F0FF2A41C09
:10019000A1B0DCE90089CDE900892A9DDFF8DC9B6C
:1001A000049100248DF843500D944FF0FF3882469F
:1001B00016461F460FE0B3462C461BF8011B049859
:1001C000D0470028049000F0A2800D98401C641EC7
:1001D0000D90F2D176193078252808D1002100221F
:1001E0000791089209910A920B910C920DE06A46D0
:1001F0004146304600F0DAFF050001D10D98A1E03C
:10020000D9D50125E6E741F0010116F8010F2028B4
:10021000F9D023280CD02B2804D02D2805D0302845
:1002200009D076E041F00201EFE741F00401ECE78C
:1002300041F00801E9E741F01001E6E70F9209E01B
:100240000F98484505DA00EB800402EB4402303A8F
:100250000F92761C3278A2F130000A28F0D3307861
:100260002E2818BFCDF8388022D116F8010F2A2881
:1002700007D138683860761C50F8042B38600E922D
:1002800016E02D280CBF761C002000220E920AE0FA
:1002900040B90E9A4A4505DA02EB820403EB4403A7
:1002A000303B0E93761C3378A3F130020A2AEFD349
:1002B000ADF8401021A0317800F082FF08B116F8A7
:1002C000010B8DF842009DF84200682804D1307877
:1002D00068280AD1622105E06C2804BF30786C28B8
:1002E00003D171218DF84210761C12A806903A466F
:1002F00016F8013B02A9504600F064F838B912AA7A
:1003000002A9504600F0C8F900287FF564AF4046C6
:1003100018E02A2892D13A683A6052F8040B3A6001
:1003200000280F9003D540420F9041F00401761C45
:1003300095E700000000000000000000686A6C748F
:100340007A4C000021B0BDE8F08F622820D06828E8
:1003500011D06A2803D06C2827D0712825D10868CD
:10036000C01D20F007000860D0E9002308300860B5
:10037000194610467047002A0A680A60106803D0C0
:10038000121D0A6000B217E0121D0A6080B217E069
:10039000002A0A680A60106803D0121D0A6040B281
:1003A0000AE0121D0A60C0B20AE0002A0A680A6068
:1003B000106803D0121D0A60C1177047121D0A6031
:1003C000002170477CB50D4611461C462E69B4F1DC
:1003D000250200F04F811C3A00F08480121F022A8F
:1003E00040F280800E3A00F00981521F59D0093A3C
:1003F00078D0921E16D0521E35D0521E022A71D9C4
:10040000121F30D0521F00F09880521E49D0521E49
:1004100000F0E280D21E00F0FF80921E41D0D21E7A
:100420003FD02DE195F83A406C2C09D06869421C08
:100430006A610A680A6052F8043B0A60335429E191
:100440000A680A6052F8043B0A6000930022019295
:100450004FF0FF332B636A46294600F098F90028D5
:1004600040F1188103E195F83A000122FFF76DFF92
:10047000C5E90001002904D56869411C69612D2284
:100480000DE0288F810704D56869411C69612B2222
:1004900005E0C00721D56869411C696120223254FA
:1004A0001BE095F83A000022FFF74FFFC5E9000175
:1004B00095F83800010710D5D5E90023002B08BFB7
:1004C000002A0AD044F02000782806D1686930213B
:1004D0003154401C421C6A613454214668693044DE
:1004E000E86087E00868C01D20F007000860D0E9D8
:1004F000002308300860C5E90023D5E90001C80FD2
:1005000004D06869411C69612D220DE0288F8107A4
:1005100004D56869411C69612B2205E0C00704D538
:100520006869411C69612022325468693044E8607E
:100530002146284600F036FAACE005F13A02507840
:1005400020B14FF0FF340FF6043074E010786228C9
:1005500008D0682824D06A2812D06C282ED07128A0
:100560000ED02BE00A680A6052F8040B0A6020B92A
:100570004FF0FF340FF6EC205DE0E96A017089E08E
:100580000A680A6052F8040B0A6020B94FF0FF3481
:100590000FF6D0204FE0EA6AD317C0E9002379E0D4
:1005A0000A680A6052F8040B0A6020B94FF0FF3461
:1005B0000FF6B0203FE0E96A01806BE00A680A604C
:1005C00052F8040B0A6020B94FF0FF340FF6942064
:1005D00031E0E96A01605DE00A680A6052F8040BE4
:1005E0000A60002120F0000221F0FF33C5E900235A
:1005F000EE607821284600F02DF94BE06C2285F85A
:100600003A200B680B6053F8042B0B6052BB4FF081
:10061000FF340FF684200EE095F83A206C2AF0D0D3
:100620000868086050F8044B0860EC603CB94FF073
:10063000FF340FF6482000F0EBFD201A76BD2E6B3C
:10064000002E04D5204600F003FE044608E03246A2
:100650000021204600F026FE002814BF041B34466B
:10066000AC6117E0294600F092F8002812D54FF04F
:10067000FF3076BD6869411C69612522325409E06A
:100680006969481C686125227254210002D0431C0C
:100690006B613454002076BD2DE9F0410E460546CD
:1006A0009046726B7069316AB46A121AB069521A54
:1006B000716A121AF069521A121A96F83800141B4D
:1006C00041070DD4002C0BDD2746B0682021A84738
:1006D0000028B06057D0F06A401C7F1EF062F4D151
:1006E000736942463146284600F098FC00284AD1FA
:1006F000376A002F0ADDB0683021A8470028B060B3
:1007000041D0F06A401C7F1EF062F4D1B369F268F8
:100710003146284600F082FCA8BB776A002F09DD2D
:10072000B0683021A847B06068B3F06A401C7F1EF3
:10073000F062F5D1F068B169F36942183146284694
:1007400000F06CFCF8B9B76A002F09DDB068302101
:10075000A847B060B8B1F06A401C7F1EF062F5D1C6
:1007600096F8380041070BD5002C09DDB068202130
:10077000A847B06038B1F06A401C641EF062F5D141
:100780000020BDE8F0814FF0FF30BDE8F0812DE999
:10079000F8470D46A3B02F6B002F0646904648BF82
:1007A0006FF000470FF60C1400F0A8FDD4E9002309
:1007B000696B4018CDE90123812828BF4FF0FF3035
:1007C00042D20024002F33DDD8F8001001AA684679
:1007D00000F0EEFC8146B9F1000F38D4D8F80000E3
:1007E00010B9B9F1010932D44F4521DB6869484499
:1007F00081280AD30021696303AA29463046FFF7FE
:100800004BFF040014D40020686103ABD5F814A09A
:100810004A46694603EB0A0000F076FDCA44C5F873
:1008200014A058F8040B002818BFA7EB0907C9D17A
:100830004CB903AA29463046FFF72EFF044614B9E7
:10084000002068616863204624B0BDE8F0874FF05F
:10085000FF34F8E72DE9FC4307466F293E6908BFDE
:10086000082405D041F02000782814BF0A24102461
:100870003C25D7E90023642918BF69299046994689
:1008800005D1002B03D5D8F1000869EB4909B9F16E
:10089000000F08BFB8F1000F1FD1386BE8B9082C62
:1008A0004CD197F83800010748D530203B2586F811
:1008B0003B0043E000280ED597F8380000F0140004
:1008C000102808D17B6B7969386A5B1A1B1A9A1A4F
:1008D000002AC8BF3A62BDE8F3838DF80010404695
:1008E00049462246E31700F063FD3032D0B26D1E58
:1008F0003A28019504DB9DF80000A0F151018A1807
:100900007255404649462246E31700F051FD8046A5
:100910005FEA010908BFB8F1000F03D0F868711948
:100920008842DCD3082C09D197F83800010705D597
:10093000705D302802D06D1E30207055C5F13C022C
:10094000BA617119F960386B8242B3DA821A3A627D
:100950004FF6EF70398F01403987BDE8F3832DE9F9
:10096000D04306460F4614464FF00008DFF81094B7
:1009700012E0E00707D542464B463046394600F0C4
:100980002FFE06460F464046494642464B4600F07B
:1009900027FE641080468946002CEAD1304639464D
:1009A000BDE8D0832DE9F84F05468A464AF0200479
:1009B0008EB0D5E90089612C02AE09D0286B0028E1
:1009C00048BF062003D408BF672C01D1012028634B
:1009D000D5E900014A005215521C0DD10B030BD072
:1009E000AAF1610103201A29A86102D20FF2CC6199
:1009F00010E00FF2CC610DE04A005215521C0ED1EE
:100A00000B030CD1AAF1610103201A29A86116D3A6
:100A10000FF2B461E868032200F076FCC0E1CDE992
:100A20000C01DDE90C2323F00043B3F5801F0DD248
:100A30000027002B08BF002A019703D111E00FF215
:100A40008461E7E701AA00F09DFE0AE0CD48CE49A7
:100A500000EB1350DDE90C2301900B40CB4910460D
:100A60001943C5E90001612C0DD1E86830210170FE
:100A7000821CBAF1610FEA600CBF782158214170E5
:100A80006869801C6861D5E90001CDE90C01DDE9E8
:100A90000C2333F0004104BF0028002300F04881FC
:100AA000612C40F0A080286B494600284CBF4FF0D5
:100AB000210B00F1010B404600220023DDE90C89E7
:100AC00000F098FE01990BF1010738BF89F0004949
:100AD000091F002F01918DF808200DF1090040F346
:100AE0003581A94900910646404649460022002327
:100AF00000F098FE80F029814800400D00F11C02B2
:100B000011D0002A0FDD40F2FF739A4205DBA049A5
:100B100009F000400143002011E0009B194041EA28
:100B2000025140460BE028F0000039F0004108BFB8
:100B300000280FBF49461C22494600F08BFE804624
:100B4000894600F025FFFF1F002F044609DD00F055
:100B50003DFF02460B464046494600F049FF8046AD
:100B60008946F01D072104E004F00F0200F8012D72
:100B70002411002C01DD491EF6D5491E5CBF002260
:100B800000F8012DF9D5DCE00020194602AA0A443C
:100B900000E05B1E12F80149491E8442F9D00F287B
:100BA00004D10DF10900425C521C4254002904D5C5
:100BB0000198001D02AE5B1C0190581E0CD4311828
:100BC000AAF13A040A783032D7B23A2FA8BFA21855
:100BD000401E01F80129F5D5286B002840F1A780B7
:100BE000591E2963A3E001996A4A47F2975041438D
:100BF00091FBF2F2019229F00046D2F1070204DDE6
:100C000040463146FFF7ABFE0AE0524200206249FF
:100C1000FFF7A5FE02460B464046314600F05AFF5C
:100C20008046662C286B06BF019F0A3706273F18AF
:100C3000142FC8BF142730208DF8080089460DF105
:100C4000090000E03046002F34DD064640464946A4
:100C500001F064F801460A4606F1080304200A265A
:100C6000B2FBF6F606EB860EA2EB4E02303203F82C
:100C7000012C0A22B6FBF2F202EB820EA6EB4E0624
:100C80003036401E03F8026DE9D1083F002F03F112
:100C90000806D7DD084601F055F802460B464046E7
:100CA000494600F0A5FE00223C4B00F099FC80462E
:100CB0008946CBE70DF10901401A0DF1090604E060
:100CC0000199491E401E0191761C31783029F7D0D8
:100CD000662C02D10199491C03E0652C0CBF01214F
:100CE00000212B6BCB189842B8BF431E002B1ED49B
:100CF000834204DAF05C3528A8BF392000DA3020BE
:100D00001946721E02EB010800E05B1E18F80199FB
:100D1000491E8145F9D0392802D1705C401C7054BD
:100D2000002904D50198401C16465B1C01900198CF
:100D300000B200901BB232465146284600F034F80B
:100D40002EE0C61D002F3FF7CFAE30460DF1090152
:100D5000401A03465845C8BF5B46002B0DF10906F3
:100D60003FF53AAF8342BFF60FAF0DF10900C15C0A
:100D700007297FF709AF0F2007E70000CBCCCC0C89
:100D80000000244002FCFFFFFFFF0F800000E03F57
:100D90000000F07FA08601000000F03F84D797415B
:100DA0000FB0BDE8F08F00002DE9F84783B006468C
:100DB0008A461746984600F0FDF9B8F1000F406AE0
:100DC000356B90F8009002DC4FF00108BFA74AF0A5
:100DD0002000BDF93040662808BF641C15D0672884
:100DE00040F0848014F1040FC0F28680AC4280F29F
:100DF000838096F83800641C010702D4A845B8BF68
:100E0000454620B22D1A48BF00250FFA84FAF06833
:100E1000B169BAF1000F25DC4A1C30234354002D80
:100E200003DC96F83800010703D5F06800F802905B
:100E3000521C15EB0A0FB8BF6C4220B24419414254
:100E40004445B8BFA046B26171620FFA88F5F561FA
:100E5000F068B3692A463946184400F055FA641B15
:100E6000B462C4E022B29045084417DA42463946DB
:100E700000F04AFAB0694044B061AAEB0801002DC5
:100E8000716203DC96F838100A0705D5F16801F89D
:100E90000090F069401CF061B562A8E0394600F0AE
:100EA00033FAB069002D5044A8EB040803DC96F82F
:100EB00038100A0703D5F16801F80090401CB061B2
:100EC0000FFA88F08542F368B069B8BFA8460FFAF8
:100ED00088F207EB0A01184400F016FAB1690FFA1C
:100EE00088F00144B161281A706280E0BAF1610FA4
:100EF00014D14FF0700A16E0A84504DA96F83810BD
:100F00000A0758BF45466D1E48BF0025BAF1670F56
:100F100014BF4FF0450A4FF0650A04E0BAF1410FE3
:100F200008BF4FF0500AB169F368481CB061002D4A
:100F300017F8012B5A5403DC96F838100A071BD512
:100F4000F168431CB36101F80090002D14DDA8F195
:100F500001080FFA88F039468542F768B8BFA846FD
:100F60000FFA88F2F81800F0CFF9B0690FFA88F19B
:100F700008446D1AB0617562F068B1690844002CCC
:100F800080F800A003D42B224270811C03E02D21A5
:100F900041706442811C00206A460AE023460A240C
:100FA00093FBF4F404EB8405A3EB450302F8013B47
:100FB000401C24B2002CF1DC012806DC4AF020029F
:100FC000652A04BF302201F8012B48B9302001F80E
:100FD000010B07E0401E1DF80030303301F8013BE3
:100FE0000028F7DCF268B0691044091AF16196F83C
:100FF000380000F0140010280DD17269B169706AD0
:101000008A18F1698218B06A8A188218706B824255
:10101000BCBF821A326204B0BDE8F087F8B505465D
:101020000E4617461C46002074B117F8011BB06825
:10103000A847B06030B1F06A401CF0620020641E26
:10104000F3D1F2BD4FF0FF30F2BD00007072696E57
:1010500074665F733A20256E20646973616C6C6FEF
:10106000776564007072696E74663A20626164200C
:10107000256E20617267756D656E74007072696EA1
:1010800074665F733A206261642025732061726721
:10109000756D656E740000007072696E74665F73C2
:1010A0003A2062616420256C7320617267756D65FA
:1010B0006E74000000000000000000006E616E0011
:1010C0004E414E00696E6600494E46003000F0B455
:1010D0000246106895681318506803EB5004C00767
:1010E0001DD54D441BE013F8017B05F8017B491E1B
:1010F000F9D1A0B1B60813F8011B06F00306032EC0
:1011000008BF13F8016B01EB06214942801C2944FA
:1011100005D011F8016B05F8016B401EF9D1A3420F
:101120000ED013F8016B16F0030104BF13F8011B76
:10113000C91C30090F28DAD113F8010B0F30D6E79C
:10114000F0BC02F10C0070471B48704770B4536844
:10115000D418042B09DA41B1057804F8015B10F8C2
:10116000016B16B15B1C491EF3E7536070BC7047FE
:1011700038B514461D4661B1FFF7E8FF61686A6B38
:10118000204690476FF00102811A02D0491E01D01B
:1011900001E003E005E00021616032BD6FF0010075
:1011A00032BD4FF0FF3032BDDA6B1047024BDFE744
:1011B000014BF9E701487047C0000020880000207B
:1011C000C9B202788A421AB11CBF10F8012FF9E7A0
:1011D00018BF0020704730B4002513E050F8042BEE
:1011E000D30744BFA9F101039A18091F042942F843
:1011F000045BFAD213468C0744BF15809B1CC907B9
:1012000048BF1D7050F8041B0029E7D130BC70475F
:1012100080B500B906A005490B681BB12222002148
:10122000984701E000F09BFD222002BD3003002022
:10123000636F6E73747261696E742068616E646C42
:1012400065723A20626164206D6573736167650041
:1012500000F10103810704D010F8011B820781B15E
:10126000FAD10268A2F10131914311F0803104BF3B
:1012700050F8042FF6E709BAB1FA81F100EBD1007A
:10128000401CC01A7047B1F5807F02D34FF0FF3089
:1012900070470170012070470078401E8041C043B4
:1012A000C00F7047C9B2830706D0521E22D310F870
:1012B000013B9942F7D11FE0083A13D302F104022F
:1012C00041EA012141EA014150F8043B121F21BFCC
:1012D0004B40A3F1013C2CEA030C1CF0803FF3D0FF
:1012E000C9B2001F083210F8013B521E28BF91EA14
:1012F000030FF8D818BF0120401E704780B5FFF7D4
:1013000023FF006C02BD000062B38B0708D0521EA1
:1013100011F8013B00F8013B00F024808B07F6D167
:10132000830740F0208000BF103A07D330B4B1E803
:101330003810103AA0E83810F9D230BC530724BF57
:10134000B1E80810A0E8081044BF51F8043B40F889
:10135000043BD20724BF31F8022B20F8022B44BFF4
:101360000B7803707047121F17D35B0009D151F837
:10137000043B20F8023B1B0C121F20F8023BF6D264
:101380000BE051F8043B00F8013B1B0A20F8023B3C
:101390001B0C121F00F8013BF3D238BF121D521E66
:1013A00024BF11F8013B00F8013BF8D8704700005A
:1013B000BBBBE1B1B2F5803F80F07E80022A1ED92E
:1013C0008C46B1FBF2F102FB11C31B0443EA10434C
:1013D000B3FBF2FC02FB1C3380B240EA0343B3FBD5
:1013E000F2F002FB103240EA0C4000237047022A60
:1013F00005D98446B0FBF2F002FB10C270474AB137
:1014000005D100F0010249085FEA30007047002270
:101410000023704700F0A6BC0B0002000021002052
:101420007047904271EB030CF6D3B3F5803F2FD297
:10143000F0B5B3FA83F7B1FA81F4A7F10F0E3D1BB3
:101440005340CEF1200602FA0EF2F3415340B5F1BB
:101450000F0746D80F3C2C444140C4F12006A04061
:10146000F1414140B1FBF3F603FB1611A2FB064527
:10147000001BA94102D2761E8018594180EA010260
:1014800021FA0EF362FA0EF200215A403046F0BD06
:1014900030B4B1FBF3FC03FB1C11A2FB0C45001B99
:1014A000A94103D2ACF1010C8018594130BC02466D
:1014B0000B46604600217047B2F1807F65D3F0B5DE
:1014C000B2FA82F7B1FA81F4C7F10F063D1B22FA96
:1014D00006F307F1110EF24120355A40B5F10F071E
:1014E000B8D94140C4F12006A040F1414140B1FBD0
:1014F000F3FC03FB1C11A2FB0C45001BA94103D20A
:10150000BCF1010C801859410F2F12D30F3FC903B2
:1015100041EA5041B1FBF3F603FB1611A2FB06456D
:10152000D4EBC030A94102D2761E8018594146EA58
:10153000CC3C07B34140C7F12006B840F1414140DF
:10154000B1FBF3F603FB1611A2FB0645001BA941F4
:1015500002D2761E8018594180EA010221FA0EF368
:10156000C7F1200462FA0EF20CFA07F05A402CFA86
:1015700004F13043F0BD80EA010221FA0EF30021AC
:1015800062FA0EF260465A40F0BD8C46B1FBF2F1B1
:1015900002FB11C31B0243EA1063B3FBF2FC02FB24
:1015A0001C331B024CEA002043EA1063B3FBF2FC3D
:1015B00002FB1C331B024CEA002043EA1063B3FB1E
:1015C000F2FC02FB1C331B024CEA002043EA1063CE
:1015D000B3FBF2FC02FB1C324CEA002000237047F4
:1015E000B0B581EA030C0CF0004C40F2FF7515EA2F
:1015F00011541DBF15EA1357AC42AF4239E0E4194C
:1016000023EA455343F48013C90241F0004141EA03
:10161000505EC7021100A7FB020200284FF0000035
:10162000EEFB01204FF00001E3FB072118BF42F061
:101630000102401800214941E3FB0E01A4F580643A
:101640000F0302D252004041494154F101046CDDC4
:10165000470872F1004250F1000051EB0451A1F52E
:1016600080115CBF41EA0C01B0BD4CEA055100207D
:10167000B0BD05EA1357AC4214BFAF4241E050EA97
:10168000410E1CBF52EA430E02E061460020B0BD8D
:1016900024423C441BD15FEA070EF6D0090302BF87
:1016A00001460020AEF1140EB1FA81F7AEEB07044B
:1016B00001FA07FE0C37C7F1200100FA07F7C8400E
:1016C0004EEA000E23EA455343F48013A2E733F0B9
:1016D0000043B3FA83F704BFB2FA82FE77440B3FAC
:1016E000E41BB7F1200E2FBF02FA0EF3BB40C7F187
:1016F000200E22FA0EFE38BF43EA0E03BA40641CE5
:1017000082E750EA410E14BF52EA430E6FF0000127
:101710004FF4001717EB430F8ABF194617EB410F21
:10172000B5E74CEA05510020B0BDD4F10104B4F195
:1017300020070FDAC4F12007520828BF42F0010247
:1017400010FA07F501FA07F7E1BF2A43E0403843F2
:10175000E1400FE0352C98DCC7F1200452EA40024A
:1017600020FA07F218BF42F0010231FA07F0A14057
:101770000A43002172F1004250F1000051EB0C01CC
:10178000B0BD000010B5144600F002F8226010BD94
:10179000C1F30A5343B14A0012F5001F28D2A3F245
:1017A000FE32A1EB0251704750EA410C20D001F00B
:1017B000004C31EA0C01B1FA81F204BFB0FA80F3B7
:1017C000D2180B3AB2F120032CBF00FA03F191407A
:1017D00041EA0C013EBFC2F1200C20FA0CF3194380
:1017E0009040524240F2FD33D21A01EB0351704750
:1017F000002270474FF4001C1CEB410F94BF1CEB00
:10180000430F09E041EA030C50EA4C0C52EA0C0C7D
:1018100003D2994208BF9042704714BF8B42824264
:10182000704700004FF4001C1CEB410F94BF1CEBF1
:10183000430F09E041EA030C50EA4C0C52EA0C0C4D
:1018400003D28B4208BF8242704714BF9942904234
:1018500070470000124254D440F2FF7C1CEA11533E
:101860000FD0634531D09B1863453CBF01EB02515B
:10187000704701F0004141EA0C510020AFF30080B5
:10188000704750EA410320D001F0004C91EA0C016E
:101890001CD0B1FA81F30B3B9A420DD9D21A994070
:1018A00051EA0C01C3F1200C20FA0CFC6144984071
:1018B000531C40F2FF7CD7E7914041EA0C01C2F192
:1018C000200C20FA0CF3194390407047B0FA80F3D3
:1018D0001533202BE0D3202AEED3203A203B9A4226
:1018E00009D9D21A00FA03F141EA0C010020531C75
:1018F00040F2FF7CB8E700FA02F141EA0C01002057
:101900007047524240F2FF7C1CEA11530DD06345F0
:10191000DBD0B2EB030C3CBFA1EB025170470CF1E2
:10192000010221EA035141F4801150EA410CCCD06C
:1019300001F0004C352A27DC30B481EA0C01B2F109
:10194000200309DAC2F12003044601FA03F5D0406E
:101950002843D1409C400CE0C3F12002450020FA0E
:1019600003F418BF44F0010421FA03F091400C4342
:10197000002174F1004550F1000051EB0C012442AC
:1019800030BC7FF47BAF70476146002076E70000F3
:10199000C1F30A5340F2FE329B1A14DDD3F1200347
:1019A0004FEAE17208DDC90241EA505141F00040BE
:1019B000D84080185040704703F2E13010B1D24354
:1019C00082F000407047002070470000C11768B1E6
:1019D0004840401AB0FA80F29040D21CC907C2F5C4
:1019E000846241EA025202EBD021400570470000B8
:1019F00070B44FF0004591EA030F40F1B5816B40A0
:101A0000841A71EB030603D2001BB1411219734112
:101A10004FF4001C1CEB410F34BF7CEB430442E04D
:101A20000C0DA4EB1356352E4FDC45EAC323DB0A1D
:101A300045EAC121C912B6F120050DDD63FA05F6AC
:101A4000EB4086EA0305124218BF45F00105C018B5
:101A500051F100010CD213E062FA06F5F240554054
:101A6000F3415A40B340F3405A408018594107D3DC
:101A700049085FEA30005FEA350528BF45F00105F7
:101A800001F58011420875F1004250F1000041EB70
:101A900004514E0016F5001F70BC38BF704700207F
:101AA000090D090570471CEB410F10D252EA43069D
:101AB0000BD0BCEB410F05D80C0DAB43661E342E8A
:101AC000B6DD02E0AB438018594170BC704770BC72
:101AD00070470000F0B540F2FF7581EA030C0CF08E
:101AE000004C15EA11541DBF15EA1357AC42AF4222
:101AF000E5E0BC41C1F31301C3F31303801A99411C
:101B000043F4801304D2641E4000494180185941B7
:101B1000C90241EA5051B1FBF3F603FB1611A2FBD7
:101B20000675D7EBC020A94102D2761E8018594114
:101B3000C90241EA5051B1FBF3FE03FB1E11A2FBA7
:101B40000E75D7EBC020A94103D2AEF1010E80186B
:101B50005941890241EA9051760546EA8E2EB1FB41
:101B6000F3F603FB1611A2FB0675D7EB8020A94103
:101B700002D2761E80185941C90241EA50514EEAFC
:101B8000060EB1FBF3F603FB1611A2FB0675D7EBAD
:101B9000C020A94102D2761E80185941C90241EAEB
:101BA0005051B1FBF3F703FB1711A2FB0735D3EB41
:101BB000C020A94167F100070CBF004247F00107B0
:101BC00066F3D5274FEA1E31B80814F5806412DD9C
:101BD000BD0775F1004250EB0E5051EB045111F569
:101BE000801F5CBF41EA0C01F0BD4CF07F6141F009
:101BF000E0410020F0BDBD076D0840EA0E5041F401
:101C00008011D4F10104B4F120060ADAC4F12006EF
:101C10000200E04001FA06F3E1401843B2401543E8
:101C20000EE0342C13DCC6F1200445EA40056D08B3
:101C300020FA06F2154321FA06F0A1400D430021D7
:101C400075F1004250F1000051EB0C01F0BD002095
:101C50005FEA0C01F0BDCFB992185B41B3FA83F78C
:101C600004BFB2FA82F6BF190B3FB7F120062FBFAF
:101C700002FA06F3BB40C7F1200622FA06F638BF87
:101C80003343BA401CB1E419641E33E77F4231F09C
:101C90000041B1FA81F404BFB0FA80F6A4190B3CFC
:101CA000B4F120062FBF00FA06F1A140C4F12006CE
:101CB00020FA06F638BF3143A0403C1B1AE7AC427D
:101CC0001ABF05EA1357AF4212E050EA41061CBFA3
:101CD00052EA4306BFE750EA4107304661461CBF5F
:101CE00041EA0551F0BD52EA430C08BFC143F0BDC3
:101CF00000204FF4001616EB410F98BF16EB430F70
:101D000008BF16EB410F24BFC14305E016EB430F9C
:101D10000CBF61464CEA0551F0BD0000400D49186A
:101D200040EA81200CD2490DA1F58061491C40F0A8
:101D3000004005DBD1F11F0154BFC840C0177047F8
:101D400000207047014648B1B0FA80F18840C91CB4
:101D5000C1F58461090501EBD021400570470120E0
:101D600000F0B8B870470000841A71EB030604D283
:101D70006E40001BB141121973414FF4001C1CEB63
:101D8000410F34BF7CEB430683E00C0DA4EB1356EC
:101D9000362E00F37C80012E45EAC32341DC43EA62
:101DA000525312BFD20292025B08240545EAC121B8
:101DB00041EA5051D2EBC020994125D407D1B0FA65
:101DC00080F610FA06F162D00020203608E0B1FA61
:101DD00081F6B140C6F1200220FA02F21143B04070
:101DE0004FEAF474B4EB465434F001064FEA74043D
:101DF0000AD8D6F50016760D04F00044F04061FADA
:101E000006F25040F1404840C00A40EA415021F0FB
:101E1000004128BF5FEA500550F1000044EBD1219A
:101E200035E0DB0A45EAC121C90AB6F120050EDD1D
:101E300042EA0242120CC5F1200603FA06F6EB4014
:101E400042EA06056D42984161F100010DE062FA37
:101E500006F5F240554063FA06FC82EA0C02F340B4
:101E60005A406D42904161EB030111F4801F05D18E
:101E7000641E620502D06D004041494121F4801189
:101E8000430875F1004350F1000041EB045170BC70
:101E900070471CEB410F15D223F0004352EA430672
:101EA0000BD04FEA4C0CBCEB410F04D80C0D661E56
:101EB000342EB7DDEBE7801A994150EA410608BF9E
:101EC0000021E4E708BF1CEB430F28BF6FF00001BF
:101ED000DDE7000080B500F007F8024A1100182085
:101EE000ABBEFBE72600020080B500F054F802000C
:101EF0000023DB431068984204D011000220ABBEDF
:101F0000002010605068984204D0111D0220ABBE22
:101F10000020506001BD0000F0B583B0040000F067
:101F20003AF8A10047183D680026F643B54216D19D
:101F300000F01AF83D68B5420FD100BF09A000902B
:101F4000002C01D1002000E0042001900320029029
:101F500069460120ABBE05003D6000F014F8280082
:101F600003B0F0BD3A7474000C480121BFF35F8FD9
:101F7000D0E84F3FC0E8421F002AF9D1BFF35F8F7E
:101F8000002BF3D170470548BFF35F8F002101702C
:101F9000BFF35F8F7047024870470000380300208E
:101FA000000200202DE9FC4704001AD0DFF88076FB
:101FB000DFF88C56B86800F00C08F86800F00309E8
:101FC0002078C1065BD5B8F1000F05D0B8F10C0F31
:101FD00008BFB9F1010F2ED13868810703D5A06978
:101FE000002800F04781396808074EBF39686968E2
:101FF0000909206A01F0F001814206D200F0DDFA01
:10200000002808D100F0F4F907E000F0F1F9206AA7
:1020100000F0D3FA002840F02D8100F085FABA686C
:1020200000F078FADFF81006006800F01DFB0100F0
:1020300000F02481DAE1A069C0B1396841F0010102
:10204000396000F033FB06463868810700F11481DF
:1020500000F02CFB801B0328F6D30320C6E100F020
:1020600025FB801B0328C0F04481F6E73868400850
:102070004000386000F01AFB06463868810740F1DE
:10208000FD8000F013FB801B0328F6D3E5E76068B2
:10209000B0F5803F04D1386840F48030386011E0FA
:1020A000B0F5A02F386806D140F480203860396838
:1020B00041F4803105E020F480303860396821F443
:1020C00080213960606860B100F0F0FA0646386837
:1020D000810300F1E68000F0E9FA801B6528F6D361
:1020E000BBE700F0E3FA06463868810340F1D98087
:1020F00000F0DCFA801B6528F6D3AEE7E06880B11B
:10210000396841F48071396000F0D0FA06463868C9
:10211000410500F1D98000F0C9FA801B0328F6D3ED
:102120009BE7386820F48070386000F0BFFA0646FC
:102130003868410540F1CF8000F0B8FA801B0328D1
:10214000F6D38AE740084000686000F0AFFA064620
:102150006868810740F1D18000F0A8FA801B03284D
:10216000F6D37AE70528286806D140F004002860F5
:10217000296841F0010105E0400840002860296815
:1021800021F004012960A06841F2893968B100F0AA
:102190008DFA82462868810700F1E38000F086FA14
:1021A000A0EB0A004845F5D357E700F07FFA8246D6
:1021B0002868810740F1D58000F078FAA0EB0A008A
:1021C0004845F5D349E700F071FA801B0328C0F0B9
:1021D000DD8042E700F06AFA801B0328C0F001812D
:1021E0003BE7396811F0205F03D1F8688008800070
:1021F000F860F968DFF84C040140F96000F056FA25
:1022000006463868810140F1F08000F04FFA801BEB
:102210000328F6D321E701282CD0F868E26A00F001
:102220000301914201BF00F07001226B521EB1EB1D
:10223000021F1FD1626B00F4FE41B1EB022F19D1D6
:10224000A16B07290CBF0021012100F400328A4252
:1022500010D1E26B520800F4C001521EB1EB425F94
:1022600008D1216C490800F0C060491EB0EB416FF5
:1022700000F0BB800120B9E000F0BAF82078C10777
:102280000FD5B8F1080F06D0B8F10C0F08BFB9F19F
:10229000030F7FF4FCAE3868810302D56068002824
:1022A000E8D02178880716D5B8F1040F06D0B8F128
:1022B0000C0F08BFB9F1020F7FF420AF3868410559
:1022C00002D5E0680028D5D07868216920F0F85060
:1022D00040EA01607860207801070ED56069002827
:1022E00068683FF42FAF40F00100686000F0DEF94D
:1022F0000646686881077FF5B2AE2078410735D57C
:10230000B86D0026C10009D4B86D40F08050B865A2
:102310000126B86D00F0805000900098DFF82893F7
:10232000D9F80000C10513D4D9F8000040F480703A
:10233000C9F8000000F0BAF98246D9F80000C105DA
:1023400006D400F0B3F9A0EB0A000328F5D384E625
:10235000A06801287FF406AF286840F001002860DB
:1023600011E71EB1B86D20F08050B865A06AE0B3E7
:10237000B8F10C0F3FF44FAF0228386820F080709E
:1023800038607FF42EAF00F091F90646386881017D
:102390003FF519AFFA68DFF8B412E06A0A40216B22
:1023A0000243491E606B42EA0112E16B490842EAAE
:1023B0000022206C491E400842EA4152401E42EA77
:1023C0004062A06B000942EA4042FA60386840F07F
:1023D00080703860F96841F08071F96000F066F94A
:1023E0000646386881017FF5F5AE0020BDE8F68726
:1023F000386840F0080038603968206A21F0F00140
:10240000014339607968E06921F47F4141EA0021A4
:10241000796070472DE9F0410400884678D0DFF8F4
:102420003062306800F00700404509D23168C908C1
:1024300048EAC1013160306800F00700404567D1CB
:102440002078DFF8EC51C1074AD56068032802D133
:1024500029688A0108E0022802D129688A0303E07A
:102460000028296802D18A0702D451E04A054FD5D5
:10247000A968890840EA8100A86000F017F90746BA
:10248000A868616800F00C00B0EB810F28D000F064
:102490000DF9C01B41F289318842F1D303201DE0C0
:1024A0002078410705D5AA68E06822F4E06202437B
:1024B000AA602178080706D5A968206921F460512F
:1024C00041EAC001A96000F02FF8AA6800F022F8E4
:1024D000BDE8F0415848006800F0C6B8BDE8F0819A
:1024E0002078810705D5AA68A06822F0F00202438F
:1024F000AA60316801F007018845D1D23068C00870
:1025000048EAC0003060316801F007014145C7D09A
:102510000120E3E74F49C2F30312895C454A01F009
:102520001F01C8401060704770B5414A4A4B90681F
:10253000D6680025002110F00C0006F00306474C79
:1025400003D00C2812D1012E1AD115682E0704D4FD
:102550003A4D2E68C6F3032502E01568C5F303154E
:102560003F4E56F8255048B9294624E0042808BFB4
:10257000214620D008281ED119461CE00C281AD16B
:10258000D06800F00300022803D0032808BF1D46CE
:1025900000E02546D168D068D268C0F306204543E4
:1025A000C1F30210C2F34161401C491CB5FBF0F0BD
:1025B0004900B0FBF1F1084670BD7CB5294E0546D7
:1025C00030680024C10002D500F076F80EE03068D3
:1025D00040F080503060316801F0805100910098E7
:1025E00000F06AF8316821F080513160B0F5007F69
:1025F00004D1802D0CD9A12D09D304E0802D88BFF2
:10260000032405D801D1022402E0702D00D1012459
:102610000F480168C90844EAC1010160006800F080
:102620000700A04201D0012076BD002076BD000049
:1026300000100240840000207C0000209410024022
:1026400090100240FFFFEEFE007000408C809DF96C
:10265000002002402038000800127A000024F40014
:10266000C03800085810024070B50E4E0446B068DD
:102670000025A0B14FF47A710B4AB1FBF0F110685C
:10268000B0FBF1F000F09EF848B9102C07D2002200
:1026900021464FF0FF3000F06DF8746000E0012536
:1026A000284670BD780000208400002001480068A2
:1026B000704700BF78000020DFF87800006800F461
:1026C000C060704710B5DFF86C10B0F5007F086887
:1026D00000F4C06015D1B0F5007F1BD00868DFF8AA
:1026E0005820DFF8584020F4C06040F4007000F03B
:1026F00018F84A6953050FD5002818BF401EF8D1B5
:102700000AE0B0F5806F05D0086820F4C06040F49E
:1027100080600860002010BD48694105FAD503209B
:1027200010BD0860322013684343B3FBF4F0401C33
:1027300070470000007000408400002040420F00FD
:102740000901020002D4294881547047284B02F045
:102750000F021A4402F8041C7047264B19684FF602
:10276000FF020002114000F4E060084322490843E0
:102770001860704738B51F4B1C68C4F30223C3F1BF
:102780000704052C28BF04241D1D072D34BF00237A
:10279000DB1E012505FA04F4641E2140994005FA68
:1027A00003F35B1E1A401143BDE83440C8E7010043
:1027B00007D4012200F01F01104B8A40400943F862
:1027C0002020704710B5401EB0F1807F01D301205A
:1027D00010BD0B4C60600F214FF0FF30FFF7B0FFD2
:1027E0000021A16007202060002010BD00E400E06F
:1027F00018ED00E00CED00E00000FA0500E100E05B
:1028000010E000E070B5040001D1012070BD00208F
:10281000A06204F15C05687820B900212970204687
:1028200000F03EFA0220687000F03DF8E168B1F572
:10283000E06F04D90022B1F5706F03D104E04FF4CA
:10284000805201D00020A062206B30B9B1F5E06F5A
:1028500087BF02202063012121636368A06821698A
:102860002668034360690B43A169034301F40071C7
:10287000E0690B43216A0343A06A0B4303433360BF
:10288000A369606A616B1B0C03F004030343E068F7
:102890000B4303431A4323685A60002169600120F7
:1028A0006870002070BD2068016821F0400101605F
:1028B000704730B500F144040023257E012D01D17D
:1028C000022030BD0125257609B1150001D1012373
:1028D00028E0657E012D18BF022323D103256576EC
:1028E000E36181638287C287036423806380A3607E
:1028F00040F20171C2688A4227BF0FF27515E56088
:102900000FF24D11E1608168B1F5004F04D101680B
:102910000A6842F480420A6001684A6842F0A002F4
:1029200000F004F800202076184630BD4A600068A8
:1029300001684A0603D4016841F040010160704714
:102940007CB5044622685168936803F04100012871
:1029500006D1480604D5E16C2046BDE87C40084716
:10296000980706D50D0604D5216D2046BDE87C40AC
:10297000084713F4B07F61D088065FD55D060ED599
:1029800094F85D0003284CD0206E40F004002066CF
:1029900000250095D66800969568009500989D06DC
:1029A0000CD5206E40F00100206600250095966849
:1029B0000096106820F040001060009AD80509D5F4
:1029C000226E42F008022266002000902268906881
:1029D0000090009A206E88B32068426822F0E002DE
:1029E0004260012011F0030F84F85D0021D02068BF
:1029F0000FF24D054168890889004160A06D30B132
:102A00008563A06D00F08CF908B100F027F9606DC6
:102A1000A0B18563606D00F083F978B100F01EF914
:102A200073BD00200090D1680091926800920098D8
:102A300073BD2046BDE8764000F097B973BD000035
:102A4000806A00F13E0100220A810A8000F08DB9FF
:102A5000816B03680A781A73816B4A1C8263C18F89
:102A60004A1EC287C18F002908BF00F0C8B870474E
:102A7000816B03680A88DA60816B8A1C8263C18F6C
:102A80004A1EC287C18F002908BF00F0B8B870473E
:102A90002DE9F041069F05460E4690461C462868E3
:102AA00081683140B1420CBF0120002040452FD049
:102AB00014F1010FF3D0FFF7F9FDC01BA04201D2C2
:102AC000002CECD12868416821F0E0014160686881
:102AD000B0F5827F09D1A868B0F5004F18BFB0F5F6
:102AE000806F02D12868FFF7DFFEA86AB0F5005FAB
:102AF00009D12868016821F4005101602868026842
:102B000042F40052026005F15C0000F049F800E078
:102B10000020BDE8F0812DE9F041069F0646884679
:102B200015461C463068816808EA0101A94234D084
:102B3000B8F5C06F04BF002D007B14F1010FF1D078
:102B4000FFF7B4FDC01BA04201D2002CEAD13068CF
:102B5000416821F0E00141607068B0F5827F09D1E1
:102B6000B068B0F5004F18BFB0F5806F02D1306883
:102B7000FFF79AFEB06AB0F5005F09D130680168CE
:102B800021F4005101603068026842F40052026092
:102B900006F15C0000F004F800E00020BDE8F081E0
:102BA00001214170002202700320704700962B46DD
:102BB0000022802120466BE77CB50D461646044670
:102BC00000962B4600224FF4C051FFF7A4FF38B9FE
:102BD000FFF7ECFF20B900962B4600F046F808B14D
:102BE00000F001F876BD206E40F020002066032042
:102BF000704718B1206E40F02000206670471CB569
:102C00000446FFF753FD02462068416821F0A00109
:102C1000416020466421FFF7CFFFFFF7EAFF00F095
:102C200012F800F009F803D0BDE8164000F09DB896
:102C3000BDE8164000F012B9012184F85D10206E45
:102C4000002820467047A06838B90021009121680B
:102C5000CA6800928968009100987047206E40F021
:102C60004000206670470090642300224FF4C0614A
:102C7000204650E7264881B0816841F0010181601B
:102C8000816801F0010100910099026842F08052D0
:102C90000260006800F080500090009801B070471A
:102CA00038B586B0044601A8142100F0F3F8246872
:102CB000184DAC4229D11848416941F48051416115
:102CC000416901F4805100910099026842F01002BC
:102CD00002604FF47041006800F010000090022282
:102CE00000980E48019102920021039103220521D0
:102CF0000591049201A900F0D1F8002200212320BF
:102D0000FFF738FD2320FFF752FD07B030BD00006C
:102D100058100240003001404C10024000100048A2
:102D200038B500F1240100244A78022A03D0042097
:102D30008861012417E00268136823F00E03136012
:102D4000026815686D086D001560012291F8203049
:102D5000CD6903F01C039A406A6001224A700C702E
:102D6000496901B18847204632BD70471CB500F063
:102D700093F900F039F83B483B4C016841F01001F1
:102D800001604FF482720068384900F01000009032
:102D90000098216000204FF4E061E160A0602061B4
:102DA00000216161E16161624FF48020A06107212F
:102DB000E16200202062A0622063082162606163FA
:102DC0002046FFF71FFD08B100F054F8132204F16C
:102DD00064012046FFF76DFD08B100F04BF84FF499
:102DE000FA6000F069F9F1E780B596B005A84421D2
:102DF00000F050F86846142100F04CF801210B91C6
:102E0000002260210D910C9201211091119102225A
:102E100028210F921291102005900722022113926F
:102E20001491159105A8FFF7BDF808B100F022F83C
:102E30000F200090002101910291039104916846B6
:102E4000FFF7E8FA08B100F015F84FF40070FFF74B
:102E500039FC08B100F00EF817B000BD044800F0CE
:102E60003FB900004C10024000000020003001403B
:102E70001839000801A000F033B900006572726FC4
:102E800072207768696C65207472616E7366657212
:102E9000200A0000002200F037B900002DE9F847B1
:102EA0000026744A0F230446884632E0724DAC4235
:102EB00014BF072506258D4045EA0E054CF827501E
:102EC000C7436E490D6800F0CFF8ED0348BF40EAF4
:102ED0000C0CC1F800C04D6800F0C6F8AD0348BF47
:102EE00040EA0C0CC1F804C08D6800F0BDF8ED029A
:102EF00048BF40EA0C0CC1F808C0CD6807EA050CD1
:102F0000D8F80470BD0248BF40EA0C0CC1F80CC0F0
:102F1000761CD8F8001031FA06F000F0A3800127E3
:102F2000B74017EA0100F3D0D8F80450B100022DE1
:102F300018BF122D12D1F50804EB850C01F01C0509
:102F4000DCF820E0D8F810A003FA05F92EEA090E03
:102F50000AFA05F545EA0E05CCF820504FEA460C72
:102F60004FF0030E256898F804900EFA0CFE6FEAF5
:102F70000E0E09F003090EEA050509FA0CF949EAF3
:102F800005052560FF43D8F80450012D18BF022D18
:102F900003D0112D18BF122D14D1A568D8F80C90AC
:102FA0000EEA050509FA0CF949EA0505A560656808
:102FB000D8F80490C9F300193D4009FA06F949EA26
:102FC00005056560D8F8045005F00309B9F1030F51
:102FD00008D1D4F82C90C5F3C00507EA0907B5401D
:102FE0002F43E762E7680EEA0705D8F8087007FA8A
:102FF0000CF73D43E560D8F80450EF0088D515681C
:10300000DFF87CC045F00105156001F00C01176880
:1030100007F00107009703FA01FE009FB7085CF86C
:10302000275025EA0E0EB4F1904F08BF002518D0A6
:10303000144DAC4208BF012513D0134DAC4208BF5C
:1030400002250ED0114DAC4208BF032509D0104D0A
:10305000AC4208BF042504D00E4DAC427FF426AF2D
:10306000052528E7BDE8F18707EA050CD8F80450E4
:103070007047000060100240001800480004014042
:10308000080001400004004800080048000C004807
:103090000010004800140048032010B5FFF75DFB46
:1030A0000020FFF7E1FA0024002814BF0124FFF7F5
:1030B000E1FD204610BD000038B50446FFF7F6FAE2
:1030C00014F1010F054602D0044988680419FFF77E
:1030D000EDFA401BA042FAD331BD00BF78000020BA
:1030E0000EB4C0B5024603A800210190009101ABC7
:1030F0000121044878440C30FDF746F806BC5DF821
:1031000010FB00BFE308000000B500BF13009646A7
:103110009446103928BFA0E80C50FAD85FEA417CE9
:1031200028BF0CC048BF40F8042BC90728BF20F8AF
:10313000022B48BF00F8012B00BD000010B504466B
:10314000AFF30080204600F005F80446AFF300809E
:10315000204610BD70B500F10F06F608F600B0422B
:1031600040D2082E04D2082602E0083000F047F8CA
:10317000DFF804512C68210005D1002007E0026827
:10318000B24221D2011D08680028F8D12068291D0B
:103190000A68824222D01368B34238BF111DF7D3A8
:1031A00012E093190B60801B54685C600B68186018
:1031B0001660096800291DBF48680028081D002006
:1031C000286002F1080070BD61B10A681068A0F1C2
:1031D0000803B342E5D250680860EAE700F04EF811
:1031E0000028C2D1002070BD10B5040006D0AFF396
:1031F0000080204600F003F8AFF3008010BD0028E7
:1032000000D1704770B4A0F108021368072B2BD9C6
:1032100013F0070F28D1184C616809B18A4202D215
:103220005160626013E0486800B3904238BF0146C5
:10323000F9D31BE0964203D11B180B600A4606E047
:10324000486810B1134498420ED350604A605068E9
:1032500050B11368D518854206D100262660016852
:10326000CB1813604068506070BC704708680E1837
:10327000B242DFD270BC70472803002007490868BB
:1032800008B1002070470648C008C0000860054922
:10329000C908C900091A0160704700BF3403002043
:1032A00047070020400900202DE9F04107468846E5
:1032B000387810F0030F16461D4633D0384600F01C
:1032C00099F878BBB8F1000F1CBFD8E90001861946
:1032D000012D2ED13888C10415D5396A07F1440271
:1032E000384600F0A3F83A6B044602B93A69F96827
:1032F000384600F09BF8361B341A7A69F96838466C
:1033000000F094F8261A1EB94DB916F1010F09D034
:1033100097F903002A46314600F08EF8064616F16A
:10332000010F09D12320AFF300804FF0FF30BDE83B
:10333000F081022DE8D1EBE7388810F4405F0ED021
:103340007868F86038617861B86107F1440178689D
:10335000F861396207F13000002178623963B8F111
:10336000000F05D0D8E9020107F13402C2E90001DB
:103370003B884CF6FF6003403B800020BDE8F081B5
:1033800070B50546AFF300802888810415D56E68B6
:103390000024EA6895F903003146914212D2521A8C
:1033A00000F06FF810F1010F1CBF00283618F0D1A3
:1033B0000FE04DF6FF70014029802846AFF30080F2
:1033C000002070BD0022002100F05BF810F1010F19
:1033D00000D101246868E860A861E861002C2988B0
:1033E000E7D041F4007129802846AFF300804FF008
:1033F000FF3070BDF8B5A0B9AFF3008000250A4ECC
:1034000008244FF0FF37306820B1FFF7B9FF0028DC
:1034100048BF3D46361D641EF5D1AFF300802846F7
:10342000F2BDBDE8F240ABE7E0010020914234BFBD
:10343000511A0021084670473EB504000D00012ACC
:1034400002D100F06BF807E0022A07D100940020B7
:10345000019069460C20ABBE2D1801E0002A0CD16A
:103460000094019569460A20ABBE002805D10022D0
:103470002100280000F02FF801E00020C04303B035
:1034800030BD80B5002802D400F06AF802BD0020EB
:1034900002BD000010B4314A002113461C6884426A
:1034A0001EBF491C9C6884421EBF491C1C69844283
:1034B00009D09C69491C844205D0491C203310293D
:1034C000ECD310BC7047002342F8313002EBC1014D
:1034D0004B6010BC704770B4204C002325462E680A
:1034E0008E421EBF5B1CAE688E421EBF5B1C2E69E7
:1034F0008E4209D0AE695B1C8E4205D05B1C203524
:10350000102BECD370BC7047054604EBC303012AB3
:1035100004BF59684D195D6070BC704710B40F4A04
:10352000002113461C6884421EBF491C9C688442CB
:103530001EBF491C1C6984420AD09C69491C8442F4
:1035400006D0491C20331029ECD310BC0020704752
:1035500002EBC100406810BC704700000802002068
:1035600080B5002901D1002002BD012801D0022828
:1035700002D100F004F802BD00F011F802BD30B530
:1035800083B00C0015000120FEF7C6FC00900194EA
:10359000029569460520ABBE281A03B030BD18B5A8
:1035A00083B0030014000093019102946946052042
:1035B000ABBE01221900201AFFF78DFF04B010BD29
:1035C00010B50446E068A169884251D3218849F2C8
:1035D00002030B40022B08D008044CBF4FF40070CC
:1035E0004FF48440014321803BE001F4C042B2F536
:1035F000C04F06D1A168884203D32046FFF7FAFEE8
:1036000078BB208810F4406F02BF606804F1440169
:10361000884217D14FF40070FFF790FD606030B919
:1036200004F144006060E060401CA0600AE0218872
:1036300041F040012180E060606100F50072606847
:10364000A260E0616068A1682061A1612078410703
:103650000AD502220021204600F00CF810F1010FDB
:1036600002D14FF0FF3010BD208840F4C0402080D0
:10367000002010BD70B504460D461646AFF300801D
:1036800033462A4600212046FFF70EFE0546204617
:10369000AFF30080284670BD18B401780A0627D51C
:1036A0001F4A13680021834203D1002442F82140BD
:1036B0001BE05368012183421EBF022193688342AD
:1036C000F3D0D368032183421EBF042113698342D0
:1036D000EBD05369052183421EBF062193698342C3
:1036E0001EBF0721D3698342DFD012BC00F01AB895
:1036F000002101804FF0FF3200F14401C270C1602F
:103700004161C16100F1440300F1440200F1300164
:103710004360026182610262416211BC7047000035
:10372000E0010020FFF760BD38B504000ED020781E
:1037300010F0030F03D094F90300002809D5AFF36C
:1037400000802046FFF7A8FFAFF300804FF0FF3066
:1037500032BD2046FFF74EFE0546AFF300802078CD
:10376000410644BF6068FFF7DDFF0020606094F908
:103770000300022804D900F016F808B14FF0FF3515
:10378000E06B48B100F01BF808B14FF0FF35E06B7B
:10379000FFF7C8FF0020E0632046FFF77DFFAFF38F
:1037A0000080284632BD1CB5020000926946022006
:1037B000ABBE04001000FFF76DFE200016BDE0B5A3
:1037C0000090FDF745FD019069460E20ABBE03B0A9
:1037D00000BD00000E48016841F470010160002244
:1037E0000C49086840F0010008608A604FF480527C
:1037F0000B68094803400B60CA6000200B68074A49
:1038000023F480230B6088614FF0006111607047E2
:1038100088ED00E000100240FFFFF6EA08ED00E04E
:103820000000000000000000010203040607080970
:1038300038B50C46C5B22046AFF30080E068A169F8
:10384000884204D32046FFF7BBFE00280FD4E0686F
:10385000401CE06000F8015D2088010503D44005AC
:103860000BD50A2D09D12046FFF7C4FD28B120460B
:10387000AFF300804FF0FF3032BD2046AFF3008041
:10388000284632BD38B50D4D0824286800281CBFD5
:10389000017811F0030F05D090F90310002958BFEB
:1038A000FFF742FF2D1D641EEFD1BDE83840002216
:1038B00000214FF0FF30FFF7E4BD00BFE001002022
:1038C000A0860100400D0300801A060000350C00A0
:1038D00040420F0080841E0000093D0000127A0063
:1038E0000024F40000366E010048E801006CDC02A0
:1038F00010B5074979441831064C7C44163404E06D
:103900000A68081D114488470146A142F8D110BD3C
:10391000500000006C0000005472616E73666572A6
:1039200020697320636F72726563742066726F6DB5
:103930002063616C6C6261636B0A00004EF6885113
:10394000CEF20001086840F470000860BFF34F8FAA
:10395000BFF36F8F4FF00070E1EE100A7047000068
:1039600077D8FFFF340100000802002000000000AB
:103970005FD7FFFFF80100004801000000000020B1
:103980007047FEE7FEE7FEE7FEE7704770477047C7
:1039900000F006B80148FEF7D3BF00000000002089
:1039A00002490A68886882180A6070477800002017
:1039B00000F00DF8002801D0FFF79AFFAFF3008068
:1039C0000020AFF30080FFF7D1F900F002F80120EA
:1039D000704700F001B800000746FFF753FF384674
:1039E000FEF778FAFBE738B504460D46284600F0A6
:1039F00005F8A84218BF0024204632BD0149FFF750
:103A000017BF00BF50010020014880470148004710
:103A1000D5370008193A0008AFF30080FFF78EFF92
:103A2000FFF7C6FF00002E004300FFF7FEBFFFF7C1
:103A3000FEBFFFF7FEBFFFF7FEBFFFF7FEBFFFF7BA
:103A4000FEBFFFF7FEBFFFF7FEBFFFF7FEBFFFF7AA
:103A5000FEBFFFF7FEBFFFF7FEBFFFF7FEBFFFF79A
:103A6000FEBFFFF7FEBFFFF7FEBFFFF7FEBFFFF78A
:103A7000FEBFFFF7FEBFFFF7FEBFFFF7FEBFFFF77A
:103A8000FEBFFFF7FEBFFFF7FEBFFFF7FEBFFFF76A
:103A9000FEBFFFF7FEBFFFF7FEBFFFF7FEBFFFF75A
:103AA000FEBFFFF7FEBFFFF7FEBFFFF7FEBFFFF74A
:103AB000FEBFFFF7FEBFFFF7FEBFFFF7FEBFFFF73A
:103AC000FEBFFFF7FEBFFFF7FEBFFFF7FEBFFFF72A
:103AD000FEBFFFF7FEBFFFF7FEBFFFF7FEBFFFF71A
:103AE000FEBFFFF7FEBFFFF7FEBFFFF7FEBFFFF70A
:103AF000FEBFFFF7FEBFFFF7FEBFFFF7FEBFFFF7FA
:103B0000FEBFFFF7FEBFFFF7FEBFFFF7FEBFFFF7E9
:103B1000FEBFFFF7FEBFFFF7FEBFFFF7FEBFFFF7D9
:103B2000FEBFFFF7FEBFFFF7FEBFFFF7FEBFFFF7C9
:103B3000FEBFFFF7FEBFFFF7FEBFFFF7FEBFFFF7B9
:103B4000FEBFFFF7FEBFFFF7FEBFFFF7FEBFFFF7A9
:103B5000FEBFFFF7FEBFFFF7FEBFFFF7FEBFFFF799
:103B6000FEBFFFF7FEBFFFF7FEBF0000F2520001ED
:103B7000301148656C6C6F2066726F6D204D6173FB
:103B8000746572210A7712100622010AF0050709EE
:103B90003D00243A00080452FF01F20026141001EF
:103BA0000000280C2144F0021788000020CC2002DD
:103BB000991200082C4387123C21011007010400D0
:103BC000004C0100204D04524C04211BA108F311AC
:103BD000380164200A02040101D8020020280300F1
:103BE0002008210421346108129444F213804850C3
:103BF0000208020288405288042134610812DC4421
:103C0000F212C84811E113205004F206982C655CAA
:0400000508003A199C
:00000001FF
