:020000040800F2
:10000000D81A00209D6D0008616C0008636C000820
:10001000656C0008676C0008696C0008000000004F
:1000200000000000000000000000000065690008FA
:100030006B6C0008000000000D690008E164000816
:10004000FD6D0008016E0008056E0008096E0008CD
:100050006D6C0008756C00080D6E0008116E0008CC
:10006000156E0008196E00081D6E0008216E00084C
:10007000256E0008296E00082D6E0008316E0008FC
:10008000356E0008396E00083D6E0008416E0008AC
:10009000456E0008496E00084D6E0008516E00085C
:1000A000556E0008596E00085D6E0008616E00080C
:1000B000656E0008776C0008696E00086D6E0008B8
:1000C000716E0008756E0008796E00087D6E00087C
:1000D000816E0008856E0008896E00088D6E00082C
:1000E000916E0008956E0008996E00089D6E0008DC
:1000F000A16E0008A56E0008A96E0008AD6E00088C
:10010000B16E0008B56E0008B96E0008BD6E00083B
:10011000C16E0008C56E0008816C0008C96E000839
:10012000CD6E0008D16E0008D56E0008D96E0008AB
:10013000DD6E0008E16E0008E56E0008E96E00085B
:10014000ED6E0008F16E0008F56E0008F96E00080B
:10015000FD6E0008016F00088B6C0008056F000839
:10016000096F00080D6F0008116F0008156F000877
:10017000196F00081D6F0008216F0008256F000827
:10018000296F00082D6F0008316F0008356F0008D7
:10019000396F00083D6F0008416F0008456F000887
:1001A000496F00084D6F0008516F00082DE9F04FAE
:1001B0000FF2A41CA1B0DCE90089CDE900892A9DD9
:1001C000DFF8DC9B049100248DF843500D944FF030
:1001D000FF38824616461F460FE0B3462C461BF8F2
:1001E000011B0498D0470028049000F0A2800D98CD
:1001F000401C641E0D90F2D176193078252808D164
:10020000002100220791089209910A920B910C9209
:100210000DE06A464146304600F0DAFF050001D1A4
:100220000D98A1E0D9D50125E6E741F0010116F8C6
:10023000010F2028F9D023280CD02B2804D02D28FA
:1002400005D0302809D076E041F00201EFE741F017
:100250000401ECE741F00801E9E741F01001E6E7AD
:100260000F9209E00F98484505DA00EB800402EB95
:100270004402303A0F92761C3278A2F130000A28FC
:10028000F0D330782E2818BFCDF8388022D116F858
:10029000010F2A2807D138683860761C50F8042BE3
:1002A00038600E9216E02D280CBF761C002000222C
:1002B0000E920AE040B90E9A4A4505DA02EB820432
:1002C00003EB4403303B0E93761C3378A3F13002EA
:1002D0000A2AEFD3ADF8401021A0317800F082FF58
:1002E00008B116F8010B8DF842009DF8420068280D
:1002F00004D1307868280AD1622105E06C2804BF57
:1003000030786C2803D171218DF84210761C12A828
:1003100006903A4616F8013B02A9504600F064F8F0
:1003200038B912AA02A9504600F0C8F900287FF592
:1003300064AF404618E02A2892D13A683A6052F8F1
:10034000040B3A6000280F9003D540420F9041F013
:100350000401761C95E7000000000000000000008A
:10036000686A6C747A4C000021B0BDE8F08F622896
:1003700020D0682811D06A2803D06C2827D0712893
:1003800025D10868C01D20F007000860D0E90023CF
:1003900008300860194610467047002A0A680A604B
:1003A000106803D0121D0A6000B217E0121D0A6027
:1003B00080B217E0002A0A680A60106803D0121D94
:1003C0000A6040B20AE0121D0A60C0B20AE0002AC8
:1003D0000A680A60106803D0121D0A60C1177047CE
:1003E000121D0A60002170477CB50D4611461C465F
:1003F0002E69B4F1250200F04F811C3A00F0848090
:10040000121F022A40F280800E3A00F00981521F2A
:1004100059D0093A78D0921E16D0521E35D0521EAD
:10042000022A71D9121F30D0521F00F09880521E3C
:1004300049D0521E00F0E280D21E00F0FF80921ED2
:1004400041D0D21E3FD02DE195F83A406C2C09D016
:100450006869421C6A610A680A6052F8043B0A60D3
:10046000335429E10A680A6052F8043B0A60009399
:10047000002201924FF0FF332B636A46294600F0B9
:1004800098F9002840F1188103E195F83A0001221B
:10049000FFF76DFFC5E90001002904D56869411C1B
:1004A00069612D220DE0288F810704D56869411C00
:1004B00069612B2205E0C00721D56869411C69618B
:1004C000202232541BE095F83A000022FFF74FFF3C
:1004D000C5E9000195F83800010710D5D5E90023DA
:1004E000002B08BF002A0AD044F02000782806D14B
:1004F000686930213154401C421C6A6134542146E1
:1005000068693044E86087E00868C01D20F0070093
:100510000860D0E9002308300860C5E90023D5E968
:100520000001C80F04D06869411C69612D220DE0EB
:10053000288F810704D56869411C69612B2205E079
:10054000C00704D56869411C69612022325468697A
:100550003044E8602146284600F036FAACE005F168
:100560003A02507820B14FF0FF340FF6043074E0B7
:100570001078622808D0682824D06A2812D06C2805
:100580002ED071280ED02BE00A680A6052F8040BB6
:100590000A6020B94FF0FF340FF6EC205DE0E96A05
:1005A000017089E00A680A6052F8040B0A6020B9F9
:1005B0004FF0FF340FF6D0204FE0EA6AD317C0E9BE
:1005C000002379E00A680A6052F8040B0A6020B937
:1005D0004FF0FF340FF6B0203FE0E96A01806BE096
:1005E0000A680A6052F8040B0A6020B94FF0FF3421
:1005F0000FF6942031E0E96A01605DE00A680A6064
:1006000052F8040B0A60002120F0000221F0FF33B1
:10061000C5E90023EE607821284600F02DF94BE073
:100620006C2285F83A200B680B6053F8042B0B60A2
:1006300052BB4FF0FF340FF684200EE095F83A20BD
:100640006C2AF0D00868086050F8044B0860EC6031
:100650003CB94FF0FF340FF6482000F0EBFD201AB4
:1006600076BD2E6B002E04D5204600F003FE044616
:1006700008E032460021204600F026FE002814BF84
:10068000041B3446AC6117E0294600F092F80028BC
:1006900012D54FF0FF3076BD6869411C6961252293
:1006A000325409E06969481C6861252272542100AE
:1006B00002D0431C6B613454002076BD2DE9F0411B
:1006C0000E4605469046726B7069316AB46A121A1A
:1006D000B069521A716A121AF069521A121A96F80F
:1006E0003800141B41070DD4002C0BDD2746B068E1
:1006F0002021A8470028B06057D0F06A401C7F1E18
:10070000F062F4D1736942463146284600F098FC05
:1007100000284AD1376A002F0ADDB0683021A84787
:100720000028B06041D0F06A401C7F1EF062F4D116
:10073000B369F2683146284600F082FCA8BB776AAC
:10074000002F09DDB0683021A847B06068B3F06AB7
:10075000401C7F1EF062F5D1F068B169F369421860
:100760003146284600F06CFCF8B9B76A002F09DD65
:10077000B0683021A847B060B8B1F06A401C7F1E55
:10078000F062F5D196F8380041070BD5002C09DD51
:10079000B0682021A847B06038B1F06A401C641EE0
:1007A000F062F5D10020BDE8F0814FF0FF30BDE8E8
:1007B000F0812DE9F8470D46A3B02F6B002F0646B8
:1007C000904648BF6FF000470FF60C1400F0A8FDEC
:1007D000D4E90023696B4018CDE90123812828BFA3
:1007E0004FF0FF3042D20024002F33DDD8F8001044
:1007F00001AA684600F0EEFC8146B9F1000F38D43A
:10080000D8F8000010B9B9F1010932D44F4521DB05
:100810006869484481280AD30021696303AA2946EC
:100820003046FFF74BFF040014D40020686103AB8F
:10083000D5F814A04A46694603EB0A0000F082FD91
:10084000CA44C5F814A058F8040B002818BFA7EB39
:100850000907C9D14CB903AA29463046FFF72EFF34
:10086000044614B9002068616863204624B0BDE8DE
:10087000F0874FF0FF34F8E72DE9FC4307466F2976
:100880003E6908BF082405D041F02000782814BF35
:100890000A2410243C25D7E90023642918BF6929BC
:1008A0009046994605D1002B03D5D8F1000869EB95
:1008B0004909B9F1000F08BFB8F1000F1FD1386B1B
:1008C000E8B9082C4CD197F83800010748D53020FA
:1008D0003B2586F83B0043E000280ED597F838000A
:1008E00000F01400102808D17B6B7969386A5B1A14
:1008F0001B1A9A1A002AC8BF3A62BDE8F3838DF822
:100900000010404649462246E31700F06FFD3032A2
:10091000D0B26D1E3A28019504DB9DF80000A0F1CD
:1009200051018A187255404649462246E31700F0A5
:100930005DFD80465FEA010908BFB8F1000F03D0F2
:10094000F86871198842DCD3082C09D197F838006F
:10095000010705D5705D302802D06D1E302070551E
:10096000C5F13C02BA617119F960386B8242B3DAA1
:10097000821A3A624FF6EF70398F01403987BDE82D
:10098000F3832DE9D04306460F4614464FF0000886
:10099000DFF8109412E0E00707D542464B46304698
:1009A000394600F03BFE06460F4640464946424661
:1009B0004B4600F033FE641080468946002CEAD195
:1009C00030463946BDE8D0832DE9F84F05468A46C2
:1009D0004AF020048EB0D5E90089612C02AE09D01E
:1009E000286B002848BF062003D408BF672C01D11C
:1009F00001202863D5E900014A005215521C0DD18F
:100A00000B030BD0AAF1610103201A29A86102D2BD
:100A10000FF2CC6110E00FF2CC610DE04A005215EC
:100A2000521C0ED10B030CD1AAF1610103201A292B
:100A3000A86116D30FF2B461E868032200F082FCCB
:100A4000C0E1CDE90C01DDE90C2323F00043B3F54F
:100A5000801F0DD20027002B08BF002A019703D169
:100A600011E00FF28461E7E701AA00F0A9FE0AE0B5
:100A7000CD48CE4900EB1350DDE90C2301900B402B
:100A8000CB4910461943C5E90001612C0DD1E86836
:100A900030210170821CBAF1610FEA600CBF78212D
:100AA000582141706869801C6861D5E90001CDE971
:100AB0000C01DDE90C2333F0004104BF00280023C2
:100AC00000F04881612C40F0A080286B4946002846
:100AD0004CBF4FF0210B00F1010B404600220023D8
:100AE000DDE90C8900F0A4FE01990BF1010738BF84
:100AF00089F00049091F002F01918DF808200DF1A0
:100B0000090040F33581A94900910646404649460F
:100B10000022002300F0A4FE80F029814800400D4F
:100B200000F11C0211D0002A0FDD40F2FF739A423F
:100B300005DBA04909F000400143002011E0009BC3
:100B4000194041EA025140460BE028F0000039F01C
:100B5000004108BF00280FBF49461C22494600F04B
:100B600097FE8046894600F031FFFF1F002F0446A4
:100B700009DD00F049FF02460B464046494600F0B9
:100B800055FF80468946F01D072104E004F00F025E
:100B900000F8012D2411002C01DD491EF6D5491E57
:100BA0005CBF002200F8012DF9D5DCE000201946D9
:100BB00002AA0A4400E05B1E12F80149491E844261
:100BC000F9D00F2804D10DF10900425C521C4254A7
:100BD000002904D50198001D02AE5B1C0190581E2F
:100BE0000CD43118AAF13A040A783032D7B23A2F2D
:100BF000A8BFA218401E01F80129F5D5286B0028CE
:100C000040F1A780591E2963A3E001996A4A47F27F
:100C10009750414391FBF2F2019229F00046D2F144
:100C2000070204DD40463146FFF7ABFE0AE05242C0
:100C300000206249FFF7A5FE02460B4640463146BA
:100C400000F066FF8046662C286B06BF019F0A37BE
:100C500006273F18142FC8BF142730208DF808002E
:100C600089460DF1090000E03046002F34DD0646CC
:100C70004046494601F070F801460A4606F108036D
:100C800004200A26B2FBF6F606EB860EA2EB4E0215
:100C9000303203F8012C0A22B6FBF2F202EB820E8C
:100CA000A6EB4E063036401E03F8026DE9D1083F30
:100CB000002F03F10806D7DD084601F061F802466F
:100CC0000B464046494600F0B1FE00223C4B00F086
:100CD000A5FC80468946CBE70DF10901401A0DF1CC
:100CE000090604E00199491E401E0191761C3178E5
:100CF0003029F7D0662C02D10199491C03E0652CFC
:100D00000CBF012100212B6BCB189842B8BF431EAA
:100D1000002B1ED4834204DAF05C3528A8BF3920AA
:100D200000DA30201946721E02EB010800E05B1E5B
:100D300018F80199491E8145F9D0392802D1705C13
:100D4000401C7054002904D50198401C16465B1CB9
:100D50000190019800B200901BB2324651462846DD
:100D600000F034F82EE0C61D002F3FF7CFAE30461E
:100D70000DF10901401A03465845C8BF5B46002BD8
:100D80000DF109063FF53AAF8342BFF60FAF0DF103
:100D90000900C15C07297FF709AF0F2007E70000B2
:100DA000CBCCCC0C0000244002FCFFFFFFFF0F80E7
:100DB0000000E03F0000F07FA08601000000F03F4F
:100DC00084D797410FB0BDE8F08F00002DE9F847B8
:100DD00083B006468A461746984600F0FDF9B8F1FA
:100DE000000F406A356B90F8009002DC4FF001086C
:100DF000BFA74AF02000BDF93040662808BF641C38
:100E000015D0672840F0848014F1040FC0F286806A
:100E1000AC4280F2838096F83800641C010702D44B
:100E2000A845B8BF454620B22D1A48BF00250FFA85
:100E300084FAF068B169BAF1000F25DC4A1C30234E
:100E40004354002D03DC96F83800010703D5F06801
:100E500000F80290521C15EB0A0FB8BF6C4220B28A
:100E6000441941424445B8BFA046B26171620FFACD
:100E700088F5F561F068B3692A463946184400F0F0
:100E800061FA641BB462C4E022B29045084417DAE8
:100E90004246394600F056FAB0694044B061AAEBC8
:100EA0000801002D716203DC96F838100A0705D599
:100EB000F16801F80090F069401CF061B562A8E0AB
:100EC000394600F03FFAB069002D5044A8EB040801
:100ED00003DC96F838100A0703D5F16801F8009092
:100EE000401CB0610FFA88F08542F368B069B8BF62
:100EF000A8460FFA88F207EB0A01184400F022FA1C
:100F0000B1690FFA88F00144B161281A706280E07B
:100F1000BAF1610F14D14FF0700A16E0A84504DA57
:100F200096F838100A0758BF45466D1E48BF002581
:100F3000BAF1670F14BF4FF0450A4FF0650A04E09D
:100F4000BAF1410F08BF4FF0500AB169F368481C6D
:100F5000B061002D17F8012B5A5403DC96F83810B5
:100F60000A071BD5F168431CB36101F80090002DFE
:100F700014DDA8F101080FFA88F039468542F768B8
:100F8000B8BFA8460FFA88F2F81800F0DBF9B0698C
:100F90000FFA88F108446D1AB0617562F068B169A2
:100FA0000844002C80F800A003D42B224270811C3E
:100FB00003E02D2141706442811C00206A460AE052
:100FC00023460A2493FBF4F404EB8405A3EB4503C6
:100FD00002F8013B401C24B2002CF1DC012806DCA5
:100FE0004AF02002652A04BF302201F8012B48B9DB
:100FF000302001F8010B07E0401E1DF800303033AF
:1010000001F8013B0028F7DCF268B0691044091AC6
:10101000F16196F8380000F0140010280DD17269C3
:10102000B169706A8A18F1698218B06A8A188218E0
:10103000706B8242BCBF821A326204B0BDE8F08796
:10104000F8B505460E4617461C46002074B117F841
:10105000011BB068A847B06030B1F06A401CF06274
:101060000020641EF3D1F2BD4FF0FF30F2BD00004E
:101070007072696E74665F733A20256E20646973BE
:10108000616C6C6F776564007072696E74663A208B
:1010900062616420256E20617267756D656E7400F3
:1010A0007072696E74665F733A20626164202573A2
:1010B00020617267756D656E740000007072696EF4
:1010C00074665F733A2062616420256C73206172DC
:1010D00067756D656E740000000000000000000080
:1010E0006E616E004E414E00696E6600494E4600CC
:1010F0003000F0B40246106895681318506803EB8E
:101100005004C0071DD54D441BE013F8017B05F8C2
:10111000017B491EF9D1A0B1B60813F8011B06F0F6
:101120000306032E08BF13F8016B01EB06214942A9
:10113000801C294405D011F8016B05F8016B401E95
:10114000F9D1A3420ED013F8016B16F0030104BFCE
:1011500013F8011BC91C30090F28DAD113F8010B51
:101160000F30D6E7F0BC02F10C0070471B48704707
:1011700070B45368D418042B09DA41B1057804F827
:10118000015B10F8016B16B15B1C491EF3E753605D
:1011900070BC704738B514461D4661B1FFF7E8FFD3
:1011A00061686A6B204690476FF00102811A02D095
:1011B000491E01D001E003E005E00021616032BD7D
:1011C0006FF0010032BD4FF0FF3032BDDA6B1047D7
:1011D000024BDFE7014BF9E7014870478800002028
:1011E00050000020C9B202788A421AB11CBF10F820
:1011F000012FF9E718BF0020704730B4002513E035
:1012000050F8042BD30744BFA9F101039A18091F12
:10121000042942F8045BFAD213468C0744BF1580B8
:101220009B1CC90748BF1D7050F8041B0029E7D15B
:1012300030BC704780B500B906A005490B681BB1EA
:1012400022220021984701E000F0A7FD222002BDE4
:10125000D0160020636F6E73747261696E742068BB
:10126000616E646C65723A20626164206D657373AF
:101270006167650000F10103810704D010F8011BCC
:10128000820781B1FAD10268A2F10131914311F0D4
:10129000803104BF50F8042FF6E709BAB1FA81F1A2
:1012A00000EBD100401CC01A7047B1F5807F02D31B
:1012B0004FF0FF3070470170012070470078401EEA
:1012C0008041C043C00F7047C9B2830706D0521E89
:1012D00022D310F8013B9942F7D11FE0083A13D30B
:1012E00002F1040241EA012141EA014150F8043BC4
:1012F000121F21BF4B40A3F1013C2CEA030C1CF050
:10130000803FF3D0C9B2001F083210F8013B521ED3
:1013100028BF91EA030FF8D818BF0120401E70477C
:1013200080B5FFF723FF006C02BD8268521C82600B
:10133000426832B10268531C036011704168491E53
:101340004160704762B38B0708D0521E11F8013B11
:1013500000F8013B00F024808B07F6D1830740F0B2
:10136000208000BF103A07D330B4B1E83810103AEB
:10137000A0E83810F9D230BC530724BFB1E80810F8
:10138000A0E8081044BF51F8043B40F8043BD207E2
:1013900024BF31F8022B20F8022B44BF0B780370D6
:1013A0007047121F17D35B0009D151F8043B20F896
:1013B000023B1B0C121F20F8023BF6D20BE051F847
:1013C000043B00F8013B1B0A20F8023B1B0C121FD8
:1013D00000F8013BF3D238BF121D521E24BF11F892
:1013E000013B00F8013BF8D870470000BBBBE1B1FE
:1013F000B2F5803F80F07E80022A1ED98C46B1FB78
:10140000F2F102FB11C31B0443EA1043B3FBF2FCED
:1014100002FB1C3380B240EA0343B3FBF2F002FB51
:10142000103240EA0C4000237047022A05D9844656
:10143000B0FBF2F002FB10C270474AB105D100F0D8
:10144000010249085FEA300070470022002370471C
:1014500000F0A6BC0B000200002100207047904263
:1014600071EB030CF6D3B3F5803F2FD2F0B5B3FA8E
:1014700083F7B1FA81F4A7F10F0E3D1B5340CEF173
:10148000200602FA0EF2F3415340B5F10F0746D899
:101490000F3C2C444140C4F12006A040F1414140A2
:1014A000B1FBF3F603FB1611A2FB0645001BA94195
:1014B00002D2761E8018594180EA010221FA0EF309
:1014C00062FA0EF200215A403046F0BD30B4B1FB52
:1014D000F3FC03FB1C11A2FB0C45001BA94103D22A
:1014E000ACF1010C8018594130BC02460B466046F5
:1014F00000217047B2F1807F65D3F0B5B2FA82F770
:10150000B1FA81F4C7F10F063D1B22FA06F307F189
:10151000110EF24120355A40B5F10F07B8D94140BC
:10152000C4F12006A040F1414140B1FBF3FC03FBB4
:101530001C11A2FB0C45001BA94103D2BCF1010CFC
:10154000801859410F2F12D30F3FC90341EA504170
:10155000B1FBF3F603FB1611A2FB0645D4EBC0303A
:10156000A94102D2761E8018594146EACC3C07B305
:101570004140C7F12006B840F1414140B1FBF3F6CC
:1015800003FB1611A2FB0645001BA94102D2761EE1
:101590008018594180EA010221FA0EF3C7F12004B4
:1015A00062FA0EF20CFA07F05A402CFA04F13043BA
:1015B000F0BD80EA010221FA0EF3002162FA0EF278
:1015C00060465A40F0BD8C46B1FBF2F102FB11C3FC
:1015D0001B0243EA1063B3FBF2FC02FB1C331B0249
:1015E0004CEA002043EA1063B3FBF2FC02FB1C331D
:1015F0001B024CEA002043EA1063B3FBF2FC02FB3F
:101600001C331B024CEA002043EA1063B3FBF2FCDC
:1016100002FB1C324CEA002000237047B0B581EA7F
:10162000030C0CF0004C40F2FF7515EA11541DBF7D
:1016300015EA1357AC42AF4239E0E41923EA4553A7
:1016400043F48013C90241F0004141EA505EC702F1
:101650001100A7FB020200284FF00000EEFB012062
:101660004FF00001E3FB072118BF42F001024018D0
:1016700000214941E3FB0E01A4F580640F0302D26F
:1016800052004041494154F101046CDD470872F1B8
:10169000004250F1000051EB0451A1F580115CBFF4
:1016A00041EA0C01B0BD4CEA05510020B0BD05EA8D
:1016B0001357AC4214BFAF4241E050EA410E1CBF89
:1016C00052EA430E02E061460020B0BD24423C4491
:1016D0001BD15FEA070EF6D0090302BF01460020C6
:1016E000AEF1140EB1FA81F7AEEB070401FA07FE72
:1016F0000C37C7F1200100FA07F7C8404EEA000E88
:1017000023EA455343F48013A2E733F00043B3FACE
:1017100083F704BFB2FA82FE77440B3FE41BB7F1B4
:10172000200E2FBF02FA0EF3BB40C7F1200E22FAA3
:101730000EFE38BF43EA0E03BA40641C82E750EA4B
:10174000410E14BF52EA430E6FF000014FF4001730
:1017500017EB430F8ABF194617EB410FB5E74CEA69
:1017600005510020B0BDD4F10104B4F120070FDA17
:10177000C4F12007520828BF42F0010210FA07F511
:1017800001FA07F7E1BF2A43E0403843E1400FE0A8
:10179000352C98DCC7F1200452EA400220FA07F207
:1017A00018BF42F0010231FA07F0A1400A430021BC
:1017B00072F1004250F1000051EB0C01B0BD00008D
:1017C00010B5144600F002F8226010BDC1F30A53B0
:1017D00043B14A0012F5001F28D2A3F2FE32A1EB5A
:1017E0000251704750EA410C20D001F0004C31EA20
:1017F0000C01B1FA81F204BFB0FA80F3D2180B3AAF
:10180000B2F120032CBF00FA03F1914041EA0C0130
:101810003EBFC2F1200C20FA0CF319439040524213
:1018200040F2FD33D21A01EB03517047002270479A
:101830004FF4001C1CEB410F94BF1CEB430F09E05D
:1018400041EA030C50EA4C0C52EA0C0C03D29942C8
:1018500008BF9042704714BF8B428242704700001D
:101860004FF4001C1CEB410F94BF1CEB430F09E02D
:1018700041EA030C50EA4C0C52EA0C0C03D28B42A6
:1018800008BF8242704714BF9942904270470000DF
:10189000124254D440F2FF7C1CEA11530FD063452E
:1018A00031D09B1863453CBF01EB0251704701F0FA
:1018B000004141EA0C510020AFF30080704750EA2C
:1018C000410320D001F0004C91EA0C011CD0B1FA88
:1018D00081F30B3B9A420DD9D21A994051EA0C017F
:1018E000C3F1200C20FA0CFC61449840531C40F2D8
:1018F000FF7CD7E7914041EA0C01C2F1200C20FAAD
:101900000CF3194390407047B0FA80F31533202B45
:10191000E0D3202AEED3203A203B9A4209D9D21AAA
:1019200000FA03F141EA0C010020531C40F2FF7C55
:10193000B8E700FA02F141EA0C0100207047524278
:1019400040F2FF7C1CEA11530DD06345DBD0B2EBB3
:10195000030C3CBFA1EB025170470CF1010221EADC
:10196000035141F4801150EA410CCCD001F0004CFD
:10197000352A27DC30B481EA0C01B2F1200309DA00
:10198000C2F12003044601FA03F5D0402843D140B8
:101990009C400CE0C3F12002450020FA03F418BF7C
:1019A00044F0010421FA03F091400C43002174F14A
:1019B000004550F1000051EB0C01244230BC7FF493
:1019C0007BAF70476146002076E70000C1F30A5301
:1019D00040F2FE329B1A14DDD3F120034FEAE1728C
:1019E00008DDC90241EA505141F00040D84080185A
:1019F0005040704703F2E13010B1D24382F0004012
:101A00007047002070470000C11768B14840401A75
:101A1000B0FA80F29040D21CC907C2F5846241EA54
:101A2000025202EBD02140057047000070B44FF025
:101A3000004591EA030F40F1B5816B40841A71EBC8
:101A4000030603D2001BB141121973414FF4001C6D
:101A50001CEB410F34BF7CEB430442E00C0DA4EBC4
:101A60001356352E4FDC45EAC323DB0A45EAC12174
:101A7000C912B6F120050DDD63FA05F6EB4086EAE2
:101A80000305124218BF45F00105C01851F10001CD
:101A90000CD213E062FA06F5F2405540F3415A4089
:101AA000B340F3405A408018594107D349085FEAD0
:101AB00030005FEA350528BF45F0010501F58011CA
:101AC000420875F1004250F1000041EB04514E0014
:101AD00016F5001F70BC38BF70470020090D0905BE
:101AE00070471CEB410F10D252EA43060BD0BCEBFF
:101AF000410F05D80C0DAB43661E342EB6DD02E057
:101B0000AB438018594170BC704770BC70470000EF
:101B1000F0B540F2FF7581EA030C0CF0004C15EAB9
:101B200011541DBF15EA1357AC42AF42E5E0BC416A
:101B3000C1F31301C3F31303801A994143F48013D3
:101B400004D2641E4000494180185941C90241EA4B
:101B50005051B1FBF3F603FB1611A2FB0675D7EB50
:101B6000C020A94102D2761E80185941C90241EA1B
:101B70005051B1FBF3FE03FB1E11A2FB0E75D7EB18
:101B8000C020A94103D2AEF1010E8018594189024B
:101B900041EA9051760546EA8E2EB1FBF3F603FB3F
:101BA0001611A2FB0675D7EB8020A94102D2761E42
:101BB00080185941C90241EA50514EEA060EB1FB64
:101BC000F3F603FB1611A2FB0675D7EBC020A94163
:101BD00002D2761E80185941C90241EA5051B1FB28
:101BE000F3F703FB1711A2FB0735D3EBC020A94184
:101BF00067F100070CBF004247F0010766F3D527E5
:101C00004FEA1E31B80814F5806412DDBD0775F186
:101C1000004250EB0E5051EB045111F5801F5CBF98
:101C200041EA0C01F0BD4CF07F6141F0E041002041
:101C3000F0BDBD076D0840EA0E5041F48011D4F1AB
:101C40000104B4F120060ADAC4F120060200E040E3
:101C500001FA06F3E1401843B24015430EE0342C7C
:101C600013DCC6F1200445EA40056D0820FA06F2AF
:101C7000154321FA06F0A1400D43002175F1004201
:101C800050F1000051EB0C01F0BD00205FEA0C01A7
:101C9000F0BDCFB992185B41B3FA83F704BFB2FA33
:101CA00082F6BF190B3FB7F120062FBF02FA06F3E9
:101CB000BB40C7F1200622FA06F638BF3343BA40CC
:101CC0001CB1E419641E33E77F4231F00041B1FAE0
:101CD00081F404BFB0FA80F6A4190B3CB4F12006DD
:101CE0002FBF00FA06F1A140C4F1200620FA06F643
:101CF00038BF3143A0403C1B1AE7AC421ABF05EA8B
:101D00001357AF4212E050EA41061CBF52EA4306A5
:101D1000BFE750EA4107304661461CBF41EA055122
:101D2000F0BD52EA430C08BFC143F0BD00204FF4A0
:101D3000001616EB410F98BF16EB430F08BF16EBCA
:101D4000410F24BFC14305E016EB430F0CBF6146B2
:101D50004CEA0551F0BD0000400D491840EA8120D1
:101D60000CD2490DA1F58061491C40F0004005DB13
:101D7000D1F11F0154BFC840C01770470020704701
:101D8000014648B1B0FA80F18840C91CC1F58461B0
:101D9000090501EBD02140057047012000F0B8B8DB
:101DA00070470000841A71EB030604D26E40001BDA
:101DB000B141121973414FF4001C1CEB410F34BFA9
:101DC0007CEB430683E00C0DA4EB1356362E00F398
:101DD0007C80012E45EAC32341DC43EA525312BF03
:101DE000D20292025B08240545EAC12141EA505122
:101DF000D2EBC020994125D407D1B0FA80F610FA71
:101E000006F162D00020203608E0B1FA81F6B14038
:101E1000C6F1200220FA02F21143B0404FEAF474F6
:101E2000B4EB465434F001064FEA74040AD8D6F5F0
:101E30000016760D04F00044F04061FA06F25040BE
:101E4000F1404840C00A40EA415021F0004128BF1B
:101E50005FEA500550F1000044EBD12135E0DB0A88
:101E600045EAC121C90AB6F120050EDD42EA024267
:101E7000120CC5F1200603FA06F6EB4042EA06050D
:101E80006D42984161F100010DE062FA06F5F24001
:101E9000554063FA06FC82EA0C02F3405A406D4258
:101EA000904161EB030111F4801F05D1641E6205AE
:101EB00002D06D004041494121F48011430875F181
:101EC000004350F1000041EB045170BC70471CEB23
:101ED000410F15D223F0004352EA43060BD04FEADC
:101EE0004C0CBCEB410F04D80C0D661E342EB7DD34
:101EF000EBE7801A994150EA410608BF0021E4E768
:101F000008BF1CEB430F28BF6FF00001DDE70000A6
:101F100080B5AFF30080024A11001820ABBEFBE78A
:101F20002600020010B50400002C01D1012035E08C
:101F3000A0690028FFD1606F002805D1002084F837
:101F40007000200000F0B0FD242060672068006869
:101F50004008400021680860200000F09BF901283B
:101F600001D101201AE0606A002802D0200000F0B0
:101F7000C1FB2068406830F49040216848602068C8
:101F8000806830F02A00216888602068006850F07E
:101F9000010021680860200000F019FC10BD10B499
:101FA0000300586F202832D1002903D0100080B2DE
:101FB000002801D101202BE093F87000012801D105
:101FC000022025E0012083F87000D964A3F8502096
:101FD000A3F85220002058660020D86721205867B7
:101FE0009868B0F5805F05D11869002802D1424891
:101FF000586601E041485866002083F87000186870
:10200000006850F080001C682060002000E0022082
:1020100010BC704710B40300986F202868D10029C5
:1020200003D0100080B2002801D1012061E093F8B4
:102030007000012801D102205BE0012083F87000CC
:102040005965A3F85820A3F85A200020186698680C
:10205000B0F5805F0BD11869002804D140F2FF1061
:10206000A3F85C0023E0FF20A3F85C001FE0986861
:1020700000280AD11869002803D1FF20A3F85C00CA
:1020800015E07F20A3F85C0011E09868B0F1805F54
:102090000AD11869002803D17F20A3F85C0006E06C
:1020A0003F20A3F85C0002E00020A3F85C000020C1
:1020B000D867222098671868806850F001001C6873
:1020C000A0609868B0F5805F05D11869002802D13A
:1020D0000B48186601E00B481866002083F8700072
:1020E0001868006850F490701C682060002000E0C0
:1020F000022010BC7047000023290008E1280008D6
:10210000F52900088B2900082DE9F84306003068FE
:10211000C7693068D0F800803068D0F8089017F0B0
:102120000F04002C0BD1B80609D55FEA886006D5EC
:10213000306E002802D03000316E8847A8E0002CB5
:1021400000F084805FEAC97002D418F4907F7DD0DB
:1021500017F00100C0B2002809D05FEAC85006D5C8
:10216000012031680862F06F50F00100F067B80795
:102170000BD519F00100C0B2002806D0022031684A
:102180000862F06F50F00400F06778070BD519F083
:102190000100C0B2002806D0042031680862F06F48
:1021A00050F00200F06738070ED55FEA886004D46B
:1021B00019F00100C0B2002806D00820316808627A
:1021C000F06F50F00800F067F06F00283DD0B806BF
:1021D00008D55FEA886005D5306E002802D030004F
:1021E000316E8847F06F050030688068400601D482
:1021F000280725D5300000F053FB30688068400682
:102200001AD53068806830F0400031688860F06E20
:1022100000280DD00FF2AD60F16E8863F06E00F013
:1022200095FC002811D0F06EF16E896B88470CE0A8
:10223000300000F0BAFC08E0300000F0B6FC04E02A
:10224000300000F0B2FC0020F06721E0F8020AD56F
:102250005FEA492007D55FF48010316808623000DA
:1022600000F0A4FC14E0380609D55FEA086006D542
:10227000706E002802D03000716E884708E0780642
:1022800006D55FEA486003D5300000F06EFBFFE73B
:10229000BDE8F1832DE9F0470400002500265FF03A
:1022A0000008DFF8241420688842FFD0A268206963
:1022B000024360690243E069024320680368DFF873
:1022C0000C0403401343206803602068436833F420
:1022D0004053E068034320684360D4F818902068B6
:1022E000884202D0206A50EA09092068806830F4E8
:1022F000306059EA0000226890602068DFF8D0233F
:10230000904216D1DFF8CC03006810F003000028DB
:1023100005D0022805D006D3032806D007E0012700
:102320009BE0022799E0042797E0082795E0102713
:1023300093E02068DFF8A023904217D1DFF89403E0
:10234000006810F00C00002806D0042808D00828E7
:1023500004D00C2806D007E000277EE002277CE0AE
:1023600004277AE0082778E0102776E02068DFF875
:102370006C23904217D1DFF85C03006810F0300046
:10238000002806D0102808D0202804D0302806D0F5
:1023900007E0002761E002275FE004275DE00827EF
:1023A0005BE0102759E02068DFF83423904217D112
:1023B000DFF82003006810F0C000002806D0402895
:1023C00008D0802804D0C02806D007E0002744E0C9
:1023D000022742E0042740E008273EE010273CE0C7
:1023E0002068DFF80023904219D1BA48006810F441
:1023F0004070002809D0B0F5807F0AD0B0F5007F8A
:1024000005D0B0F5407F06D007E0002725E0022781
:1024100023E0042721E008271FE010271DE02068A3
:10242000884219D1AB48006810F44060002809D0F8
:10243000B0F5806F0AD0B0F5006F05D0B0F5406FF1
:1024400006D007E0002708E0022706E0042704E0A2
:10245000082702E0102700E01027206888427CD17E
:102460003800C0B2002806D0022808D0042809D0BD
:1024700008280BD00EE000F0D4FF80460CE09A480C
:10248000804609E000F060FF804605E04FF4004020
:10249000804601E001200600B8F1000F00F00A813B
:1024A000616803204143884505D361684FF480503B
:1024B0004143414502D201200600FBE03800C0B292
:1024C000002806D0022814D004281FD008282DD0B8
:1024D00035E000F0A6FF02004FF48073606840080A
:1024E0000021E3FB020162680023FEF77FFF050085
:1024F00027E06268520800237C48002110185941E7
:1025000062680023FEF772FF05001AE000F01CFF6E
:1025100002004FF48073606840080021E3FB020171
:1025200062680023FEF762FF05000AE06068400869
:1025300010F500006168B0FBF1F0050001E001203A
:102540000600B5F5407F05D3B5F5801F02D220689F
:10255000C560AFE001200600ACE0E069B0F5004FD7
:102560005AD13800C0B2002808D0012812D0022861
:102570001CD0042824D008282ED037E000F051FFCA
:102580006168490811EB40016068B1FBF0F080B26E
:1025900005002DE000F052FF6168490811EB400191
:1025A0006068B1FBF0F080B2050021E0606850493E
:1025B00011EB50016068B1FBF0F080B2050017E04C
:1025C00000F0C2FE6168490811EB40016068B1FB90
:1025D000F0F080B205000BE06068400810F5803034
:1025E0006168B0FBF1F080B2050001E00120060057
:1025F000102D0ED3B5F5803F0BD24FF6F071294068
:10260000C5F3420001438A46504680B22168C86043
:1026100050E0012006004DE03800C0B2002808D08C
:10262000012811D002281AD0042822D008282BD043
:1026300034E000F0F6FE616810EB51006168B0FB19
:10264000F1F080B205002BE000F0F8FE616810EBBD
:1026500051006168B0FBF1F080B2050020E06068D5
:10266000214911EB50016068B1FBF0F080B2050028
:1026700016E000F069FE616810EB51006168B0FB84
:10268000F1F080B205000BE06068400810F50040F2
:102690006168B0FBF1F080B2050001E001200600A6
:1026A000102D05D3B5F5803F02D22068C56001E04A
:1026B0000120060000202066002060663000C0B2C5
:1026C000BDE8F0870000000000800040F369FFEFE4
:1026D000003801408810024000440040004800409B
:1026E000004C0040005000400024F400000024F49E
:1026F0000048E80190F82410C90707D501684A6826
:1027000032F40032816A0A4301684A6090F824106A
:10271000890707D501684A6832F48032C16A0A43E2
:1027200001684A6090F82410490707D501684A6893
:1027300032F48022016B0A4301684A6090F8241049
:10274000090707D501684A6832F40042416B0A4321
:1027500001684A6090F82410C90607D501688A68A4
:1027600032F48052816B0A4301688A6090F8241029
:10277000890607D501688A6832F40052C16B0A43A2
:1027800001688A6090F82410490613D501684A68E8
:1027900032F48012016C0A4301684A60016CB1F5A1
:1027A000801F07D101684A6832F4C002416C0A43B5
:1027B00001684A6090F82410090607D501684A6844
:1027C00032F40022816C0A4301684A60704738B5D0
:1027D00004000020E06700F0C5FE050020680068E6
:1027E00000070DD57FF07E4000902B0000225FF4A3
:1027F0000011200000F01FF8002801D0032019E08C
:102800002068006840070DD57FF07E4000902B00C7
:1028100000225FF48001200000F00DF8002801D0B4
:10282000032007E0202060672020A067002084F8B4
:102830007000002032BD2DE9F04105000E009046E9
:102840001F00069C2868C0693040B04201D10120B9
:1028500000E000204146C9B288421ED114F1010FA8
:10286000F0D000F07FFEC01B844201D3002CE9D1E0
:102870002868006830F4D07029680860286880688B
:102880004008400029688860202068672020A867E9
:10289000002085F87000032000E00020BDE8F081F2
:1028A0000168096831F490710268116001688968F3
:1028B0004908490002689160202181670021016672
:1028C0007047000038B50400A56A0020A5F85A003A
:1028D0000020A5F85200280000F067F931BD000083
:1028E000416F21291CD1B0F8521000290CD1016888
:1028F000096831F08001026811600168096851F0CF
:102900004001026811600BE0C16C09780268118512
:10291000C16C491CC164B0F85210491EA0F8521095
:102920007047416F21291FD1B0F8521000290CD1F6
:102930000168096831F0800103681960016809685D
:1029400051F04001036819600EE0C16C0A00118863
:10295000C905C90D03681985C16C891CC164B0F82B
:102960005210491EA0F85210704710B5040020689C
:10297000006830F040002168086020206067002077
:102980006066200000F0F4FD10BD70B50500B5F8DC
:102990005C60A86F222826D12868808C040016EA83
:1029A0000400696D0870686D401C6865B5F85A00D0
:1029B000401EA5F85A00B5F85A00002819D1286819
:1029C000006830F4907029680860286880684008C2
:1029D0004000296888602020A86700202866280019
:1029E00000F0D4FE05E02868008B50F0080029684C
:1029F000088370BDF8B50500B5F85C70A86F222893
:102A000027D12868808C0400686D060017EA04004E
:102A10003080686D801C6865B5F85A00401EA5F8C6
:102A20005A00B5F85A00002819D12868006830F417
:102A3000907029680860286880684008400029680C
:102A400088602020A86700202866280000F09EFEED
:102A500005E02868008B50F0080029680883F1BD64
:102A600080B53348016851F001010160006810F041
:102A70000100009000982F48016851F080510160DA
:102A8000006810F080500090009800220F217FF025
:102A9000010000F076FF00220521042000F071FF04
:102AA000042000F083FF01BD10B586B0040001A82A
:102AB000142100F08DFF20681F49884224D11F484F
:102AC000016851F001010160006810F00100009000
:102AD00000981B48016851F040010160006810F047
:102AE00040000090009800F0B8FF4FF4C0700190D3
:102AF00002200290002003900320049008200590FB
:102B000001A9104800F0BAFF06B010BD81B00168FD
:102B10000D4A914209D107490A6852F002020A603F
:102B2000096811F002010091009901B0704700009E
:102B30006010024058100240008000405C100240CB
:102B40004C100240001800480004004038B5040052
:102B5000002594F82500022804D00420E063012019
:102B600005001FE02068006830F00E002168086052
:102B7000206800684008400021680860012094F83F
:102B8000441011F01C018840216C4860012084F839
:102B90002500002084F82400A06B002802D020002B
:102BA000A16B88472800C0B232BD70477047000053
:102BB0002DE9FE4F0400002C01D101201CE3DFF8B9
:102BC000D098D9F8005015F00C05DFF85C89D8F8DA
:102BD000007017F003072078C00640F1C480002D74
:102BE00003D00C2D78D1012F76D1DFF8A0A8DAF828
:102BF0000000800704D5A069002801D10120FBE274
:102C0000DAF80000000704D5DAF8000010F0F00050
:102C100005E0DFF818090068000910F0F000216AEB
:102C200088421ED2206A00F039FC002801D0012021
:102C3000E2E2DAF8000050F00800CAF80000DAF822
:102C4000001031F0F001206A0143CAF80010DFF8EB
:102C5000E008016831F47F41E26951EA0221016034
:102C60001DE0DAF8000050F00800CAF80000DAF8B9
:102C7000001031F0F001206A0143CAF80010DFF8BB
:102C8000B008016831F47F41E26951EA0221016034
:102C9000206A00F003FC002801D00120ACE200F023
:102CA00053FBDFF89018D9F80020C2F30312895CB7
:102CB00011F01F01C840DFF8DC170860DFF8D80703
:102CC000006800F0E9FF8DF800009DF80000002882
:102CD00049D09DF800008FE2A06900282DD0DFF8D0
:102CE000AC97D9F8000050F00100C9F8000000F0DE
:102CF00039FC0600D9F80000800706D400F032FC49
:102D0000801B0328F6D3032076E2D9F8000050F0A8
:102D10000800C9F80000D9F8001031F0F001206A6D
:102D20000143C9F80010DFF80808016831F47F4159
:102D3000E26951EA0221016015E0DFF85097D9F805
:102D4000000040084000C9F8000000F00BFC06003D
:102D5000D9F80000800706D500F004FC801B03288A
:102D6000F6D3032048E22078C00754D5082D03D0BD
:102D70000C2D0BD1032F09D1DFF810070068800359
:102D800049D56068002846D1012035E26068B0F579
:102D9000803F06D1DFF8F406016851F4803101600C
:102DA00018E06068B0F5A02F0AD1DFF8E0060168EE
:102DB00051F480210160016851F48031016009E023
:102DC000DFF8C806016831F480310160016831F430
:102DD00080210160606800280ED000F0C3FB06006F
:102DE000DFF8A8060068800315D400F0BBFB801B49
:102DF0006528F5D30320FFE100F0B4FB0600DFF8FF
:102E00008C060068800306D500F0ACFB801B6528AB
:102E1000F5D30320F0E12078800752D5042D03D0AC
:102E20000C2D15D1022F13D1DFF860060068400584
:102E300004D5E068002801D10120DDE1DFF8F006CB
:102E4000016831F0FE41226951EA0261016038E017
:102E5000E06800281FD0DFF83496D9F8000050F45D
:102E60008070C9F8000000F07DFB0600D9F8000072
:102E7000400506D400F076FB801B0328F6D3032020
:102E8000BAE1DFF8AC06016831F0FE41226951EA8F
:102E90000261016015E0DFF8F495D9F8000030F424
:102EA0008070C9F8000000F05DFB0600D9F8000052
:102EB000400506D500F056FB801B0328F6D30320FF
:102EC0009AE1207800072ED56069002815D0DFF838
:102ED0005C96D9F8000050F00100C9F8000000F03D
:102EE00041FB0600D9F8000080071CD400F03AFB33
:102EF000801B0328F6D303207EE1DFF83096D9F853
:102F0000000040084000C9F8000000F02BFB06005C
:102F1000D9F80000800706D500F024FB801B0328A9
:102F2000F6D3032068E12078400740F181805FF00C
:102F30000009DFF804A6DAF80000C0000DD4DAF8C2
:102F4000000050F08050CAF80000DAF8000010F0DD
:102F500080500190019801208146DFF8E0B5DBF850
:102F60000000C00513D4DBF8000050F48070CBF8EB
:102F7000000000F0F7FA0600DBF80000C00506D4F8
:102F800000F0F0FA801B0328F6D3032034E1A06898
:102F9000012806D1DFF8A805016851F001010160A0
:102FA00017E0A06805280AD1DFF89405016851F000
:102FB00004010160016851F00101016009E0DFF8DE
:102FC00080050168490849000160016831F0040189
:102FD0000160A068002810D000F0C4FA0600DFF8F5
:102FE00060050068800719D400F0BCFA801B41F22C
:102FF00089318842F3D30320FEE000F0B3FA0600E3
:10300000DFF83C050068800708D500F0ABFA801BAC
:1030100041F289318842F3D30320EDE04846C0B243
:10302000012805D1DAF8000030F08050CAF800001D
:10303000207880062ED5606A002815D0DFF8049528
:10304000D9F8000050F00100C9F8000000F08AFA39
:103050000600D9F8000080071CD400F083FA801B1A
:103060000328F6D30320C7E0DFF8D894D9F800008E
:1030700040084000C9F8000000F074FA0600D9F8D2
:103080000000800706D500F06DFA801B0328F6D3F8
:103090000320B1E0A06A002800F0AD800C2D78D0AC
:1030A000A06A02284DD1DFF8E4A3DAF8000030F07E
:1030B0008070CAF8000000F055FA8146DAF8000086
:1030C000800107D500F04EFAB0EB09000328F5D3D4
:1030D000032091E0D8F80010DFF86C040140E06AAA
:1030E0000143206B401E51EA0011606B51EA002140
:1030F000E06B4008401E51EA4051206C4008401EE1
:1031000051EA4061A06B51EAC061C8F80010DAF8DA
:10311000000050F08070CAF80000D8F8000050F0AD
:103120008070C8F8000000F01DFA0600DAF8000010
:10313000800160D400F016FA801B0328F6D3032028
:103140005AE0DFF84893D9F8000030F08070C9F8F1
:103150000000D9F8000010F0205F05D1D8F8000079
:1031600080088000C8F80000D8F80010DFF8DC0301
:103170000140C8F8001000F0F5F90600D9F8000089
:10318000800138D500F0EEF9801B0328F6D3032028
:1031900032E0A06A012801D101202DE0D8F800001A
:1031A000070017F00300E16A884222D117F070008F
:1031B000216B491EB0EB011F1BD117F4FE40616B60
:1031C000B0EB012F15D117F07840A16BB0EBC16FB8
:1031D0000FD117F4C000E16B4908491EB0EB415F05
:1031E00007D117F0C060216C4908491EB0EB416F50
:1031F00001D0012000E00020BDE8FE8F2DE9F04164
:1032000004000D00002C01D101209BE0DFF8407389
:10321000386810F00700A8420BD23868C008C00018
:1032200028433860386810F00700A84201D0012018
:1032300088E02078C00742D56068032806D1DFF80F
:103240004C02006880011CD401207BE060680228E9
:1032500006D1DFF838020068800312D4012071E043
:103260006068002806D1DFF824020068800708D4CF
:10327000012067E0DFF814020068400501D4012056
:1032800060E0DFF80C82D8F80010890889006068D7
:103290000143C8F8001000F065F90600D8F80000F6
:1032A00010F00C006168B0EB810F08D000F05AF903
:1032B000801B41F289318842F0D3032042E020781C
:1032C000800706D572490A6832F0F002A06802430E
:1032D0000A60386810F0070085420BD23868C008D1
:1032E000C00028433860386810F00700A84201D0B9
:1032F000012027E02078400706D565490A6832F4A6
:10330000E062E06802430A602078000707D5604861
:10331000016831F46051226951EAC201016000F094
:1033200013F8DFF810125A4A1268C2F30312895CCC
:1033300011F01F01C840574908605748006800F065
:10334000ABFCC0B2BDE8F0812DE9F04100260020C1
:103350004F49096811F00C01DFF8CCC1DCF80070AE
:1033600017F00307002903D00C291AD1012F18D117
:10337000DFF818E1DEF800805FEA087806D4DFF8AD
:10338000ACE1DEF800E0CEF3032E03E0DEF800E06F
:10339000CEF3031E6F4E56F82E6000290CD130007C
:1033A0000AE0042903D1DFF8B0E1704604E00829FF
:1033B00002D1DFF8A8E170460C292DD1DCF800E03D
:1033C0001EF0030E73469E46BEF1020F03D0BEF1FF
:1033D000030F03D005E0DFF880E103E0DFF87CE1D4
:1033E00000E0B646DCF80020C2F30212521C1500C1
:1033F000DCF80020C2F3062202FB0EFEBEFBF5F253
:10340000DCF800C0CCF3416C1CF1010C5FEA4C0C01
:103410006446B2FBF4FC6046BDE8F0811D480068DC
:10342000704780B5FFF7FAFF4D49194A1268C2F399
:103430000222895C11F01F01C84002BD80B5FFF770
:10344000EDFF4749124A1268C2F3C222895C11F0AB
:103450001F01C84002BD0F2202600D4A136813F01D
:1034600003034360136813F0F0038360136813F4DD
:10347000E063C3601268D20812F4E0620261344A69
:10348000126812F007020A60704700000010024044
:10349000081002404C000020240000207CB50400ED
:1034A0000025254E3068C00003D500F095FA0100D4
:1034B0000FE0306850F080503060306810F080507D
:1034C0000090009800F088FA0100306830F08050D9
:1034D0003060B1F5007F09D1812C15D3A12C02D326
:1034E0000220050010E0012005000DE0812C02D330
:1034F0000320050008E0802C02D10220050003E033
:10350000702C01D10120050011480268D208D200B8
:103510002A430260006810F00700A84201D0012091
:1035200000E0002076BD00000C1002409410024024
:10353000041002408C6D00085810024000700040DA
:1035400090100240981002408C809D01FFFFEEFE1B
:1035500000200240A06C00080024F40000127A0051
:10356000CC6D000801480068704700BF7C16002041
:103570007047000018B589B000F0D8FB00F034F8AF
:1035800000F0EDF800F090F800F0AAF800F072F802
:103590000122B749B748FEF73DFDB748D0E90023FF
:1035A000CDE9002300220121684600F028FCB34940
:1035B0000860B34C002201214FF4807000F02EFD12
:1035C00020602068002801D100F076F902A8AD49FA
:1035D0001C22FDF7C7FE002102A800F0D2FBAA4979
:1035E000086000F0C9FBFEE700B5B9B028A8442187
:1035F00000F0EEF96846142100F0EAF905A88C21E4
:1036000000F0E6F91020289001202E9000202F9045
:10361000602030900020329028A8FFF7C9FA0028D7
:1036200001D000F049F90F20009000200190002007
:103630000290002003900020049000216846FFF7CC
:10364000DDFD002801D000F037F920200590002092
:10365000189005A801F032F8002801D000F02CF9EC
:103660004FF4007000F0BEF9002801D000F024F9FA
:1036700039B000BD80B500220521052000F081F998
:10368000052000F093F9002205211D2000F079F9B2
:103690001D2000F08BF900220521462000F071F971
:1036A000462000F083F901BD80B57248774901607A
:1036B0004FF416514160002181600021C16000215A
:1036C00001610C2141610021816100210162002121
:1036D0004162FEF727FC002801D000F0EDF801BDA3
:1036E00018B587B003A8102100F072F968460021D0
:1036F0000022002380E80E0065486649096842F20E
:103700001072B1FBF2F1491E0160634C6349216004
:10371000006860600020A06042F20F70E06020004E
:1037200001F064FB002801D000F0C6F84FF480508F
:10373000039003A9200001F075FC002801D000F0DF
:10374000BBF800200090002002906946200001F0A4
:103750008FFD002801D000F0AFF808B010BD80B593
:103760004F48016851F080010160016811F080014B
:1037700000910099016851F040010160006810F06B
:1037800040000090009800F068F901BD38B50400D1
:10379000374D0023002229003948006800F058FD09
:1037A000012229003348FEF735FC31BD2DE9F843ED
:1037B00004004FF47A713148006800F047FB4FF481
:1037C000FA7000F00EFB374E2D4F386800F068FE9F
:1037D000D0F58070306030680028F0D000200500FF
:1037E00030688542EBDADFF8C08000224146386855
:1037F00000F09EFDDFF87C90012241464846FEF72E
:10380000CEFBD9F874002028FBD198F8000053288B
:1038100003D1214801F006FB09E098F80000732865
:1038200005D11D4801F017FB0020204908606D1CE0
:10383000D6E7704738B5040020681D49884202D198
:1038400001F04EFD10E019480168491C0160194D56
:10385000036806A21E2115F1140001F04DFD1A2285
:1038600029000448FEF79BFB31BD000025640000E1
:10387000D416002014130020C46D00086416002024
:103880006C160020706D000860160020008000405B
:10389000681600204C000020FC14002000040040AA
:1038A0004C10024070160020D5160020741600201F
:1038B00000100040000000207047000010B410F01D
:1038C0000703DFF8F84022684FF6FF010A40DFF8EF
:1038D000F01051EA03210A43226010BC7047DFF860
:1038E000DC000068C0F302207047010049B20029E3
:1038F0000AD4012210F01F018A40DFF8C81003002B
:103900005BB25B0941F82320704710B4020052B249
:10391000002A05D40A012C4B040064B21A5508E0B1
:103920000A012A4B040064B214F00F04234403F884
:10393000042C10BC704770B4030013F00704D4F1DA
:103940000700052801D3042001E0D4F10700251D5C
:10395000072D01D2002500E0E51E012616FA00F031
:10396000401E0140A94016FA05F56D1E2A4011437C
:10397000080070BC704710B504002000FFF79EFFE0
:1039800010BD2DE9F04104000D0016000027FFF7DF
:10399000A6FF8046320029004046FFF7CCFF010019
:1039A000200040B2FFF7B1FFBDE8F08110B5040080
:1039B000200040B2FFF799FF10BD00000CED00E0C1
:1039C0000000FA0500E100E000E400E018ED00E08E
:1039D000002201F0B3BC0000DFF88C00006810F496
:1039E000C06070470200B2F5007F26D1DFF8780092
:1039F000036813F4C063B3F5007F2CD0036833F47D
:103A0000C06353F400730360DFF860000368322082
:103A10004343DFF85C00B3FBF0F0401C0100DFF82B
:103A2000540003685B0503D5002901D0491EF6E761
:103A3000006840050FD503200EE0DFF82C00036876
:103A400013F4C063B3F5806F05D0036833F4C0632B
:103A500053F48063036000207047DFF81C000168A6
:103A600051F4007101607047007000404C0000206C
:103A700040420F001470004004700040F8B503008D
:103A800000250868E840002800F0EA8001260F6859
:103A900016FA05F007403A00002A00F0DF80486877
:103AA000022802D0486812281ED12800C00803EB63
:103AB0008000076A5FF00F0C15F00700C0B28000AD
:103AC0001CFA00FC37EA0C07D1F810C015F007000B
:103AD000C0B280001CFA00FC5CEA07073C0028002A
:103AE000C00803EB800004621F685FF0030C28002D
:103AF000C0B240001CFA00F0874391F804E01EF0C9
:103B0000030E2800C0B240001EFA00FE5EEA07075E
:103B10001F604868012808D04868022805D0486816
:103B2000112802D0486812281AD19C682800C0B217
:103B300040001CFA00F08443D1F80CE02800C0B229
:103B400040001EFA00FE5EEA04049C605868AE4025
:103B5000B0434E68C6F30016AE40304307005F60C6
:103B6000DC682800C0B240001CFA00FC34EA0C04F7
:103B70008E682800C0B2400086403443DC6048684C
:103B8000C0006BD53748066856F00106066000682D
:103B900010F0010000900098334F2800800857F87B
:103BA00020605FF00F0C15F00300C0B280001CFA1B
:103BB00000FC36EA0C06B3F1904F01D1002423E05B
:103BC0002A48834201D101241EE02948834201D1C1
:103BD000022419E02748834201D1032414E0264837
:103BE000834201D104240FE02448834201D10524FB
:103BF0000AE02348834201D1062405E0214883429C
:103C000001D1072400E0082415F00300C0B28000B1
:103C1000844026432800800847F820601A4C20681A
:103C200090434F68FF0300D510432060174E34685F
:103C300094434F68BF0300D514433460144E30687A
:103C400090434F68FF0200D510433060114E346836
:103C500094434F68BF0200D5144334606D1C10E7D5
:103C6000F1BD00006010024008000140000400485F
:103C700000080048000C00480010004800140048EC
:103C800000180048001C00480004014004040140E2
:103C9000080401400C0401402DE9F04387B0040002
:103CA00000250026002221003620FFF76AFE36207C
:103CB000FFF77CFE1948016851F0100101600068AF
:103CC00010F010000090009801A902A8FFF7C3FBB4
:103CD000FFF7A7FB07001248B7FBF0F8B8F101089F
:103CE000DFF840901048C9F8000040F2E730C9F80A
:103CF0000C00C9F804800020C9F810000020C9F8A1
:103D00000800484601F072F8002803D1484601F047
:103D100089F800E0012007B0BDE8F08358100240A8
:103D200040420F007C1500200010004010B5002418
:103D30000320FFF720FE0020FFF7AEFF002802D08F
:103D40000120040001E0FEF78BFE2000C0B210BD90
:103D5000010000200A0012B2842A03D00A0012B225
:103D6000D21C10187047EFF30580002801D0012005
:103D700000E00020C0B2704780B501F05EFC00207A
:103D800002BD38B584B004000D006069002813D06E
:103D9000A069002810D0B4F90800FFF7D9FFA16985
:103DA00002916169019100902B002269216860688D
:103DB00001F0DEFA039011E0B4F90800FFF7C8FF44
:103DC00003A9019100902B00226992B221686068DA
:103DD00001F01CFB012801D0002000E0039805B091
:103DE00030BD38B505000120B5FBF0F4002C01D042
:103DF000200000E0012001F0F9FB002032BD7CB57D
:103E000004000D0016006068002810D02800C0B221
:103E1000012801D1012200E00022606801902068A1
:103E200000903300012126A002F04BF80DE028009D
:103E3000C0B2012801D1012200E0002220680090D8
:103E4000330001211EA002F01FF876BDFEB505006B
:103E50000E000027002001900120B6FBF0F4002C9A
:103E600001D101200400FFF77EFF002819D00020B7
:103E7000009001AB22000921280002F077F8012808
:103E800002D0FF20070018E00198002815D05FF04D
:103E90008050DFF830100860BFF34F8FBFF36F8F93
:103EA0000BE000200090002322000421280002F0F3
:103EB0005DF8012801D0FF2007003800FEBD00009A
:103EC0000000000004ED00E070B506000C003500B5
:103ED000002D07D1502080F31188BFF34F8FBFF31F
:103EE0006F8FFEE702F0CCFA2968EA6B286C424338
:103EF00001EB020068600020A8632868A8602968B8
:103F0000EA6B521E286C424301EB0200E8605FF04E
:103F1000FF3085F8440085F84500002C12D128694F
:103F2000002817D015F1100001F048FD002811D02D
:103F30005FF08050DFF864150860BFF34F8FBFF368
:103F40006F8F07E015F1100002F038FB15F1240027
:103F500002F034FB02F0AEFA012070BD2DE9F84307
:103F600006000C0015001F00DDF82090002E07D180
:103F7000502080F31188BFF34F8FBFF36F8FFEE7A0
:103F8000002F07D1502080F31188BFF34F8FBFF36C
:103F90006F8FFEE7002D01D0002C01D0012000E042
:103FA0000020C0B2002807D1502080F31188BFF351
:103FB0004F8FBFF36F8FFEE7002D01D1002C01D191
:103FC000012000E00020C0B2002807D1502080F37B
:103FD0001188BFF34F8FBFF36F8FFEE7482000902B
:103FE0000098482807D0502080F31188BFF34F8FE6
:103FF000BFF36F8FFEE7B846B8F1000F0BD001207A
:1040000088F84600CDF800804B46DBB22A0021003C
:10401000300000F031F84046BDE8F2832DE9F84366
:1040200004000D001700002C07D1502080F31188E8
:10403000BFF34F8FBFF36F8FFEE7002D02D15FF00C
:10404000000901E005FB04F919F1480002F004FB46
:104050000600002E0DD016F148008046002086F89C
:10406000460000963B00DBB242462900200000F0EB
:1040700003F83000BDE8F2832DE9F04105000C00A3
:1040800016001F00DDF81880002C02D1C8F800804F
:1040900001E0C8F80060C8F83C50C8F84040012171
:1040A0004046FFF711FFBDE8F0812DE9F743804658
:1040B0000D00994600244646002E07D1502080F37B
:1040C0001188BFF34F8FBFF36F8FFEE7002D02D132
:1040D000306C002801D1012000E00020C0B200288F
:1040E00007D1502080F31188BFF34F8FBFF36F8F3C
:1040F000FEE7B9F1020F02D1F06B012801D10120D6
:1041000000E00020C0B2002807D1502080F31188C1
:10411000BFF34F8FBFF36F8FFEE701F092FD0028D2
:1041200002D10298002801D1012000E00020C0B295
:10413000002807D1502080F31188BFF34F8FBFF3C1
:104140006F8FFEE702F09CF9B06BF16B884202D3EF
:10415000B9F1020F27D14A462900300000F0B6F924
:104160000700706A00280FD016F1240001F026FC29
:10417000002814D05FF08050DFF820130860BFF3F0
:104180004F8FBFF36F8F0AE0002F08D05FF0805091
:10419000DFF808130860BFF34F8FBFF36F8F02F093
:1041A00089F9012052E00298002803D102F082F937
:1041B00000204BE0002C04D1684601F049FC0120AE
:1041C000040002F077F901F085FA02F059F996F946
:1041D000440010F1010F02D1002086F8440096F946
:1041E000450010F1010F02D1002086F8450002F0D1
:1041F00061F902A9684601F034FC002820D13000A2
:1042000000F012FA002815D0029916F1100001F002
:104210009BFB300000F0C3F901F062FA002891D155
:104220005FF08050DFF874120860BFF34F8FBFF368
:104230006F8F87E7300000F0B2F901F051FA81E7A3
:10424000300000F0ACF901F04BFA0020BDE8FE832D
:104250002DE9F04707000C00150098463E00002E9F
:1042600007D1502080F31188BFF34F8FBFF36F8FBA
:10427000FEE7002C02D1306C002801D1012000E0C3
:104280000020C0B2002807D1502080F31188BFF36E
:104290004F8FBFF36F8FFEE7B8F1020F02D1F06BC3
:1042A000012801D1012000E00020C0B2002807D180
:1042B000502080F31188BFF34F8FBFF36F8FFEE75D
:1042C00002F022F9EFF31189502080F31188BFF337
:1042D0004F8FBFF36F8FB06BF16B884202D3B8F191
:1042E000020F20D196F945A042462100300000F08F
:1042F000EDF850465FF0FF3140B288420DD1706A50
:1043000000280ED016F1240001F058FB002808D038
:10431000002D06D00120286003E01AF1010086F884
:104320004500012000E0002089F31188BDE8F087F6
:104330002DE9F64182B080460E0000244746002F4A
:1043400007D1502080F31188BFF34F8FBFF36F8FD9
:10435000FEE7002E02D1386C002801D1012000E0D8
:104360000020C0B2002807D1502080F31188BFF38D
:104370004F8FBFF36F8FFEE701F063FC002802D17F
:104380000398002801D1012000E00020C0B20028DD
:1043900007D1502080F31188BFF34F8FBFF36F8F89
:1043A000FEE702F06DF8BD6B002D1BD03100380028
:1043B00000F0DAF8681EB863386900280ED017F1EB
:1043C000100001F0FBFA002808D05FF08050DFF801
:1043D000CC100860BFF34F8FBFF36F8F02F06AF805
:1043E000012057E00398002803D102F063F8002071
:1043F00050E0002C04D1684601F02AFB01200400A3
:1044000002F058F801F066F902F03AF897F9440022
:1044100010F1010F02D1002087F8440097F9450000
:1044200010F1010F02D1002087F8450002F042F898
:1044300003A9684601F015FB002820D1380000F0E0
:10444000E5F8002815D0039917F1240001F07CFA53
:10445000380000F0A4F801F043F90028A1D15FF082
:104460008050DFF838100860BFF34F8FBFF36F8FB5
:1044700097E7380000F093F801F032F991E738003F
:1044800000F08DF801F02CF9380000F0BFF800289A
:1044900087D0002004B0BDE8F081000004ED00E00A
:1044A00070B505002C00002C07D1502080F3118836
:1044B000BFF34F8FBFF36F8FFEE701F0E1FFE06BBB
:1044C000A66B861B01F0F6FF300070BD2DE9F84F9A
:1044D00006000F0014005FF00008B56B306C002878
:1044E00009D1306800283AD1706801F0BFFB8046DE
:1044F0000020706033E0002C14D1D6F84090BA460A
:10450000D6F808B04A4651465846FCF71BFFB0683B
:10451000316C0844B060B068716888421FD330685D
:10452000B0601CE0D6F84090BA46D6F80CB04A46C7
:1045300051465846FCF706FFF068316C4942084482
:10454000F060F0683168884204D27068316C49428A
:104550000844F060022C02D1002D00D06D1E681CB2
:10456000B0634046BDE8F28F2DE9F04104000D0034
:10457000206C002811D0E068216C0844E060E068FD
:104580006168884201D32068E060266CE768A8462D
:10459000320039004046FCF7D5FEBDE8F081F8B5A1
:1045A000040001F06DFF94F94550280040B2012845
:1045B0000CDB606A002809D014F1240001F0FEF938
:1045C000002801D001F0A2FA6D1EEEE75FF0FF3681
:1045D00084F8456001F06EFF01F052FF94F94470D9
:1045E000380040B201280CDB2069002809D014F102
:1045F000100001F0E3F9002801D001F087FA7F1ED6
:10460000EEE784F8446001F055FFF1BD38B50400D1
:1046100001F036FFA06B002801D1012500E0002544
:1046200001F048FF280032BD38B5040001F028FF32
:10463000A06BE16B884201D1012500E0002501F06B
:1046400039FF280032BD10B40023082B0CD2074CD0
:1046500054F83320002A05D144F8331004EBC30288
:10466000506001E05B1CF0E710BC70473C15002077
:10467000F8B504000D001600270001F001FF97F9BE
:10468000440010F1010F02D1002087F8440097F98F
:10469000450010F1010F02D1002087F8450001F01C
:1046A00009FFB86B002805D13200290017F124005A
:1046B00001F064F93800FFF772FFF1BD2DE9F84F02
:1046C00005005FF0000800272868000531D5A86EB6
:1046D000002810D0B0F5800F13D0B0F5000F03D034
:1046E000B0F5400F14D014E0DFF8F803016851F47E
:1046F000803101600FE00021281D00F0FFF98046A5
:1047000009E0002115F1200000F0BAFA804602E02D
:1047100001E0012080464046C0B2002808D1DFF801
:10472000C8130A6832F44002A86E02430A6000E02F
:1047300047462868C00431D5E86E002810D0B0F193
:10474000807F13D0B0F1007F03D0B0F1407F14D050
:1047500014E0DFF89003016851F4803101600FE04C
:104760000021281D00F0CAF9804609E0002115F15A
:10477000200000F085FA804602E001E0012080463A
:104780004046C0B2002808D1DFF85C130A6832F056
:104790004072E86E02430A6000E0474628688003E2
:1047A0007CD55FF00009DFF844A3DAF80000C00010
:1047B0000DD4DAF8000050F08050CAF80000DAF8A2
:1047C000000010F080500090009801208146DFF832
:1047D00020B3DBF8000050F48070CBF80000FEF747
:1047E000C1FE0600DBF80000C00506D4FEF7BAFEE5
:1047F000801B0328F6D3032080464046C0B2002821
:1048000041D1DFF8F0B2DBF8000010F44070040092
:10481000002C16D0D5F88800844212D0DBF80000B6
:1048200030F440700400DBF8000050F48030CBF826
:104830000000DBF8000030F48030CBF80000CBF84B
:104840000040E0070FD5FEF78DFE0600DBF8000004
:10485000800708D4FEF786FE801B41F2893188422A
:10486000F4D3032080464046C0B2002809D1DBF8CB
:10487000001031F44071D5F888000143CBF80010E6
:1048800002E0474600E047464846C0B2012805D14D
:10489000DAF8000030F08050CAF800002878C0072D
:1048A00007D5DFF844120A6892089200A86B024309
:1048B0000A602878800707D5DFF82C120A6832F0E2
:1048C0000C02E86B02430A602878400706D5864947
:1048D0000A6832F03002286C02430A602878000728
:1048E00006D581490A6832F0C002686C02430A604A
:1048F0002878C00606D57C490A6832F44072A86C54
:1049000002430A602878800606D577490A6832F49F
:104910004062E86C02430A602868800506D5724947
:104920000A6832F44022286E02430A602868400573
:1049300006D56D490A6832F44012686E02430A6077
:104940002878400606D568490A6832F44052286D36
:1049500002430A602878000606D563490A6832F4E3
:104960004042686D02430A602868C00506D55E496A
:104970000A6832F44032A86D02430A602868C00217
:1049800007D5DFF874110A6892089200E86D0243B7
:104990000A60286880041ED553490A6832F04062D4
:1049A000286F02430A60286FB0F1006F05D14D48AF
:1049B000016851F4801101600DE0286FB0F1806F43
:1049C00009D10121281D00F099F880464046C0B267
:1049D000002800D04746286800031ED542490A68CF
:1049E00032F04062686F02430A60686FB0F1006F96
:1049F00005D13C48016851F4801101600DE0686FF9
:104A0000B0F1806F09D10121281D00F077F88046B0
:104A10004046C0B2002800D04746286840031ED553
:104A200031490A6832F04062A86F02430A60A86FF9
:104A3000B0F1006F05D12B48016851F4801101607D
:104A40000DE0A86FB0F1806F09D10121281D00F0A1
:104A500055F880464046C0B2002800D04746286836
:104A6000400424D520490A6832F04052E86F0243DE
:104A70000A60E86FB0F1805F0AD10221281D00F0C2
:104A80003DF880464046C0B2002810D047460EE0B0
:104A9000E86FB0F1005F0AD1022115F1200000F0AB
:104AA000EFF880464046C0B2002800D0474628684C
:104AB000000407D50C490A6832F08042D5F880001E
:104AC00002430A602868C00307D507490A6822F034
:104AD0000042D5F8840002430A603800C0B2BDE845
:104AE000F28F00000C100240881002405810024063
:104AF00000700040901002409C1002402DE9F041EF
:104B000005000C000027DFF8C812086810F0030F3A
:104B100012D0086810F003002A68904209D1286872
:104B2000002806D00868C0F30210401C696888425B
:104B300035D00120070032E02868012804D01ED3B8
:104B4000032811D008D31AE0DFF888020068800734
:104B500001D40120070014E0DFF878020068400566
:104B600001D4012007000CE0DFF86802026892031C
:104B700004D40068400301D40120070001E00120B3
:104B800007003800C0B2002809D10A6832F0730269
:104B9000286802436868401E52EA00120A60380022
:104BA000C0B2002868D1DFF82C82D8F8000030F0BD
:104BB0008060C8F80000FEF7D5FC0600D8F80000B9
:104BC000000106D5FEF7CEFC801B0328F6D3032098
:104BD00007003800C0B200284ED1002C0DD1DFF8FC
:104BE000F8110A68DFF8F4010240A86852EA0022CE
:104BF000E86852EAC0620A6020E0012C0FD1DFF8B9
:104C0000D8110A68DFF8D8010240A86852EA0022E9
:104C100028694008401E52EA40520A600EE0DFF860
:104C2000B8110A68DFF8BC010240A86852EA002205
:104C300068694008401E52EA40620A60D8F80000E5
:104C400050F08060C8F80000FEF78CFC0600D8F831
:104C50000000000106D4FEF785FC801B0328F6D374
:104C6000032007003800C0B2002805D1DFF8681122
:104C70000A68A86902430A603800C0B2BDE8F08142
:104C80002DE9F04105000C0000275149086810F09B
:104C9000030F12D0086810F003002A68904209D16F
:104CA0002868002806D00868C0F30210401C696814
:104CB000884232D0012007002FE02868012804D064
:104CC0001BD303280FD007D317E0424800688007A2
:104CD00001D40120070012E03E480068400501D4DD
:104CE000012007000BE03B480268920304D40068EF
:104CF000400301D40120070001E001200700380033
:104D0000C0B2002809D10A6832F073022868024351
:104D10006868401E52EA00120A603800C0B20028DB
:104D200051D1DFF8B080D8F8000030F08050C8F8DA
:104D30000000FEF717FC0600D8F80000800006D53A
:104D4000FEF710FC801B0328F6D303200700380071
:104D5000C0B2002837D1002C0BD123490A681F4864
:104D60000240A86852EA0022E86852EAC0620A607B
:104D70000CE01D490A681B480240A86852EA00225C
:104D800028694008401E52EA40620A60D8F80000D4
:104D900050F08050C8F80000FEF7E4FB0600D8F899
:104DA0000000800006D4FEF7DDFB801B0328F6D34D
:104DB000032007003800C0B2002804D10A490A685D
:104DC000686902430A603800C0B2BDE8F0810000A3
:104DD0000C1002400010024010100240FF80FF073C
:104DE000FF809FFFFF80FFF91410024010B5040000
:104DF000002C01D1012014E094F83D00002805D1D9
:104E0000002084F83C002000FDF780FE022084F89A
:104E10003D00211D206800F07CF9012084F83D0050
:104E2000002010BD01000868C06850F001000A6849
:104E3000D06008688268DFF854000240062A08D073
:104E4000B2F5803F05D00868006850F001000B689B
:104E500018600020704701000868C06840084000E2
:104E60000A68D0600868006A41F2111210420BD142
:104E70000868006A40F24442104205D108680068A0
:104E8000400840000A6810600020704707000100D9
:104E900010B504002068006980071AD52068C06832
:104EA000800716D57FF00200216808610120207775
:104EB0002068806910F0030F03D0200001F006FD88
:104EC00005E0200001F003FD200001F001FD0020BD
:104ED00020772068006940071AD52068C06840071D
:104EE00016D57FF004002168086102202077206831
:104EF000806910F4407F03D0200001F0E7FC05E05A
:104F0000200001F0E4FC200001F0E2FC002020770A
:104F10002068006900071AD52068C068000716D508
:104F20007FF0080021680861042020772068C069AC
:104F300010F0030F03D0200001F0C8FC05E02000B2
:104F400001F0C5FC200001F0C3FC002020772068A0
:104F50000069C0061AD52068C068C00616D57FF063
:104F6000100021680861082020772068C06910F4CB
:104F7000407F03D0200001F0A9FC05E0200001F0F3
:104F8000A6FC200001F0A4FC002020772068006926
:104F9000C0070AD52068C068C00706D57FF00100A9
:104FA000216808612000FEF745FC206800690006C2
:104FB0000AD52068C068000606D57FF08000216809
:104FC0000861200001F085FC20680069C0050AD551
:104FD0002068C068000606D57FF4807021680861EB
:104FE000200001F077FC2068006940060AD520689F
:104FF000C068400606D57FF04000216808612000A7
:1050000001F069FC2068006980060AD52068C06844
:10501000800606D57FF0200021680861200001F09D
:105020005BFC10BD70B504000D0094F83C00012835
:1050300001D102206CE0012084F83C00022084F8B9
:105040003D0020688668DFF89001064036F47F4610
:1050500020688660286800284ED010284CD0202870
:105060004AD0302848D040283CD0502826D060284C
:105070002ED0702807D0B0F5805F03D0B0F5005F68
:105080000FD03EE03DE0EB686A68A968206800F058
:10509000E2F82068806850F077000600206886609B
:1050A0002FE0EB686A68A968206800F0D4F82068EF
:1050B000806850F480402168886022E0EA6869686E
:1050C000206800F09BF85021206800F0BCF818E040
:1050D000EA686968206800F0A3F86021206800F0A1
:1050E000B2F80EE0EA686968206800F087F84021AD
:1050F000206800F0A8F804E02968206800F0A3F810
:10510000FFE7012084F83D00002084F83C000020E7
:1051100070BD10B40468DFF8C430984212D0B0F10A
:10512000804F0FD0DFF8B82090420BD0DFF8B420CA
:10513000904207D0DFF8B020904203D0DFF8AC20D7
:10514000904203D134F070044A68144398421ED050
:10515000B0F1804F1BD0DFF88820904217D0DFF8E5
:105160008420904213D0DFF8802090420FD0DFF8E7
:105170007C2090420BD0DFF87820904207D0DFF8F7
:105180007420904203D0DFF87020904203D134F4B1
:105190004074CA68144334F080044A6914430460BC
:1051A0008A68C2620A68826298420FD0DFF83C20A7
:1051B00090420BD0DFF83820904207D0DFF834203F
:1051C000904203D0DFF83020904201D10A69026397
:1051D0000122426110BC704788FFFEFF002C014095
:1051E0000004004000080040000C00400034014072
:1051F00000400140004401400048014010B4046AEE
:10520000036A5B085B000362836933F0F00353EACF
:10521000021334F00A040C438361046210BC70472B
:1052200010B4036A33F0100303628369046A33F431
:10523000704353EA023334F0A00454EA011483614A
:10524000046210BC7047836833F0700351F00702AA
:1052500013438360704730B4846834F47F4452EA67
:10526000010555EA03252C43846030BC70470000DB
:1052700030B4020092F83C00012801D1022028E05D
:10528000012082F83C00022082F83D00106843684B
:10529000106884681068104DA84203D010680F4D44
:1052A000A84203D133F470034868034333F070031A
:1052B0000868034334F0800488680443106843603E
:1052C00010688460012082F83D00002082F83C00D4
:1052D000002030BC70470000002C01400034014029
:1052E00003490A680348006882180A60704700BFD3
:1052F0007C1600202800002008B438B585B009AC21
:1053000000250494039500290EBF01950190491EC4
:105310000291009504AB01A9074878441A30FAF7C6
:1053200045FF019901B10D70002858BF039806B0E0
:1053300030BC5DF808FB00BFF3BFFFFF00B500BF46
:10534000130096469446103928BFA0E80C50FAD8AE
:105350005FEA417C28BF0CC048BF40F8042BC90756
:1053600028BF20F8022B48BF00F8012B00BD000029
:105370002DE9F04F85B006000F0090469946DDF804
:1053800038A00F9C109D002C07D1502080F311886D
:10539000BFF34F8FBFF36F8FFEE7002D07D1502073
:1053A00080F31188BFF34F8FBFF36F8FFEE7542058
:1053B00000900098542807D0502080F31188BFF344
:1053C0004F8FBFF36F8FFEE7002D19D0002C17D041
:1053D000AB46CBF8304002208BF851000020039000
:1053E000CDF808B004A80190CDF800A04B46424685
:1053F0003900300000F047F8584600F0AAF801E004
:1054000000200490049805B0BDE8F08F2DE9F84F16
:1054100084B006000F0090469946DDF838A0DDF80C
:105420003CB0404680B2800001F016F90500002D26
:105430000BD0542001F010F90400002C01D025639A
:1054400004E0280001F098F900E00024002C15D0B9
:10545000002084F85100002003900294CDF804B09D
:10546000CDF800A04B46424692B23900300000F021
:105470000AF8200000F06DF8012001E05FF0FF3035
:1054800005B0BDE8F08F2DE9F84F05000E001700BC
:105490009846DDF828900B9CDDF830A0DAF8300053
:1054A00000EB8700001FC008C0000090009810F0BB
:1054B000070F07D0502080F31188BFF34F8FBFF341
:1054C0006F8FFEE75FF0000BBBF1100F0CD216F8E8
:1054D0000B000AEB0B0181F8340016F80B000028D2
:1054E00002D01BF1010BEFE700208AF84300B9F16D
:1054F000070F01D306208146CAF82C90CAF84490C1
:105500000020CAF848001AF1040001F066F81AF108
:10551000180001F062F8CAF810A0D9F10700CAF823
:105520001800CAF824A00020CAF84C0000208AF80D
:10553000500000208AF8520042462900009800F0EE
:105540000FFFCAF80000002C01D0C4F800A0BDE88D
:10555000F18F38B5040000F093FFDFF8DC14086821
:10556000401C0860DFF8D4542868002806D12C605D
:10557000086801280DD100F0E3FA0AE0DFF8C00462
:105580000068002805D1E06A2968C96A884200D30A
:105590002C60DFF8B0040168491C0160DFF8A81432
:1055A0000A680123E06A83401A430A60211DDFF87C
:1055B0009C24E36A1420434302EB030001F010F83B
:1055C00000F078FFDFF87804006800280DD0286824
:1055D000C06AE16A884208D25FF08050DFF8F415B3
:1055E0000860BFF34F8FBFF36F8F31BD38B5050033
:1055F0000024002D15D0DFF820050068002807D012
:10560000502080F31188BFF34F8FBFF36F8FFEE7F9
:1056100000F060F80021280000F09AFB00F060F82C
:105620000400002C08D15FF08050DFF8A815086056
:10563000BFF34F8FBFF36F8F31BD10B586B0002021
:1056400004900020039005AA03A904A801F046F9DC
:10565000DFF8CC4604980290039801900020009057
:105660000023059ADFF8BC160FF2B140FFF780FE69
:1056700020602068002801D0012400E00024012CD3
:1056800002D100F0CBFB0400012C16D1502080F396
:105690001188BFF34F8FBFF36F8F5FF0FF30DFF8DC
:1056A0008C1608600120DFF8981308600020DFF8EE
:1056B0008016086000F07DFE0AE014F1010F07D1AA
:1056C000502080F31188BFF34F8FBFF36F8FFEE739
:1056D00006B010BDDFF840040168491C0160704746
:1056E000F8B500250026DFF830442068002807D1EF
:1056F000502080F31188BFF34F8FBFF36F8FFEE709
:1057000000F0BEFE2068401E20602068002857D1AF
:10571000DFF824030068002852D0DFF80C16086870
:10572000002827D0C868C068050015F1180000F0EF
:105730007EFF281D00F07BFFDFF80C130A680123B1
:10574000E86A83401A430A60291DDFF80023EB6AE8
:105750001420434302EB030000F042FFE86ADFF845
:10576000DC120968C96A8842D7D30120DFF8C8155E
:105770000860D2E7002D01D000F050FADFF8B475D0
:105780003C68002C0CD000F023F8002803D0012046
:10579000DFF8A4150860641E002CF4D100203860E6
:1057A000DFF89405006800280AD0012006005FF0A9
:1057B0008050DFF820140860BFF34F8FBFF36F8F66
:1057C00000F078FE3000F2BDDFF870050068704729
:1057D0002DE9F0410027DFF84003006800286ED172
:1057E000DFF84C050468641C0460002C1CD1DFF851
:1057F000501508680068002807D0502080F31188F1
:10580000BFF34F8FBFF36F8FFEE7D1F80080DFF853
:10581000340502680A60C0F80080DFF82C050168D2
:10582000491C016000F0FAF9DFF80085D8F80000A3
:10583000844238D3DFF8081508680068002804D1CE
:105840005FF0FF30C8F800002DE00868C068C0684D
:10585000050068680600B44202D2C8F8006022E081
:10586000281D00F0E4FEA86A002803D015F11800F6
:1058700000F0DDFE74490A680123E86A83401A4398
:105880000A60291D714AEB6A1420434302EB0300AE
:1058900000F0A6FEE86A69490968C96A8842C9D366
:1058A00001200700C6E7654800686849C26A1420FD
:1058B00042438858022807D30120070004E0DFF89C
:1058C00074040168491C0160DFF86C04006800285A
:1058D00001D0012007003800BDE8F0818E48006843
:1058E000002804D00120DFF8501408602BE00020CD
:1058F000DFF84414086054480068B0FA80F1D1F130
:105900001F011422514B02FB01F01858002807D147
:10591000502080F31188BFF34F8FBFF36F8FFEE7E6
:1059200002FB01F203EB02004268526842604268E7
:1059300010F108039A4202D14268526842604068FE
:10594000C0683E4A1060704738B504000D00002C56
:1059500007D1502080F31188BFF34F8FBFF36F8FB3
:10596000FEE7DFF87C04006810F11801200000F069
:1059700043FE0121280000F0EBF931BD70B50500B0
:105980000E001400002D07D1502080F31188BFF3C2
:105990004F8FBFF36F8FFEE7DFF84404006810F10C
:1059A0001801280000F01CFE002C02D05FF0FF3030
:1059B00006002100300000F0CBF970BD38B50500BD
:1059C000E868C468002C07D1502080F31188BFF329
:1059D0004F8FBFF36F8FFEE714F1180000F027FE22
:1059E0004D480068002813D1201D00F020FE164904
:1059F0000A680123E06A83401A430A60211D134AA2
:105A0000E36A1420434302EB030000F0E9FD05E0E4
:105A100014F11801DFF8100300F0E2FD07480068F8
:105A2000C06AE16A884205D201200121DFF81C2307
:105A3000116000E0002032BD90160020801600208A
:105A40009C160020AC16002098160020881200201A
:105A5000DFF8F41209680160DFF888130968416013
:105A600070472DE9F04104000D00002C07D15020B3
:105A700080F31188BFF34F8FBFF36F8FFEE7002DC8
:105A800007D1502080F31188BFF34F8FBFF36F8F82
:105A9000FEE700F0F5FCDFF8980206686768F71B80
:105AA000DFF83C13086890F85200002806D0002068
:105AB000096881F852005FF0010822E0286810F1BF
:105AC000010F02D15FF000081BE0DFF87C020068E4
:105AD0002168884205D06068864202D35FF00108E1
