:020000040800F2
:10000000D014002095470008354600083746000800
:10001000394600083B4600083D4600080000000045
:100020000000000000000000000000007D45000806
:100030003F46000800000000254500084146000832
:10004000E1470008E5470008E9470008ED470008D8
:10005000F147000843460008F5470008F947000843
:10006000FD47000801480008054800080948000845
:100070000D480008114800081548000819480008F4
:100080001D480008214800082548000829480008A4
:100090002D48000831480008354800083948000854
:1000A0003D48000841480008454800084948000804
:1000B0004D480008454600085148000855480008CA
:1000C000594800085D480008614800086548000874
:1000D000694800086D480008714800087548000824
:1000E000794800087D4800088148000885480008D4
:1000F000894800088D480008914800089548000884
:10010000994800089D480008A1480008A548000833
:10011000A9480008AD480008B1480008B5480008E3
:10012000B9480008BD480008C1480008C548000893
:10013000C9480008CD480008D1480008D548000843
:10014000D9480008DD480008E1480008E5480008F3
:10015000E94800084F46000859460008ED480008E5
:10016000F1480008F5480008F9480008FD48000873
:100170000149000805490008094900080D4900081F
:100180001149000815490008194900081D490008CF
:100190002149000825490008294900082D4900087F
:1001A00031490008354900083949000810B50400F4
:1001B000002C01D1012035E0A0690028FFD1606F3B
:1001C000002805D1002084F87000200000F0A8FD70
:1001D00024206067206800684008400021680860AB
:1001E000200000F09BF9012801D101201AE0606A8B
:1001F000002802D0200000F0C1FB2068406830F4E5
:100200009040216848602068806830F02A002168AA
:1002100088602068006850F00100216808602000B4
:1002200000F019FC10BD10B40300586F202832D123
:10023000002903D0100080B2002801D101202BE05A
:1002400093F87000012801D1022025E0012083F8F5
:100250007000D964A3F85020A3F8522000205866FB
:100260000020D867212058679868B0F5805F05D1D5
:100270001869002802D14248586601E04148586692
:10028000002083F870001868006850F080001C6837
:100290002060002000E0022010BC704710B4030072
:1002A000986F202868D1002903D0100080B2002860
:1002B00001D1012061E093F87000012801D10220F2
:1002C0005BE0012083F870005965A3F85820A3F87B
:1002D0005A20002018669868B0F5805F0BD1186925
:1002E000002804D140F2FF10A3F85C0023E0FF20B7
:1002F000A3F85C001FE0986800280AD1186900285C
:1003000003D1FF20A3F85C0015E07F20A3F85C0078
:1003100011E09868B0F1805F0AD11869002803D114
:100320007F20A3F85C0006E03F20A3F85C0002E019
:100330000020A3F85C000020D86722209867186886
:10034000806850F001001C68A0609868B0F5805F7C
:1003500005D11869002802D10B48186601E00B4846
:100360001866002083F870001868006850F49070D8
:100370001C682060002000E0022010BC70470000D4
:10038000AB0B0008690B00087D0C0008130C00087B
:100390002DE9F84306003068C7693068D0F800805E
:1003A0003068D0F8089017F00F04002C0BD1B80675
:1003B00009D55FEA886006D5306E002802D030008B
:1003C000316E8847A8E0002C00F084805FEAC97095
:1003D00002D418F4907F7DD017F00100C0B200283D
:1003E00009D05FEAC85006D5012031680862F06F75
:1003F00050F00100F067B8070BD519F00100C0B24A
:10040000002806D0022031680862F06F50F0040026
:10041000F06778070BD519F00100C0B2002806D0AC
:10042000042031680862F06F50F00200F06738076E
:100430000ED55FEA886004D419F00100C0B200282C
:1004400006D0082031680862F06F50F00800F067AD
:10045000F06F00283DD0B80608D55FEA886005D562
:10046000306E002802D03000316E8847F06F0500F2
:1004700030688068400601D4280725D5300000F098
:1004800053FB3068806840061AD53068806830F0C9
:10049000400031688860F06E00280DD00FF2AD602A
:1004A000F16E8863F06E00F02BFD002811D0F06E25
:1004B000F16E896B88470CE0300000F0C9FD08E060
:1004C000300000F0C5FD04E0300000F0C1FD002068
:1004D000F06721E0F8020AD55FEA492007D55FF40A
:1004E000801031680862300000F0B3FD14E0380677
:1004F00009D55FEA086006D5706E002802D030008A
:10050000716E884708E0780606D55FEA486003D533
:10051000300000F06EFBFFE7BDE8F1832DE9F04706
:100520000400002500265FF00008DFF8241420688E
:100530008842FFD0A2682069024360690243E069F3
:10054000024320680368DFF80C040340134320686B
:1005500003602068436833F44053E0680343206835
:100560004360D4F818902068884202D0206A50EA8C
:1005700009092068806830F4306059EA0000226878
:1005800090602068DFF8D023904216D1DFF8CC03CA
:10059000006810F00300002805D0022805D006D31B
:1005A000032806D007E001279BE0022799E00427F3
:1005B00097E0082795E0102793E02068DFF8A02354
:1005C000904217D1DFF89403006810F00C00002867
:1005D00006D0042808D0082804D00C2806D007E04C
:1005E00000277EE002277CE004277AE0082778E0F5
:1005F000102776E02068DFF86C23904217D1DFF8EF
:100600005C03006810F03000002806D0102808D0E5
:10061000202804D0302806D007E0002761E0022718
:100620005FE004275DE008275BE0102759E02068C1
:10063000DFF83423904217D1DFF82003006810F070
:10064000C000002806D0402808D0802804D0C02848
:1006500006D007E0002744E0022742E0042740E0FC
:1006600008273EE010273CE02068DFF80023904296
:1006700019D1BA48006810F44070002809D0B0F5CC
:10068000807F0AD0B0F5007F05D0B0F5407F06D05E
:1006900007E0002725E0022723E0042721E00827C0
:1006A0001FE010271DE02068884219D1AB48006880
:1006B00010F44060002809D0B0F5806F0AD0B0F582
:1006C000006F05D0B0F5406F06D007E0002708E0C6
:1006D000022706E0042704E0082702E0102700E0D4
:1006E0001027206888427CD13800C0B2002806D08C
:1006F000022808D0042809D008280BD00EE001F009
:10070000E2F880460CE09A48804609E001F06EF875
:10071000804605E04FF40040804601E001200600DD
:10072000B8F1000F00F00A81616803204143884559
:1007300005D361684FF480504143414502D2012006
:100740000600FBE03800C0B2002806D0022814D012
:1007500004281FD008282DD035E001F0B4F802009D
:100760004FF48073606840080021E3FB0201626877
:10077000002301F02FF9050027E0626852080023EA
:100780007C480021101859416268002301F022F9C9
:1007900005001AE001F02AF802004FF48073606847
:1007A00040080021E3FB02016268002301F012F916
:1007B00005000AE06068400810F500006168B0FBC1
:1007C000F1F0050001E001200600B5F5407F05D3FA
:1007D000B5F5801F02D22068C560AFE00120060099
:1007E000ACE0E069B0F5004F5AD13800C0B2002843
:1007F00008D0012812D002281CD0042824D00828B0
:100800002ED037E001F05FF86168490811EB400134
:100810006068B1FBF0F080B205002DE001F060F8F7
:100820006168490811EB40016068B1FBF0F080B2EB
:10083000050021E06068504911EB50016068B1FB90
:10084000F0F080B2050017E000F0D0FF61684908C1
:1008500011EB40016068B1FBF0F080B205000BE0E5
:100860006068400810F580306168B0FBF1F080B23C
:10087000050001E001200600102D0ED3B5F5803FE4
:100880000BD24FF6F0712940C5F3420001438A466E
:10089000504680B22168C86050E0012006004DE05B
:1008A0003800C0B2002808D0012811D002281AD080
:1008B000042822D008282BD034E001F004F8616825
:1008C00010EB51006168B0FBF1F080B205002BE045
:1008D00001F006F8616810EB51006168B0FBF1F0BF
:1008E00080B2050020E06068214911EB500160688A
:1008F000B1FBF0F080B2050016E000F077FF616810
:1009000010EB51006168B0FBF1F080B205000BE024
:100910006068400810F500406168B0FBF1F080B2FB
:10092000050001E001200600102D05D3B5F5803F3C
:1009300002D22068C56001E0012006000020206688
:10094000002060663000C0B2BDE8F0870000000003
:1009500000800040F369FFEF00380140881002403A
:100960000044004000480040004C0040005000405F
:100970000024F400000024F40048E80190F824105A
:10098000C90707D501684A6832F40032816A0A4310
:1009900001684A6090F82410890707D501684A6801
:1009A00032F48032C16A0A4301684A6090F8241028
:1009B000490707D501684A6832F48022016B0A436F
:1009C00001684A6090F82410090707D501684A6851
:1009D00032F40042416B0A4301684A6090F82410E7
:1009E000C90607D501688A6832F48052816B0A43D0
:1009F00001688A6090F82410890607D501688A6822
:100A000032F40052C16B0A4301688A6090F82410E6
:100A1000490613D501684A6832F48012016C0A4312
:100A200001684A60016CB1F5801F07D101684A680E
:100A300032F4C002416C0A4301684A6090F8241005
:100A4000090607D501684A6832F40022816C0A431E
:100A500001684A60704738B504000020E06701F083
:100A6000D1F805002068006800070DD57FF07E40B2
:100A700000902B0000225FF40011200000F01FF80E
:100A8000002801D0032019E02068006840070DD538
:100A90007FF07E4000902B0000225FF48001200058
:100AA00000F00DF8002801D0032007E02020606747
:100AB0002020A067002084F87000002032BD2DE9BE
:100AC000F04105000E0090461F00069C2868C06992
:100AD0003040B04201D1012000E000204146C9B2BF
:100AE00088421ED114F1010FF0D001F08BF8C01B29
:100AF000844201D3002CE9D12868006830F4D0701A
:100B00002968086028688068400840002968886073
:100B1000202068672020A867002085F87000032047
:100B200000E00020BDE8F0810168096831F49071AF
:100B3000026811600168896849084900026891608B
:100B400020218167002101667047000038B504004C
:100B5000A56A0020A5F85A000020A5F85200280038
:100B600000F076FA31BD0000416F21291CD1B0F8A8
:100B7000521000290CD10168096831F08001026827
:100B800011600168096851F04001026811600BE0D2
:100B9000C16C097802681185C16C491CC164B0F848
:100BA0005210491EA0F852107047416F21291FD1E1
:100BB000B0F8521000290CD10168096831F08001A9
:100BC000036819600168096851F040010368196001
:100BD0000EE0C16C0A001188C905C90D03681985AA
:100BE000C16C891CC164B0F85210491EA0F85210A3
:100BF000704710B504002068006830F0400021689C
:100C000008602020606700206066200001F000F886
:100C100010BD70B50500B5F85C60A86F222826D11C
:100C20002868808C040016EA0400696D0870686DFD
:100C3000401C6865B5F85A00401EA5F85A00B5F882
:100C40005A00002819D12868006830F4907029688B
:100C50000860286880684008400029688860202073
:100C6000A86700202866280001F039F905E0286807
:100C7000008B50F008002968088370BDF8B50500A6
:100C8000B5F85C70A86F222827D12868808C0400F2
:100C9000686D060017EA04003080686D801C686586
:100CA000B5F85A00401EA5F85A00B5F85A000028B9
:100CB00019D12868006830F49070296808602868A5
:100CC000806840084000296888602020A8670020CC
:100CD0002866280001F003F905E02868008B50F031
:100CE000080029680883F1BD80B53D48016851F0CE
:100CF00001010160006810F001000090009839487F
:100D0000016851F080510160006810F0805000903F
:100D1000009800220F217FF0010001F098F901BD39
:100D200038B586B0040001A8142101F0C3F9206889
:100D30002D49884241D12D48016851F001010160DF
:100D4000006810F00100009000982948016851F0F7
:100D500040010160006810F040000090009801F030
:100D6000EEF94FF4C0700190022002900020039031
:100D7000032004900820059001A91E4801F0F0F915
:100D80001D4D1E482860042068600020A8600020D7
:100D9000E86080202861002068610020A861202090
:100DA000E8614FF440502862280000F02BF800283A
:100DB00001D001F0CFF8E566AC6207B030BD81B07C
:100DC00001680F4A914209D106490A6852F00202AD
:100DD0000A60096811F002010091009901B07047A2
:100DE0006010024058100240008000405C10024039
:100DF0004C10024000180048280F002080040240D8
:100E00000004004030B40100002901D1012067E056
:100E10000868344A90420AD20A683348821814207B
:100E2000B2FBF0F0800048643048086409E00A68CA
:100E30002F4882181420B2FBF0F0800048642D483F
:100E40000864022081F82500086802686FF30E121A
:100E50008B68C8680343086903434869034388698A
:100E60000343C8690343086A03431A4308680260DE
:100E70008868B0F5804F2AD0086C1C4B984213D17B
:100E80001D4803680F2491F8445015F01C05AC4030
:100E9000A343036003684C6891F8445015F01C05A7
:100EA000AC402343036012E0144803680F2491F818
:100EB000445015F01C05AC40A343036003684C6824
:100EC00091F8445015F01C05AC402343036000200A
:100ED000C863012081F82500002081F8240000204B
:100EE00030BC704708040240F8FFFDBF000002401C
:100EF000F8FBFDBF00040240A8000240A804024025
:100F000038B50400002594F82500022804D00420F8
:100F1000E063012005001FE02068006830F00E004B
:100F20002168086020680068400840002168086067
:100F3000012094F8441011F01C018840216C486095
:100F4000012084F82500002084F82400A06B0028EC
:100F500002D02000A16B88472800C0B232BD70B516
:100F60000400206C056820680668042094F844108A
:100F700011F01C0110FA01F10D4219D0710717D5BB
:100F800021680968890605D42168096831F00401DF
:100F90002268116094F8441011F01C018840216C03
:100FA0004860206B002852D02000216B88474EE01B
:100FB000022094F8441011F01C0110FA01F10D42C6
:100FC0001FD0B1071DD521680968890608D421689A
:100FD000096831F00A0122681160012184F82510A6
:100FE00094F8441011F01C018840216C48600020E6
:100FF00084F82400E06A002829D02000E16A8847AC
:1010000025E0082094F8441011F01C0188400542A6
:101010001DD030071BD52068006830F00E00216815
:101020000860012094F8441011F01C018840216CE4
:1010300048600120E063012084F82500002084F846
:101040002400606B002802D02000616B884770BDCF
:10105000704770472DE9FE4F0400002C01D101209C
:101060001CE3DFF89C98D9F8005015F00C05DFF868
:101070002889D8F8007017F003072078C00640F1DF
:10108000C480002D03D00C2D78D1012F76D1DFF84C
:101090006CA8DAF80000800704D5A069002801D107
:1010A0000120FBE2DAF80000000704D5DAF80000BE
:1010B00010F0F00005E0DFF8E4080068000910F027
:1010C000F000216A88421ED2206A00F01FFC00282E
:1010D00001D00120E2E2DAF8000050F00800CAF87E
:1010E0000000DAF8001031F0F001206A0143CAF87C
:1010F0000010DFF8AC08016831F47F41E26951EA81
:10110000022101601DE0DAF8000050F00800CAF882
:101110000000DAF8001031F0F001206A0143CAF84B
:101120000010DFF87C08016831F47F41E26951EA80
:1011300002210160206A00F0E9FB002801D00120B3
:10114000ACE200F053FBDFF85C18D9F80020C2F3E2
:101150000312895C11F01F01C840DFF8A81708606E
:10116000DFF8A407006801F009F98DF800009DF888
:101170000000002849D09DF800008FE2A0690028F7
:101180002DD0DFF87897D9F8000050F00100C9F8A9
:10119000000000F037FD0600D9F80000800706D4F3
:1011A00000F030FD801B0328F6D3032076E2D9F847
:1011B000000050F00800C9F80000D9F8001031F024
:1011C000F001206A0143C9F80010DFF8D407016874
:1011D00031F47F41E26951EA0221016015E0DFF854
:1011E0001C97D9F8000040084000C9F8000000F042
:1011F00009FD0600D9F80000800706D500F002FDC1
:10120000801B0328F6D3032048E22078C00754D57A
:10121000082D03D00C2D0BD1032F09D1DFF8DC06EC
:101220000068800349D56068002846D1012035E276
:101230006068B0F5803F06D1DFF8C006016851F460
:101240008031016018E06068B0F5A02F0AD1DFF8A6
:10125000AC06016851F480210160016851F48031CD
:10126000016009E0DFF89406016831F48031016023
:10127000016831F480210160606800280ED000F020
:10128000C1FC0600DFF874060068800315D400F086
:10129000B9FC801B6528F5D30320FFE100F0B2FC08
:1012A0000600DFF858060068800306D500F0AAFCA7
:1012B000801B6528F5D30320F0E12078800752D504
:1012C000042D03D00C2D15D1022F13D1DFF82C06DD
:1012D0000068400504D5E068002801D10120DDE167
:1012E000DFF8BC06016831F0FE41226951EA026173
:1012F000016038E0E06800281FD0DFF80096D9F8D8
:10130000000050F48070C9F8000000F07BFC06007B
:10131000D9F80000400506D400F074FC801B0328B7
:10132000F6D30320BAE1DFF87806016831F0FE4118
:10133000226951EA0261016015E0DFF8C095D9F831
:10134000000030F48070C9F8000000F05BFC06007B
:10135000D9F80000400506D500F054FC801B032896
:10136000F6D303209AE1207800072ED56069002883
:1013700015D0DFF82896D9F8000050F00100C9F820
:10138000000000F03FFC0600D9F8000080071CD4E4
:1013900000F038FC801B0328F6D303207EE1DFF841
:1013A000FC95D9F8000040084000C9F8000000F0A2
:1013B00029FC0600D9F80000800706D500F022FCC1
:1013C000801B0328F6D3032068E12078400740F112
:1013D00081805FF00009DFF8D0A5DAF80000C000D6
:1013E0000DD4DAF8000050F08050CAF80000DAF8A6
:1013F000000010F080500190019801208146DFF834
:10140000ACB5DBF80000C00513D4DBF8000050F4E5
:101410008070CBF8000000F0F5FB0600DBF8000060
:10142000C00506D400F0EEFB801B0328F6D3032092
:1014300034E1A068012806D1DFF87405016851F095
:101440000101016017E0A06805280AD1DFF86005F6
:10145000016851F004010160016851F0010101606F
:1014600009E0DFF84C05016849084900016001689E
:1014700031F004010160A068002810D000F0C2FB28
:101480000600DFF82C050068800719D400F0BAFBCD
:10149000801B41F289318842F3D30320FEE000F043
:1014A000B1FB0600DFF808050068800708D500F0EA
:1014B000A9FB801B41F289318842F3D30320EDE080
:1014C0004846C0B2012805D1DAF8000030F080505B
:1014D000CAF80000207880062ED5606A002815D052
:1014E000DFF8D094D9F8000050F00100C9F80000EE
:1014F00000F088FB0600D9F8000080071CD400F03B
:1015000081FB801B0328F6D30320C7E0DFF8A494F7
:10151000D9F8000040084000C9F8000000F072FB54
:101520000600D9F80000800706D500F06BFB801B91
:101530000328F6D30320B1E0A06A002800F0AD80B4
:101540000C2D78D0A06A02284DD1DFF8B0A3DAF8CC
:10155000000030F08070CAF8000000F053FB8146B4
:10156000DAF80000800107D500F04CFBB0EB090071
:101570000328F5D3032091E0D8F80010DFF83804F1
:101580000140E06A0143206B401E51EA0011606B8C
:1015900051EA0021E06B4008401E51EA4051206CA6
:1015A0004008401E51EA4061A06B51EAC061C8F892
:1015B0000010DAF8000050F08070CAF80000D8F887
:1015C000000050F08070C8F8000000F01BFB06001F
:1015D000DAF80000800160D400F014FB801B0328BF
:1015E000F6D303205AE0DFF81493D9F8000030F066
:1015F0008070C9F80000D9F8000010F0205F05D114
:10160000D8F8000080088000C8F80000D8F8001062
:10161000DFF8A8030140C8F8001000F0F3FA060054
:10162000D9F80000800138D500F0ECFA801B0328BF
:10163000F6D3032032E0A06A012801D101202DE079
:10164000D8F80000070017F00300E16A884222D1B1
:1016500017F07000216B491EB0EB011F1BD117F46E
:10166000FE40616BB0EB012F15D117F07840A16BF4
:10167000B0EBC16F0FD117F4C000E16B4908491EF0
:10168000B0EB415F07D117F0C060216C4908491EDB
:10169000B0EB416F01D0012000E00020BDE8FE8FDB
:1016A0002DE9F04104000D00002C01D101209BE048
:1016B000DFF80C73386810F00700A8420BD23868C6
:1016C000C008C00028433860386810F00700A842FE
:1016D00001D0012088E02078C00742D56068032847
:1016E00006D1DFF81802006880011CD401207BE0DD
:1016F0006068022806D1DFF804020068800312D473
:10170000012071E06068002806D1DFF8F001006870
:10171000800708D4012067E0DFF8E0010068400599
:1017200001D4012060E0DFF8D881D8F800108908E2
:10173000890060680143C8F8001000F063FA0600F1
:10174000D8F8000010F00C006168B0EB810F08D0F1
:1017500000F058FA801B41F289318842F0D303200F
:1017600042E02078800706D565490A6832F0F00229
:10177000A06802430A60386810F0070085420BD267
:101780003868C008C00028433860386810F0070087
:10179000A84201D0012027E02078400706D558490B
:1017A0000A6832F4E062E06802430A6020780007C9
:1017B00007D55348016831F46051226951EAC201EA
:1017C000016000F013F8DFF8DC114D4A1268C2F333
:1017D0000312895C11F01F01C8404A4908604A4859
:1017E000006800F0CBFDC0B2BDE8F0812DE9F0410A
:1017F000002600204249096811F00C01DFF898C169
:10180000DCF8007017F00307002903D00C291AD167
:10181000012F18D1DFF8E4E0DEF800805FEA0878F5
:1018200006D4DFF878E1DEF800E0CEF3032E03E023
:10183000DEF800E0CEF3031E624E56F82E6000295B
:101840000CD130000AE0042903D1DFF87CE17046B6
:1018500004E0082902D1DFF874E170460C292DD18B
:10186000DCF800E01EF0030E73469E46BEF1020F48
:1018700003D0BEF1030F03D005E0DFF84CE103E035
:10188000DFF848E100E0B646DCF80020C2F30212BF
:10189000521C1500DCF80020C2F3062202FB0EFEEB
:1018A000BEFBF5F2DCF800C0CCF3416C1CF1010C7E
:1018B0005FEA4C0C6446B2FBF4FC6046BDE8F08184
:1018C00010480068704780B5FFF7FAFF40490C4A9E
:1018D0001268C2F30222895C11F01F01C84002BDE8
:1018E00080B5FFF7EDFF3A49054A1268C2F3C222FC
:1018F000895C11F01F01C84002BD000000100240C9
:10190000081002400C000020040000207CB50400F8
:101910000025254E3068C00003D500F0CFFB010044
:101920000FE0306850F080503060306810F0805028
:101930000090009800F0C2FB0100306830F0805049
:101940003060B1F5007F09D1812C15D3A12C02D3D1
:101950000220050010E0012005000DE0812C02D3DB
:101960000320050008E0802C02D10220050003E0DE
:10197000702C01D10120050011480268D208D20064
:101980002A430260006810F00700A84201D001203D
:1019900000E0002076BD00000C10024094100240D0
:1019A00004100240844700085810024000700040B4
:1019B00090100240981002408C809D01FFFFEEFEC7
:1019C00000200240704600080024F40000127A0053
:1019D000C8470008BBBBE1B1B2F5803F80F07E8014
:1019E000022A1ED98C46B1FBF2F102FB11C31B0483
:1019F00043EA1043B3FBF2FC02FB1C3380B240EA23
:101A00000343B3FBF2F002FB103240EA0C40002328
:101A10007047022A05D98446B0FBF2F002FB10C2DF
:101A200070474AB105D100F0010249085FEA300071
:101A3000704700220023704700F0D0BC0B0002006A
:101A4000002100207047904271EB030CF6D3B3F5F0
:101A5000803F2FD2F0B5B3FA83F7B1FA81F4A7F142
:101A60000F0E3D1B5340CEF1200602FA0EF2F34159
:101A70005340B5F10F0746D80F3C2C444140C4F108
:101A80002006A040F1414140B1FBF3F603FB1611E3
:101A9000A2FB0645001BA94102D2761E80185941BF
:101AA00080EA010221FA0EF362FA0EF200215A4096
:101AB0003046F0BD30B4B1FBF3FC03FB1C11A2FBBC
:101AC0000C45001BA94103D2ACF1010C801859410F
:101AD00030BC02460B46604600217047B2F1807F61
:101AE00065D3F0B5B2FA82F7B1FA81F4C7F10F0607
:101AF0003D1B22FA06F307F1110EF24120355A4040
:101B0000B5F10F07B8D94140C4F12006A040F1411A
:101B10004140B1FBF3FC03FB1C11A2FB0C45001B75
:101B2000A94103D2BCF1010C801859410F2F12D3E7
:101B30000F3FC90341EA5041B1FBF3F603FB161115
:101B4000A2FB0645D4EBC030A94102D2761E801814
:101B5000594146EACC3C07B34140C7F12006B840A2
:101B6000F1414140B1FBF3F603FB1611A2FB064520
:101B7000001BA94102D2761E8018594180EA010259
:101B800021FA0EF3C7F1200462FA0EF20CFA07F004
:101B90005A402CFA04F13043F0BD80EA010221FAE8
:101BA0000EF3002162FA0EF260465A40F0BD8C46F8
:101BB000B1FBF2F102FB11C31B0243EA1063B3FB5A
:101BC000F2FC02FB1C331B024CEA002043EA1063C8
:101BD000B3FBF2FC02FB1C331B024CEA002043EA7D
:101BE0001063B3FBF2FC02FB1C331B024CEA002027
:101BF00043EA1063B3FBF2FC02FB1C324CEA002008
:101C00000023704701480068704700BF881000201B
:101C1000704730B4002513E050F8042BD30744BFBD
:101C2000A9F101039A18091F042942F8045BFAD2AA
:101C300013468C0744BF15809B1CC90748BF1D7005
:101C400050F8041B0029E7D130BC70471CB500F0E8
:101C5000C7FB00F029F800F0F6F800F085F800F076
:101C6000DEF800F09DF800F065F80122A949AA48C5
:101C7000FEF714FBA94C002201210A2000F00CFC05
:101C800020602068002801D100F064F9A448019088
:101C90000320009000238022A2490FF2D91000F007
:101CA00065FE00F050FFFEE700B5B9B028A844215A
:101CB00000F000FA6846142100F0FCF905A88C2118
:101CC00000F0F8F91020289001202E9000202F908D
:101CD000602030900020329028A8FFF7BBF9002840
:101CE00001D000F037F90F20009000200190002073
:101CF0000290002003900020049000216846FFF726
:101D0000CFFC002801D000F025F92020059000200C
:101D1000189005A801F0D0FA002801D000F01AF9B7
:101D20004FF4007000F0D0F9002801D000F012F953
:101D300039B000BD80B500220521052000F087F9EB
:101D4000052000F099F9002205211D2000F07FF9FF
:101D50001D2000F091F900220521462000F077F9BE
:101D6000462000F089F901BD80B56B486E490160DD
:101D70004FF416514160002181600021C1600021B3
:101D800001610C214161002181610021016200217A
:101D90004162FEF70BFA002801D000F0DBF801BD2C
:101DA00018B587B003A8102100F084F96846002117
:101DB0000022002380E80E005C485D49096842F279
:101DC0001072B1FBF2F1491E01605A4C5A49216070
:101DD000006860600020A06042F20F70E0602000A8
:101DE00001F002FE002801D000F0B4F84FF480505A
:101DF000039003A9200001F013FF002801D000F098
:101E0000A9F800200090002002906946200002F00E
:101E10002DF8002801D000F09DF808B010BD80B565
:101E20004648016851F002010160006810F00200AC
:101E30000090009800220021452000F008F945207C
:101E400000F01AF901BD80B53D48016851F08001EC
:101E50000160016811F0800100910099016851F062
:101E600040010160006810F040000090009800F010
:101E700066F901BDF8B50400324F00223900274849
:101E8000006800F0C0FB002820D02F4D2F4E38787E
:101E9000297870540122287806EB00011E48FEF7CD
:101EA000C2F92878305C532803D1224801F0B8FDEC
:101EB00009E02878305C732805D11E4801F0C9FD7F
:101EC0000020234908702878401C28701F4890F88B
:101ED00031000028D0D000201B490870CCE738B56D
:101EE00004000C4D0023002229000C48006800F07B
:101EF0001AFB012229000848FEF7D0F931BD10B5C0
:101F0000040013490878401C087001220248FEF7BB
:101F10008AF910BD48100020540E002080100020C7
:101F20007C100020C047000800800040781000208E
:101F30000C000020700F00200004004048100240F8
:101F40004C10024054100020C9100020B00F002097
:101F5000C81000207047000010B410F00703DFF82D
:101F6000344122684FF6FF010A40DFF82C1151EA94
:101F700003210A43226010BC7047DFF81801006893
:101F8000C0F302207047010049B200290AD401229F
:101F900010F01F018A40DFF8041103005BB25B09F7
:101FA00041F82320704710B4020052B2002A05D431
:101FB0000A013B4B040064B21A5508E00A01394B90
:101FC000040064B214F00F04234403F8042C10BC82
:101FD000704770B4030013F00704D4F1070005281C
:101FE00001D3042001E0D4F10700251D072D01D203
:101FF000002500E0E51E012616FA00F0401E014013
:10200000A94016FA05F56D1E2A401143080070BC60
:10201000704710B50400601EB0F1807F01D301202D
:102020000EE0601E204908600F215FF0FF30FFF7CF
:10203000BAFF00201D49086007201D4908600020E4
:1020400010BD10B504002000FFF786FF10BD2DE97C
:10205000F04104000D0016000027FFF78EFF8046B8
:10206000320029004046FFF7B4FF0100200040B2D3
:10207000FFF799FFBDE8F08110B50400200040B2E1
:10208000FFF781FF10BD10B504002000FFF7C1FF6E
:1020900010BD00000CED00E00000FA0500E100E0DA
:1020A00000E400E018ED00E014E000E018E000E0DB
:1020B00010E000E0002201F011BF0000DFF88C000A
:1020C000006810F4C06070470200B2F5007F26D1AE
:1020D000DFF87800036813F4C063B3F5007F2CD0F9
:1020E000036833F4C06353F400730360DFF86000E7
:1020F000036832204343DFF85C00B3FBF0F0401C80
:102100000100DFF8540003685B0503D5002901D006
:10211000491EF6E7006840050FD503200EE0DFF802
:102120002C00036813F4C063B3F5806F05D0036817
:1021300033F4C06353F48063036000207047DFF81A
:102140001C00016851F4007101607047007000408C
:102150000C00002040420F0014700040047000404A
:10216000F8B5030000250868E840002800F0EA8080
:1021700001260F6816FA05F007403A00002A00F021
:10218000DF804868022802D0486812281ED1280043
:10219000C00803EB8000076A5FF00F0C15F0070022
:1021A000C0B280001CFA00FC37EA0C07D1F810C05E
:1021B00015F00700C0B280001CFA00FC5CEA0707BB
:1021C0003C002800C00803EB800004621F685FF039
:1021D000030C2800C0B240001CFA00F0874391F8BD
:1021E00004E01EF0030E2800C0B240001EFA00FEFC
:1021F0005EEA07071F604868012808D0486802287F
:1022000005D04868112802D0486812281AD19C6865
:102210002800C0B240001CFA00F08443D1F80CE062
:102220002800C0B240001EFA00FE5EEA04049C6072
:102230005868AE40B0434E68C6F30016AE40304317
:1022400007005F60DC682800C0B240001CFA00FC98
:1022500034EA0C048E682800C0B240008640344343
:10226000DC604868C0006BD53748066856F0010648
:102270000660006810F0010000900098334F2800BD
:10228000800857F820605FF00F0C15F00300C0B213
:1022900080001CFA00FC36EA0C06B3F1904F01D125
:1022A000002423E02A48834201D101241EE029486A
:1022B000834201D1022419E02748834201D103243B
:1022C00014E02648834201D104240FE024488342CD
:1022D00001D105240AE02348834201D1062405E008
:1022E0002148834201D1072400E0082415F00300AF
:1022F000C0B28000844026432800800847F8206050
:102300001A4C206890434F68FF0300D510432060AB
:10231000174E346894434F68BF0300D514433460AC
:10232000144E306890434F68FF0200D51043306070
:10233000114E346894434F68BF0200D51443346093
:102340006D1C10E7F1BD0000601002400800014064
:102350000004004800080048000C00480010004835
:102360000014004800180048001C00480004014008
:1023700004040140080401400C04014038B5040085
:1023800000251349086800281DD04FF47A700968A9
:10239000B0FBF1F00F490968B1FBF0F0FFF773FEF5
:1023A00000280DD1102C08D2002221005FF0FF3050
:1023B000FFF74DFE0848046007E00120050004E037
:1023C0000120050001E0012005002800C0B232BD57
:1023D000080000200C0000200400002070470000CE
:1023E00010B500240320FFF72CFE0F20FFF7C6FFD7
:1023F000002802D00120040001E0FEF775FC200057
:10240000C0B210BD70B506000C003500002D07D11C
:10241000502080F31188BFF34F8FBFF36F8FFEE71B
:1024200001F006FE2968EA6B286C424301EB0200CA
:1024300068600020A8632868A8602968EA6B521EBB
:10244000286C424301EB0200E8605FF0FF3085F842
:10245000440085F84500002C12D12869002817D0C7
:1024600015F1100000F008FD002811D05FF0805039
:10247000DFF8FC120860BFF34F8FBFF36F8F07E0E8
:1024800015F1100001F05EFE15F1240001F05AFE76
:1024900001F0E8FD012070BD2DE9F84304000D00B6
:1024A0001700002C07D1502080F31188BFF34F8F05
:1024B000BFF36F8FFEE7002D02D15FF0000901E04E
:1024C00005FB04F919F1480001F08AFE0600002E10
:1024D0000DD016F148008046002086F84600009690
:1024E0003B00DBB242462900200000F003F8300038
:1024F000BDE8F2832DE9F04105000C0016001F0035
:10250000DDF81880002C02D1C8F8008001E0C8F87E
:102510000060C8F83C50C8F8404001214046FFF731
:1025200071FFBDE8F0812DE9F04707000C001500B0
:1025300098463E00002E07D1502080F31188BFF34B
:102540004F8FBFF36F8FFEE7002C02D1306C002855
:1025500001D1012000E00020C0B2002807D15020A6
:1025600080F31188BFF34F8FBFF36F8FFEE7B8F191
:10257000020F02D1F06B012801D1012000E0002000
:10258000C0B2002807D1502080F31188BFF34F8FCD
:10259000BFF36F8FFEE701F07BFDEFF31189502051
:1025A00080F31188BFF34F8FBFF36F8FB06BF16B68
:1025B000884202D3B8F1020F20D196F945A04246D5
:1025C0002100300000F0D6F850465FF0FF3140B2F5
:1025D00088420DD1706A00280ED016F1240000F058
:1025E0004BFC002808D0002D06D00120286003E015
:1025F0001AF1010086F84500012000E0002089F36F
:102600001188BDE8F0872DE9F64182B080460E00C2
:1026100000244746002F07D1502080F31188BFF3D4
:102620004F8FBFF36F8FFEE7002E02D1386C00286A
:1026300001D1012000E00020C0B2002807D15020C5
:1026400080F31188BFF34F8FBFF36F8FFEE700F069
:102650004CFD002802D10398002801D1012000E0A0
:102660000020C0B2002807D1502080F31188BFF3AA
:102670004F8FBFF36F8FFEE701F0DAFCBD6B002DCB
:102680001BD03100380000F0C3F8681EB863386909
:1026900000280ED017F1100000F0EEFB002808D043
:1026A0005FF08050DFF8C8100860BFF34F8FBFF3B2
:1026B0006F8F01F0D7FC012057E00398002803D169
:1026C00001F0D0FC002050E0002C04D1684600F05E
:1026D00011FC0120040001F0C5FC00F07CFA01F0BF
:1026E000A7FC97F9440010F1010F02D1002087F8F0
:1026F000440097F9450010F1010F02D1002087F83E
:10270000450001F0AFFC03A9684600F007FC002873
:1027100020D1380000F0CEF8002815D0039917F129
:10272000240000F08FFB380000F08DF800F059FA1B
:102730000028A1D15FF08050DFF834100860BFF3AB
:102740004F8FBFF36F8F97E7380000F07CF800F0F1
:1027500048FA91E7380000F076F800F042FA3800C5
:1027600000F0A8F8002887D0002004B0BDE8F08170
:1027700004ED00E02DE9F84F06000F0014005FF0B3
:102780000008B56B306C002809D1306800283AD1B8
:10279000706800F0BDFC80460020706033E0002CC3
:1027A00014D1D6F84090BA46D6F808B04A465146F9
:1027B000584601F04FFEB068316C0844B060B06814
:1027C000716888421FD33068B0601CE0D6F8409032
:1027D000BA46D6F80CB04A465146584601F03AFE81
:1027E000F068316C49420844F060F0683168884212
:1027F00004D27068316C49420844F060022C02D166
:10280000002D00D06D1E681CB0634046BDE8F28FFD
:102810002DE9F04104000D00206C002811D0E06883
:10282000216C0844E060E0686168884201D3206858
:10283000E060266CE768A84632003900404601F0A7
:1028400009FEBDE8F081F8B5040001F0F1FB94F950
:102850004550280040B201280CDB606A002809D0EE
:1028600014F1240000F008FB002801D000F0A0FBC8
:102870006D1EEEE75FF0FF3684F8456001F0F2FB75
:1028800001F0D6FB94F94470380040B201280CDB0B
:102890002069002809D014F1100000F0EDFA00289A
:1028A00001D000F085FB7F1EEEE784F8446001F064
:1028B000D9FBF1BD38B5040001F0BAFBA06B0028CC
:1028C00001D1012500E0002501F0CCFB280032BD3C
:1028D0002DE9F04F85B006000F0090469946DDF8CF
:1028E00038A00F9C109D002C07D1502080F3118838
:1028F000BFF34F8FBFF36F8FFEE7002D07D150203E
:1029000080F31188BFF34F8FBFF36F8FFEE7542022
:1029100000900098542807D0502080F31188BFF30E
:102920004F8FBFF36F8FFEE7002D19D0002C17D00B
:10293000AB46CBF8304002208BF8510000200390CA
:10294000CDF808B004A80190CDF800A04B4642464F
:102950003900300000F047F8584600F0A7F801E0D1
:1029600000200490049805B0BDE8F08F2DE9F84FE1
:1029700084B006000F0090469946DDF838A0DDF8D7
:102980003CB0404680B2800001F02AFC0500002DDA
:102990000BD0542001F024FC0400002C01D025634E
:1029A00004E0280001F0ACFC00E00024002C15D06D
:1029B000002084F85100002003900294CDF804B068
:1029C000CDF800A04B46424692B23900300000F0EC
:1029D0000AF8200000F06AF8012001E05FF0FF3003
:1029E00005B0BDE8F08F2DE9F84F05000E00170087
:1029F0009846DDF828900B9CDDF830A0DAF830001E
:102A000000EB8700001FC008C0000090009810F085
:102A1000070F07D0502080F31188BFF34F8FBFF30B
:102A20006F8FFEE75FF0000BBBF1100F0CD216F8B2
:102A30000B000AEB0B0181F8340016F80B0000289C
:102A400002D01BF1010BEFE700208AF84300B9F137
:102A5000070F01D306208146CAF82C90CAF844908B
:102A60000020CAF848001AF1040001F07AFB1AF1BC
:102A7000180001F076FBCAF810A0D9F10700CAF8D7
:102A80001800CAF824A00020CAF84C0000208AF8D8
:102A9000500042462900009801F03AFACAF80000B6
:102AA000002C01D0C4F800A0BDE8F18F38B50400B7
:102AB00001F0BEFADFF850140868401C0860DFF827
:102AC0004C542868002806D12C60086801280DD1D4
:102AD00000F086FA0AE0DFF838040068002805D123
:102AE000E06A2968C96A884200D32C60DFF82404B0
:102AF0000168491C0160DFF820140A680123E06ABC
:102B000083401A430A60211DDFF8A024E36A1420E1
:102B1000434302EB030001F027FB01F0A3FADFF8C7
:102B2000F003006800280DD02868C06AE16A884276
:102B300008D25FF08050DFF8D4150860BFF34F8FE4
:102B4000BFF36F8F31BD10B586B000200490002018
:102B5000039005AA03A904A801F0D0FCDFF8704691
:102B60000498029003980190002000900023059A99
:102B7000DFF860160FF24540FFF7AAFE20602068DC
:102B8000002801D0012400E00024012C16D150209F
:102B900080F31188BFF34F8FBFF36F8F5FF0FF306B
:102BA000DFF8341608600120DFF8641308600020A5
:102BB000DFF82816086001F0D4F90AE014F1010FDB
:102BC00007D1502080F31188BFF34F8FBFF36F8F71
:102BD000FEE706B010BDDFF8A0040168491C0160E3
:102BE0007047F8B500250026DFF88C4420680028DF
:102BF00007D1502080F31188BFF34F8FBFF36F8F41
:102C0000FEE701F015FA2068401E206020680028C9
:102C100057D1DFF8F4020068002852D0DFF8AC1575
:102C20000868002827D0C868C068050015F118009A
:102C300001F0C1FA281D01F0BEFADFF8DC120A68C3
:102C40000123E86A83401A430A60291DDFF85C23E8
:102C5000EB6A1420434302EB030001F085FAE86AB3
:102C6000DFF8A8120968C96A8842D7D30120DFF8C3
:102C700074150860D2E7002D01D000F021FADFF8CA
:102C800060753C68002C0CD000F01FF8002803D0C1
:102C90000120DFF850150860641E002CF4D10020DC
:102CA0003860DFF84005006800280AD001200600DF
:102CB0005FF08050DFF80C150860BFF34F8FBFF353
:102CC0006F8F01F0CFF93000F2BD2DE9F041002700
:102CD000DFF8A403006800286ED1DFF8000504685F
:102CE000641C0460002C1CD1DFF8FC140868006828
:102CF000002807D0502080F31188BFF34F8FBFF317
:102D00006F8FFEE7D1F80080DFF8E00402680A6008
:102D1000C0F80080DFF8D8040168491C016000F0A9
:102D2000CFF9DFF8B484D8F80000844238D3DFF854
:102D3000B81408680068002804D15FF0FF30C8F8B4
:102D400000002DE00868C068C068050068680600DB
:102D5000B44202D2C8F8006022E0281D01F02BFA2C
:102D6000A86A002803D015F1180001F024FA6A4976
:102D70000A680123E86A83401A430A60291D8B4AC6
:102D8000EB6A1420434302EB030001F0EDF9E86A1B
:102D90005E490968C96A8842C9D301200700C6E7AD
:102DA0005A4800688149C26A142042438858022860
:102DB00007D30120070004E0DFF824040168491C60
:102DC0000160DFF820040068002801D0012007001E
:102DD0003800BDE8F081DFF8A0020068002804D0C8
:102DE0000120DFF8001408602BE00020DFF8F41366
:102DF000086049480068B0FA80F1D1F11F0114223F
:102E00006A4B02FB01F01858002807D1502080F3CC
:102E10001188BFF34F8FBFF36F8FFEE702FB01F204
:102E200003EB0200426852684260426810F10803F6
:102E30009A4202D14268526842604068C068334A90
:102E40001060704738B504000D00002C07D15020E9
:102E500080F31188BFF34F8FBFF36F8FFEE7DFF86A
:102E60001C04006810F11801200001F089F901210B
:102E7000280000F0C1F931BD38B50500E868C46824
:102E8000002C07D1502080F31188BFF34F8FBFF380
:102E90006F8FFEE714F1180001F08DF97648006895
:102EA000002813D1201D01F086F91B490A6801236F
:102EB000E06A83401A430A60211D3C4AE36A1420F9
:102EC000434302EB030001F04FF905E014F1180150
:102ED000DFF8F80201F048F90C480068C06AE16ABE
:102EE000884205D201200121DFF80823116000E0AB
:102EF000002032BDDFF8F81209680160DFF88013A6
:102F000009684160704700009C1000208C10002070
:102F1000A8100020B8100020A41000202DE9F041D6
:102F200004000D00002C07D1502080F31188BFF35E
:102F30004F8FBFF36F8FFEE7002D07D1502080F336
:102F40001188BFF34F8FBFF36F8FFEE701F070F86A
:102F5000DFF8880206686768F71B286810F1010F20
:102F600002D15FF000081BE0DFF8840200682168EE
:102F7000884205D06068864202D35FF001080FE006
:102F80002868874208D22868C01B28602000FFF705
:102F9000B1FF5FF0000803E0002028605FF0010847
:102FA00001F060F84046BDE8F0810000C80D002047
:102FB0000120DFF8401208607047000010B50400DF
:102FC00000F03AF8DFF8BC0200680228F8D35FF09E
:102FD00080507C490860BFF34F8FBFF36F8FEFE7DE
:102FE00070B50024072C09D2DFF89802142101FBE8
:102FF00004F1084401F0A6F8641CF3E7DFF88852F6
:10300000280001F09FF8DFF88462300001F09AF8A0
:10301000DFF8B80101F096F8064801F093F86A4825
:1030200001F090F8DFF8C0010560DFF86402066087
:1030300070BD00002010002038B5DFF85852286815
:10304000002817D000F0F4FFDFF84C02C068C06819
:103050000400201D01F0AFF8DFF840020168491EAE
:1030600001602868401E286000F0FCFF200000F08E
:1030700005F8E2E731BD0000C410002010B50400DF
:1030800094F85100002806D1206B01F039F9200096
:1030900001F036F913E094F85100012803D1200023
:1030A00001F02EF90BE094F85100022807D05020CF
:1030B00080F31188BFF34F8FBFF36F8FFEE710BD12
:1030C000DFF8242110680068002805D15FF0FF3088
:1030D000DFF80421106007E01068C068C0680100D4
:1030E0004868DFF8F42010607047DFF8B40100682A
:1030F000002801D1012007E0DFF8A80100680028BE
:1031000001D1022000E000207047000004ED00E043
:1031100070B5040025000026002C50D0DFF85C01BB
:103120000068854207D0502080F31188BFF34F8F8D
:10313000BFF36F8FFEE7A86C002807D1502080F303
:103140001188BFF34F8FBFF36F8FFEE7A86C401E4F
:10315000A864E86A696C884231D0A86C00282ED136
:10316000281D01F028F800280FD1DFF81811EA6AAD
:10317000142042438858002807D1DFF82C110A6830
:103180000123E86A83409A430A60686CE862E86A4F
:10319000D0F10700A861DFF810110A680123E86A7E
:1031A00083401A430A60291DDFF8D820EB6A1420F7
:1031B000434302EB030000F0D7FF0120060030007C
:1031C00070BD000004ED00E0341000200C10002061
:1031D000C0100020D0470008BC100020A010002024
:1031E000AC100020B010002090100020941000209F
:1031F000B4100020B01000202DE9F04105000C00B3
:103200001F480768DFF87480D8F80000001D00F040
:10321000D2FF002808D1D8F8000023490A6801230A
:10322000C06A83409A430A6015F1010F08D1002C4F
:1032300006D0D8F80000011D1C4800F095FF1AE0E8
:10324000E8190600D8F800004660BE4207D2D8F858
:103250000000011D0E48006800F092FF0BE0D8F856
:103260000000011D1248006800F08AFF1148016843
:103270008E4200D20660BDE8F08100008C10002074
:10328000A0100020C80D0020E40F0020F80F00203F
:103290009410002098100020201000209C10002086
:1032A000A8100020C4100020A4100020341000201A
:1032B00090100020BC1000202DE9F84F05005FF0B1
:1032C000000800272868000531D5A86E002810D016
:1032D000B0F5800F13D0B0F5000F03D0B0F5400F5C
:1032E00014D014E0DFF8F803016851F48031016074
:1032F0000FE00021281D00F0FFF9804609E00021C1
:1033000015F1200000F0BAFA804602E001E0012049
:1033100080464046C0B2002808D1DFF8C8130A68CA
:1033200032F44002A86E02430A6000E04746286873
:10333000C00431D5E86E002810D0B0F1807F13D0E2
:10334000B0F1007F03D0B0F1407F14D014E0DFF87B
:103350009003016851F4803101600FE00021281DC5
:1033600000F0CAF9804609E0002115F1200000F0C4
:1033700085FA804602E001E0012080464046C0B266
:10338000002808D1DFF85C130A6832F04072E86E5A
:1033900002430A6000E04746286880037CD55FF05E
:1033A0000009DFF844A3DAF80000C0000DD4DAF811
:1033B000000050F08050CAF80000DAF8000010F069
:1033C00080500090009801208146DFF820B3DBF8A0
:1033D000000050F48070CBF80000FEF713FC0600EC
:1033E000DBF80000C00506D4FEF70CFC801B0328A8
:1033F000F6D3032080464046C0B2002841D1DFF812
:10340000F0B2DBF8000010F440700400002C16D07D
:10341000D5F88800844212D0DBF8000030F4407008
:103420000400DBF8000050F48030CBF80000DBF83B
:10343000000030F48030CBF80000CBF80040E0070B
:103440000FD5FEF7DFFB0600DBF80000800708D48D
:10345000FEF7D8FB801B41F289318842F4D3032068
:1034600080464046C0B2002809D1DBF8001031F494
:103470004071D5F888000143CBF8001002E04746C0
:1034800000E047464846C0B2012805D1DAF80000FE
:1034900030F08050CAF800002878C00707D5DFF860
:1034A00044120A6892089200A86B02430A602878C6
:1034B000800707D5DFF82C120A6832F00C02E86B9F
:1034C00002430A602878400706D586490A6832F028
:1034D0003002286C02430A602878000706D581492B
:1034E0000A6832F0C002686C02430A602878C0069D
:1034F00006D57C490A6832F44072A86C02430A601F
:103500002878800606D577490A6832F44062E86C6C
:1035100002430A602868800506D572490A6832F4B9
:103520004022286E02430A602868400506D56D498E
:103530000A6832F44012686E02430A602878400636
:1035400006D568490A6832F44052286D02430A6081
:103550002878000606D563490A6832F44042686D4F
:1035600002430A602868C00506D55E490A6832F43D
:103570004032A86D02430A602868C00207D5DFF810
:1035800074110A6892089200E86D02430A60286884
:1035900080041ED553490A6832F04062286F024306
:1035A0000A60286FB0F1006F05D14D48016851F4F1
:1035B000801101600DE0286FB0F1806F09D1012109
:1035C000281D00F099F880464046C0B2002800D07F
:1035D0004746286800031ED542490A6832F0406217
:1035E000686F02430A60686FB0F1006F05D13C4814
:1035F000016851F4801101600DE0686FB0F1806FD7
:1036000009D10121281D00F077F880464046C0B25C
:10361000002800D04746286840031ED531490A6873
:1036200032F04062A86F02430A60A86FB0F1006FE9
:1036300005D12B48016851F4801101600DE0A86F9D
:10364000B0F1806F09D10121281D00F055F88046A6
:103650004046C0B2002800D047462868400424D520
:1036600020490A6832F04052E86F02430A60E86F6E
:10367000B0F1805F0AD10221281D00F03DF880469C
:103680004046C0B2002810D047460EE0E86FB0F1C7
:10369000005F0AD1022115F1200000F0EFF880460A
:1036A0004046C0B2002800D047462868000407D52D
:1036B0000C490A6832F08042D5F8800002430A6063
:1036C0002868C00307D507490A6822F00042D5F8E8
:1036D000840002430A603800C0B2BDE8F28F0000E7
:1036E0000C10024088100240581002400070004048
:1036F000901002409C1002402DE9F04105000C00A2
:103700000027DFF8C812086810F0030F12D008680D
:1037100010F003002A68904209D12868002806D0DA
:103720000868C0F30210401C6968884235D0012047
:10373000070032E02868012804D01ED3032811D0E6
:1037400008D31AE0DFF888020068800701D401205E
:10375000070014E0DFF878020068400501D401207A
:1037600007000CE0DFF868020268920304D40068E6
:10377000400301D40120070001E0012007003800C8
:10378000C0B2002809D10A6832F0730228680243E7
:103790006868401E52EA00120A603800C0B2002871
:1037A00068D1DFF82C82D8F8000030F08060C8F8CB
:1037B0000000FEF727FA0600D8F80000000106D541
:1037C000FEF720FA801B0328F6D3032007003800F9
:1037D000C0B200284ED1002C0DD1DFF8F8110A68D4
:1037E000DFF8F4010240A86852EA0022E86852EAD1
:1037F000C0620A6020E0012C0FD1DFF8D8110A68FE
:10380000DFF8D8010240A86852EA0022286940087F
:10381000401E52EA40520A600EE0DFF8B8110A6812
:10382000DFF8BC010240A86852EA0022686940083B
:10383000401E52EA40620A60D8F8000050F08060F2
:10384000C8F80000FEF7DEF90600D8F80000000115
:1038500006D4FEF7D7F9801B0328F6D30320070010
:103860003800C0B2002805D1DFF868110A68A869DD
:1038700002430A603800C0B2BDE8F0812DE9F04192
:1038800005000C0000275149086810F0030F12D002
:10389000086810F003002A68904209D128680028BF
:1038A00006D00868C0F30210401C6968884232D014
:1038B000012007002FE02868012804D01BD303282B
:1038C0000FD007D317E042480068800701D40120D9
:1038D000070012E03E480068400501D401200700BF
:1038E0000BE03B480268920304D40068400301D413
:1038F0000120070001E0012007003800C0B20028C5
:1039000009D10A6832F07302286802436868401ED1
:1039100052EA00120A603800C0B2002851D1DFF824
:10392000B080D8F8000030F08050C8F80000FEF7F2
:1039300069F90600D8F80000800006D5FEF762F9A4
:10394000801B0328F6D3032007003800C0B20028EC
:1039500037D1002C0BD123490A681F480240A868C0
:1039600052EA0022E86852EAC0620A600CE01D498F
:103970000A681B480240A86852EA002228694008E9
:10398000401E52EA40620A60D8F8000050F08050B1
:10399000C8F80000FEF736F90600D8F800008000ED
:1039A00006D4FEF72FF9801B0328F6D30320070067
:1039B0003800C0B2002804D10A490A686869024385
:1039C0000A603800C0B2BDE8F08100000C1002406F
:1039D0000010024010100240FF80FF07FF809FFF91
:1039E000FF80FFF91410024010B50400002C01D133
:1039F000012014E094F83D00002805D1002084F84F
:103A00003C002000FDF7DBF9022084F83D00211D79
:103A1000206800F07CF9012084F83D00002010BDF2
:103A200001000868C06850F001000A68D0600868AA
:103A30008268DFF854000240062A08D0B2F5803FC1
:103A400005D00868006850F001000B68186000207D
:103A5000704701000868C068400840000A68D060EC
:103A60000868006A41F2111210420BD10868006A1E
:103A700040F24442104205D1086800684008400006
:103A80000A681060002070470700010010B50400AC
:103A90002068006980071AD52068C068800716D59D
:103AA0007FF002002168086101202077206880698A
:103AB00010F0030F03D0200000F02CFD05E02000E3
:103AC00000F029FD200000F027FD0020207720686D
:103AD000006940071AD52068C068400716D57FF0F6
:103AE000040021680861022020772068806910F4B2
:103AF000407F03D0200000F00DFD05E0200000F025
:103B00000AFD200000F008FD0020207720680069F1
:103B100000071AD52068C068000716D57FF0080096
:103B200021680861042020772068C06910F0030F25
:103B300003D0200000F0EEFC05E0200000F0EBFCDC
:103B4000200000F0E9FC0020207720680069C00612
:103B50001AD52068C068C00616D57FF0100021680D
:103B60000861082020772068C06910F4407F03D0E6
:103B7000200000F0CFFC05E0200000F0CCFC20008D
:103B800000F0CAFC0020207720680069C0070AD531
:103B90002068C068C00706D57FF001002168086171
:103BA0002000FEF7ACF92068006900060AD52068FD
:103BB000C068000606D57FF08000216808612000FB
:103BC00000F0ABFC20680069C0050AD52068C06819
:103BD000000606D57FF4807021680861200000F09F
:103BE0009DFC2068006940060AD52068C068400630
:103BF00006D57FF0400021680861200000F08FFCAE
:103C00002068006980060AD52068C068800606D54D
:103C10007FF0200021680861200000F081FC10BDC9
:103C200070B504000D0094F83C00012801D1022079
:103C30006CE0012084F83C00022084F83D002068FC
:103C40008668DFF89001064036F47F46206886607B
:103C5000286800284ED010284CD020284AD0302880
:103C600048D040283CD0502826D060282ED070283C
:103C700007D0B0F5805F03D0B0F5005F0FD03EE015
:103C80003DE0EB686A68A968206800F0E2F8206807
:103C9000806850F077000600206886602FE0EB68AF
:103CA0006A68A968206800F0D4F82068806850F439
:103CB00080402168886022E0EA686968206800F036
:103CC0009BF85021206800F0BCF818E0EA686968A9
:103CD000206800F0A3F86021206800F0B2F80EE040
:103CE000EA686968206800F087F84021206800F0E1
:103CF000A8F804E02968206800F0A3F8FFE7012095
:103D000084F83D00002084F83C00002070BD10B411
:103D10000468DFF8C430984212D0B0F1804F0FD061
:103D2000DFF8B82090420BD0DFF8B420904207D0E3
:103D3000DFF8B020904203D0DFF8AC20904203D1EE
:103D400034F070044A68144398421ED0B0F1804F9A
:103D50001BD0DFF88820904217D0DFF884209042F3
:103D600013D0DFF8802090420FD0DFF87C20904203
:103D70000BD0DFF87820904207D0DFF87420904213
:103D800003D0DFF87020904203D134F44074CA6845
:103D9000144334F080044A69144304608A68C262A0
:103DA0000A68826298420FD0DFF83C2090420BD024
:103DB000DFF83820904207D0DFF83420904203D05B
:103DC000DFF83020904201D10A690263012242618A
:103DD00010BC704788FFFEFF002C0140000400402B
:103DE00000080040000C0040003401400040014049
:103DF000004401400048014010B4046A036A5B08B3
:103E00005B000362836933F0F00353EA021334F07A
:103E10000A040C438361046210BC704710B4036A47
:103E200033F0100303628369046A33F4704353EA86
:103E3000023334F0A00454EA01148361046210BC1C
:103E40007047836833F0700351F0070213438360B7
:103E5000704730B4846834F47F4452EA010555EA6F
:103E600003252C43846030BC7047000030B402004E
:103E700092F83C00012801D1022028E0012082F8BC
:103E80003C00022082F83D00106843681068846896
:103E90001068104DA84203D010680F4DA84203D1FE
:103EA00033F470034868034333F070030868034336
:103EB00034F08004886804431068436010688460AC
:103EC000012082F83D00002082F83C00002030BC38
:103ED00070470000002C01400034014000B500BFD5
:103EE000130096469446103928BFA0E80C50FAD823
:103EF0005FEA417C28BF0CC048BF40F8042BC907CB
:103F000028BF20F8022B48BF00F8012B00BD00009D
:103F1000001F5FF080730360001F4B085B000360AD
:103F2000001F0FF21503036014380260001F7FF0BA
:103F300002030360203870476948006810F1010FE0
:103F400007D0502080F31188BFF34F8FBFF36F8FDE
:103F5000FEE7502080F31188BFF34F8FBFF36F8FC0
:103F6000FEE7E0B55F4801685F4A914207D1502003
:103F700080F31188BFF34F8FBFF36F8FFEE70068A8
:103F80005A49884207D1502080F31188BFF34F8FE0
:103F9000BFF36F8FFEE7564801780191FF21017052
:103FA00001788DF800109DF8001011F05001514A71
:103FB0001170514907220A609DF80020120608D5A9
:103FC0000A68521E0A609DF8002052008DF80020F9
:103FD000F2E70A68D2F10702042A07D0502181F3E0
:103FE0001188BFF34F8FBFF36F8FFEE70A6812028D
:103FF0000A600A6812F4E0620A60019901703F48A1
:10400000016851F470010160016851F07041016074
:1040100000F07EF800203249086000F0CDFA384800
:10402000016851F04041016000F0B6FA00200EBD79
:10403000502080F31188BFF34F8FBFF36F8F284953
:104040000A68521C0A60096801290AD12D490968C9
:10405000090606D080F31188BFF34F8FBFF36F8F2F
:10406000FEE770471E490868002807D1502080F3FA
:104070001188BFF34F8FBFF36F8FFEE70868401EB4
:1040800008600868002802D1002080F3118870477A
:10409000EFF30580102811D31B4A1268125C11003F
:1040A0000A00144B1B78D2B29A4207D2502282F3F4
:1040B0001188BFF34F8FBFF36F8FFEE70E4A126870
:1040C000124B1B6813F4E0639A4207D2502282F32A
:1040D0001188BFF34F8FBFF36F8FFEE7704700006B
:1040E0000000002000ED00E071C20F4170C20F41DE
:1040F00000E400E0CA1000208410002020ED00E061
:1041000034EF00E004ED00E0DC4700080CED00E0D7
:104110000848002101600021074A11600749096829
:104120004FF47A72B1FBF2F1491E054A1160072182
:104130000160704710E000E018E000E00C00002093
:1041400014E000E010F1080141605FF0FF31816090
:1041500010F10801C16010F1080101610021016046
:10416000704700210161704742684A6093688B6024
:10417000936859609160086103685B1C0360704735
:1041800010B40B6813F1010F01D1026907E010F1BF
:10419000080254682468A34201D35268F9E75468BE
:1041A0004C604C68A1608A60516008610468641CBE
:1041B000046010BC7047010008698A684B689A6007
:1041C0004A688B685A6042688A4201D18A684260B4
:1041D00000220A610268521E0260006870470000F7
:1041E0002DE9F84F04005FF00008FEF7F4FCDFF85B
:1041F0004892D9F80000002801D100F0BBF8DFF8A0
:104200003CA2DAF80000044269D1002C15D08C4899
:104210000068041914F0070F0FD014F1080014F00F
:104220000704041B14F0070F07D0502080F31188F7
:10423000BFF34F8FBFF36F8FFEE7002C4FD0DFF837
:1042400004B2DBF80000A04249D37F4806000068B2
:1042500005006868A04205D22868002802D02E0018
:104260002D68F6E7D9F80000854238D074483168E7
:104270000268114488462968316000684000696816
:10428000091B884215D205EB0400070017F0070050
:10429000002807D0502080F31188BFF34F8FBFF361
:1042A0006F8FFEE76868001B78606C60380000F074
:1042B00092F8DBF800106868091ACBF80010634820
:1042C000DBF800100268914202D2DBF800100160B6
:1042D0006968DAF800000143696000202860FEF791
:1042E00080FC18F00700002807D0502080F31188C8
:1042F000BFF34F8FBFF36F8FFEE74046BDE8F28FED
:1043000070B504002600002C33D04D4800684042B0
:1043100006443500494968680A68104207D15020B0
:1043200080F31188BFF34F8FBFF36F8FFEE72868CC
:10433000002807D0502080F31188BFF34F8FBFF3C0
:104340006F8FFEE768680A68104212D0286800285C
:104350000FD16A68086882436A60FEF73CFC3949FD
:104360000A68686882180A60280000F034F8FEF7CE
:1043700038FC70BD70B440F6B8323548010011F019
:10438000070F04D0C91DC908C900521A82180B00B2
:104390002D48036000244460D41829480068241A7A
:1043A000E408E400244D2C6000202E68706000209A
:1043B0002E6830601800261A46602D680560456832
:1043C000224E356045681F4E35605FF000451B4E3C
:1043D000356070BC704730B41B4A1168814201D20D
:1043E0001268FAE7140051682144814204D15368ED
:1043F0004168CB18536010000300416819441568E8
:10440000A94210D10C4914680D68AC4208D0446828
:10441000116849680C19446011680968016004E07A
:104420000968016001E011680160824200D01060FB
:1044300030BC70470000000068100020741000209D
:10444000D84700086C100020601000207010002079
:104450001000002062B38B0708D0521E11F8013BF8
:1044600000F8013B00F024808B07F6D1830740F071
:10447000208000BF103A07D330B4B1E83810103AAA
:10448000A0E83810F9D230BC530724BFB1E80810B7
:10449000A0E8081044BF51F8043B40F8043BD207A1
:1044A00024BF31F8022B20F8022B44BF0B78037095
:1044B0007047121F17D35B0009D151F8043B20F855
:1044C000023B1B0C121F20F8023BF6D20BE051F806
:1044D000043B00F8013B1B0A20F8023B1B0C121F97
:1044E00000F8013BF3D238BF121D521E24BF11F851
:1044F000013B00F8013BF8D870470000034B036014
:10450000034B0B6080231360704700BFD40E002064
:10451000C80B00207047704770477047704770475E
:1045200070470000EFF30980BFF36F8F264B1A68C6
:104530001EF0100F08BF20ED108A20E9F04F106028
:1045400009B44FF0500080F31188BFF34F8FBFF3D1
:104550006F8FFEF740FC4FF0000080F3118809BC1C
:1045600019680868B0E8F04F1EF0100F08BFB0ECF3
:10457000108A80F30988BFF36F8F7047124B196858
:104580000868B0E8F04F80F30988BFF36F8F4FF0F1
:10459000000080F3118870470C480068006880F3C1
:1045A00008884FF0000080F3148862B661B6BFF34C
:1045B0004F8FBFF36F8F00DFDFF81400016841F405
:1045C00070010160704700008C10002008ED00E0D1
:1045D00088ED00E01048016851F4700101600F4956
:1045E000086850F00100086000200D4A10600A6859
:1045F0000C4802400A604FF480500B4A1060086873
:1046000030F4802008600020084908605FF00060F6
:10461000074908607047000088ED00E00010024084
:1046200008100240FFFFF6EA0C100240181002408A
:1046300008ED00E07047FEE7FEE7FEE7FEE77047A3
:104640007047704780B50748FFF720FA01BD80B575
:104650000548FCF784FC01BD80B50448FBF798FED3
:1046600001BD0000700F0020280F0020540E002014
:10467000A0860100400D0300801A060000350C00E2
:1046800040420F0080841E0000093D0000127A00A5
:104690000024F40000366E010048E801006CDC02E2
:1046A00030B450F8041B79B1026843680244083002
:1046B000DC0744BFA9F10104E31852F8045B43F896
:1046C000045B091FF9D1ECE730BC704710B507490E
:1046D00079441831064C7C44163404E00A68081DFD
:1046E000114488470146A142F8D110BD2C000000BA
:1046F0004C0000004EF68851CEF20001086840F4EC
:1047000070000860BFF34F8FBFF36F8F4FF00070E2
:10471000E1EE100A70470000FBD4FFFFBC10000060
:10472000100000200000000079FFFFFF10000000D3
:1047300074000000000000200000000000F00DF8F0
:10474000002801D0FFF7C2FFAFF300800020AFF3D5
:104750000080FDF77BFA00F002F80120704700F0BE
:1047600001B800000746384600F002F8FBE70000F9
:1047700080B5AFF30080024A11001820ABBEFBE702
:1047800026000200000000000000000001020304F7
:10479000060708090148804701480047D545000839
:1047A000B5470008AAAAAAAA10000000010000004C
:1047B00000093D00AFF30080FFF79CFFFFF7BEFF4D
:1047C0005461736B203100000000000001020304FB
:1047D00049444C450000000008000000F0E300E000
:1047E000FFF7FEBFFFF7FEBFFFF7FEBFFFF7FEBFFD
:1047F000FFF7FEBFFFF7FEBFFFF7FEBFFFF7FEBFED
:10480000FFF7FEBFFFF7FEBFFFF7FEBFFFF7FEBFDC
:10481000FFF7FEBFFFF7FEBFFFF7FEBFFFF7FEBFCC
:10482000FFF7FEBFFFF7FEBFFFF7FEBFFFF7FEBFBC
:10483000FFF7FEBFFFF7FEBFFFF7FEBFFFF7FEBFAC
:10484000FFF7FEBFFFF7FEBFFFF7FEBFFFF7FEBF9C
:10485000FFF7FEBFFFF7FEBFFFF7FEBFFFF7FEBF8C
:10486000FFF7FEBFFFF7FEBFFFF7FEBFFFF7FEBF7C
:10487000FFF7FEBFFFF7FEBFFFF7FEBFFFF7FEBF6C
:10488000FFF7FEBFFFF7FEBFFFF7FEBFFFF7FEBF5C
:10489000FFF7FEBFFFF7FEBFFFF7FEBFFFF7FEBF4C
:1048A000FFF7FEBFFFF7FEBFFFF7FEBFFFF7FEBF3C
:1048B000FFF7FEBFFFF7FEBFFFF7FEBFFFF7FEBF2C
:1048C000FFF7FEBFFFF7FEBFFFF7FEBFFFF7FEBF1C
:1048D000FFF7FEBFFFF7FEBFFFF7FEBFFFF7FEBF0C
:1048E000FFF7FEBFFFF7FEBFFFF7FEBFFFF7FEBFFC
:1048F000FFF7FEBFFFF7FEBFFFF7FEBFFFF7FEBFEC
:10490000FFF7FEBFFFF7FEBFFFF7FEBFFFF7FEBFDB
:10491000FFF7FEBFFFF7FEBFFFF7FEBFFFF7FEBFCB
:10492000FFF7FEBFFFF7FEBFFFF7FEBFFFF7FEBFBB
:0C493000FFF7FEBFFFF7FEBFFFF7FEBF62
:04000005080047B5F3
:00000001FF
