:020000040800F2
:10000000801500207D520008B1510008B35100084E
:10001000B5510008B7510008B951000800000000B0
:10002000000000000000000000000000FD4F00087C
:10003000BB51000800000000A54F0008954C0008C7
:10004000A7520008AB520008AF520008B352000894
:10005000B7520008BB520008BF520008C352000844
:10006000C7520008CB520008CF520008D3520008F4
:10007000D7520008DB520008DF520008E3520008A4
:10008000E7520008EB520008EF520008F352000854
:10009000F7520008FB520008FF5200080353000803
:1000A000075300080B5300080F53000813530008B0
:1000B000175300081B5300081F5300082353000860
:1000C000275300082B5300082F5300083353000810
:1000D000375300083B5300083F53000843530008C0
:1000E000475300084B5300084F5300085353000870
:1000F000575300085B5300085F5300086353000820
:10010000675300086B5300086F53000873530008CF
:10011000775300087B530008BD5100087F53000847
:1001200083530008875300088B5300088F5300083F
:1001300093530008975300089B5300089F530008EF
:10014000A3530008A7530008AB530008AF5300089F
:10015000B3530008C3510008C9510008B753000841
:10016000BB530008BF530008C3530008C75300081F
:10017000CB530008CF530008D3530008D7530008CF
:10018000DB530008DF530008E3530008E75300087F
:10019000EB530008EF530008F3530008F75300082F
:1001A000FB530008FF530008035400082DE9F04FEB
:1001B0000FF2A41CA1B0DCE90089CDE900892A9DD9
:1001C000DFF8DC9B049100248DF843500D944FF030
:1001D000FF38824616461F460FE0B3462C461BF8F2
:1001E000011B0498D0470028049000F0A2800D98CD
:1001F000401C641E0D90F2D176193078252808D164
:10020000002100220791089209910A920B910C9209
:100210000DE06A464146304600F0DAFF050001D1A4
:100220000D98A1E0D9D50125E6E741F0010116F8C6
:10023000010F2028F9D023280CD02B2804D02D28FA
:1002400005D0302809D076E041F00201EFE741F017
:100250000401ECE741F00801E9E741F01001E6E7AD
:100260000F9209E00F98484505DA00EB800402EB95
:100270004402303A0F92761C3278A2F130000A28FC
:10028000F0D330782E2818BFCDF8388022D116F858
:10029000010F2A2807D138683860761C50F8042BE3
:1002A00038600E9216E02D280CBF761C002000222C
:1002B0000E920AE040B90E9A4A4505DA02EB820432
:1002C00003EB4403303B0E93761C3378A3F13002EA
:1002D0000A2AEFD3ADF8401021A0317800F082FF58
:1002E00008B116F8010B8DF842009DF8420068280D
:1002F00004D1307868280AD1622105E06C2804BF57
:1003000030786C2803D171218DF84210761C12A828
:1003100006903A4616F8013B02A9504600F064F8F0
:1003200038B912AA02A9504600F0C8F900287FF592
:1003300064AF404618E02A2892D13A683A6052F8F1
:10034000040B3A6000280F9003D540420F9041F013
:100350000401761C95E7000000000000000000008A
:10036000686A6C747A4C000021B0BDE8F08F622896
:1003700020D0682811D06A2803D06C2827D0712893
:1003800025D10868C01D20F007000860D0E90023CF
:1003900008300860194610467047002A0A680A604B
:1003A000106803D0121D0A6000B217E0121D0A6027
:1003B00080B217E0002A0A680A60106803D0121D94
:1003C0000A6040B20AE0121D0A60C0B20AE0002AC8
:1003D0000A680A60106803D0121D0A60C1177047CE
:1003E000121D0A60002170477CB50D4611461C465F
:1003F0002E69B4F1250200F04F811C3A00F0848090
:10040000121F022A40F280800E3A00F00981521F2A
:1004100059D0093A78D0921E16D0521E35D0521EAD
:10042000022A71D9121F30D0521F00F09880521E3C
:1004300049D0521E00F0E280D21E00F0FF80921ED2
:1004400041D0D21E3FD02DE195F83A406C2C09D016
:100450006869421C6A610A680A6052F8043B0A60D3
:10046000335429E10A680A6052F8043B0A60009399
:10047000002201924FF0FF332B636A46294600F0B9
:1004800098F9002840F1188103E195F83A0001221B
:10049000FFF76DFFC5E90001002904D56869411C1B
:1004A00069612D220DE0288F810704D56869411C00
:1004B00069612B2205E0C00721D56869411C69618B
:1004C000202232541BE095F83A000022FFF74FFF3C
:1004D000C5E9000195F83800010710D5D5E90023DA
:1004E000002B08BF002A0AD044F02000782806D14B
:1004F000686930213154401C421C6A6134542146E1
:1005000068693044E86087E00868C01D20F0070093
:100510000860D0E9002308300860C5E90023D5E968
:100520000001C80F04D06869411C69612D220DE0EB
:10053000288F810704D56869411C69612B2205E079
:10054000C00704D56869411C69612022325468697A
:100550003044E8602146284600F036FAACE005F168
:100560003A02507820B14FF0FF340FF6043074E0B7
:100570001078622808D0682824D06A2812D06C2805
:100580002ED071280ED02BE00A680A6052F8040BB6
:100590000A6020B94FF0FF340FF6EC205DE0E96A05
:1005A000017089E00A680A6052F8040B0A6020B9F9
:1005B0004FF0FF340FF6D0204FE0EA6AD317C0E9BE
:1005C000002379E00A680A6052F8040B0A6020B937
:1005D0004FF0FF340FF6B0203FE0E96A01806BE096
:1005E0000A680A6052F8040B0A6020B94FF0FF3421
:1005F0000FF6942031E0E96A01605DE00A680A6064
:1006000052F8040B0A60002120F0000221F0FF33B1
:10061000C5E90023EE607821284600F02DF94BE073
:100620006C2285F83A200B680B6053F8042B0B60A2
:1006300052BB4FF0FF340FF684200EE095F83A20BD
:100640006C2AF0D00868086050F8044B0860EC6031
:100650003CB94FF0FF340FF6482000F0EBFD201AB4
:1006600076BD2E6B002E04D5204600F003FE044616
:1006700008E032460021204600F026FE002814BF84
:10068000041B3446AC6117E0294600F092F80028BC
:1006900012D54FF0FF3076BD6869411C6961252293
:1006A000325409E06969481C6861252272542100AE
:1006B00002D0431C6B613454002076BD2DE9F0411B
:1006C0000E4605469046726B7069316AB46A121A1A
:1006D000B069521A716A121AF069521A121A96F80F
:1006E0003800141B41070DD4002C0BDD2746B068E1
:1006F0002021A8470028B06057D0F06A401C7F1E18
:10070000F062F4D1736942463146284600F098FC05
:1007100000284AD1376A002F0ADDB0683021A84787
:100720000028B06041D0F06A401C7F1EF062F4D116
:10073000B369F2683146284600F082FCA8BB776AAC
:10074000002F09DDB0683021A847B06068B3F06AB7
:10075000401C7F1EF062F5D1F068B169F369421860
:100760003146284600F06CFCF8B9B76A002F09DD65
:10077000B0683021A847B060B8B1F06A401C7F1E55
:10078000F062F5D196F8380041070BD5002C09DD51
:10079000B0682021A847B06038B1F06A401C641EE0
:1007A000F062F5D10020BDE8F0814FF0FF30BDE8E8
:1007B000F0812DE9F8470D46A3B02F6B002F0646B8
:1007C000904648BF6FF000470FF60C1400F0A8FDEC
:1007D000D4E90023696B4018CDE90123812828BFA3
:1007E0004FF0FF3042D20024002F33DDD8F8001044
:1007F00001AA684600F0EEFC8146B9F1000F38D43A
:10080000D8F8000010B9B9F1010932D44F4521DB05
:100810006869484481280AD30021696303AA2946EC
:100820003046FFF74BFF040014D40020686103AB8F
:10083000D5F814A04A46694603EB0A0000F082FD91
:10084000CA44C5F814A058F8040B002818BFA7EB39
:100850000907C9D14CB903AA29463046FFF72EFF34
:10086000044614B9002068616863204624B0BDE8DE
:10087000F0874FF0FF34F8E72DE9FC4307466F2976
:100880003E6908BF082405D041F02000782814BF35
:100890000A2410243C25D7E90023642918BF6929BC
:1008A0009046994605D1002B03D5D8F1000869EB95
:1008B0004909B9F1000F08BFB8F1000F1FD1386B1B
:1008C000E8B9082C4CD197F83800010748D53020FA
:1008D0003B2586F83B0043E000280ED597F838000A
:1008E00000F01400102808D17B6B7969386A5B1A14
:1008F0001B1A9A1A002AC8BF3A62BDE8F3838DF822
:100900000010404649462246E31700F027FD3032EA
:10091000D0B26D1E3A28019504DB9DF80000A0F1CD
:1009200051018A187255404649462246E31700F0A5
:1009300015FD80465FEA010908BFB8F1000F03D03A
:10094000F86871198842DCD3082C09D197F838006F
:10095000010705D5705D302802D06D1E302070551E
:10096000C5F13C02BA617119F960386B8242B3DAA1
:10097000821A3A624FF6EF70398F01403987BDE82D
:10098000F3832DE9D04306460F4614464FF0000886
:10099000DFF8109412E0E00707D542464B46304698
:1009A000394600F05FFD06460F464046494642463E
:1009B0004B4600F057FD641080468946002CEAD172
:1009C00030463946BDE8D0832DE9F84F05468A46C2
:1009D0004AF020048EB0D5E90089612C02AE09D01E
:1009E000286B002848BF062003D408BF672C01D11C
:1009F00001202863D5E900014A005215521C0DD18F
:100A00000B030BD0AAF1610103201A29A86102D2BD
:100A10000FF2CC6110E00FF2CC610DE04A005215EC
:100A2000521C0ED10B030CD1AAF1610103201A292B
:100A3000A86116D30FF2B461E868032200F082FCCB
:100A4000C0E1CDE90C01DDE90C2323F00043B3F54F
:100A5000801F0DD20027002B08BF002A019703D169
:100A600011E00FF28461E7E701AA00F0CDFD0AE092
:100A7000CD48CE4900EB1350DDE90C2301900B402B
:100A8000CB4910461943C5E90001612C0DD1E86836
:100A900030210170821CBAF1610FEA600CBF78212D
:100AA000582141706869801C6861D5E90001CDE971
:100AB0000C01DDE90C2333F0004104BF00280023C2
:100AC00000F04881612C40F0A080286B4946002846
:100AD0004CBF4FF0210B00F1010B404600220023D8
:100AE000DDE90C8900F0C8FD01990BF1010738BF61
:100AF00089F00049091F002F01918DF808200DF1A0
:100B0000090040F33581A94900910646404649460F
:100B10000022002300F0C8FD80F029814800400D2C
:100B200000F11C0211D0002A0FDD40F2FF739A423F
:100B300005DBA04909F000400143002011E0009BC3
:100B4000194041EA025140460BE028F0000039F01C
:100B5000004108BF00280FBF49461C22494600F04B
:100B6000BBFD8046894600F055FEFF1F002F04465E
:100B700009DD00F06DFE02460B464046494600F096
:100B800079FE80468946F01D072104E004F00F023B
:100B900000F8012D2411002C01DD491EF6D5491E57
:100BA0005CBF002200F8012DF9D5DCE000201946D9
:100BB00002AA0A4400E05B1E12F80149491E844261
:100BC000F9D00F2804D10DF10900425C521C4254A7
:100BD000002904D50198001D02AE5B1C0190581E2F
:100BE0000CD43118AAF13A040A783032D7B23A2F2D
:100BF000A8BFA218401E01F80129F5D5286B0028CE
:100C000040F1A780591E2963A3E001996A4A47F27F
:100C10009750414391FBF2F2019229F00046D2F144
:100C2000070204DD40463146FFF7ABFE0AE05242C0
:100C300000206249FFF7A5FE02460B4640463146BA
:100C400000F08AFE8046662C286B06BF019F0A379B
:100C500006273F18142FC8BF142730208DF808002E
:100C600089460DF1090000E03046002F34DD0646CC
:100C70004046494600F094FF01460A4606F1080343
:100C800004200A26B2FBF6F606EB860EA2EB4E0215
:100C9000303203F8012C0A22B6FBF2F202EB820E8C
:100CA000A6EB4E063036401E03F8026DE9D1083F30
:100CB000002F03F10806D7DD084600F085FF024645
:100CC0000B464046494600F0D5FD00223C4B00F063
:100CD000C9FB80468946CBE70DF10901401A0DF1A9
:100CE000090604E00199491E401E0191761C3178E5
:100CF0003029F7D0662C02D10199491C03E0652CFC
:100D00000CBF012100212B6BCB189842B8BF431EAA
:100D1000002B1ED4834204DAF05C3528A8BF3920AA
:100D200000DA30201946721E02EB010800E05B1E5B
:100D300018F80199491E8145F9D0392802D1705C13
:100D4000401C7054002904D50198401C16465B1CB9
:100D50000190019800B200901BB2324651462846DD
:100D600000F034F82EE0C61D002F3FF7CFAE30461E
:100D70000DF10901401A03465845C8BF5B46002BD8
:100D80000DF109063FF53AAF8342BFF60FAF0DF103
:100D90000900C15C07297FF709AF0F2007E70000B2
:100DA000CBCCCC0C0000244002FCFFFFFFFF0F80E7
:100DB0000000E03F0000F07FA08601000000F03F4F
:100DC00084D797410FB0BDE8F08F00002DE9F847B8
:100DD00083B006468A461746984600F0FDF9B8F1FA
:100DE000000F406A356B90F8009002DC4FF001086C
:100DF000BFA74AF02000BDF93040662808BF641C38
:100E000015D0672840F0848014F1040FC0F286806A
:100E1000AC4280F2838096F83800641C010702D44B
:100E2000A845B8BF454620B22D1A48BF00250FFA85
:100E300084FAF068B169BAF1000F25DC4A1C30234E
:100E40004354002D03DC96F83800010703D5F06801
:100E500000F80290521C15EB0A0FB8BF6C4220B28A
:100E6000441941424445B8BFA046B26171620FFACD
:100E700088F5F561F068B3692A463946184400F0F0
:100E800061FA641BB462C4E022B29045084417DAE8
:100E90004246394600F056FAB0694044B061AAEBC8
:100EA0000801002D716203DC96F838100A0705D599
:100EB000F16801F80090F069401CF061B562A8E0AB
:100EC000394600F03FFAB069002D5044A8EB040801
:100ED00003DC96F838100A0703D5F16801F8009092
:100EE000401CB0610FFA88F08542F368B069B8BF62
:100EF000A8460FFA88F207EB0A01184400F022FA1C
:100F0000B1690FFA88F00144B161281A706280E07B
:100F1000BAF1610F14D14FF0700A16E0A84504DA57
:100F200096F838100A0758BF45466D1E48BF002581
:100F3000BAF1670F14BF4FF0450A4FF0650A04E09D
:100F4000BAF1410F08BF4FF0500AB169F368481C6D
:100F5000B061002D17F8012B5A5403DC96F83810B5
:100F60000A071BD5F168431CB36101F80090002DFE
:100F700014DDA8F101080FFA88F039468542F768B8
:100F8000B8BFA8460FFA88F2F81800F0DBF9B0698C
:100F90000FFA88F108446D1AB0617562F068B169A2
:100FA0000844002C80F800A003D42B224270811C3E
:100FB00003E02D2141706442811C00206A460AE052
:100FC00023460A2493FBF4F404EB8405A3EB4503C6
:100FD00002F8013B401C24B2002CF1DC012806DCA5
:100FE0004AF02002652A04BF302201F8012B48B9DB
:100FF000302001F8010B07E0401E1DF800303033AF
:1010000001F8013B0028F7DCF268B0691044091AC6
:10101000F16196F8380000F0140010280DD17269C3
:10102000B169706A8A18F1698218B06A8A188218E0
:10103000706B8242BCBF821A326204B0BDE8F08796
:10104000F8B505460E4617461C46002074B117F841
:10105000011BB068A847B06030B1F06A401CF06274
:101060000020641EF3D1F2BD4FF0FF30F2BD00004E
:101070007072696E74665F733A20256E20646973BE
:10108000616C6C6F776564007072696E74663A208B
:1010900062616420256E20617267756D656E7400F3
:1010A0007072696E74665F733A20626164202573A2
:1010B00020617267756D656E740000007072696EF4
:1010C00074665F733A2062616420256C73206172DC
:1010D00067756D656E740000000000000000000080
:1010E0006E616E004E414E00696E6600494E4600CC
:1010F0003000F0B40246106895681318506803EB8E
:101100005004C0071DD54D441BE013F8017B05F8C2
:10111000017B491EF9D1A0B1B60813F8011B06F0F6
:101120000306032E08BF13F8016B01EB06214942A9
:10113000801C294405D011F8016B05F8016B401E95
:10114000F9D1A3420ED013F8016B16F0030104BFCE
:1011500013F8011BC91C30090F28DAD113F8010B51
:101160000F30D6E7F0BC02F10C0070471B48704707
:1011700070B45368D418042B09DA41B1057804F827
:10118000015B10F8016B16B15B1C491EF3E753605D
:1011900070BC704738B514461D4661B1FFF7E8FFD3
:1011A00061686A6B204690476FF00102811A02D095
:1011B000491E01D001E003E005E00021616032BD7D
:1011C0006FF0010032BD4FF0FF3032BDDA6B1047D7
:1011D000024BDFE7014BF9E701487047DC000020D4
:1011E000A4000020C9B202788A421AB11CBF10F8CC
:1011F000012FF9E718BF0020704730B4002513E035
:1012000050F8042BD30744BFA9F101039A18091F12
:10121000042942F8045BFAD213468C0744BF1580B8
:101220009B1CC90748BF1D7050F8041B0029E7D15B
:1012300030BC704780B500B906A005490B681BB1EA
:1012400022220021984701E000F0CBFC222002BDC1
:1012500078110020636F6E73747261696E74206818
:10126000616E646C65723A20626164206D657373AF
:101270006167650000F10103810704D010F8011BCC
:10128000820781B1FAD10268A2F10131914311F0D4
:10129000803104BF50F8042FF6E709BAB1FA81F1A2
:1012A00000EBD100401CC01A7047B1F5807F02D31B
:1012B0004FF0FF3070470170012070470078401EEA
:1012C0008041C043C00F7047C9B2830706D0521E89
:1012D00022D310F8013B9942F7D11FE0083A13D30B
:1012E00002F1040241EA012141EA014150F8043BC4
:1012F000121F21BF4B40A3F1013C2CEA030C1CF050
:10130000803FF3D0C9B2001F083210F8013B521ED3
:1013100028BF91EA030FF8D818BF0120401E70477C
:1013200080B5FFF723FF006C02BD8268521C82600B
:10133000426832B10268531C036011704168491E53
:10134000416070474AB1000011F8013B521E00F89D
:10135000013B1CBF11F8013BF8E77047D3BBD9B183
:10136000B2F5803F5BD2022A1ED98C46B1FBF2F166
:1013700002FB11C31B0443EA1043B3FBF2FC02FB64
:101380001C3380B240EA0343B3FBF2F002FB10329D
:1013900040EA0C4000237047022A05D98446B0FB7E
:1013A000F2F002FB10C270474AB105D100F0010211
:1013B00049085FEA3000704700220023704700F0C0
:1013C00013BC0B000200002100207047F7D300225D
:1013D00000237047904271EB030CF2D370B5B1FA61
:1013E00081F4B3FA83F52C1BA340C4F1200532FA33
:1013F00005F63343A2405FF00046E64002E05B089A
:101400005FEA3202841A71EB030524BF20462946A5
:101410007641F4D302000B003000002170BD70B59E
:10142000B1FA81F4B2FA82F5C4F120046419B4F17E
:101430002006DAD3B2405FF00044F440002502E019
:1014400052085FEA3303C61A71EB020E24BF30461E
:10145000714664416D41F3D302000B002000290066
:1014600070BD0000B0B581EA030C0CF0004C40F2F6
:10147000FF7515EA11541DBF15EA1357AC42AF4270
:1014800039E0E41923EA455343F48013C90241F0DB
:10149000004141EA505EC7021100A7FB020200288A
:1014A0004FF00000EEFB01204FF00001E3FB0721AD
:1014B00018BF42F00102401800214941E3FB0E0130
:1014C000A4F580640F0302D252004041494154F117
:1014D00001046CDD470872F1004250F1000051EB4D
:1014E0000451A1F580115CBF41EA0C01B0BD4CEA8A
:1014F00005510020B0BD05EA1357AC4214BFAF42FE
:1015000041E050EA410E1CBF52EA430E02E0614640
:101510000020B0BD24423C441BD15FEA070EF6D048
:10152000090302BF01460020AEF1140EB1FA81F7A3
:10153000AEEB070401FA07FE0C37C7F1200100FAF1
:1015400007F7C8404EEA000E23EA455343F48013E0
:10155000A2E733F00043B3FA83F704BFB2FA82FE86
:1015600077440B3FE41BB7F1200E2FBF02FA0EF3B6
:10157000BB40C7F1200E22FA0EFE38BF43EA0E032D
:10158000BA40641C82E750EA410E14BF52EA430E8F
:101590006FF000014FF4001717EB430F8ABF194695
:1015A00017EB410FB5E74CEA05510020B0BDD4F16F
:1015B0000104B4F120070FDAC4F12007520828BF54
:1015C00042F0010210FA07F501FA07F7E1BF2A43DA
:1015D000E0403843E1400FE0352C98DCC7F12004AF
:1015E00052EA400220FA07F218BF42F0010231FA33
:1015F00007F0A1400A43002172F1004250F10000BF
:1016000051EB0C01B0BD000010B5144600F002F81B
:10161000226010BDC1F30A5343B14A0012F5001F06
:1016200028D2A3F2FE32A1EB0251704750EA410CDE
:1016300020D001F0004C31EA0C01B1FA81F204BF74
:10164000B0FA80F3D2180B3AB2F120032CBF00FAA3
:1016500003F1914041EA0C013EBFC2F1200C20FA97
:101660000CF319439040524240F2FD33D21A01EB81
:1016700003517047002270474FF4001C1CEB410FD0
:1016800094BF1CEB430F09E041EA030C50EA4C0CF9
:1016900052EA0C0C03D2994208BF9042704714BF23
:1016A0008B428242704700004FF4001C1CEB410F3C
:1016B00094BF1CEB430F09E041EA030C50EA4C0CC9
:1016C00052EA0C0C03D28B4208BF8242704714BF0F
:1016D0009942904270470000124254D440F2FF7C7D
:1016E0001CEA11530FD0634531D09B1863453CBFB2
:1016F00001EB0251704701F0004141EA0C5100201A
:10170000AFF30080704750EA410320D001F0004C55
:1017100091EA0C011CD0B1FA81F30B3B9A420DD92E
:10172000D21A994051EA0C01C3F1200C20FA0CFCAA
:1017300061449840531C40F2FF7CD7E7914041EA56
:101740000C01C2F1200C20FA0CF3194390407047B1
:10175000B0FA80F31533202BE0D3202AEED3203AC1
:10176000203B9A4209D9D21A00FA03F141EA0C014E
:101770000020531C40F2FF7CB8E700FA02F141EA76
:101780000C0100207047524240F2FF7C1CEA1153CA
:101790000DD06345DBD0B2EB030C3CBFA1EB025193
:1017A00070470CF1010221EA035141F4801150EA23
:1017B000410CCCD001F0004C352A27DC30B481EA52
:1017C0000C01B2F1200309DAC2F12003044601FA48
:1017D00003F5D0402843D1409C400CE0C3F12002E7
:1017E000450020FA03F418BF44F0010421FA03F085
:1017F00091400C43002174F1004550F1000051EB81
:101800000C01244230BC7FF47BAF7047614600205E
:1018100076E70000C1F30A5340F2FE329B1A14DD52
:10182000D3F120034FEAE17208DDC90241EA5051C9
:1018300041F00040D84080185040704703F2E1303A
:1018400010B1D24382F00040704700207047000082
:10185000C11768B14840401AB0FA80F29040D21CDB
:10186000C907C2F5846241EA025202EBD021400569
:101870007047000070B44FF0004591EA030F40F14B
:10188000B5816B40841A71EB030603D2001BB14192
:10189000121973414FF4001C1CEB410F34BF7CEB59
:1018A000430442E00C0DA4EB1356352E4FDC45EA01
:1018B000C323DB0A45EAC121C912B6F120050DDDBB
:1018C00063FA05F6EB4086EA0305124218BF45F0BD
:1018D0000105C01851F100010CD213E062FA06F5BF
:1018E000F2405540F3415A40B340F3405A4080180B
:1018F000594107D349085FEA30005FEA350528BF40
:1019000045F0010501F58011420875F1004250F1E2
:10191000000041EB04514E0016F5001F70BC38BFAB
:1019200070470020090D090570471CEB410F10D2CC
:1019300052EA43060BD0BCEB410F05D80C0DAB436C
:10194000661E342EB6DD02E0AB438018594170BCF0
:10195000704770BC70470000F0B540F2FF7581EA37
:10196000030C0CF0004C15EA11541DBF15EA135777
:10197000AC42AF42E5E0BC41C1F31301C3F3130332
:10198000801A994143F4801304D2641E40004941F7
:1019900080185941C90241EA5051B1FBF3F603FBEB
:1019A0001611A2FB0675D7EBC020A94102D2761E04
:1019B00080185941C90241EA5051B1FBF3FE03FBC3
:1019C0001E11A2FB0E75D7EBC020A94103D2AEF1C8
:1019D000010E80185941890241EA9051760546EA84
:1019E0008E2EB1FBF3F603FB1611A2FB0675D7EBA7
:1019F0008020A94102D2761E80185941C90241EACD
:101A000050514EEA060EB1FBF3F603FB1611A2FB92
:101A10000675D7EBC020A94102D2761E8018594125
:101A2000C90241EA5051B1FBF3F703FB1711A2FBC6
:101A30000735D3EBC020A94167F100070CBF004276
:101A400047F0010766F3D5274FEA1E31B80814F5B1
:101A5000806412DDBD0775F1004250EB0E5051EB72
:101A6000045111F5801F5CBF41EA0C01F0BD4CF040
:101A70007F6141F0E0410020F0BDBD076D0840EA04
:101A80000E5041F48011D4F10104B4F120060ADAB9
:101A9000C4F120060200E04001FA06F3E1401843D9
:101AA000B24015430EE0342C13DCC6F1200445EAA5
:101AB00040056D0820FA06F2154321FA06F0A14010
:101AC0000D43002175F1004250F1000051EB0C0173
:101AD000F0BD00205FEA0C01F0BDCFB992185B4168
:101AE000B3FA83F704BFB2FA82F6BF190B3FB7F11E
:101AF00020062FBF02FA06F3BB40C7F1200622FAE8
:101B000006F638BF3343BA401CB1E419641E33E70C
:101B10007F4231F00041B1FA81F404BFB0FA80F69F
:101B2000A4190B3CB4F120062FBF00FA06F1A14026
:101B3000C4F1200620FA06F638BF3143A0403C1B12
:101B40001AE7AC421ABF05EA1357AF4212E050EA57
:101B500041061CBF52EA4306BFE750EA4107304640
:101B600061461CBF41EA0551F0BD52EA430C08BF73
:101B7000C143F0BD00204FF4001616EB410F98BF93
:101B800016EB430F08BF16EB410F24BFC14305E01E
:101B900016EB430F0CBF61464CEA0551F0BD000047
:101BA000400D491840EA81200CD2490DA1F5806111
:101BB000491C40F0004005DBD1F11F0154BFC84073
:101BC000C017704700207047014648B1B0FA80F155
:101BD0008840C91CC1F58461090501EBD02140058D
:101BE0007047012000F0B8B870470000841A71EB0C
:101BF000030604D26E40001BB141121973414FF429
:101C0000001C1CEB410F34BF7CEB430683E00C0D42
:101C1000A4EB1356362E00F37C80012E45EAC32335
:101C200041DC43EA525312BFD20292025B08240500
:101C300045EAC12141EA5051D2EBC020994125D457
:101C400007D1B0FA80F610FA06F162D000202036F3
:101C500008E0B1FA81F6B140C6F1200220FA02F2A2
:101C60001143B0404FEAF474B4EB465434F001062B
:101C70004FEA74040AD8D6F50016760D04F0004435
:101C8000F04061FA06F25040F1404840C00A40EA94
:101C9000415021F0004128BF5FEA500550F100009B
:101CA00044EBD12135E0DB0A45EAC121C90AB6F18E
:101CB00020050EDD42EA0242120CC5F1200603FAAD
:101CC00006F6EB4042EA06056D42984161F10001DB
:101CD0000DE062FA06F5F240554063FA06FC82EA2E
:101CE0000C02F3405A406D42904161EB030111F444
:101CF000801F05D1641E620502D06D00404149413C
:101D000021F48011430875F1004350F1000041EBCC
:101D1000045170BC70471CEB410F15D223F00043F7
:101D200052EA43060BD04FEA4C0CBCEB410F04D8EF
:101D30000C0D661E342EB7DDEBE7801A994150EA90
:101D4000410608BF0021E4E708BF1CEB430F28BF92
:101D50006FF00001DDE7000080B5AFF30080024ABC
:101D600011001820ABBEFBE72600020038B50400C6
:101D700009D004F17005696809B900F01EF800F097
:101D800021F8012801D1012032BD606A08B100F0BC
:101D90002AF800F00AF821F02A01FFE7816000F03C
:101DA0001BF8BDE8324000F06ABB2068416821F4AE
:101DB000904141602068816870470020287020466B
:101DC00000F06DBC2421696020680268520852004E
:101DD0000260204600F08EB92068016841F00101E0
:101DE000016020467047204600F0E6BA2DE9FC4726
:101DF000054605F170048846606820281746994614
:101E000044D1B8F1000F14BF002F01203FD020783B
:101E100001283BD0012121700020E0602122626076
:101E200005F1500600F0ACFC378082467780A86848
:101E3000B0F5805F04BF286900281ABF404600271C
:101E4000474680460DE02868B8F1000F12BF18F829
:101E5000011B37F8021BC1F3080101857088411E80
:101E6000718053467088CDF80090002811D0002270
:101E70008021284600F030FB0028E4D0032006E053
:101E80002020606000212170002000E00220BDE8D9
:101E9000F68700224021284600F01EFB0028EFD0E4
:101EA000ECE730B500F170035C68202C27D109B154
:101EB000140001D1012030BD1C78012C1FD0012558
:101EC0001D7000F15004C1642280628000216161B4
:101ED000D960212159608268B2F5805F04BF016931
:101EE000002907BFDFF884246261DFF88414616190
:101EF00000221A700068016841F0800150E0022061
:101F000030BD30B500F158031C6A202C46D109B110
:101F1000140001D1012030BD1C7E012C3ED00125D2
:101F20001D7641651A805A8000219960FF228168E0
:101F3000B1F5805F04D1016991B940F2FF120FE061
:101F400019B9016961B17F2107E0B1F1805F06D164
:101F5000016909B97F2203E03F21998001E0002255
:101F60009A800021596222221A6201688A6842F02E
:101F700001028A608168B1F5805F04BF01690029B0
:101F800007BFDFF8F0239A60DFF8EC1399600022B6
:101F90001A760068016841F4907101E0022030BDBA
:101FA0000160002030BD70B504462568E9692A68E3
:101FB000AB6811F00F000AD188066DD596066BD577
:101FC000216E002967D02046BDE870400847D80739
:101FD00002D412F4907F5FD0C80707D5D60505D587
:101FE00001202862E56F45F00105E567880708D5FF
:101FF000DD0706D5266802203062E06F40F004005D
:10200000E067480708D5DD0706D52668042030625A
:10201000E06F40F00200E06708070AD5950601D49A
:10202000D80706D5256808232B62E06F40F008002A
:10203000E067E06F002856D0880605D5910603D5E5
:10204000216E09B120468847E06F21688A685106F1
:1020500001D400071AD5204600F071FA2068816883
:102060004A060ED500F040F858B10FF205518163D1
:10207000E06E00F0EDFBB0B3E06E816BBDE8704048
:1020800008472046BDE8704000F06ABC204600F0DA
:1020900067FC0020E06770BDC80209D55B0207D568
:1020A0004FF4801028622046BDE8704000F059BC13
:1020B000080607D5130605D5616EA1B12046BDE817
:1020C0007040084748060ED551060CD5286820F008
:1020D0004000286020216167002060662046BDE83E
:1020E000704000F03FBC70BD816821F0400181600C
:1020F000E06E70472DE9F0410446A048226813685D
:10210000A168034020690B4361690343E0690B4305
:102110000343136000265168E06821F440510143F5
:1021200051600025A36996498A421CBF206A034377
:102130009768944827F430673B439360924F934BE2
:10214000BA4221D11B6803F00303032B29D8DFE82F
:1021500003F0025F50710127E169B1F5004F4FF6BE
:10216000F07840F0D38067B1012F00F0A980022FF2
:1021700000F0A980042F00F0AB80082F00F0B180A0
:10218000B7E000F021FFA5E0814FBA4223D11B68E0
:1021900013F00C035FD0042B3AD0082B29D00C2B62
:1021A00048D010278A42D7D1390006D0022F09D053
:1021B000042F52D0082F53D0D0E000F005FF0028A4
:1021C00000F0CD80626802EB4201884202D3130323
:1021D000834248D2C2E06F4FBA420CD11B6813F061
:1021E000300338D0102B13D0202B02D0302B21D02D
:1021F000D7E70227D6E7684FBA420BD11B6813F026
:10220000C00328D0402B03D0802BF2D0C02BEEE7A8
:102210000427C7E7614FBA420ED11B6813F440731D
:1022200019D0B3F5807FF3D0B3F5007FE1D0B3F5DB
:10223000407FB6D10827B5E78A42B2D11B6813F4B4
:10224000406308D0B3F5806FE2D0B3F5006FD0D013
:10225000B3F5406FCBE70027A4E700F06CFEAEE7D4
:102260004FF40040AEE737B1022F0AD0042F0ED052
:10227000082F16D01BE000F0A7FE00F097F8794178
:102280000AE0474911EB520045EB050104E000F07C
:1022900052FE00F08BF869410023FFF75FF8064615
:1022A00006E0530803F50003B3FBF2F600E0012556
:1022B000A6F540703B49884250D22268D6604EE075
:1022C00000F08AFE06E06068374901EB50010CE03F
:1022D00000F031FE61684A0802EB4002B2FBF1F601
:1022E00005E06068410801F58031B1FBF0F6B6B257
:1022F00000E00125A6F1100040452FD208EA0601B2
:10230000C6F3420001432068C16028E047B1012FB5
:1023100009D0022F0CD0042F08D0082F0ED015E0C2
:1023200000F052FE04E000F057FE01E000F003FE72
:10233000616800EB5100B0FBF1F605E06068410810
:1023400001F50041B1FBF0F6B6B200E00125A6F1BF
:102350001000404502D22168CE6000E00125002037
:10236000206660662846BDE8F0810000A9250008C7
:1023700081250008F9250008D5250008F369FFEF3D
:10238000008000400024F400003801408810024022
:102390000044004000480040004C00400050004015
:1023A000000024F400FD0F000048E8016268010EFF
:1023B000560816EB0020704790F82410CA0706D57F
:1023C00002685368816A23F400330B43536090F82A
:1023D00024108A0706D502685368C16A23F4803343
:1023E0000B43536090F824104A0706D502685368DF
:1023F000016B23F480230B43536090F824100A07E9
:1024000006D502685368416B23F400430B435360C5
:1024100090F82410CA0606D502689368816B23F4ED
:1024200080530B43936090F824108A0606D5026807
:102430009368C16B23F400530B43936090F824100E
:102440004A0610D502685368016C23F480130B43CD
:102450005360036CB3F5801F05D15368416C23F4BE
:10246000C0030B43536090F824100A0606D5016898
:102470004A68806C22F4002202434A607047F8B533
:10248000044604F170050020E8606FF07E4700F01C
:1024900077F90646206801680A0708D50097334691
:1024A00000224FF40011204600F016F860B92068B1
:1024B00001684A070AD50097334600224FF480018D
:1024C000204600F009F808B10320F2BD2020686022
:1024D000A86000202870F2BD2DE9F041069C054659
:1024E0000E4690461F462868C1693140B1420CBF74
:1024F00001200020404519D114F1010FF3D000F064
:102500003FF9C01B844201D3002CECD1286801683C
:1025100021F4D071016000F00CF805F17000202169
:102520004160816000210170032000E00020BDE8CF
:10253000F081286881684908490081607047016816
:102540000A6822F490720A6001688A685208520090
:102550008A6020218167002202667047136823F099
:10256000800313600068016841F04001016070471A
:10257000806A00F1520100220A810A8000F0F0B95D
:10258000416F21290FD10268B0F8521001B9E5E777
:10259000C16C0B781385C16C4A1CC264B0F8521030
:1025A0004A1EA0F852207047416F212911D10268BC
:1025B000B0F8521001B9D1E7C16C0B88C3F308031E
:1025C0001385C16C8A1CC264B0F852104A1EA0F870
:1025D0005220704770B500F027F808D100F02AF8B3
:1025E0002B70416D4B1C00F019F821B929E0088BC4
:1025F00040F00800088370BD70B500F015F808D1F0
:1026000000F018F82B80416D8B1C00F007F821B901
:1026100017E0088B40F00800088370BD43652588EB
:102620006E1E26802188704700F160020168936960
:10263000222B70478B8C456D00F15A0461880B404A
:10264000704701680B6823F490730B6001688B6816
:102650005B085B008B602021916100231360BDE863
:10266000704000F041BE00003E4882B0816841F0F9
:1026700001018160816801F0010100910099026807
:1026800042F0805202600022006800F0805000900A
:102690000F2100986FF0010002B000F0A1BE70B5EC
:1026A00086B0044601A8142100F0CCFE25682E4E09
:1026B000B54244D12D482E4D016941F0010101611F
:1026C000016901F0010100910099026842F04002A5
:1026D0000260006800F040000090009800F0EBFEFF
:1026E0004FF4C0710191022200210391029208214E
:1026F00003220591049201A91E4800F0F3FE042173
:10270000696080211C482860296120200022E8613E
:102710004FF44051AA60EA606A61AA6129622846C2
:1027200000F034F808B100F01FFEE566AC6200224C
:102730000521462000F054FE462000F06EFE06B053
:1027400070BD81B000680D49884209D10548026812
:1027500042F020020260006800F020000090009823
:1027600001B0704758100240008000404C100240F9
:10277000F0100020001800488004024000140040BF
:1027800001480068704700BF94000020F0B508B908
:102790000120F0BD0568274E274CB54200F1240307
:1027A00008D226494A191427B2FBF7F292001A629E
:1027B000DC6108E022494A191426B2FBF6F29200C5
:1027C00020491A62D96102225A702E688168C26853
:1027D0006FF30E160E430169164342690E43816979
:1027E0001643C2690E43016A16430E432E60826887
:1027F000B2F5804F17D0DA690F21A2420CBF124AFE
:10280000124A146893F8205005F01C05A94024EAE8
:1028100001011160116893F82040406804F01C0425
:10282000A040014311600020986101215970187087
:10283000F0BD00000804024000000240F8FFFDBFA8
:10284000F8FBFDBF00040240A8000240A8040240BB
:1028500038B500F1240100244A78022A03D004206C
:102860008861012417E00268136823F00E031360E7
:10287000026815686D086D001560012291F820301E
:10288000CD6903F01C039A406A6001224A700C7003
:10289000496901B18847204632BDF8B500F12401ED
:1028A0000423CA6914680268156891F8206006F06C
:1028B0001C0603FA06F73C4210D06F070ED51468C9
:1028C000A50603D4146824F00404146000F03AF858
:1028D000C968002935D0BDE8F4400847022303FA4F
:1028E00006F73C4213D0AF0711D51468A50605D4EE
:1028F000146824F00A04146001224A7000F022F8DF
:1029000000220A708968E1B1BDE8F4400847082355
:1029100003FA06F6344214D02B0712D5146824F0BB
:102920000E041460012200F015F89A406260012242
:102930008A614A7000220A70096911B1BDE8F44049
:102940000847F1BD91F82020CC6902F01C029340A9
:102950006360704791F82030CC6903F01C03704726
:1029600070477047704700002DE9FC4705001AD0FA
:10297000DFF82877DFF83447B86800F00C09F8680A
:1029800000F003082878C1065BD5B9F1000F05D027
:10299000B9F10C0F08BFB8F1010F2ED138688107CB
:1029A00003D5A869002800F05B81396808074EBF8D
:1029B000396861680909286A01F0F001814206D28C
:1029C00000F031FB002808D100F019FA07E000F010
:1029D00016FA286A00F027FB002840F0418100F039
:1029E000AAFABA6800F09DFADFF8B806006800F0AD
:1029F0006BFE010000F03881FFE1A869C0B13968C1
:102A000041F001013960FFF7BBFE064638688107D7
:102A100000F12881FFF7B4FE801B0328F6D30320C2
:102A2000EBE1FFF7ADFE801B0328C0F05881F6E70D
:102A30003868400840003860FFF7A2FE0646386854
:102A4000810740F11181FFF79BFE801B0328F6D31D
:102A5000E5E76868B0F5803F04D1386840F480301D
:102A6000386011E0B0F5A02F386806D140F480201E
:102A70003860396841F4803105E020F480303860F6
:102A8000396821F480213960686860B1FFF778FE09
:102A900006463868810300F1FA80FFF771FE801B5B
:102AA0006528F6D3BBE7FFF76BFE0646386881035F
:102AB00040F1ED80FFF764FE801B6528F6D3AEE79A
:102AC000E86880B1396841F480713960FFF758FED9
:102AD00006463868410500F1ED80FFF751FE801B86
:102AE0000328F6D39BE7386820F480703860FFF73E
:102AF00047FE06463868410540F1E380FFF740FE97
:102B0000801B0328F6D38AE7400840006060FFF787
:102B100037FE06466068810740F1E580FFF730FE2A
:102B2000801B0328F6D37AE70528206806D140F0F9
:102B300004002060216841F0010105E040084000E8
:102B40002060216821F004012160A86841F28938E1
:102B500068B1FFF715FE82462068810700F1F78013
:102B6000FFF70EFEA0EB0A004045F5D357E7FFF74D
:102B700007FE82462068810740F1E980FFF700FEEA
:102B8000A0EB0A004045F5D349E7FFF7F9FD801BAC
:102B90000328C0F0EF8042E740084000A060FFF744
:102BA000EFFD0646A068810740F1E880FFF7E8FDE9
:102BB000801B0328F6D332E7FFF7E2FD801B0328D2
:102BC000C0F0EC802BE7FFF7DBFD801B0328C0F093
:102BD0000F8124E7396811F0205F03D1F86880087D
:102BE0008000F860F968DFF8C8040140F960FFF779
:102BF000C7FD06463868810140F1FE80FFF7C0FD41
:102C0000801B0328F6D30AE7012829D0F868EA6A6E
:102C100000F00301914201BF00F070012A6B521EC7
:102C2000B1EB021F1CD16A6B00F4FE41B1EB022F25
:102C300002BF00F07841AA6BB1EBC26F10D1EA6B12
:102C4000520800F4C001521EB1EB425F08D1296C5A
:102C5000490800F0C060491EB0EB416F00F0CC8025
:102C60000120CAE000F0CBF82878C1070FD5B9F1F0
:102C7000080F06D0B9F10C0F08BFB8F1030F7FF4AD
:102C8000E8AE3868810302D568680028E8D0297862
:102C9000880716D5B9F1040F06D0B9F10C0F08BF9B
:102CA000B8F1020F7FF40CAF3868410502D5E8682F
:102CB0000028D5D07868296920F0FE4040EA0160FC
:102CC0007860287801070ED56869002860683FF4AD
:102CD0001BAF40F001006060FFF752FD06466068E0
:102CE00081077FF59EAE2878410735D5B86D00265F
:102CF000C10009D4B86D40F08050B8650126B86DA8
:102D000000F0805000900098DFF8A883D8F8000009
:102D1000C10513D4D8F8000040F48070C8F8000052
:102D2000FFF72EFD8246D8F80000C10506D4FFF754
:102D300027FDA0EB0A000328F5D370E6A868012858
:102D40007FF4F2AE206840F001002060FDE61EB185
:102D5000B86D20F08050B865287881060ED5686A75
:102D60000028A0683FF418AF40F00100A060FFF712
:102D700007FD0646A06881077FF507AFA86AD8B3AC
:102D8000B9F10C0F3FF440AF0228386820F0807092
:102D900038607FF41FAFFFF7F3FC06463868810107
:102DA0003FF50AAFFA68DFF81013E86A0A40296BAA
:102DB0000243491E686B42EA0112E96B490842EA84
:102DC0000022286C491E400842EA4152401E42EA55
:102DD0004062A86B42EAC062FA60396841F08071D3
:102DE0003960F86840F08070F860FFF7C9FC06466B
:102DF000386881017FF5E7AE0020BDE8F6873868C6
:102E000040F0080038603968286A21F0F001014379
:102E100039607968E86921F47F4141EA00217960ED
:102E200070472DE9F0410400884678D0DFF88C62C5
:102E3000306800F00700404509D23168C90848EA07
:102E4000C1013160306800F00700404567D120784B
:102E5000DFF84852C1074AD56068032802D12968C3
:102E60008A0108E0022802D129688A0303E00028C9
:102E7000296802D18A0702D451E04A054FD5A968D2
:102E8000890840EA8100A860FFF77AFC0746A86835
:102E9000616800F00C00B0EB810F28D0FFF770FCE8
:102EA000C01B41F289318842F1D303201DE0207814
:102EB000410705D5AA68E06822F4E0620243AA60EF
:102EC0002178080706D5A968206921F4605141EAF4
:102ED000C001A96000F02FF8AA6800F022F8BDE850
:102EE000F0417048006800F0EFBBBDE8F081207849
:102EF000810705D5AA68A06822F0F0020243AA6003
:102F0000316801F007018845D1D23068C00848EA2D
:102F1000C0003060316801F007014145C7D0012091
:102F2000E3E76749C2F30312895C5D4A01F01F01C0
:102F3000C8401060704770B5584A634B9068D668B7
:102F40000025002110F00C0006F003065F4C03D0B2
:102F50000C2812D1012E1AD115682E0704D4524D17
:102F60002E68C6F3032502E01568C5F30315584E15
:102F700056F8255048B9294624E0042808BF2146C0
:102F800020D008281ED119461CE00C281AD1D06880
:102F900000F00300022803D0032808BF1D4600E00C
:102FA0002546D168D068D268C0F306204543C1F3F6
:102FB0000210C2F34161401C491CB5FBF0F049000E
:102FC000B0FBF1F1084670BD35483E4A0068136811
:102FD0004049C3F3022206E031483A4A00681368C8
:102FE0003C49C3F3C222895C01F01F01C84070470D
:102FF00010B50F220260334A136803F003034360E5
:10300000146804F0F0048460136803F4E063C360A0
:103010001268D20802F4E06202612848026802F0F5
:1030200007020A6010BD7CB52B4E054630680024AF
:10303000C10002D500F00AFA0EE0306840F080507E
:103040003060316801F080510091009800F0FEF985
:10305000316821F080513160B0F5007F04D1802DBE
:103060000CD9A12D09D304E0802D88BF032405D8F5
:1030700001D1022402E0702D00D101240F48016823
:10308000C90844EAC1010160006800F00700A042DD
:1030900001D0012076BD002076BD00000010024066
:1030A000A0000020980000209410024090100240E0
:1030B000FFFFEEFE007000408C809D01002002406A
:1030C000705100080810024000127A000024F40039
:1030D0008051000898520008581002407FB500F057
:1030E0002FFB00F06DF8984C984D606840F0400060
:1030F0006060606800F040000090009800F0DBF92C
:10310000934828604FF4E1310C2000226861696027
:10311000AA60EA602A61AA612A626A622846FEF70A
:1031200025FE00B1FEE720688A4E40F002002060D4
:1031300000222168884C01F00201009105210098CD
:10314000452000F04DF9452000F067F96846002160
:103150000022002380E80E008048A062E16242F273
:103160000F702063E163666204F1240000F0F8FA56
:1031700000B1FEE700210091029104F124006946AC
:1031800000F050FC00B1FEE7012221462846FEF780
:10319000B8FE00220121012000F0AEFC606600B9FB
:1031A000FEE704F1840003210190009100238022B6
:1031B0006EA10FF29D0000F073FE00F037FFFEE7F6
:1031C00018B5B9B0664C05A821464422FEF7BAF8F6
:1031D0006846142100F036F916A804F144018C2247
:1031E000FEF7B0F801210B91002260210D910C92A5
:1031F00001211091119110200590022228210F9297
:10320000129113921492159205A8FFF7ADFB00B12D
:10321000FEE70F2003210090019100220292039209
:10322000049204216846FFF7FCFD00B1FEE720216F
:1032300000221691299216A801F08CF900B1FEE740
:103240004FF4007000F008F900B1FEE73AB010BD8D
:103250002DE9F0475FF000070FF23C144CA50FF288
:103260001C190FF2101ADFF8E4803B4E16E005221D
:103270002946301D01F016FC58B906F1240000F073
:1032800090FA30B9122221464046FEF70AFE00208D
:1032900070702021301D00F0D5F80027706E0022DC
:1032A000314600F0A6FC0028F8D03078311DFAB283
:1032B0000A28885416D164234046FEF797FD06225B
:1032C0005146301D01F0EEFB0028D0D106F124005C
:1032D00000F053FA0028DCD1122249464046FEF79E
:1032E000E0FDD6E77F1CD9E710B51B4C606E0023CC
:1032F0000022214600F02EFC2146BDE810400122AC
:103300001248FEF7FEBD10B500681649884203D189
:10331000BDE8104001F0D6BB0E49884211D10E4CD9
:10332000637808A21A2104F17F0001F0D3FB1A226E
:1033300004F168010548FEF7B4FD10B96078401C3F
:10334000607010BD2564000048100240701000201D
:103350000080004000140040000000207F38010081
:103360005450000800100040FEE700005461736BE9
:103370002031000073746172740A00000D0A5374E6
:10338000617274696E672054696D65720D0A000080
:1033900073746F700A0000000D0A53746F707069C7
:1033A0006E672054696D65720D0A00000901020004
:1033B00002D41F48815470471E4B02F00F021A447A
:1033C00002F8041C70471C4B19684FF6FF020002FC
:1033D000114000F4E0600843184908431860704742
:1033E00038B5154B1C68C4F30223C3F10704052C40
:1033F00028BF04241D1D072D34BF0023DB1E01251B
:1034000005FA04F4641E2140994005FA03F35B1E9B
:103410001A401143BDE83440C8E7010007D4012237
:1034200000F01F01064B8A40400943F820207047F6
:1034300000E400E018ED00E00CED00E00000FA050B
:1034400000E100E0002201F067BB0000DFF884002B
:10345000006800F4C060704710B5DFF87810B0F570
:10346000007F086800F4C06015D1B0F5007F1BD064
:103470000868DFF86420DFF8644020F4C06040F49E
:10348000007000F01FF84A6953050FD5002818BFD7
:10349000401EF8D10AE0B0F5806F05D0086820F42E
:1034A000C06040F480600860002010BD486941059C
:1034B000FAD5032010BDDFF82800016841F400713F
:1034C000016070470860322013684343B3FBF4F097
:1034D000401C704700700040A000002040420F00D8
:1034E000047000402DE9F84700266D4A0F2304467A
:1034F000884632E06B4DAC4214BF082507258D404D
:1035000045EA0E054CF82750C74367490D6800F09F
:10351000C2F8ED0348BF40EA0C0CC1F800C04D688A
:1035200000F0B9F8AD0348BF40EA0C0CC1F804C084
:103530008D6800F0B0F8ED0248BF40EA0C0CC1F80D
:1035400008C0CD6807EA050CD8F80470BD0248BF72
:1035500040EA0C0CC1F80CC0761CD8F8001031FA07
:1035600006F000F096800127B74017EA0100F3D07B
:10357000D8F80450B100022D18BF122D12D1F50851
:1035800004EB850C01F01C05DCF820E0D8F810A055
:1035900003FA05F92EEA090E0AFA05F545EA0E05C1
:1035A000CCF820504FEA460C4FF0030E256898F8EF
:1035B00004900EFA0CFE6FEA0E0E09F003090EEAF3
:1035C000050509FA0CF949EA05052560D8F8045003
:1035D000012D18BF022D03D0112D18BF122D13D1AC
:1035E000A568D8F80C900EEA050509FA0CF949EA25
:1035F0000505A560656825EA0707D8F80450C5F3F6
:103600000015B5402F436760E7680EEA0705D8F854
:10361000087007FA0CF73D43E560D8F80450EF0056
:103620009AD51568DFF884C045F00105156001F0F2
:103630000C01176807F00107009703FA01FE009FCD
:10364000B7085CF8275025EA0E0EB4F1904F08BF7A
:1036500000251DD0164DAC4208BF012518D0154DD0
:10366000AC4208BF022513D0134DAC4208BF03255E
:103670000ED0124DAC4208BF042509D0104DAC420B
:1036800008BF052504D00F4DAC427FF433AF0625AB
:1036900035E7BDE8F18707EA050CD8F80450704714
:1036A00060100240001C0048000401400800014076
:1036B0000004004800080048000C004800100048C2
:1036C000001400480018004818B5014687B00022D1
:1036D0003620FFF785FE3620FFF79FFE1448154C75
:1036E000016841F01001016001A9006800F01000BC
:1036F0000090009802A8FFF77BFCFFF765FC0E49DD
:103700000E4B2160B0FBF3F0401E40F2E7326060E8
:103710000021E2602161A160204600F021F818B983
:10372000204600F02AF800E0012008B010BD00009B
:1037300058100240381100200010004040420F0095
:10374000032010B5FFF73FFE0020FFF7BDFF002468
:10375000002814BF0124FEF787FF204610BD00009B
:1037600038B5040001D1012032BD00F03DF818B990
:1037700000F036F8FEF7E5FF28E00168C86840F081
:103780000100C8608A68DFF868000240062A18BF96
:10379000B2F5803F03D0086840F0010008600020C7
:1037A00070470068C16849084900C16041F21112C0
:1037B000016A114202BF016A40F24442114203D140
:1037C00001684908490001600020704702206870C4
:1037D000211D206800F0BFF801206870002032BD74
:1037E000002129702046704704F13C056878704735
:1037F0000700010010B50446206801698A0715D545
:10380000C1688A0712D56FF0020101610122227797
:10381000806910F0030F204602D001F096F903E012
:1038200001F094F900F094F80020207720680169F5
:103830004A0715D5C1684A0712D56FF00401016126
:1038400002222277806910F4407F204602D001F0E6
:103850007CF903E001F07AF900F07AF80020207793
:10386000206801690A0715D5C1680A0712D56FF0EB
:103870000801016104222277C06910F0030F20467D
:1038800002D001F062F903E001F060F900F060F8A5
:103890000020207720680169CA0615D5C168CA06CC
:1038A00012D56FF01001016108222277C06910F46F
:1038B000407F204602D001F048F903E001F046F9CC
:1038C00000F046F80020207720680169CA0708D573
:1038D000C168CA0705D56FF0010101612046FFF7F5
:1038E00012FD206801690A0608D5C1680A0605D5D7
:1038F0006FF080010161204601F029F9206801691B
:10390000CA0508D5C1680A0605D56FF48071016142
:10391000204601F01DF9206801694A0608D5C168F2
:103920004A0605D56FF040010161204601F011F90A
:10393000206801698A060AD5C1688A0607D56FF032
:10394000200101612046BDE8104001F003B910BD1F
:10395000204601F000B92DE9F043DFF8A870D0F857
:1039600000C0DFF8A430DFF8A440DFF8A450DFF88F
:10397000A460DFF8A4E0DFF8A480DFF8A490B842E8
:1039800018BFB0F1804F07D0484518BF404503D05D
:10399000704518BFB0420ED14A68B8422CF0700C86
:1039A00018BFB0F1804F42EA0C0C0CD048451CBF48
:1039B0004045704507D0B04218BFA84203D0A0428E
:1039C00018BF984204D1CA682CF4407C42EA0C0C1F
:1039D0004A692CF0800C42EA0C020260B8428A6804
:1039E000C26218BFB0420A68826204D0A8421CBFFB
:1039F000A042984201D10969016301224261BDE8F8
:103A0000F0830000002C01400048014000440140C8
:103A10000040014000340140000C0040000800401C
:103A200000040040F0B500F13C031A78012A01D1EE
:103A30000220F0BD01221A7002245C700E4A046854
:103A40006568A66894421CBF0C4FBC4203D14A680B
:103A500025F47005154325F070058A6809680D4343
:103A6000656026F080060068164386600121597063
:103A700000201870F0BD0000002C0140003401400F
:103A800038B504000D4602D100F04CF9FEE701F014
:103A9000D7F8E26B206C21684243881860600021EF
:103AA000A1632068E26BA060521E206C2168424333
:103AB0008818E0604FF0FF3104F14400017041705C
:103AC00075B92069A0B104F1100000F0DDFB78B1F8
:103AD000DFF86C134FF08050086000F01EF907E02B
:103AE00004F1100001F032F904F1240001F02EF984
:103AF00001F0BFF8012032BDF8B506000D461746AB
:103B000002D100F00FF9FEE7002D0EBF482005FBA3
:103B100006F0483001F064F904000AD0002084F86F
:103B2000460000943B4604F148022946304600F026
:103B300002F82046F2BD82B0029B01B91A461A6013
:103B4000D86319641846012102B099E703A96846B1
:103B500000F0CFBB2DE9F8430446884615461E46C3
:103B6000502714B900F0D7F8FEE7B8F1000F01D1E3
:103B7000206C20BB022E02D1E06B012822D101F083
:103B80009DF8EFF3118900F02AF801D3022E21D11C
:103B900094F9457032464146204600F0CBF817F1C3
:103BA000010F12D1606A98B104F1240000F06CFB9F
:103BB000002818BF002D0BD00120286008E000F07D
:103BC000AAF8FEE700F0A7F8FEE77F1C84F845702E
:103BD000012000E0002089F31188BDE8F28387F31B
:103BE0001188BFF34F8FBFF36F8FA06BE16B8842DB
:103BF00070472DE9F74306460F460024502526B9A5
:103C000085F3118800F089F8FEE70FB9306C48B9E8
:103C100000F0EDFB78B9029868B185F3118800F0E7
:103C20007CF8FEE785F3118800F077F8FEE700F0F6
:103C300070F800F02FFA01F003F8B56B00F057F8B8
:103C400025B90298B8B901F014F84DE0394630466C
:103C500000F0A4F86D1EB563306940B106F11000A4
:103C600000F012FB18B1C8F8009000F056F801F00F
:103C700000F8012039E014B900F03EF8012400F00A
:103C8000F8FF00F001FA00F0DBFF06F144004157B5
:103C900011F1010F04BF0022027000F030F804BFE0
:103CA0000022427000F0E5FF02A9FFF750FF002854
:103CB000304610D100F0B8F80028B8D000F024F851
:103CC00000F027F800F0E6F90028B4D1C8F8009019
:103CD00000F023F8AFE700F075F800F0DBF93046AC
:103CE00000F0A2F80028A6D00020BDE8FE83DFF88F
:103CF00050814FF080597047684600F0F3BA90F950
:103D0000011011F1010F7047029906F1240000F033
:103D10009CBA304656E087F31188BFF34F8FBFF34C
:103D20006F8F7047502080F31188BFF34F8FBFF320
:103D30006F8F7047F8B506461546B46B326C002796
:103D400042B9306830BB706800F060FB0021074664
:103D500071601FE065B9B068FDF7F4FAB068316CC6
:103D6000726808449042B06014D33068B06011E0CB
:103D7000F068FDF7E7FA306CF16840420144F16009
:103D80003268914202D271680844F060022D01D17C
:103D900004B1641E641CB4633846F2BD026C002A90
:103DA0000B4600D1704710B5C16844681144C1602A
:103DB000A14224BF0168C160C168BDE81040184637
:103DC000FDF7C0BAF8B5054600F03AFF05F1440426
:103DD00094F9016070B2012815DB686A98B105F1A9
:103DE000240000F051FA08B100F0B6FA761EF1E7AF
:103DF0002869A0B105F1100000F046FA08B100F002
:103E0000ABFA7F1E08E04FF0FF36667000F031FF1E
:103E100000F016FF94F9007078B20128E8DA2670F5
:103E2000BDE8F14000F025BF10B5044600F008FFE2
:103E3000A06B441EA44100F01CFFE00F10BD000069
:103E400004ED00E0F0B585B050260B9D25B986F352
:103E5000118800F014FAFEE70C9C24B986F311884F
:103E600000F00DFAFEE754270097009F542F04D06E
:103E700086F3118800F003FAFEE70A9E2563002707
:103E8000022584F851500397029404AD01950096E1
:103E900000F034F8204600F06DF8049805B0F0BD4D
:103EA0002DE9F8430646174684B088469946B8007F
:103EB00000F096FF05001CD0542000F091FF040094
:103EC00014D00D990C982563002284F85120039298
:103ED0000191009002944B463A464146304600F02C
:103EE0000DF8204600F046F8012004E0284600F0D6
:103EF000FFFF4FF0FF3005B0BDE8F0832DE9F0473C
:103F00000A9E8146306B00EB8202101FC0084FEA08
:103F1000C00A00228C5CB01880F83440885C10B174
:103F2000521C102AF6D3089D002086F84300062D67
:103F3000099C88BF062506F14407F5623D6078605C
:103F40009846301D00F00FFF06F1180000F00BFF3F
:103F50003661C5F10705B56176620020B860387337
:103F600042464946504600F0F7FD306004B12660F5
:103F7000BDE8F0872DE9F04100F050F8DFF83C553E
:103F8000DFF85085E86C401CE8641426A86A28BB5A
:103F9000AC62E86C012829D1002706FB07F04044F9
:103FA00000F0D4FE7F1C072FF7D305F1740000F05A
:103FB000CDFE05F18807384600F0C8FE284600F01F
:103FC000C5FE05F1140000F0C1FE05F1380000F057
:103FD000BDFE05F17400E8622F6307E0A86D28B903
:103FE000E06AA96ACA6A904228BFAC62A86E401C07
:103FF000A86600F057FA4643211D08EB060000F0C2
:10400000B5FE00F036FEA86D30B100F066F903D2BF
:1040100000F059FA00F033F9BDE8F081044600F0F1
:104020000FBE211D142042439818704780B586B0FA
:1040300000210591049103AA04A905A800F0A8FF96
:104040000598049902900022009201910023039A9E
:104050000FF2F8410FF20D30FFF7F4FE70B100F0EF
:104060000FF800F00CF9DFF8D4044FF0FF31C1660F
:10407000012282650021016500F090FD07B000BDBE
:10408000502080F311887047DFF8B004016F491C9D
:104090000167704770B5DFF82464306F0024002595
:1040A00020B900F043F800F0EAF8FEE700F0C8FDA0
:1040B000306F401E3067306F002836D1F06CD8B9B1
:1040C00033E0F068C46800F035F800F09CF9E06A6D
:1040D000716DDFF86434012282401143716514224E
:1040E0005043211D184400F041FEE06AB16ACA6ADB
:1040F000904224BF0121316630680028E1D10CB123
:1041000000F068F9F46D3CB100F018F808B1012036
:104110003066641EF8D1F565306E30B1DFF82014DA
:104120004FF08050012500F0A9F8C2E1502181F341
:104130001188704704F1180000F03EBE2DE9F843E5
:10414000DFF87873386F002600284ED13C6D641C70
:104150003C6510D1F86A006820B1FFF7E7FF00F076
:104160008EF8FEE7F86A396BF9623863786E401CA6
:10417000786600F02FF9F86EDFF8BC9384424FF0B8
:10418000140825D31AE0281D00F016FEA86A18B1FD
:1041900005F1180000F010FEE86A796D01228240F6
:1041A0001143796508FB00F0291D484400F0DEFD4D
:1041B000E86AB96ACA6A904228BF0126F86A0068AC
:1041C00080B1F86AC168CD6868688442DBD2F8665D
:1041D000B86AC06A08FB00F059F80010022907D33A
:1041E000012605E04FF0FF30F1E7F86D401CF8655F
:1041F000386E00B1012663E1DFF8C022106F10B104
:1042000001211166704710661421506DB0FA80F3D9
:10421000C3F11F034B43DFF82013C85838B95021AE
:1042200081F31188BFF34F8FBFF36F8FFEE7C8187C
:1042300000F10803416849684160994204BF496838
:1042400041604068C1689162704710B50C4620B962
:10425000FFF716FF00F013F8FEE7DFF86022936A1D
:1042600003F1180100F08FFD2046BDE81040FFE784
:10427000012131E1DFF8C8124FF080500860BFF330
:104280004F8FBFF36F8F704738B5C068C46824B9CB
:10429000FFF7F6FEFFF7F3FFFEE7FFF74BFFDFF850
:1042A0001C52286F60B900F0AEF8E26A686DDFF862
:1042B00088320121914008436865FFF7B2FE02E0B1
:1042C00004F11801284600F051FD00F006F802D272
:1042D0000120286632BD002032BDA86AC16AE06AAA
:1042E00081427047DFF854124A6E0260096D4160E6
:1042F0007047F8B504460D46502024B980F3118864
:10430000FFF7BDFFFEE725B980F31188FFF7B7FF80
:10431000FEE700F095FCDFF82402016D62682E686C
:104320008B1A16F1010F0ED0476ED4F800C0674506
:1043300001D091420BD2B34207D2F31A2B60416EE7
:104340002160006D6060002402E0002028600124EC
:1043500000F08FFC2046F2BDDFF8E0110120086676
:104360007047000070B5DFF86C41DFF8D05111E004
:1043700000F066FC286AC668301D00F01DFDE86C80
:10438000401EE864686B401E686300F072FC3046B3
:1043900000F009F8686B0028EAD121680229F9D3F6
:1043A000FFF768FFF6E710B5044694F8510040B9EE
:1043B000206B00F09DFD2046BDE8104000F098BD48
:1043C00010BD0128F7D00228FAD0FFF759FEFFF7F9
:1043D00056FFFEE73949C86A006810B94FF0FF324E
:1043E00003E0C86AC268D0684268CA667047DFF8EE
:1043F0004C11886D08B901207047086F08B9022078
:10440000704700207047201D00F0D6BC2DE9F04118
:1044100004460021002C32D0284DA86A5022844244
:1044200004D082F31188FFF72AFFFEE7A06C20B9C1
:1044300082F31188FFF723FFFEE7E26A636C401EF8
:104440009A42A0641BD0D0B9FFF7DDFF01261427E4
:10445000DFF8E480002801BFE16A07FB01F258F8A9
:104460000200002800F016F8606CE062C0F107005E
:10447000A061E06A696D864000F004F801210846F9
:10448000BDE8F0810E4347436E65211D08EB070030
:1044900000F06CBC05D1686D06FA01F120EA01015B
:1044A000696570470122E06A696D82401143696560
:1044B000704700F0DEFB284670BD0000480F00206A
:1044C0003046BDE8F2831E4A4FF0805111607047BC
:1044D00000000000E40F0020F8B5184D2F6D0C46C9
:1044E000A96A0646081D00F067FC30B9A86A696D24
:1044F000C06A012282409143696516F1010F05D11E
:1045000024B1A86A011D05F138001BE0A86AF6195C
:104510004660BE42A86A05D2011D286BBDE8F44082
:1045200000F031BC011DE86A00F02DFCE86E864207
:1045300038BFEE66F1BD0000E40F0020480F0020F8
:1045400004ED00E0BDE8F44000F010BC49444C45E7
:10455000000000002DE9F84F064600243068DFF81F
:1045600050730105A04621D5B06E70B1B0F5800F33
:1045700017D0B0F5000F03D0B0F5400F09D013E00D
:104580003A6842F480323A6004E0002100F08DF98C
:10459000044654B9F96FB06E21F440010143F96744
:1045A00004E000F07CF9F3E70124A0463068C10480
:1045B00021D5F06EA8B1B0F1807F17D0B0F1007FA7
:1045C00003D0B0F1407F04D013E0396841F480316A
:1045D00039607CB9F96FF06E21F040710143F967E1
:1045E00009E0002100F061F90446F2E700F057F914
:1045F000FAE70124A0463068DFF8B85281032ED5CF
:10460000F86CC1004FF000090AD4F86C40F08050FB
:10461000F8644FF00109F86C00F0805000900098A9
:10462000DFF894A2DAF8000040F48070CAF80000C5
:10463000FEF7A6F88346DAF80000C10500F1028112
:10464000FEF79EF8A0EB0B000328F4D30324A0464A
:10465000B9F1000F03D0F86C20F08050F864307886
:10466000C10705D5FA6FB06B920840EA8202FA677B
:104670003178880705D5F96FF06B21F00C01014303
:10468000F9673178480705D5F96F306C21F03001B2
:104690000143F9673178080705D5F96F706C21F08F
:1046A000C0010143F9673178C80605D5F96FB06CD0
:1046B00021F440710143F9673178880605D5F96F17
:1046C000F06C21F440610143F9673168880505D534
:1046D000F96F306E21F440210143F96731684805D4
:1046E00005D5F96F706E21F440110143F9673178F7
:1046F000480605D5F96F306D21F440510143F96743
:104700003178080605D5F96F706D21F440410143F9
:10471000F9673168C80505D5F96FB06D21F44031EE
:104720000143F9673168C80205D5E968F06D890869
:1047300040EA8101E9603168880420D5F96F306F63
:1047400021F040610143F967306FB0F1006F0ED185
:1047500000F0A0F813E0FEF713F8A0EB0B0041F215
:1047600089318842C0F08B804FF0030870E7B0F1C8
:10477000806F04D100F098F8010018BF80463068BF
:10478000010314D5FA6F706F22F040620243FA679A
:10479000706FB0F1006F02D100F07CF807E0B0F16B
:1047A000806F04D100F080F8010018BF80463068A7
:1047B000410314D5FA6FB06F22F040620243FA67EA
:1047C000B06FB0F1006F02D100F064F807E0B0F113
:1047D000806F04D100F068F8010018BF804630688F
:1047E000410418D5FA6FF06F22F040520243FA6785
:1047F000F06FB0F1805F03D1022100F056F807E0BE
:10480000B0F1005F07D1022106F1200000F0BAF8F4
:10481000010018BF80463068010406D5FA6FD6F84B
:10482000800022F080420243FA673168C80306D54F
:10483000F96FD6F8840021F000410143F967404642
:10484000BDE8F28F002C7FF402AF286810F44070AE
:1048500006F184041CBF616888420BD0286829686F
:1048600041F48031296020F440702A6822F48032BB
:104870002A602860C00706D5FDF782FF83462868B6
:1048800081077FF568AF2A68606822F440720243AE
:104890002A60DDE6386840F48010386070470021F7
:1048A00006F1200000F06EB80121301D00F006B8BE
:1048B0000C10024090100240007000402DE9F041C1
:1048C00000F0DBF809D0F16801F0030181422BD13F
:1048D00050B300F0CBF80CD026E0012804D023D34D
:1048E00003281BD016D31FE0326891071CD500F0B7
:1048F000B3F8306820F0806000F0C8F88046306877
:10490000010133D5FDF73CFFA0EB08000328F6D3E7
:10491000032536E031684A05E9D405E031688A03A9
:10492000E5D431684A03E2D401252AE0012C32693A
:1049300009D13B69584802405B0842EA01215B1EED
:1049400041EA435102E07B6900F07DF83161306853
:1049500040F0806000F09AF80446306801010CD401
:10496000FDF70EFF001B0328F7D3D1E7B968002C31
:10497000DCD1326900F05FF8E8E73169B8690143DA
:10498000316155E02DE9F04100F077F809D0F16888
:1049900001F0030181422BD150B300F067F80CD035
:1049A00026E0012804D023D303281BD016D31FE010
:1049B000326891071CD500F04FF8306820F0805025
:1049C00000F064F880463068810026D5FDF7D8FEF7
:1049D000A0EB08000328F6D3032529E031684A0537
:1049E000E9D405E031688A03E5D431684A03E2D4AA
:1049F00001251DE03B6900F026F87161306840F048
:104A0000805000F043F80446306881000CD4FDF774
:104A1000B7FE001B0328F7D3DEE7B9687269002CE4
:104A2000E8D100F008F8E8E771697869014371613D
:104A30002846BDE8F0811948FB68024042EA01219E
:104A400041EAC3617047164802405B0842EA01210F
:104A50005B1E41EA43617047F268796822F0730295
:104A60001043491E40EA0110F0607047F068796811
:104A7000C0F30210401C884270470746054E386854
:104A80000C46F168002511F0030F70473060FDF708
:104A900077BE000000100240FF809FFFFF80FF07ED
:104AA000FF80FFF903000020521E22BF13F8010B04
:104AB00011F801CBB0EB0C00F6D0521C08BF104629
:104AC0007047000002490A68886882180A607047C7
:104AD0009400002008B438B585B009AC00250494D2
:104AE000039500290EBF01950190491E0291009582
:104AF00004AB01A9074878441A30FBF757FB01992A
:104B000001B10D70002858BF039806B030BC5DF8A5
:104B100008FB00BF17C8FFFF00B500BF1300964693
:104B20009446103928BFA0E80C50FAD85FEA417CBF
:104B300028BF0CC048BF40F8042BC90728BF20F885
:104B4000022B48BF00F8012B00BD7047704770472B
:104B50007047704770477047490810B54900A0F189
:104B600020034FF0807499611A60DC616FF00202DB
:104B70000FF20D01596140F8242D203810BD0000BE
:104B80005B494A68502012F1010F80F31188BFF38E
:104B90004F8FBFF36F8F00D0FEE7FEE77CB5554A1D
:104BA000554B10685021984202D100F0B3F8FEE74F
:104BB0001068524B984202D100F0ACF8FEE7504B1F
:104BC0001C780194FF251D7007251E78484C8DF830
:104BD00000609DF80000A56000F05000207006E025
:104BE000401EA0609DF8000040008DF80000A06805
:104BF0009DF800502E06F3D4C0F10705042D02D015
:104C000000F088F8FEE7000200F4E060A060019880
:104C10001870116A41F470011162106A40F070401E
:104C2000106200F07FF80020606000F005FA35485F
:104C3000016841F04041016000F0EEF9002076BDCE
:104C4000502080F31188BFF34F8FBFF36F8F284937
:104C50004A68521C012A4A600AD12B490A68130685
:104C600006D080F31188BFF34F8FBFF36F8FFEE73D
:104C700070471F49486838B9502080F31188BFF346
:104C80004F8FBFF36F8FFEE7401E486008BF80F371
:104C90001188704780B5502080F31188BFF34F8F83
:104CA000BFF36F8FFFF74AFA18B117494FF08050E2
:104CB0000860002282F3118801BD000010B5EFF3F7
:104CC0000580502110280A4A07D3104B185C14782D
:104CD000A04202D200F01EF8FEE790680C4A13686A
:104CE00003F4E063984202D200F014F8FEE710BD2E
:104CF0008800002000ED00E071C20F4170C20F413A
:104D000000E400E034EF00E004ED00E0F0E300E058
:104D10000CED00E081F31188BFF34F8FBFF36F8F6D
:104D2000704700000748084B0021016081604FF484
:104D30007A721968B1FBF2F2521E426007210160DB
:104D4000704700BF10E000E0A00000204FF0FF32ED
:104D500000F1080182604160C16000F10802026157
:104D600000210160704700210161704710B5426861
:104D70004A6093688B609468616091600861016823
:104D8000491C016010BD30B50A6812F1010F08BF5F
:104D9000036907D000F1080300E023465C6825683A
:104DA000AA42FAD25A684A6091608B6059600861E1
:104DB0000168491C016030BD4368016982689A60DE
:104DC000836842685A604A68824204BF83684B60C5
:104DD000002202610868401E0860086870470000F1
:104DE0002DE9F8430446FFF74FF9684FB8684FF0D4
:104DF0000009002500BB07F1180307F1180113F0A3
:104E0000070F40F6B8300A4604D0CA1DD208D200B7
:104E1000801A081880180838C008C0003A607D6001
:104E2000B86045600560831A53601060506838614F
:104E3000F8604FF0004078614FF050087869044204
:104E400033D194B3083414F0070F1FBF04F10800E6
:104E500004F00704041B14F0070F02D000F041F81F
:104E6000FEE714B3F868A0421FD33E683946706865
:104E7000A04223D2306800281CBF31460646F6D136
:104E80001CE0301D02517460084600F05BF8716848
:104E9000F8683A69401AF860904238BF386178691A
:104EA00001437160356009F00705FFF7F3F815B1AC
:104EB00000F017F8FEE74846BDE8F283B86886427E
:104EC000F3D00A683068086002F108097268121BA2
:104ED000112ADCD3311911F00700D2D000F001F80B
:104EE000FEE788F31188BFF34F8FBFF36F8F7047D2
:104EF000002800D1704738B5A0F10804234D61683F
:104F00006A695023114202D100F015F8FEE72068CB
:104F100010B100F010F8FEE791436160FFF7B4F8BC
:104F2000E96860684118E960204600F00BF8BDE8C8
:104F30003140FFF7AFB883F31188BFF34F8FBFF352
:104F40006F8F704730B511490A4600E01A46136862
:104F50008342FBD35368D418844203D14068C318FA
:104F60005360104643681468C518A54208D1896883
:104F70008C4204D06168CB184360246800E00C4682
:104F80000460824218BF106030BD00002401002080
:104F9000034B036003F154000860802111607047E7
:104FA000F40C0020EFF30980BFF36F8F264B1A68D3
:104FB0001EF0100F08BF20ED108A20E9F04F10609E
:104FC00009B44FF0500080F31188BFF34F8FBFF347
:104FD0006F8FFFF711F94FF0000080F3118809BCC3
:104FE00019680868B0E8F04F1EF0100F08BFB0EC69
:104FF000108A80F30988BFF36F8F7047124B1968CE
:105000000868B0E8F04F80F30988BFF36F8F4FF066
:10501000000080F3118870470C480068006880F336
:1050200008884FF0000080F3148862B661B6BFF3C1
:105030004F8FBFF36F8F00DFDFF81400016841F47A
:105040007001016070470000700F002008ED00E063
:1050500088ED00E0000000000000000000000000FB
:105060000000000000000000000000000000000040
:105070000000000000000000000000000000000030
:105080000000000000000000000000000000000020
:105090000000000000000000000000000000000010
:1050A0000000000000000000000000000000000000
:1050B00000000000000000000000000000000000F0
:1050C00000000000000000000000000000000000E0
:1050D00000000000000000000000000000000000D0
:1050E00000000000000000000000000000000000C0
:1050F00000000000000000000000000000000000B0
:10510000000000000000000000000000000000009F
:10511000000000000000000000000000000000008F
:10512000000000000E48016841F470010160002297
:105130000C49086840F0010008608A604FF4805212
:105140000B68094803400B60CA6000200B68074ADF
:1051500023F480230B6088614FF000611160704779
:1051600088ED00E000100240FFFFF6EA08ED00E0E5
:105170000000000000000000010203040607080907
:10518000A0860100400D0300801A060000350C00C7
:1051900040420F0080841E0000093D0000127A008A
:1051A0000024F40000366E010048E801006CDC02C7
:1051B0007047FEE7FEE7FEE7FEE770470448FEF7AC
:1051C00019BB0448FDF769BB0348FCF7ECBE0000BF
:1051D00038110020F01000207010002010B5074991
:1051E00079441831064C7C44163404E00A68081DE2
:1051F000114488470146A142F8D110BD2C0000009F
:10520000480000004EF68851CEF20001086840F4D4
:1052100070000860BFF34F8FBFF36F8F4FF00070C7
:10522000E1EE100A70470000D3BFFFFF58100000E6
:105230002401002000000000BBBEFFFFCA010000E7
:10524000B40000000000002000F00DF8002801D09C
:10525000FFF7C4FFAFF300800020AFF30080FDF73D
:105260003DFF00F002F80120704700F001B8000097
:1052700007463846FCF770FDFBE700000148804711
:1052800001480047255100088D520008AFF3008007
:10529000FFF7B8FFFFF7D8FF00000000010203048A
:1052A00000002E004300FFF7FEBFFFF7FEBFFFF731
:1052B000FEBFFFF7FEBFFFF7FEBFFFF7FEBFFFF722
:1052C000FEBFFFF7FEBFFFF7FEBFFFF7FEBFFFF712
:1052D000FEBFFFF7FEBFFFF7FEBFFFF7FEBFFFF702
:1052E000FEBFFFF7FEBFFFF7FEBFFFF7FEBFFFF7F2
:1052F000FEBFFFF7FEBFFFF7FEBFFFF7FEBFFFF7E2
:10530000FEBFFFF7FEBFFFF7FEBFFFF7FEBFFFF7D1
:10531000FEBFFFF7FEBFFFF7FEBFFFF7FEBFFFF7C1
:10532000FEBFFFF7FEBFFFF7FEBFFFF7FEBFFFF7B1
:10533000FEBFFFF7FEBFFFF7FEBFFFF7FEBFFFF7A1
:10534000FEBFFFF7FEBFFFF7FEBFFFF7FEBFFFF791
:10535000FEBFFFF7FEBFFFF7FEBFFFF7FEBFFFF781
:10536000FEBFFFF7FEBFFFF7FEBFFFF7FEBFFFF771
:10537000FEBFFFF7FEBFFFF7FEBFFFF7FEBFFFF761
:10538000FEBFFFF7FEBFFFF7FEBFFFF7FEBFFFF751
:10539000FEBFFFF7FEBFFFF7FEBFFFF7FEBFFFF741
:1053A000FEBFFFF7FEBFFFF7FEBFFFF7FEBFFFF731
:1053B000FEBFFFF7FEBFFFF7FEBFFFF7FEBFFFF721
:1053C000FEBFFFF7FEBFFFF7FEBFFFF7FEBFFFF711
:1053D000FEBFFFF7FEBFFFF7FEBFFFF7FEBFFFF701
:1053E000FEBFFFF7FEBFFFF7FEBFFFF7FEBFFFF7F1
:1053F000FEBFFFF7FEBFFFF7FEBFFFF7FEBFFFF7E1
:10540000FEBFFFF7FEBFF256000190170D0A546968
:105410006D657220506572696F6420456C617073B0
:105420006564200D0A8112AA01610F121009220180
:105430000DF00507093D00A05200080452FF01F2DB
:1054400000A21410010000A40C2144F00217A400D3
:105450000020E82002BD1200082C43AB123C2101C1
:040000050800528D10
:00000001FF
